{
  "contractName": "AuditMonitor",
  "abi": [
    {
      "inputs": [],
      "stateMutability": "nonpayable",
      "type": "constructor"
    },
    {
      "anonymous": false,
      "inputs": [
        {
          "indexed": true,
          "internalType": "uint256",
          "name": "propertyId",
          "type": "uint256"
        },
        {
          "indexed": true,
          "internalType": "address",
          "name": "oldOwner",
          "type": "address"
        },
        {
          "indexed": true,
          "internalType": "address",
          "name": "newOwner",
          "type": "address"
        },
        {
          "indexed": false,
          "internalType": "uint256",
          "name": "timestamp",
          "type": "uint256"
        }
      ],
      "name": "OwnershipTransferred",
      "type": "event"
    },
    {
      "anonymous": false,
      "inputs": [
        {
          "indexed": true,
          "internalType": "uint256",
          "name": "propertyId",
          "type": "uint256"
        },
        {
          "indexed": true,
          "internalType": "address",
          "name": "owner",
          "type": "address"
        },
        {
          "indexed": false,
          "internalType": "uint256",
          "name": "timestamp",
          "type": "uint256"
        }
      ],
      "name": "PropertyAdded",
      "type": "event"
    },
    {
      "anonymous": false,
      "inputs": [
        {
          "indexed": true,
          "internalType": "uint256",
          "name": "propertyId",
          "type": "uint256"
        },
        {
          "indexed": false,
          "internalType": "uint256",
          "name": "timestamp",
          "type": "uint256"
        }
      ],
      "name": "PropertyVerified",
      "type": "event"
    },
    {
      "anonymous": false,
      "inputs": [
        {
          "indexed": true,
          "internalType": "address",
          "name": "userID",
          "type": "address"
        },
        {
          "indexed": false,
          "internalType": "uint256",
          "name": "timestamp",
          "type": "uint256"
        }
      ],
      "name": "RegionalAdminAdded",
      "type": "event"
    },
    {
      "anonymous": false,
      "inputs": [
        {
          "indexed": true,
          "internalType": "address",
          "name": "userID",
          "type": "address"
        },
        {
          "indexed": false,
          "internalType": "uint256",
          "name": "timestamp",
          "type": "uint256"
        }
      ],
      "name": "RegionalAdminRemoved",
      "type": "event"
    },
    {
      "anonymous": false,
      "inputs": [
        {
          "indexed": true,
          "internalType": "address",
          "name": "userID",
          "type": "address"
        },
        {
          "indexed": false,
          "internalType": "uint256",
          "name": "timestamp",
          "type": "uint256"
        }
      ],
      "name": "UserRegistered",
      "type": "event"
    },
    {
      "anonymous": false,
      "inputs": [
        {
          "indexed": true,
          "internalType": "address",
          "name": "userID",
          "type": "address"
        },
        {
          "indexed": false,
          "internalType": "uint256",
          "name": "timestamp",
          "type": "uint256"
        }
      ],
      "name": "UserVerified",
      "type": "event"
    },
    {
      "inputs": [],
      "name": "owner",
      "outputs": [
        {
          "internalType": "address",
          "name": "",
          "type": "address"
        }
      ],
      "stateMutability": "view",
      "type": "function"
    },
    {
      "inputs": [
        {
          "internalType": "address",
          "name": "userID",
          "type": "address"
        }
      ],
      "name": "logUserRegistered",
      "outputs": [],
      "stateMutability": "nonpayable",
      "type": "function"
    },
    {
      "inputs": [
        {
          "internalType": "address",
          "name": "userID",
          "type": "address"
        }
      ],
      "name": "logUserVerified",
      "outputs": [],
      "stateMutability": "nonpayable",
      "type": "function"
    },
    {
      "inputs": [
        {
          "internalType": "address",
          "name": "userID",
          "type": "address"
        }
      ],
      "name": "logRegionalAdminAdded",
      "outputs": [],
      "stateMutability": "nonpayable",
      "type": "function"
    },
    {
      "inputs": [
        {
          "internalType": "address",
          "name": "userID",
          "type": "address"
        }
      ],
      "name": "logRegionalAdminRemoved",
      "outputs": [],
      "stateMutability": "nonpayable",
      "type": "function"
    },
    {
      "inputs": [
        {
          "internalType": "uint256",
          "name": "propertyId",
          "type": "uint256"
        },
        {
          "internalType": "address",
          "name": "ownerAddr",
          "type": "address"
        }
      ],
      "name": "logPropertyAdded",
      "outputs": [],
      "stateMutability": "nonpayable",
      "type": "function"
    },
    {
      "inputs": [
        {
          "internalType": "uint256",
          "name": "propertyId",
          "type": "uint256"
        }
      ],
      "name": "logPropertyVerified",
      "outputs": [],
      "stateMutability": "nonpayable",
      "type": "function"
    },
    {
      "inputs": [
        {
          "internalType": "uint256",
          "name": "propertyId",
          "type": "uint256"
        },
        {
          "internalType": "address",
          "name": "oldOwner",
          "type": "address"
        },
        {
          "internalType": "address",
          "name": "newOwner",
          "type": "address"
        }
      ],
      "name": "logOwnershipTransferred",
      "outputs": [],
      "stateMutability": "nonpayable",
      "type": "function"
    }
  ],
  "bytecode": "0x608060405234801561001057600080fd5b50600080546001600160a01b03191633179055610562806100326000396000f3fe608060405234801561001057600080fd5b50600436106100885760003560e01c80638da5cb5b1161005b5780638da5cb5b146100db578063b7885c1b1461010a578063b8e0188f1461011d578063edbab0e01461013057600080fd5b8063024b29641461008d578063052e092e146100a25780633ac01417146100b55780636cb07b3b146100c8575b600080fd5b6100a061009b366004610436565b610143565b005b6100a06100b036600461046b565b6101b3565b6100a06100c3366004610497565b610225565b6100a06100d63660046104b9565b61028a565b6000546100ee906001600160a01b031681565b6040516001600160a01b03909116815260200160405180910390f35b6100a0610118366004610497565b610307565b6100a061012b366004610497565b61036c565b6100a061013e366004610497565b6103d1565b6000546001600160a01b031633146101765760405162461bcd60e51b815260040161016d906104f5565b60405180910390fd5b807faa15f376ae42096ad6f26d433a9668f6ed7799fc7d92bf8181b42227e15d1962426040516101a891815260200190565b60405180910390a250565b6000546001600160a01b031633146101dd5760405162461bcd60e51b815260040161016d906104f5565b806001600160a01b0316827fb6d8be5059e64702e2c7be877d9f278d0a00e059451566f3d548556ce6e2ec5e4260405161021991815260200190565b60405180910390a35050565b6000546001600160a01b0316331461024f5760405162461bcd60e51b815260040161016d906104f5565b806001600160a01b03167fd46bfc1354071e402bdb1cbc56461435966b573472adfb7a7e1ebf90e6b5f547426040516101a891815260200190565b6000546001600160a01b031633146102b45760405162461bcd60e51b815260040161016d906104f5565b806001600160a01b0316826001600160a01b0316847f06f354ec7b9d2ca4e029f73ccb9119943a48c3295704dd66ca8beda0c7bae33f426040516102fa91815260200190565b60405180910390a4505050565b6000546001600160a01b031633146103315760405162461bcd60e51b815260040161016d906104f5565b806001600160a01b03167f39c9605cf6a4b2deb978c4915f2afdf0b11882285b1958a742ce5cf4f3cfcd36426040516101a891815260200190565b6000546001600160a01b031633146103965760405162461bcd60e51b815260040161016d906104f5565b806001600160a01b03167fe29d35093005f4d575e1003753426b57a7f64378ba73332eef9c6ccc2b8decd6426040516101a891815260200190565b6000546001600160a01b031633146103fb5760405162461bcd60e51b815260040161016d906104f5565b806001600160a01b03167f22b3126528cda4618d13b6945f5e96fe53a5125f386aa591ee89134e2681c621426040516101a891815260200190565b60006020828403121561044857600080fd5b5035919050565b80356001600160a01b038116811461046657600080fd5b919050565b6000806040838503121561047e57600080fd5b8235915061048e6020840161044f565b90509250929050565b6000602082840312156104a957600080fd5b6104b28261044f565b9392505050565b6000806000606084860312156104ce57600080fd5b833592506104de6020850161044f565b91506104ec6040850161044f565b90509250925092565b60208082526018908201527f4f6e6c79206f776e65722063616e2063616c6c2074686973000000000000000060408201526060019056fea264697066735822122024088e268c1f0bd6fcd8d882c0ba5df4ecbe8fa1dcbaac98ed2bb551e20443da64736f6c63430008150033",
  "immutableReferences": {},
  "source": "// SPDX-License-Identifier: Unlicensed\r\npragma solidity ^0.8.21;\r\n\r\ncontract AuditMonitor {\r\n    address public owner;\r\n\r\n    event UserRegistered(address indexed userID, uint256 timestamp);\r\n    event UserVerified(address indexed userID, uint256 timestamp);\r\n    event RegionalAdminAdded(address indexed userID, uint256 timestamp);\r\n    event RegionalAdminRemoved(address indexed userID, uint256 timestamp);\r\n    event PropertyAdded(uint256 indexed propertyId, address indexed owner, uint256 timestamp);\r\n    event PropertyVerified(uint256 indexed propertyId, uint256 timestamp);\r\n    event OwnershipTransferred(uint256 indexed propertyId, address indexed oldOwner, address indexed newOwner, uint256 timestamp);\r\n    \r\n    modifier onlyOwner() {\r\n        require(msg.sender == owner, \"Only owner can call this\");\r\n        _;\r\n    }\r\n\r\n    constructor() {\r\n        owner = msg.sender;\r\n    }\r\n\r\n    function logUserRegistered(address userID) external onlyOwner {\r\n        emit UserRegistered(userID, block.timestamp);\r\n    }\r\n\r\n    function logUserVerified(address userID) external onlyOwner {\r\n        emit UserVerified(userID, block.timestamp);\r\n    }\r\n\r\n    function logRegionalAdminAdded(address userID) external onlyOwner {\r\n        emit RegionalAdminAdded(userID, block.timestamp);\r\n    }\r\n    \r\n    function logRegionalAdminRemoved(address userID) external onlyOwner {\r\n        emit RegionalAdminRemoved(userID, block.timestamp);\r\n    }\r\n\r\n    function logPropertyAdded(uint256 propertyId, address ownerAddr) external onlyOwner {\r\n        emit PropertyAdded(propertyId, ownerAddr, block.timestamp);\r\n    }\r\n\r\n    function logPropertyVerified(uint256 propertyId) external onlyOwner {\r\n        emit PropertyVerified(propertyId, block.timestamp);\r\n    }\r\n\r\n    function logOwnershipTransferred(uint256 propertyId, address oldOwner, address newOwner) external onlyOwner {\r\n        emit OwnershipTransferred(propertyId, oldOwner, newOwner, block.timestamp);\r\n    }\r\n}",
  "sourcePath": "C:\\Users\\Shalini Patel\\Desktop\\College\\Capstone Project\\property-ledger\\contracts\\AuditMonitor.sol",
  "compiler": {
    "name": "solc",
    "version": "0.8.21+commit.d9974bed.Emscripten.clang"
  },
  "schemaVersion": "3.4.16",
  "updatedAt": "2025-11-13T20:30:53.073Z",
  "devdoc": {
    "kind": "dev",
    "methods": {},
    "version": 1
  },
  "userdoc": {
    "kind": "user",
    "methods": {},
    "version": 1
  }
}