{
  "contractName": "PropertyRegistry",
  "abi": [
    {
      "inputs": [],
      "stateMutability": "nonpayable",
      "type": "constructor"
    },
    {
      "anonymous": false,
      "inputs": [
        {
          "indexed": true,
          "internalType": "address",
          "name": "owner",
          "type": "address"
        },
        {
          "indexed": true,
          "internalType": "uint256",
          "name": "propertyId",
          "type": "uint256"
        }
      ],
      "name": "LandAdded",
      "type": "event"
    },
    {
      "inputs": [],
      "name": "propertiesContract",
      "outputs": [
        {
          "internalType": "contract PropertyLedger",
          "name": "",
          "type": "address"
        }
      ],
      "stateMutability": "view",
      "type": "function",
      "constant": true
    },
    {
      "inputs": [
        {
          "internalType": "uint256",
          "name": "",
          "type": "uint256"
        }
      ],
      "name": "revenueDeptIdToEmployee",
      "outputs": [
        {
          "internalType": "address",
          "name": "",
          "type": "address"
        }
      ],
      "stateMutability": "view",
      "type": "function",
      "constant": true
    },
    {
      "inputs": [
        {
          "internalType": "address",
          "name": "contractAddress",
          "type": "address"
        }
      ],
      "name": "setTransferOwnershipContractAddress",
      "outputs": [],
      "stateMutability": "nonpayable",
      "type": "function"
    },
    {
      "inputs": [
        {
          "internalType": "uint256",
          "name": "_locationId",
          "type": "uint256"
        },
        {
          "internalType": "uint256",
          "name": "_revenueDepartmentId",
          "type": "uint256"
        },
        {
          "internalType": "uint256",
          "name": "_surveyNumber",
          "type": "uint256"
        },
        {
          "internalType": "uint256",
          "name": "_area",
          "type": "uint256"
        }
      ],
      "name": "addLand",
      "outputs": [
        {
          "internalType": "uint256",
          "name": "",
          "type": "uint256"
        }
      ],
      "stateMutability": "nonpayable",
      "type": "function"
    },
    {
      "inputs": [
        {
          "internalType": "uint256",
          "name": "_propertyId",
          "type": "uint256"
        }
      ],
      "name": "getPropertyDetails",
      "outputs": [
        {
          "components": [
            {
              "internalType": "uint256",
              "name": "propertyId",
              "type": "uint256"
            },
            {
              "internalType": "address",
              "name": "owner",
              "type": "address"
            },
            {
              "internalType": "address",
              "name": "admin",
              "type": "address"
            },
            {
              "internalType": "uint256",
              "name": "revenueDepartmentId",
              "type": "uint256"
            },
            {
              "internalType": "uint256",
              "name": "locationId",
              "type": "uint256"
            },
            {
              "internalType": "uint256",
              "name": "surveyNumber",
              "type": "uint256"
            },
            {
              "internalType": "uint256",
              "name": "index",
              "type": "uint256"
            },
            {
              "internalType": "uint256",
              "name": "area",
              "type": "uint256"
            },
            {
              "internalType": "uint256",
              "name": "marketValue",
              "type": "uint256"
            },
            {
              "internalType": "uint256",
              "name": "noOfRequests",
              "type": "uint256"
            },
            {
              "internalType": "enum PropertyLedger.StateOfProperty",
              "name": "state",
              "type": "uint8"
            }
          ],
          "internalType": "struct PropertyLedger.Land",
          "name": "",
          "type": "tuple"
        }
      ],
      "stateMutability": "view",
      "type": "function",
      "constant": true
    },
    {
      "inputs": [
        {
          "internalType": "address",
          "name": "_owner",
          "type": "address"
        }
      ],
      "name": "getPropertiesOfOwner",
      "outputs": [
        {
          "components": [
            {
              "internalType": "uint256",
              "name": "propertyId",
              "type": "uint256"
            },
            {
              "internalType": "address",
              "name": "owner",
              "type": "address"
            },
            {
              "internalType": "address",
              "name": "admin",
              "type": "address"
            },
            {
              "internalType": "uint256",
              "name": "revenueDepartmentId",
              "type": "uint256"
            },
            {
              "internalType": "uint256",
              "name": "locationId",
              "type": "uint256"
            },
            {
              "internalType": "uint256",
              "name": "surveyNumber",
              "type": "uint256"
            },
            {
              "internalType": "uint256",
              "name": "index",
              "type": "uint256"
            },
            {
              "internalType": "uint256",
              "name": "area",
              "type": "uint256"
            },
            {
              "internalType": "uint256",
              "name": "marketValue",
              "type": "uint256"
            },
            {
              "internalType": "uint256",
              "name": "noOfRequests",
              "type": "uint256"
            },
            {
              "internalType": "enum PropertyLedger.StateOfProperty",
              "name": "state",
              "type": "uint8"
            }
          ],
          "internalType": "struct PropertyLedger.Land[]",
          "name": "",
          "type": "tuple[]"
        }
      ],
      "stateMutability": "view",
      "type": "function",
      "constant": true
    },
    {
      "inputs": [
        {
          "internalType": "uint256",
          "name": "_revenueDeptId",
          "type": "uint256"
        }
      ],
      "name": "getPropertiesByRevenueDeptId",
      "outputs": [
        {
          "components": [
            {
              "internalType": "uint256",
              "name": "propertyId",
              "type": "uint256"
            },
            {
              "internalType": "address",
              "name": "owner",
              "type": "address"
            },
            {
              "internalType": "address",
              "name": "admin",
              "type": "address"
            },
            {
              "internalType": "uint256",
              "name": "revenueDepartmentId",
              "type": "uint256"
            },
            {
              "internalType": "uint256",
              "name": "locationId",
              "type": "uint256"
            },
            {
              "internalType": "uint256",
              "name": "surveyNumber",
              "type": "uint256"
            },
            {
              "internalType": "uint256",
              "name": "index",
              "type": "uint256"
            },
            {
              "internalType": "uint256",
              "name": "area",
              "type": "uint256"
            },
            {
              "internalType": "uint256",
              "name": "marketValue",
              "type": "uint256"
            },
            {
              "internalType": "uint256",
              "name": "noOfRequests",
              "type": "uint256"
            },
            {
              "internalType": "enum PropertyLedger.StateOfProperty",
              "name": "state",
              "type": "uint8"
            }
          ],
          "internalType": "struct PropertyLedger.Land[]",
          "name": "",
          "type": "tuple[]"
        }
      ],
      "stateMutability": "view",
      "type": "function",
      "constant": true
    },
    {
      "inputs": [
        {
          "internalType": "uint256",
          "name": "revenueDeptId",
          "type": "uint256"
        },
        {
          "internalType": "address",
          "name": "employeeAddress",
          "type": "address"
        }
      ],
      "name": "mapRevenueDeptIdToEmployee",
      "outputs": [],
      "stateMutability": "nonpayable",
      "type": "function"
    },
    {
      "inputs": [
        {
          "internalType": "uint256",
          "name": "revenueDeptId",
          "type": "uint256"
        }
      ],
      "name": "getEmployeeByRevenueDept",
      "outputs": [
        {
          "internalType": "address",
          "name": "",
          "type": "address"
        }
      ],
      "stateMutability": "view",
      "type": "function",
      "constant": true
    },
    {
      "inputs": [],
      "name": "getTotalProperties",
      "outputs": [
        {
          "internalType": "uint256",
          "name": "",
          "type": "uint256"
        }
      ],
      "stateMutability": "view",
      "type": "function",
      "constant": true
    },
    {
      "inputs": [],
      "name": "getAllProperties",
      "outputs": [
        {
          "components": [
            {
              "internalType": "uint256",
              "name": "propertyId",
              "type": "uint256"
            },
            {
              "internalType": "address",
              "name": "owner",
              "type": "address"
            },
            {
              "internalType": "address",
              "name": "admin",
              "type": "address"
            },
            {
              "internalType": "uint256",
              "name": "revenueDepartmentId",
              "type": "uint256"
            },
            {
              "internalType": "uint256",
              "name": "locationId",
              "type": "uint256"
            },
            {
              "internalType": "uint256",
              "name": "surveyNumber",
              "type": "uint256"
            },
            {
              "internalType": "uint256",
              "name": "index",
              "type": "uint256"
            },
            {
              "internalType": "uint256",
              "name": "area",
              "type": "uint256"
            },
            {
              "internalType": "uint256",
              "name": "marketValue",
              "type": "uint256"
            },
            {
              "internalType": "uint256",
              "name": "noOfRequests",
              "type": "uint256"
            },
            {
              "internalType": "enum PropertyLedger.StateOfProperty",
              "name": "state",
              "type": "uint8"
            }
          ],
          "internalType": "struct PropertyLedger.Land[]",
          "name": "",
          "type": "tuple[]"
        }
      ],
      "stateMutability": "view",
      "type": "function",
      "constant": true
    },
    {
      "inputs": [],
      "name": "getPendingPropertiesForVerification",
      "outputs": [
        {
          "components": [
            {
              "internalType": "uint256",
              "name": "propertyId",
              "type": "uint256"
            },
            {
              "internalType": "address",
              "name": "owner",
              "type": "address"
            },
            {
              "internalType": "address",
              "name": "admin",
              "type": "address"
            },
            {
              "internalType": "uint256",
              "name": "revenueDepartmentId",
              "type": "uint256"
            },
            {
              "internalType": "uint256",
              "name": "locationId",
              "type": "uint256"
            },
            {
              "internalType": "uint256",
              "name": "surveyNumber",
              "type": "uint256"
            },
            {
              "internalType": "uint256",
              "name": "index",
              "type": "uint256"
            },
            {
              "internalType": "uint256",
              "name": "area",
              "type": "uint256"
            },
            {
              "internalType": "uint256",
              "name": "marketValue",
              "type": "uint256"
            },
            {
              "internalType": "uint256",
              "name": "noOfRequests",
              "type": "uint256"
            },
            {
              "internalType": "enum PropertyLedger.StateOfProperty",
              "name": "state",
              "type": "uint8"
            }
          ],
          "internalType": "struct PropertyLedger.Land[]",
          "name": "",
          "type": "tuple[]"
        }
      ],
      "stateMutability": "view",
      "type": "function",
      "constant": true
    },
    {
      "inputs": [],
      "name": "getVerifiedProperties",
      "outputs": [
        {
          "components": [
            {
              "internalType": "uint256",
              "name": "propertyId",
              "type": "uint256"
            },
            {
              "internalType": "address",
              "name": "owner",
              "type": "address"
            },
            {
              "internalType": "address",
              "name": "admin",
              "type": "address"
            },
            {
              "internalType": "uint256",
              "name": "revenueDepartmentId",
              "type": "uint256"
            },
            {
              "internalType": "uint256",
              "name": "locationId",
              "type": "uint256"
            },
            {
              "internalType": "uint256",
              "name": "surveyNumber",
              "type": "uint256"
            },
            {
              "internalType": "uint256",
              "name": "index",
              "type": "uint256"
            },
            {
              "internalType": "uint256",
              "name": "area",
              "type": "uint256"
            },
            {
              "internalType": "uint256",
              "name": "marketValue",
              "type": "uint256"
            },
            {
              "internalType": "uint256",
              "name": "noOfRequests",
              "type": "uint256"
            },
            {
              "internalType": "enum PropertyLedger.StateOfProperty",
              "name": "state",
              "type": "uint8"
            }
          ],
          "internalType": "struct PropertyLedger.Land[]",
          "name": "",
          "type": "tuple[]"
        }
      ],
      "stateMutability": "view",
      "type": "function",
      "constant": true
    },
    {
      "inputs": [],
      "name": "getOnSaleProperties",
      "outputs": [
        {
          "components": [
            {
              "internalType": "uint256",
              "name": "propertyId",
              "type": "uint256"
            },
            {
              "internalType": "address",
              "name": "owner",
              "type": "address"
            },
            {
              "internalType": "address",
              "name": "admin",
              "type": "address"
            },
            {
              "internalType": "uint256",
              "name": "revenueDepartmentId",
              "type": "uint256"
            },
            {
              "internalType": "uint256",
              "name": "locationId",
              "type": "uint256"
            },
            {
              "internalType": "uint256",
              "name": "surveyNumber",
              "type": "uint256"
            },
            {
              "internalType": "uint256",
              "name": "index",
              "type": "uint256"
            },
            {
              "internalType": "uint256",
              "name": "area",
              "type": "uint256"
            },
            {
              "internalType": "uint256",
              "name": "marketValue",
              "type": "uint256"
            },
            {
              "internalType": "uint256",
              "name": "noOfRequests",
              "type": "uint256"
            },
            {
              "internalType": "enum PropertyLedger.StateOfProperty",
              "name": "state",
              "type": "uint8"
            }
          ],
          "internalType": "struct PropertyLedger.Land[]",
          "name": "",
          "type": "tuple[]"
        }
      ],
      "stateMutability": "view",
      "type": "function",
      "constant": true
    },
    {
      "inputs": [],
      "name": "getOnSalePropertiesCount",
      "outputs": [
        {
          "internalType": "uint256",
          "name": "",
          "type": "uint256"
        }
      ],
      "stateMutability": "view",
      "type": "function",
      "constant": true
    },
    {
      "inputs": [
        {
          "internalType": "uint256",
          "name": "_propertyId",
          "type": "uint256"
        }
      ],
      "name": "verifyProperty",
      "outputs": [],
      "stateMutability": "nonpayable",
      "type": "function"
    },
    {
      "inputs": [
        {
          "internalType": "uint256",
          "name": "_propertyId",
          "type": "uint256"
        }
      ],
      "name": "rejectProperty",
      "outputs": [],
      "stateMutability": "nonpayable",
      "type": "function"
    },
    {
      "inputs": [
        {
          "internalType": "uint256",
          "name": "_propertyId",
          "type": "uint256"
        },
        {
          "internalType": "uint256",
          "name": "requestId",
          "type": "uint256"
        },
        {
          "internalType": "address",
          "name": "newOwner",
          "type": "address"
        }
      ],
      "name": "transferOwnership",
      "outputs": [],
      "stateMutability": "nonpayable",
      "type": "function"
    },
    {
      "inputs": [],
      "name": "getPropertiesContract",
      "outputs": [
        {
          "internalType": "address",
          "name": "",
          "type": "address"
        }
      ],
      "stateMutability": "view",
      "type": "function",
      "constant": true
    }
  ],
  "bytecode": "0x60806040526001805460ff60a01b1916905534801561001d57600080fd5b50600080546001600160a01b03191633179055600180546001600160a81b031916905560405161004c9061008e565b604051809103906000f080158015610068573d6000803e3d6000fd5b50600280546001600160a01b0319166001600160a01b039290921691909117905561009b565b61106c80611ae883390190565b611a3e806100aa6000396000f3fe608060405234801561001057600080fd5b50600436106101215760003560e01c80634212a8ae116100ad578063b9fe2ff411610071578063b9fe2ff414610240578063bc45a6e614610251578063ddef358d14610259578063e836a1d51461026c578063e90b6c721461029557600080fd5b80634212a8ae146101f757806358efa66a1461020a57806363bb181b14610212578063677ff9421461021a578063a6262ba31461022d57600080fd5b80631811ade3116100f45780631811ade31461018957806327983fcf1461019c57806329dc139a146101af5780633aeb6d76146101c45780633d51402c146101ef57600080fd5b806301da8a48146101265780630cf36e571461014c578063126dbe431461016157806317aaf5ed14610181575b600080fd5b6101396101343660046115f0565b6102be565b6040519081526020015b60405180910390f35b61015f61015a36600461163a565b6103fe565b005b61017461016f36600461165e565b610484565b604051610143919061174c565b600654610139565b61015f61019736600461175b565b610500565b61015f6101aa36600461165e565b61074d565b6101b7610803565b6040516101439190611794565b6002546101d7906001600160a01b031681565b6040516001600160a01b039091168152602001610143565b6101b7610a4d565b61015f61020536600461165e565b610b82565b6101b7610bf8565b610139610e39565b6101b761022836600461163a565b610f1e565b61015f61023b3660046117e3565b6110b1565b6002546001600160a01b03166101d7565b6101b7611139565b6101b761026736600461165e565b61137a565b6101d761027a36600461165e565b6000908152600560205260409020546001600160a01b031690565b6101d76102a336600461165e565b6005602052600090815260409020546001600160a01b031681565b600254604051630240258960e01b8152600481018690526024810184905260448101859052336064820181905260848201849052600092909183916001600160a01b03169063024025899060a4016020604051808303816000875af115801561032b573d6000803e3d6000fd5b505050506040513d601f19601f8201168201806040525081019061034f9190611813565b6006805460018181019092557ff652222313e28459528d920b65115c16c04f3efc82aaedc97be59f3f377c0d3f018290556001600160a01b038416600081815260036020908152604080832080548087018255908452828420018690558b8352600482528083208054958601815583529082209093018490559151929350839290917f6273d4d594c3e9579a60a0212122fd582600ec6505e091f5863299f8c7c17e4f91a39695505050505050565b600154600160a01b900460ff161561045d5760405162461bcd60e51b815260206004820152601960248201527f416c6c6f776564204f6e6c79204f6e636520746f2063616c6c0000000000000060448201526064015b60405180910390fd5b600180546001600160a81b0319166001600160a01b0390921691909117600160a01b179055565b61048c611574565b60025460405163fbb62fe760e01b8152600481018490526001600160a01b039091169063fbb62fe79060240161016060405180830381865afa1580156104d6573d6000803e3d6000fd5b505050506040513d601f19601f820116820180604052508101906104fa9190611899565b92915050565b6001546001600160a01b0316331461056c5760405162461bcd60e51b815260206004820152602960248201527f4f6e6c79205472616e736665724f664f776e65727368697020636f6e747261636044820152681d08185b1b1bddd95960ba1b6064820152608401610454565b60025460405163fbb62fe760e01b8152600481018590526000916001600160a01b03169063fbb62fe79060240161016060405180830381865afa1580156105b7573d6000803e3d6000fd5b505050506040513d601f19601f820116820180604052508101906105db9190611899565b6020908101516001600160a01b0381166000908152600390925260408220909250905b81548110156106b2578582828154811061061a5761061a61193d565b9060005260206000200154036106a0578154829061063a90600190611969565b8154811061064a5761064a61193d565b90600052602060002001548282815481106106675761066761193d565b9060005260206000200181905550818054806106855761068561197c565b600190038181906000526020600020016000905590556106b2565b806106aa81611992565b9150506105fe565b506001600160a01b038381166000818152600360209081526040808320805460018101825590845291909220018890556002549051631811ade360e01b81526004810189905260248101889052604481019290925290911690631811ade390606401600060405180830381600087803b15801561072e57600080fd5b505af1158015610742573d6000803e3d6000fd5b505050505050505050565b610756816114fb565b6000818152600560205260409020546001600160a01b0316331461078c5760405162461bcd60e51b8152600401610454906119ab565b60025460405163bcee5a9d60e01b81526004810184905233602482015260006044820152600160648201526001600160a01b039091169063bcee5a9d906084015b600060405180830381600087803b1580156107e757600080fd5b505af11580156107fb573d6000803e3d6000fd5b505050505050565b60606000805b6006548110156108e957600254600680546000926001600160a01b03169163fbb62fe7918590811061083d5761083d61193d565b90600052602060002001546040518263ffffffff1660e01b815260040161086691815260200190565b61016060405180830381865afa158015610884573d6000803e3d6000fd5b505050506040513d601f19601f820116820180604052508101906108a89190611899565b9050600081610140015160058111156108c3576108c3611677565b036108d657826108d281611992565b9350505b50806108e181611992565b915050610809565b5060008167ffffffffffffffff8111156109055761090561182c565b60405190808252806020026020018201604052801561093e57816020015b61092b611574565b8152602001906001900390816109235790505b5090506000805b600654811015610a4457600254600680546000926001600160a01b03169163fbb62fe791859081106109795761097961193d565b90600052602060002001546040518263ffffffff1660e01b81526004016109a291815260200190565b61016060405180830381865afa1580156109c0573d6000803e3d6000fd5b505050506040513d601f19601f820116820180604052508101906109e49190611899565b9050600081610140015160058111156109ff576109ff611677565b03610a315780848481518110610a1757610a1761193d565b60200260200101819052508280610a2d90611992565b9350505b5080610a3c81611992565b915050610945565b50909392505050565b60065460609060009067ffffffffffffffff811115610a6e57610a6e61182c565b604051908082528060200260200182016040528015610aa757816020015b610a94611574565b815260200190600190039081610a8c5790505b50905060005b600654811015610b7c57600254600680546001600160a01b039092169163fbb62fe7919084908110610ae157610ae161193d565b90600052602060002001546040518263ffffffff1660e01b8152600401610b0a91815260200190565b61016060405180830381865afa158015610b28573d6000803e3d6000fd5b505050506040513d601f19601f82011682018060405250810190610b4c9190611899565b828281518110610b5e57610b5e61193d565b60200260200101819052508080610b7490611992565b915050610aad565b50919050565b610b8b816114fb565b6000818152600560205260409020546001600160a01b03163314610bc15760405162461bcd60e51b8152600401610454906119ab565b600254604051630a9e3cf760e31b8152600481018490523360248201526001600160a01b03909116906354f1e7b8906044016107cd565b60606000805b600654811015610cde57600254600680546000926001600160a01b03169163fbb62fe79185908110610c3257610c3261193d565b90600052602060002001546040518263ffffffff1660e01b8152600401610c5b91815260200190565b61016060405180830381865afa158015610c79573d6000803e3d6000fd5b505050506040513d601f19601f82011682018060405250810190610c9d9190611899565b905060018161014001516005811115610cb857610cb8611677565b03610ccb5782610cc781611992565b9350505b5080610cd681611992565b915050610bfe565b5060008167ffffffffffffffff811115610cfa57610cfa61182c565b604051908082528060200260200182016040528015610d3357816020015b610d20611574565b815260200190600190039081610d185790505b5090506000805b600654811015610a4457600254600680546000926001600160a01b03169163fbb62fe79185908110610d6e57610d6e61193d565b90600052602060002001546040518263ffffffff1660e01b8152600401610d9791815260200190565b61016060405180830381865afa158015610db5573d6000803e3d6000fd5b505050506040513d601f19601f82011682018060405250810190610dd99190611899565b905060018161014001516005811115610df457610df4611677565b03610e265780848481518110610e0c57610e0c61193d565b60200260200101819052508280610e2290611992565b9350505b5080610e3181611992565b915050610d3a565b600080805b600654811015610b7c57600254600680546000926001600160a01b03169163fbb62fe79185908110610e7257610e7261193d565b90600052602060002001546040518263ffffffff1660e01b8152600401610e9b91815260200190565b61016060405180830381865afa158015610eb9573d6000803e3d6000fd5b505050506040513d601f19601f82011682018060405250810190610edd9190611899565b905060028161014001516005811115610ef857610ef8611677565b03610f0b5782610f0781611992565b9350505b5080610f1681611992565b915050610e3e565b6001600160a01b0381166000908152600360209081526040808320805482518185028101850190935280835260609493830182828015610f7d57602002820191906000526020600020905b815481526020019060010190808311610f69575b505050505090506000815167ffffffffffffffff811115610fa057610fa061182c565b604051908082528060200260200182016040528015610fd957816020015b610fc6611574565b815260200190600190039081610fbe5790505b50905060005b82518110156110a95760025483516001600160a01b039091169063fbb62fe7908590849081106110115761101161193d565b60200260200101516040518263ffffffff1660e01b815260040161103791815260200190565b61016060405180830381865afa158015611055573d6000803e3d6000fd5b505050506040513d601f19601f820116820180604052508101906110799190611899565b82828151811061108b5761108b61193d565b602002602001018190525080806110a190611992565b915050610fdf565b509392505050565b6000546001600160a01b0316331461110b5760405162461bcd60e51b815260206004820152601760248201527f43616c6c6572206973206e6f7420746865206f776e65720000000000000000006044820152606401610454565b60009182526005602052604090912080546001600160a01b0319166001600160a01b03909216919091179055565b60606000805b60065481101561121f57600254600680546000926001600160a01b03169163fbb62fe791859081106111735761117361193d565b90600052602060002001546040518263ffffffff1660e01b815260040161119c91815260200190565b61016060405180830381865afa1580156111ba573d6000803e3d6000fd5b505050506040513d601f19601f820116820180604052508101906111de9190611899565b9050600281610140015160058111156111f9576111f9611677565b0361120c578261120881611992565b9350505b508061121781611992565b91505061113f565b5060008167ffffffffffffffff81111561123b5761123b61182c565b60405190808252806020026020018201604052801561127457816020015b611261611574565b8152602001906001900390816112595790505b5090506000805b600654811015610a4457600254600680546000926001600160a01b03169163fbb62fe791859081106112af576112af61193d565b90600052602060002001546040518263ffffffff1660e01b81526004016112d891815260200190565b61016060405180830381865afa1580156112f6573d6000803e3d6000fd5b505050506040513d601f19601f8201168201806040525081019061131a9190611899565b90506002816101400151600581111561133557611335611677565b03611367578084848151811061134d5761134d61193d565b6020026020010181905250828061136390611992565b9350505b508061137281611992565b91505061127b565b60008181526004602090815260408083208054825181850281018501909352808352606094938301828280156113cf57602002820191906000526020600020905b8154815260200190600101908083116113bb575b505050505090506000815167ffffffffffffffff8111156113f2576113f261182c565b60405190808252806020026020018201604052801561142b57816020015b611418611574565b8152602001906001900390816114105790505b50905060005b82518110156110a95760025483516001600160a01b039091169063fbb62fe7908590849081106114635761146361193d565b60200260200101516040518263ffffffff1660e01b815260040161148991815260200190565b61016060405180830381865afa1580156114a7573d6000803e3d6000fd5b505050506040513d601f19601f820116820180604052508101906114cb9190611899565b8282815181106114dd576114dd61193d565b602002602001018190525080806114f390611992565b915050611431565b60025460405163fbb62fe760e01b8152600481018390526000916001600160a01b03169063fbb62fe79060240161016060405180830381865afa158015611546573d6000803e3d6000fd5b505050506040513d601f19601f8201168201806040525081019061156a9190611899565b6060015192915050565b6040518061016001604052806000815260200160006001600160a01b0316815260200160006001600160a01b0316815260200160008152602001600081526020016000815260200160008152602001600081526020016000815260200160008152602001600060058111156115eb576115eb611677565b905290565b6000806000806080858703121561160657600080fd5b5050823594602084013594506040840135936060013592509050565b6001600160a01b038116811461163757600080fd5b50565b60006020828403121561164c57600080fd5b813561165781611622565b9392505050565b60006020828403121561167057600080fd5b5035919050565b634e487b7160e01b600052602160045260246000fd5b600681106116ab57634e487b7160e01b600052602160045260246000fd5b9052565b8051825260208101516116cd60208401826001600160a01b03169052565b5060408101516116e860408401826001600160a01b03169052565b50606081015160608301526080810151608083015260a081015160a083015260c081015160c083015260e081015160e0830152610100808201518184015250610120808201518184015250610140808201516117468285018261168d565b50505050565b61016081016104fa82846116af565b60008060006060848603121561177057600080fd5b8335925060208401359150604084013561178981611622565b809150509250925092565b6020808252825182820181905260009190848201906040850190845b818110156117d7576117c38385516116af565b9284019261016092909201916001016117b0565b50909695505050505050565b600080604083850312156117f657600080fd5b82359150602083013561180881611622565b809150509250929050565b60006020828403121561182557600080fd5b5051919050565b634e487b7160e01b600052604160045260246000fd5b604051610160810167ffffffffffffffff8111828210171561187457634e487b7160e01b600052604160045260246000fd5b60405290565b805161188581611622565b919050565b80516006811061188557600080fd5b600061016082840312156118ac57600080fd5b6118b4611842565b825181526118c46020840161187a565b60208201526118d56040840161187a565b6040820152606083015160608201526080830151608082015260a083015160a082015260c083015160c082015260e083015160e082015261010080840151818301525061012080840151818301525061014061193281850161188a565b908201529392505050565b634e487b7160e01b600052603260045260246000fd5b634e487b7160e01b600052601160045260246000fd5b818103818111156104fa576104fa611953565b634e487b7160e01b600052603160045260246000fd5b6000600182016119a4576119a4611953565b5060010190565b6020808252603c908201527f4f6e6c792074686520726576656e7565206465706172746d656e7420656d706c60408201527f6f7965652063616e2063616c6c20746869732066756e6374696f6e2e0000000060608201526080019056fea26469706673582212206cac92ec7461e8c590373df28e1299866cd76bd16d9d834dfe20700e39435e3864736f6c63430008150033608060405234801561001057600080fd5b5061104c806100206000396000f3fe608060405234801561001057600080fd5b50600436106100a95760003560e01c8063635f554d11610071578063635f554d14610122578063813d2ad81461018b578063af506dbd1461019e578063bcee5a9d146101b1578063e261f1e5146101c4578063fbb62fe71461025157600080fd5b806302402589146100ae57806311e6bceb146100d45780631811ade3146100e95780632ba57b9c146100fc57806354f1e7b81461010f575b600080fd5b6100c16100bc366004610c4c565b610271565b6040519081526020015b60405180910390f35b6100e76100e2366004610c93565b6102f6565b005b6100e76100f7366004610d19565b6103c6565b6100c161010a366004610d4e565b6105ad565b6100e761011d366004610d83565b610722565b61017a610130366004610daf565b600160208181526000938452604080852090915291835291208054918101546002909101546001600160a01b039092169160ff808216916101008104821691620100009091041685565b6040516100cb959493929190610e09565b6100e7610199366004610d83565b610792565b6100e76101ac366004610d19565b6108ce565b6100e76101bf366004610e47565b6109e4565b61023a6101d2366004610e94565b600060208190529081526040902080546001820154600283015460038401546004850154600586015460068701546007880154600889015460098a0154600a909a015498996001600160a01b0398891699989097169795969495939492939192909160ff168b565b6040516100cb9b9a99989796959493929190610ead565b61026461025f366004610e94565b610ae3565b6040516100cb9190610f1d565b600280546000918261028283610fc2565b9091555050600280546000818152602081905260408120918255600382019690965560048101979097556005870195909555506001850180546001600160a01b0319166001600160a01b0393909316929092179091556007840155600a8301805460ff191690556009909201919091555490565b600089815260208190526040812054900361032c5760405162461bcd60e51b815260040161032390610fe9565b60405180910390fd5b600089815260208190526040902060038101899055600481018890556005808201889055600180830180546001600160a01b03808b166001600160a01b031992831617909255600785018990556002850180549289169290911691909117905560088301859055600a830180548593919260ff199091169184908111156103b5576103b5610dd1565b021790555050505050505050505050565b600083815260208190526040812080549091036103f55760405162461bcd60e51b815260040161032390610fe9565b600083118015610409575080600901548311155b6104475760405162461bcd60e51b815260206004820152600f60248201526e125b9d985b1a59081c995c5d595cdd608a1b6044820152606401610323565b60008481526001602090815260408083208684529091529020600281015460ff166104bf5760405162461bcd60e51b815260206004820152602260248201527f4f776e657220686173206e6f7420617070726f766564207468652072657175656044820152611cdd60f21b6064820152608401610323565b6004600282015462010000900460ff1660058111156104e0576104e0610dd1565b148061050a57506005600282015462010000900460ff16600581111561050857610508610dd1565b145b6105565760405162461bcd60e51b815260206004820152601e60248201527f52657175657374206e6f7420726561647920666f72207472616e7366657200006044820152606401610323565b600182810180546001600160a01b0319166001600160a01b038616179055600a8301805460ff1916828002179055506002810180546001919062ff0000191662010000830217905550506000600890910155505050565b6000838152602081905260408120805482036105db5760405162461bcd60e51b815260040161032390610fe9565b6002600a82015460ff1660058111156105f6576105f6610dd1565b1461063b5760405162461bcd60e51b815260206004820152601560248201527450726f7065727479206e6f7420666f722073616c6560581b6044820152606401610323565b60098101805490600061064d83610fc2565b90915550506040805160a0810182526001600160a01b03868116825260208083018781526000848601818152606086018281526003608088019081528d8452600180875289852060098c01548652909652979092208651815496166001600160a01b031990961695909517855591519284019290925551600283018054925115156101000261ff00199215159290921661ffff1990931692909217178082559351929391929162ff000019166201000083600581111561070f5761070f610dd1565b0217905550505060090154949350505050565b600082815260208190526040812054900361074f5760405162461bcd60e51b815260040161032390610fe9565b60008281526020819052604090206002810180546001600160a01b0319166001600160a01b038416179055600a0180546001919060ff1916828002179055505050565b60008281526020819052604081205490036107bf5760405162461bcd60e51b815260040161032390610fe9565b6000828152602081905260409020600101546001600160a01b0382811691161461082b5760405162461bcd60e51b815260206004820152601a60248201527f4f6e6c79206f776e65722063616e2063616e63656c2073616c650000000000006044820152606401610323565b60026000838152602081905260409020600a015460ff16600581111561085357610853610dd1565b146108aa5760405162461bcd60e51b815260206004820152602160248201527f50726f7065727479206973206e6f742063757272656e746c79206f6e2073616c6044820152606560f81b6064820152608401610323565b506000908152602081905260408120600a8101805460ff1916600117905560080155565b600083815260208190526040812080549091036108fd5760405162461bcd60e51b815260040161032390610fe9565b60018101546001600160a01b038381169116146109555760405162461bcd60e51b81526020600482015260166024820152754f6e6c79206f776e65722063616e20617070726f766560501b6044820152606401610323565b806009015483111561099b5760405162461bcd60e51b815260206004820152600f60248201526e125b9d985b1a59081c995c5d595cdd608a1b6044820152606401610323565b6000848152600160208181526040808420878552909152909120600201805462ff00ff191662040001179055600a8201805460049260ff1990911690835b021790555050505050565b6000848152602081905260408120549003610a115760405162461bcd60e51b815260040161032390610fe9565b6000848152602081905260409020600101546001600160a01b03848116911614610a875760405162461bcd60e51b815260206004820152602160248201527f4f6e6c79206f776e65722063616e206d6f646966792073616c652073746174756044820152607360f81b6064820152608401610323565b8015610ab3576000848152602081905260408120600a8101805460ff1916600117905560080155610add565b600084815260208190526040902060088101839055600a0180546002919060ff19166001836109d9565b50505050565b610aeb610bb4565b600082815260208181526040918290208251610160810184528154815260018201546001600160a01b0390811693820193909352600282015490921692820192909252600382015460608201526004820154608082015260058083015460a0830152600683015460c0830152600783015460e083015260088301546101008301526009830154610120830152600a83015491929161014084019160ff90911690811115610b9a57610b9a610dd1565b6005811115610bab57610bab610dd1565b90525092915050565b6040518061016001604052806000815260200160006001600160a01b0316815260200160006001600160a01b031681526020016000815260200160008152602001600081526020016000815260200160008152602001600081526020016000815260200160006005811115610c2b57610c2b610dd1565b905290565b80356001600160a01b0381168114610c4757600080fd5b919050565b600080600080600060a08688031215610c6457600080fd5b853594506020860135935060408601359250610c8260608701610c30565b949793965091946080013592915050565b60008060008060008060008060006101208a8c031215610cb257600080fd5b8935985060208a0135975060408a0135965060608a01359550610cd760808b01610c30565b945060a08a01359350610cec60c08b01610c30565b925060e08a013591506101008a013560068110610d0857600080fd5b809150509295985092959850929598565b600080600060608486031215610d2e57600080fd5b8335925060208401359150610d4560408501610c30565b90509250925092565b600080600060608486031215610d6357600080fd5b83359250610d7360208501610c30565b9150604084013590509250925092565b60008060408385031215610d9657600080fd5b82359150610da660208401610c30565b90509250929050565b60008060408385031215610dc257600080fd5b50508035926020909101359150565b634e487b7160e01b600052602160045260246000fd5b60068110610e0557634e487b7160e01b600052602160045260246000fd5b9052565b6001600160a01b0386168152602081018590528315156040820152821515606082015260a08101610e3d6080830184610de7565b9695505050505050565b60008060008060808587031215610e5d57600080fd5b84359350610e6d60208601610c30565b92506040850135915060608501358015158114610e8957600080fd5b939692955090935050565b600060208284031215610ea657600080fd5b5035919050565b8b81526001600160a01b038b811660208301528a166040820152606081018990526080810188905260a0810187905260c0810186905260e08101859052610100810184905261012081018390526101608101610f0d610140830184610de7565b9c9b505050505050505050505050565b81518152602080830151610160830191610f41908401826001600160a01b03169052565b506040830151610f5c60408401826001600160a01b03169052565b50606083015160608301526080830151608083015260a083015160a083015260c083015160c083015260e083015160e083015261010080840151818401525061012080840151818401525061014080840151610fba82850182610de7565b505092915050565b600060018201610fe257634e487b7160e01b600052601160045260246000fd5b5060010190565b60208082526013908201527213185b9908191bd95cc81b9bdd08195e1a5cdd606a1b60408201526060019056fea2646970667358221220c51c434bcd7a8308d7e45f7b4402c687cc102902f64a5a9a54d6de36c4adda1f64736f6c63430008150033",
  "immutableReferences": {},
  "source": "// SPDX-License-Identifier: Unlicensed\r\npragma solidity ^0.8.21;\r\n\r\nimport \"./PropertyLedger.sol\";\r\n\r\ncontract PropertyRegistry {\r\n    \r\n    address private contractOwner;\r\n    address private transferOwnershipContractAddress;\r\n    bool private transferOwnershipContractAddressUpdated = false;\r\n\r\n    PropertyLedger public propertiesContract;\r\n\r\n    constructor() {\r\n        contractOwner = msg.sender;\r\n        transferOwnershipContractAddress = address(0);\r\n        transferOwnershipContractAddressUpdated = false;\r\n        propertiesContract = new PropertyLedger();\r\n    }\r\n\r\n    modifier onlyOwner() {\r\n        require(msg.sender == contractOwner, \"Caller is not the owner\");\r\n        _;\r\n    }\r\n\r\n    modifier onlyRevenueDeptEmployee(uint256 revenueDeptId) {\r\n        require(msg.sender == revenueDeptIdToEmployee[revenueDeptId], \"Only the revenue department employee can call this function.\");\r\n        _;\r\n    }\r\n\r\n    event LandAdded(address indexed owner,uint256 indexed propertyId);\r\n\r\n    mapping(address => uint256[]) private propertiesOfOwner;\r\n    mapping(uint256 => uint256[]) private propertiesControlledByRevenueDept;\r\n    mapping (uint256 => address) public revenueDeptIdToEmployee;\r\n\r\n    uint256[] private allProperties;\r\n\r\n    // Set the address of the TransferOfOwnership contract (only once)\r\n    function setTransferOwnershipContractAddress( address contractAddress ) public {\r\n        require(transferOwnershipContractAddressUpdated==false,\"Allowed Only Once to call\");\r\n        \r\n        transferOwnershipContractAddress = contractAddress;\r\n        transferOwnershipContractAddressUpdated = true;\r\n    }\r\n\r\n    // Add New Land\r\n    function addLand(uint256 _locationId, uint256 _revenueDepartmentId, uint256 _surveyNumber, uint256 _area) public returns (uint256) {\r\n        address _owner = msg.sender;\r\n        uint256 propertyId = propertiesContract.addLand(_locationId, _surveyNumber, _revenueDepartmentId, _owner, _area);\r\n\r\n        allProperties.push(propertyId); // track all properties\r\n\r\n        propertiesOfOwner[_owner].push(propertyId); // Map property to owner\r\n        propertiesControlledByRevenueDept[_revenueDepartmentId].push(propertyId); // Map property to revenue department\r\n\r\n        emit LandAdded(_owner, propertyId);\r\n\r\n        return propertyId;\r\n    }\r\n\r\n    // Get property details by property ID\r\n    function getPropertyDetails( uint256 _propertyId ) public view returns ( PropertyLedger.Land memory ) {\r\n        return propertiesContract.getLandDetailsAsStruct(_propertyId);\r\n    }\r\n\r\n    // Get all properties of an owner\r\n    function getPropertiesOfOwner( address _owner ) public view returns ( PropertyLedger.Land[] memory ) {\r\n        uint256[] memory propertyIds = propertiesOfOwner[_owner];\r\n        PropertyLedger.Land[] memory properties = new PropertyLedger.Land[](propertyIds.length);\r\n        \r\n        for (uint256 i = 0; i < propertyIds.length; i++) {\r\n            properties[i] = propertiesContract.getLandDetailsAsStruct(propertyIds[i]);\r\n        }\r\n\r\n        return properties;\r\n    }\r\n\r\n    // Get properties by revenue department\r\n    function getPropertiesByRevenueDeptId( uint256 _revenueDeptId ) public view returns ( PropertyLedger.Land[] memory ) {\r\n        uint256[] memory propertyIds = propertiesControlledByRevenueDept[_revenueDeptId];\r\n        \r\n        PropertyLedger.Land[] memory properties = new PropertyLedger.Land[](propertyIds.length);\r\n        \r\n        for (uint256 i = 0; i < propertyIds.length; i++) {\r\n            properties[i] = propertiesContract.getLandDetailsAsStruct(propertyIds[i]);\r\n        }\r\n          \r\n        return properties;\r\n    }\r\n            \r\n    // Map revenue department id to employee\r\n    function mapRevenueDeptIdToEmployee( uint256 revenueDeptId, address employeeAddress ) public onlyOwner {\r\n        revenueDeptIdToEmployee[revenueDeptId] = employeeAddress;\r\n    }\r\n\r\n    // Get employee address mapped to a revenue department ID\r\n    function getEmployeeByRevenueDept(uint256 revenueDeptId) public view returns (address) {\r\n        return revenueDeptIdToEmployee[revenueDeptId];\r\n    }\r\n\r\n    // Get revenue dept id of a property\r\n    function getRevenueDeptId(uint256 propertyId) private view returns (uint256) {\r\n        return propertiesContract.getLandDetailsAsStruct(propertyId).revenueDepartmentId;\r\n    }\r\n\r\n    //Get total properties count\r\n    function getTotalProperties() public view returns (uint256) {\r\n        return allProperties.length;\r\n    }\r\n\r\n    //Get all properties\r\n    function getAllProperties() public view returns (PropertyLedger.Land[] memory) {\r\n        PropertyLedger.Land[] memory all = new PropertyLedger.Land[](allProperties.length);\r\n        for (uint i = 0; i < allProperties.length; i++) {\r\n            all[i] = propertiesContract.getLandDetailsAsStruct(allProperties[i]);\r\n        }\r\n        return all;\r\n    }\r\n\r\n    //Get pending properties\r\n    function getPendingPropertiesForVerification() public view returns (PropertyLedger.Land[] memory) {\r\n        uint count = 0;\r\n\r\n        // Count how many are in Registered state (assuming State 0 means Registered)\r\n        for (uint i = 0; i < allProperties.length; i++) {\r\n            PropertyLedger.Land memory land = propertiesContract.getLandDetailsAsStruct(allProperties[i]);\r\n            if (land.state == PropertyLedger.StateOfProperty.Registered) {\r\n                count++;\r\n            }\r\n        }\r\n\r\n        PropertyLedger.Land[] memory pendingProperties = new PropertyLedger.Land[](count);\r\n        uint idx = 0;\r\n\r\n        for (uint i = 0; i < allProperties.length; i++) {\r\n            PropertyLedger.Land memory land = propertiesContract.getLandDetailsAsStruct(allProperties[i]);\r\n            if (land.state == PropertyLedger.StateOfProperty.Registered) {\r\n                pendingProperties[idx] = land;\r\n                idx++;\r\n            }\r\n        }\r\n\r\n        return pendingProperties;\r\n    }\r\n\r\n    //Get verified properties\r\n    function getVerifiedProperties() public view returns (PropertyLedger.Land[] memory) {\r\n        uint count = 0;\r\n\r\n        // Count how many properties are in Verified state\r\n        for (uint i = 0; i < allProperties.length; i++) {\r\n            PropertyLedger.Land memory land = propertiesContract.getLandDetailsAsStruct(allProperties[i]);\r\n            if (land.state == PropertyLedger.StateOfProperty.Verified) {\r\n                count++;\r\n            }\r\n        }\r\n\r\n        PropertyLedger.Land[] memory verifiedProperties = new PropertyLedger.Land[](count);\r\n        uint idx = 0;\r\n\r\n        for (uint i = 0; i < allProperties.length; i++) {\r\n            PropertyLedger.Land memory land = propertiesContract.getLandDetailsAsStruct(allProperties[i]);\r\n            if (land.state == PropertyLedger.StateOfProperty.Verified) {\r\n                verifiedProperties[idx] = land;\r\n                idx++;\r\n            }\r\n        }\r\n\r\n        return verifiedProperties;\r\n    }\r\n\r\n    //Get on sale properties\r\n    function getOnSaleProperties() public view returns (PropertyLedger.Land[] memory) {\r\n        uint count = 0;\r\n        \r\n        for (uint i = 0; i < allProperties.length; i++) {\r\n            PropertyLedger.Land memory land = propertiesContract.getLandDetailsAsStruct(allProperties[i]);\r\n            if (land.state == PropertyLedger.StateOfProperty.OnSale) {\r\n                count++;\r\n            }\r\n        }\r\n        PropertyLedger.Land[] memory onSale = new PropertyLedger.Land[](count);\r\n        uint idx = 0;\r\n        \r\n        for (uint i = 0; i < allProperties.length; i++) {\r\n            PropertyLedger.Land memory land = propertiesContract.getLandDetailsAsStruct(allProperties[i]);\r\n            if (land.state == PropertyLedger.StateOfProperty.OnSale) {\r\n                onSale[idx] = land;\r\n                idx++;\r\n            }\r\n        }\r\n        return onSale;\r\n    }\r\n    \r\n    // Get the count of all on sale properties\r\n    function getOnSalePropertiesCount() public view returns (uint256) {\r\n        uint count = 0;\r\n        for (uint i = 0; i < allProperties.length; i++) {\r\n            PropertyLedger.Land memory land = propertiesContract.getLandDetailsAsStruct(allProperties[i]);\r\n            if (land.state == PropertyLedger.StateOfProperty.OnSale) {\r\n                count++;\r\n            }\r\n        }\r\n        return count;\r\n    }\r\n\r\n\r\n    function verifyProperty( uint256 _propertyId ) public onlyRevenueDeptEmployee(getRevenueDeptId(_propertyId)) {\r\n        propertiesContract.markVerified(_propertyId, msg.sender);\r\n    }\r\n\r\n    function rejectProperty( uint256 _propertyId ) public onlyRevenueDeptEmployee(getRevenueDeptId(_propertyId)) {\r\n        propertiesContract.putOnSale(_propertyId, msg.sender, 0, true);\r\n    }\r\n\r\n    function transferOwnership (uint256 _propertyId, uint requestId, address newOwner) public {\r\n        require(msg.sender == transferOwnershipContractAddress, \"Only TransferOfOwnership contract allowed\");\r\n\r\n        // Remove property from old owner's list\r\n        address oldOwner = propertiesContract.getLandDetailsAsStruct(_propertyId).owner;\r\n        uint256[] storage oldOwnerProps = propertiesOfOwner[oldOwner];\r\n        for (uint i = 0; i < oldOwnerProps.length; i++) {\r\n            if (oldOwnerProps[i] == _propertyId) {\r\n                oldOwnerProps[i] = oldOwnerProps[oldOwnerProps.length - 1];\r\n                oldOwnerProps.pop();\r\n                break;\r\n            }\r\n        }\r\n\r\n        // Add property to new owner's list\r\n        propertiesOfOwner[newOwner].push(_propertyId);\r\n\r\n        // Update ownership in Property contract\r\n        propertiesContract.transferOwnership(_propertyId, requestId, newOwner);\r\n    }\r\n\r\n    function getPropertiesContract() public view returns (address){\r\n        return address(propertiesContract);\r\n    }\r\n}",
  "sourcePath": "C:\\Users\\Shalini Patel\\Desktop\\College\\Capstone Project\\property-ledger\\contracts\\PropertyRegistry.sol",
  "compiler": {
    "name": "solc",
    "version": "0.8.21+commit.d9974bed.Emscripten.clang"
  },
  "schemaVersion": "3.4.16",
  "updatedAt": "2025-11-13T20:31:42.731Z",
  "networkType": "ethereum",
  "devdoc": {
    "kind": "dev",
    "methods": {},
    "version": 1
  },
  "userdoc": {
    "kind": "user",
    "methods": {},
    "version": 1
  }
}