{
  "contractName": "PropertyExchange",
  "abi": [
    {
      "inputs": [
        {
          "internalType": "address",
          "name": "_landRegistryContractAddress",
          "type": "address"
        }
      ],
      "stateMutability": "nonpayable",
      "type": "constructor"
    },
    {
      "anonymous": false,
      "inputs": [
        {
          "indexed": true,
          "internalType": "address",
          "name": "owner",
          "type": "address"
        },
        {
          "indexed": true,
          "internalType": "uint256",
          "name": "propertyId",
          "type": "uint256"
        },
        {
          "indexed": false,
          "internalType": "uint256",
          "name": "saleId",
          "type": "uint256"
        }
      ],
      "name": "PropertyOnSale",
      "type": "event"
    },
    {
      "anonymous": false,
      "inputs": [
        {
          "indexed": false,
          "internalType": "uint256",
          "name": "saleId",
          "type": "uint256"
        },
        {
          "indexed": false,
          "internalType": "address",
          "name": "requestedUser",
          "type": "address"
        },
        {
          "indexed": false,
          "internalType": "uint256",
          "name": "priceOffered",
          "type": "uint256"
        }
      ],
      "name": "PurchaseRequestSent",
      "type": "event"
    },
    {
      "anonymous": false,
      "inputs": [
        {
          "indexed": false,
          "internalType": "uint256",
          "name": "saleId",
          "type": "uint256"
        },
        {
          "indexed": false,
          "internalType": "address",
          "name": "buyer",
          "type": "address"
        },
        {
          "indexed": false,
          "internalType": "uint256",
          "name": "price",
          "type": "uint256"
        },
        {
          "indexed": false,
          "internalType": "uint256",
          "name": "deadline",
          "type": "uint256"
        }
      ],
      "name": "SaleAccepted",
      "type": "event"
    },
    {
      "inputs": [
        {
          "internalType": "address",
          "name": "",
          "type": "address"
        },
        {
          "internalType": "uint256",
          "name": "",
          "type": "uint256"
        }
      ],
      "name": "requestedSales",
      "outputs": [
        {
          "internalType": "uint256",
          "name": "",
          "type": "uint256"
        }
      ],
      "stateMutability": "view",
      "type": "function",
      "constant": true
    },
    {
      "inputs": [
        {
          "internalType": "uint256",
          "name": "etherValue",
          "type": "uint256"
        }
      ],
      "name": "convertToWei",
      "outputs": [
        {
          "internalType": "uint256",
          "name": "",
          "type": "uint256"
        }
      ],
      "stateMutability": "pure",
      "type": "function",
      "constant": true
    },
    {
      "inputs": [
        {
          "internalType": "uint256",
          "name": "_propertyId",
          "type": "uint256"
        },
        {
          "internalType": "uint256",
          "name": "_price",
          "type": "uint256"
        }
      ],
      "name": "addPropertyOnSale",
      "outputs": [],
      "stateMutability": "nonpayable",
      "type": "function"
    },
    {
      "inputs": [
        {
          "internalType": "address",
          "name": "_owner",
          "type": "address"
        }
      ],
      "name": "getMySales",
      "outputs": [
        {
          "components": [
            {
              "internalType": "uint256",
              "name": "saleId",
              "type": "uint256"
            },
            {
              "internalType": "address",
              "name": "owner",
              "type": "address"
            },
            {
              "internalType": "uint256",
              "name": "price",
              "type": "uint256"
            },
            {
              "internalType": "uint256",
              "name": "propertyId",
              "type": "uint256"
            },
            {
              "internalType": "address",
              "name": "acceptedFor",
              "type": "address"
            },
            {
              "internalType": "uint256",
              "name": "acceptedPrice",
              "type": "uint256"
            },
            {
              "internalType": "uint256",
              "name": "acceptedTime",
              "type": "uint256"
            },
            {
              "internalType": "bool",
              "name": "paymentDone",
              "type": "bool"
            },
            {
              "internalType": "enum PropertyExchange.SaleState",
              "name": "state",
              "type": "uint8"
            },
            {
              "internalType": "uint256",
              "name": "acceptedRequestId",
              "type": "uint256"
            },
            {
              "internalType": "uint256",
              "name": "deadlineForPayment",
              "type": "uint256"
            }
          ],
          "internalType": "struct PropertyExchange.Sales[]",
          "name": "",
          "type": "tuple[]"
        }
      ],
      "stateMutability": "view",
      "type": "function",
      "constant": true
    },
    {
      "inputs": [
        {
          "internalType": "uint256",
          "name": "saleId",
          "type": "uint256"
        }
      ],
      "name": "getRequestedUsers",
      "outputs": [
        {
          "components": [
            {
              "internalType": "address",
              "name": "user",
              "type": "address"
            },
            {
              "internalType": "uint256",
              "name": "priceOffered",
              "type": "uint256"
            },
            {
              "internalType": "enum PropertyExchange.RequestedUserToASaleState",
              "name": "state",
              "type": "uint8"
            },
            {
              "internalType": "uint256",
              "name": "requestId",
              "type": "uint256"
            }
          ],
          "internalType": "struct PropertyExchange.RequestedUser[]",
          "name": "",
          "type": "tuple[]"
        }
      ],
      "stateMutability": "view",
      "type": "function",
      "constant": true
    },
    {
      "inputs": [
        {
          "internalType": "address",
          "name": "_owner",
          "type": "address"
        }
      ],
      "name": "getRequestedSales",
      "outputs": [
        {
          "components": [
            {
              "internalType": "uint256",
              "name": "saleId",
              "type": "uint256"
            },
            {
              "internalType": "address",
              "name": "owner",
              "type": "address"
            },
            {
              "internalType": "uint256",
              "name": "price",
              "type": "uint256"
            },
            {
              "internalType": "uint256",
              "name": "propertyId",
              "type": "uint256"
            },
            {
              "internalType": "address",
              "name": "acceptedFor",
              "type": "address"
            },
            {
              "internalType": "uint256",
              "name": "acceptedPrice",
              "type": "uint256"
            },
            {
              "internalType": "uint256",
              "name": "acceptedTime",
              "type": "uint256"
            },
            {
              "internalType": "bool",
              "name": "paymentDone",
              "type": "bool"
            },
            {
              "internalType": "enum PropertyExchange.SaleState",
              "name": "state",
              "type": "uint8"
            },
            {
              "internalType": "uint256",
              "name": "acceptedRequestId",
              "type": "uint256"
            },
            {
              "internalType": "uint256",
              "name": "deadlineForPayment",
              "type": "uint256"
            }
          ],
          "internalType": "struct PropertyExchange.Sales[]",
          "name": "",
          "type": "tuple[]"
        }
      ],
      "stateMutability": "view",
      "type": "function",
      "constant": true
    },
    {
      "inputs": [
        {
          "internalType": "uint256",
          "name": "_saleId",
          "type": "uint256"
        }
      ],
      "name": "getStatusOfPurchaseRequest",
      "outputs": [
        {
          "components": [
            {
              "internalType": "address",
              "name": "user",
              "type": "address"
            },
            {
              "internalType": "uint256",
              "name": "priceOffered",
              "type": "uint256"
            },
            {
              "internalType": "enum PropertyExchange.RequestedUserToASaleState",
              "name": "state",
              "type": "uint8"
            },
            {
              "internalType": "uint256",
              "name": "requestId",
              "type": "uint256"
            }
          ],
          "internalType": "struct PropertyExchange.RequestedUser",
          "name": "",
          "type": "tuple"
        }
      ],
      "stateMutability": "view",
      "type": "function",
      "constant": true
    },
    {
      "inputs": [
        {
          "internalType": "uint256",
          "name": "locationId",
          "type": "uint256"
        }
      ],
      "name": "getSalesByLocation",
      "outputs": [
        {
          "components": [
            {
              "internalType": "uint256",
              "name": "saleId",
              "type": "uint256"
            },
            {
              "internalType": "address",
              "name": "owner",
              "type": "address"
            },
            {
              "internalType": "uint256",
              "name": "price",
              "type": "uint256"
            },
            {
              "internalType": "uint256",
              "name": "propertyId",
              "type": "uint256"
            },
            {
              "internalType": "address",
              "name": "acceptedFor",
              "type": "address"
            },
            {
              "internalType": "uint256",
              "name": "acceptedPrice",
              "type": "uint256"
            },
            {
              "internalType": "uint256",
              "name": "acceptedTime",
              "type": "uint256"
            },
            {
              "internalType": "bool",
              "name": "paymentDone",
              "type": "bool"
            },
            {
              "internalType": "enum PropertyExchange.SaleState",
              "name": "state",
              "type": "uint8"
            },
            {
              "internalType": "uint256",
              "name": "acceptedRequestId",
              "type": "uint256"
            },
            {
              "internalType": "uint256",
              "name": "deadlineForPayment",
              "type": "uint256"
            }
          ],
          "internalType": "struct PropertyExchange.Sales[]",
          "name": "",
          "type": "tuple[]"
        }
      ],
      "stateMutability": "view",
      "type": "function",
      "constant": true
    },
    {
      "inputs": [
        {
          "internalType": "uint256",
          "name": "_saleId",
          "type": "uint256"
        },
        {
          "internalType": "uint256",
          "name": "_priceOffered",
          "type": "uint256"
        }
      ],
      "name": "sendPurchaseRequest",
      "outputs": [],
      "stateMutability": "nonpayable",
      "type": "function"
    },
    {
      "inputs": [
        {
          "internalType": "uint256",
          "name": "_saleId",
          "type": "uint256"
        },
        {
          "internalType": "address",
          "name": "_buyer",
          "type": "address"
        },
        {
          "internalType": "uint256",
          "name": "_price",
          "type": "uint256"
        }
      ],
      "name": "acceptBuyerRequest",
      "outputs": [],
      "stateMutability": "nonpayable",
      "type": "function"
    },
    {
      "inputs": [
        {
          "internalType": "uint256",
          "name": "_saleId",
          "type": "uint256"
        }
      ],
      "name": "cancelSaleBySeller",
      "outputs": [
        {
          "internalType": "bool",
          "name": "",
          "type": "bool"
        }
      ],
      "stateMutability": "nonpayable",
      "type": "function"
    },
    {
      "inputs": [
        {
          "internalType": "uint256",
          "name": "saleId",
          "type": "uint256"
        }
      ],
      "name": "transferOwnerShip",
      "outputs": [],
      "stateMutability": "payable",
      "type": "function",
      "payable": true
    }
  ],
  "bytecode": "0x60806040523480156200001157600080fd5b506040516200252038038062002520833981016040819052620000349162000137565b600180546001600160a01b0319166001600160a01b03831690811790915560408051632e7f8bfd60e21b815290516000929163b9fe2ff49160048083019260209291908290030181865afa15801562000091573d6000803e3d6000fd5b505050506040513d601f19601f82011682018060405250810190620000b7919062000137565b600080546001600160a01b0319166001600160a01b0383811691909117909155600154604051630cf36e5760e01b81523060048201529293501690630cf36e5790602401600060405180830381600087803b1580156200011657600080fd5b505af11580156200012b573d6000803e3d6000fd5b50505050505062000169565b6000602082840312156200014a57600080fd5b81516001600160a01b03811681146200016257600080fd5b9392505050565b6123a780620001796000396000f3fe6080604052600436106100a75760003560e01c8063a60dc38a11610064578063a60dc38a14610191578063b23ac000146101bf578063ba2961a4146101df578063ba36012a146101ff578063c921147f1461022f578063f62459fd1461024f57600080fd5b8063227da9f5146100ac5780633d4a5ca7146100e2578063449b6d3d1461010f5780635af7d7861461013c5780639f79a7f21461015e578063a0fe76fb1461017e575b600080fd5b3480156100b857600080fd5b506100cc6100c7366004611f4a565b61026f565b6040516100d99190611fb5565b60405180910390f35b3480156100ee57600080fd5b506101026100fd366004611f4a565b6103dc565b6040516100d99190611fc3565b34801561011b57600080fd5b5061012f61012a366004612029565b6104a9565b6040516100d99190612061565b34801561014857600080fd5b5061015c610157366004612129565b61069f565b005b34801561016a57600080fd5b5061015c610179366004612129565b610b45565b61015c61018c366004611f4a565b610dd9565b34801561019d57600080fd5b506101b16101ac366004611f4a565b6112cd565b6040519081526020016100d9565b3480156101cb57600080fd5b5061015c6101da36600461214b565b6112e7565b3480156101eb57600080fd5b5061012f6101fa366004611f4a565b611829565b34801561020b57600080fd5b5061021f61021a366004611f4a565b611a0d565b60405190151581526020016100d9565b34801561023b57600080fd5b506101b161024a366004612183565b611cac565b34801561025b57600080fd5b5061012f61026a366004612029565b611cdd565b604080516080810182526000808252602082018190529181018290526060810182905290805b6000848152600560205260409020548110156103085760008481526005602052604090208054339190839081106102ce576102ce6121af565b60009182526020909120600490910201546001600160a01b0316036102f65760019150610308565b80610300816121db565b915050610295565b8115156001036103af576000848152600560205260409020805482908110610332576103326121af565b600091825260209182902060408051608081018252600493840290920180546001600160a01b0316835260018101549483019490945260028401549193929084019160ff169081111561038757610387611f63565b600481111561039857610398611f63565b815260200160038201548152505092505050919050565b60408051608081018252600080825260208201819052909182019081526000602090910152949350505050565b606060056000838152602001908152602001600020805480602002602001604051908101604052809291908181526020016000905b8282101561049e57600084815260209081902060408051608081018252600480870290930180546001600160a01b0316825260018101549482019490945260028401549093929184019160ff9091169081111561047057610470611f63565b600481111561048157610481611f63565b815260200160038201548152505081526020019060010190610411565b505050509050919050565b6001600160a01b038116600090815260046020908152604080832080548251818502810185019093528083526060949383018282801561050857602002820191906000526020600020905b8154815260200190600101908083116104f4575b505050505090506000815167ffffffffffffffff81111561052b5761052b6121f4565b60405190808252806020026020018201604052801561056457816020015b610551611ecb565b8152602001906001900390816105495790505b50905060005b8251811015610697576002838281518110610587576105876121af565b60200260200101518154811061059f5761059f6121af565b60009182526020918290206040805161016081018252600a9093029091018054835260018101546001600160a01b0390811694840194909452600280820154928401929092526003810154606084015260048101549093166080830152600583015460a0830152600683015460c0830152600783015460ff808216151560e0850152929392610100808601939204169081111561063e5761063e611f63565b600281111561064f5761064f611f63565b815260200160088201548152602001600982015481525050828281518110610679576106796121af565b6020026020010181905250808061068f906121db565b91505061056a565b509392505050565b60005460405163fbb62fe760e01b8152600481018490526001600160a01b039091169063fbb62fe79060240161016060405180830381865afa1580156106e9573d6000803e3d6000fd5b505050506040513d601f19601f8201168201806040525081019061070d9190612261565b602001516001600160a01b0316336001600160a01b03161461078b5760405162461bcd60e51b815260206004820152602c60248201527f4f6e6c7920746865206f776e65722063616e20707574207468652070726f706560448201526b393a3c9037b71039b0b6329760a11b60648201526084015b60405180910390fd5b6000610796826112cd565b60408051610160810182526002805480835233602084019081529383018581526060840189815260006080860181815260a0870182815260c0880183815260e08901848152610100808b018681526101208c018790526101408c0187905260018a018b55958a90528a51600a9099027f405787fa12a823e0f2b7631cc41b3ba8828b3321ca811111fa75cd3aa3bb5ace8101998a559b517f405787fa12a823e0f2b7631cc41b3ba8828b3321ca811111fa75cd3aa3bb5acf8d0180546001600160a01b039283166001600160a01b03199182161790915598517f405787fa12a823e0f2b7631cc41b3ba8828b3321ca811111fa75cd3aa3bb5ad08e015596517f405787fa12a823e0f2b7631cc41b3ba8828b3321ca811111fa75cd3aa3bb5ad18d015593517f405787fa12a823e0f2b7631cc41b3ba8828b3321ca811111fa75cd3aa3bb5ad28c01805491909716971696909617909455517f405787fa12a823e0f2b7631cc41b3ba8828b3321ca811111fa75cd3aa3bb5ad389015591517f405787fa12a823e0f2b7631cc41b3ba8828b3321ca811111fa75cd3aa3bb5ad488015591517f405787fa12a823e0f2b7631cc41b3ba8828b3321ca811111fa75cd3aa3bb5ad5909601805496151560ff1988168117825592519798509496879693959094909361ff001990931661ffff199093169290921791849081111561099f5761099f611f63565b02179055506101208201516008820155610140909101516009909101556000805460405163fbb62fe760e01b81526004810187905260069183916001600160a01b039091169063fbb62fe79060240161016060405180830381865afa158015610a0c573d6000803e3d6000fd5b505050506040513d601f19601f82011682018060405250810190610a309190612261565b6080015181526020019081526020016000209050806001600280549050610a579190612305565b815460018082018455600093845260208085209092019290925533808452600382526040808520875181549586018255908652928520909301919091558254915163bcee5a9d60e01b81526004810189905260248101919091526044810186905260648101929092526001600160a01b03169063bcee5a9d90608401600060405180830381600087803b158015610aed57600080fd5b505af1158015610b01573d6000803e3d6000fd5b505083516040519081528792503391507f2e3f92a5fda60f34892d89d5b35c9d5fced8bf480fa1c3c7acf0504950f4f1649060200160405180910390a35050505050565b600060028381548110610b5a57610b5a6121af565b90600052602060002090600a020190508060030154600003610bb45760405162461bcd60e51b815260206004820152601360248201527214d85b1948191bd95cc81b9bdd08195e1a5cdd606a1b6044820152606401610782565b60006007820154610100900460ff166002811115610bd457610bd4611f63565b14610c325760405162461bcd60e51b815260206004820152602860248201527f50726f7065727479204e6f7420696e2041637469766520537461746520746f20604482015267507572636861736560c01b6064820152608401610782565b6000610c3d836112cd565b600080546003850154604051630ae95ee760e21b815260048101919091523360248201526044810184905292935090916001600160a01b0390911690632ba57b9c906064016020604051808303816000875af1158015610ca1573d6000803e3d6000fd5b505050506040513d601f19601f82011682018060405250810190610cc59190612318565b83546000908152600560209081526040808320815160808101835233815280840188815292810185815260608201879052825460018082018555938752949095208151600495860290910180546001600160a01b0319166001600160a01b039092169190911781559251838301559351600283018054969750949592949093909260ff191691908490811115610d5d57610d5d611f63565b02179055506060918201516003909101553360008181526004602090815260408083208854815460018101835591855293839020019290925581518981529081019290925281018490527fc8563b268bdb427da3059ff194f3e6f4c1da1ed37cd2ed6b90993415398f6bda910160405180910390a15050505050565b600060028281548110610dee57610dee6121af565b60009182526020909120600a9091020160048101549091506001600160a01b0316610e4f5760405162461bcd60e51b8152602060048201526011602482015270139bc8189d5e595c881858d8d95c1d1959607a1b6044820152606401610782565b60048101546001600160a01b03163314610ebd5760405162461bcd60e51b815260206004820152602960248201527f4f6e6c792061636365707465642062757965722063616e20636f6d706c657465604482015268207468652073616c6560b81b6064820152608401610782565b80600501543414610f275760405162461bcd60e51b815260206004820152602e60248201527f5061796d656e7420616d6f756e74206d75737420626520657175616c20746f2060448201526d616363657074656420707269636560901b6064820152608401610782565b8060090154421115610f7b5760405162461bcd60e51b815260206004820152601b60248201527f5061796d656e7420646561646c696e65206861732070617373656400000000006044820152606401610782565b60008060005b8354600090815260056020526040902054811015610ffb5783546000908152600560205260409020805433919083908110610fbe57610fbe6121af565b60009182526020909120600490910201546001600160a01b031603610fe95760019250809150610ffb565b80610ff3816121db565b915050610f81565b50816110535760405162461bcd60e51b815260206004820152602160248201527f4275796572206e6f7420666f756e6420696e20726571756573746564206c69736044820152601d60fa1b6064820152608401610782565b60018301546040516001600160a01b03909116903480156108fc02916000818181858888f1935050505015801561108e573d6000803e3d6000fd5b5060015460038401546008850154600480870154604051631811ade360e01b81529182019390935260248101919091526001600160a01b039182166044820152911690631811ade390606401600060405180830381600087803b1580156110f457600080fd5b505af1158015611108573d6000803e3d6000fd5b50508454600090815260056020526040902080546004935090915083908110611133576111336121af565b906000526020600020906004020160020160006101000a81548160ff0219169083600481111561116557611165611f63565b021790555060008054600385015460405163fbb62fe760e01b81526001600160a01b039092169163fbb62fe7916111a29160040190815260200190565b61016060405180830381865afa1580156111c0573d6000803e3d6000fd5b505050506040513d601f19601f820116820180604052508101906111e49190612261565b6080015160008181526006602052604081209192505b81548110156112b257856000015482828154811061121a5761121a6121af565b9060005260206000200154036112a0578154829061123a90600190612305565b8154811061124a5761124a6121af565b9060005260206000200154828281548110611267576112676121af565b90600052602060002001819055508180548061128557611285612331565b600190038181906000526020600020016000905590556112b2565b806112aa816121db565b9150506111fa565b50505050600791909101805461ffff19166102011790555050565b60006112e182670de0b6b3a7640000612347565b92915050565b60006112f2826112cd565b9050600060028581548110611309576113096121af565b90600052602060002090600a0201905080600301546000036113635760405162461bcd60e51b815260206004820152601360248201527214d85b1948191bd95cc81b9bdd08195e1a5cdd606a1b6044820152606401610782565b60006007820154610100900460ff16600281111561138357611383611f63565b146113c55760405162461bcd60e51b815260206004820152601260248201527153616c65206973206e6f742061637469766560701b6044820152606401610782565b600054600382015460405163fbb62fe760e01b81526001600160a01b039092169163fbb62fe7916113fc9160040190815260200190565b61016060405180830381865afa15801561141a573d6000803e3d6000fd5b505050506040513d601f19601f8201168201806040525081019061143e9190612261565b602001516001600160a01b0316336001600160a01b0316146114ba5760405162461bcd60e51b815260206004820152602f60248201527f4f6e6c7920746865206f776e65722063616e206163636570742074686520707560448201526e3931b430b9b2903932b8bab2b9ba1760891b6064820152608401610782565b60008060005b8354600090815260056020526040902054811015611543578354600090815260056020526040902080546001600160a01b038916919083908110611506576115066121af565b60009182526020909120600490910201546001600160a01b0316036115315760019250809150611543565b8061153b816121db565b9150506114c0565b50816115a15760405162461bcd60e51b815260206004820152602760248201527f4275796572206e6f7420666f756e6420696e20726571756573746564207573656044820152667220617272617960c81b6064820152608401610782565b825460009081526005602052604090208054829081106115c3576115c36121af565b906000526020600020906004020160010154841461162d5760405162461bcd60e51b815260206004820152602160248201527f5072696365206d69736d6174636820776974682062757965722773206f6666656044820152603960f91b6064820152608401610782565b8254600090815260056020526040812080548390811061164f5761164f6121af565b9060005260206000209060040201600301549050806000036116a85760405162461bcd60e51b8152602060048201526012602482015271125b9d985b1a59081c995c5d595cdd081a5960721b6044820152606401610782565b600054600385015460405163af506dbd60e01b81526004810191909152602481018390523360448201526001600160a01b039091169063af506dbd90606401600060405180830381600087803b15801561170157600080fd5b505af1158015611715573d6000803e3d6000fd5b505050506004840180546001600160a01b0319166001600160a01b0389161790556005840185905542600685018190556117519061012c61235e565b600985015560078401805461ff001916610100179055600884018190558354600090815260056020526040902080546002919084908110611794576117946121af565b906000526020600020906004020160020160006101000a81548160ff021916908360048111156117c6576117c6611f63565b02179055506009840154604080518a81526001600160a01b038a1660208201528082018890526060810192909252517f36a90be4cc85a10604516d70cdf8d7fa5f0b470e9dc0f6ba6de9a74cae9546f39181900360800190a15050505050505050565b600081815260066020908152604080832080548251818502810185019093528083526060949383018282801561187e57602002820191906000526020600020905b81548152602001906001019080831161186a575b505050505090506000815167ffffffffffffffff8111156118a1576118a16121f4565b6040519080825280602002602001820160405280156118da57816020015b6118c7611ecb565b8152602001906001900390816118bf5790505b50905060005b82518110156106975760028382815181106118fd576118fd6121af565b602002602001015181548110611915576119156121af565b60009182526020918290206040805161016081018252600a9093029091018054835260018101546001600160a01b0390811694840194909452600280820154928401929092526003810154606084015260048101549093166080830152600583015460a0830152600683015460c0830152600783015460ff808216151560e085015292939261010080860193920416908111156119b4576119b4611f63565b60028111156119c5576119c5611f63565b8152602001600882015481526020016009820154815250508282815181106119ef576119ef6121af565b60200260200101819052508080611a05906121db565b9150506118e0565b60008060028381548110611a2357611a236121af565b600091825260209091206001600a90920201908101549091506001600160a01b03163314611a9f5760405162461bcd60e51b815260206004820152602360248201527f4f6e6c792070726f7065727479206f776e65722063616e2063616e63656c2073604482015262616c6560e81b6064820152608401610782565b600781015460ff1615611af45760405162461bcd60e51b815260206004820152601d60248201527f5061796d656e742068617320616c7265616479206265656e206d6164650000006044820152606401610782565b60026007820154610100900460ff166002811115611b1457611b14611f63565b03611b6b5760405162461bcd60e51b815260206004820152602160248201527f5375636365656465642073616c652063616e27742062652063616e63656c65646044820152601760f91b6064820152608401610782565b60016007820154610100900460ff166002811115611b8b57611b8b611f63565b03611bf05760405162461bcd60e51b815260206004820152602f60248201527f53616c6520616363657074656420746f2062757965723b2063616e63656c206160448201526e18d8d95c1d185b98d948199a5c9cdd608a1b6064820152608401610782565b600781018054600480840180546001600160a01b0319169055600060058501819055600685018190556009850181905561ffff19909216909255600883018190558054600384015460405163bcee5a9d60e01b8152938401523360248401526044830191909152600160648301526001600160a01b03169063bcee5a9d90608401600060405180830381600087803b158015611c8b57600080fd5b505af1158015611c9f573d6000803e3d6000fd5b5060019695505050505050565b60046020528160005260406000208181548110611cc857600080fd5b90600052602060002001600091509150505481565b6001600160a01b0381166000908152600360209081526040808320805482518185028101850190935280835260609493830182828015611d3c57602002820191906000526020600020905b815481526020019060010190808311611d28575b505050505090506000815167ffffffffffffffff811115611d5f57611d5f6121f4565b604051908082528060200260200182016040528015611d9857816020015b611d85611ecb565b815260200190600190039081611d7d5790505b50905060005b8251811015610697576002838281518110611dbb57611dbb6121af565b602002602001015181548110611dd357611dd36121af565b60009182526020918290206040805161016081018252600a9093029091018054835260018101546001600160a01b0390811694840194909452600280820154928401929092526003810154606084015260048101549093166080830152600583015460a0830152600683015460c0830152600783015460ff808216151560e08501529293926101008086019392041690811115611e7257611e72611f63565b6002811115611e8357611e83611f63565b815260200160088201548152602001600982015481525050828281518110611ead57611ead6121af565b60200260200101819052508080611ec3906121db565b915050611d9e565b6040518061016001604052806000815260200160006001600160a01b03168152602001600081526020016000815260200160006001600160a01b03168152602001600081526020016000815260200160001515815260200160006002811115611f3657611f36611f63565b815260200160008152602001600081525090565b600060208284031215611f5c57600080fd5b5035919050565b634e487b7160e01b600052602160045260246000fd5b80516001600160a01b0316825260208082015190830152604081015160058110611fa557611fa5611f63565b6040830152606090810151910152565b608081016112e18284611f79565b6020808252825182820181905260009190848201906040850190845b8181101561200557611ff2838551611f79565b9284019260809290920191600101611fdf565b50909695505050505050565b6001600160a01b038116811461202657600080fd5b50565b60006020828403121561203b57600080fd5b813561204681612011565b9392505050565b6003811061205d5761205d611f63565b9052565b602080825282518282018190526000919060409081850190868401855b8281101561211c57815180518552868101516001600160a01b03908116888701528682015187870152606080830151908701526080808301519091169086015260a0808201519086015260c0808201519086015260e080820151151590860152610100808201516120f18288018261204d565b505061012081810151908601526101409081015190850152610160909301929085019060010161207e565b5091979650505050505050565b6000806040838503121561213c57600080fd5b50508035926020909101359150565b60008060006060848603121561216057600080fd5b83359250602084013561217281612011565b929592945050506040919091013590565b6000806040838503121561219657600080fd5b82356121a181612011565b946020939093013593505050565b634e487b7160e01b600052603260045260246000fd5b634e487b7160e01b600052601160045260246000fd5b6000600182016121ed576121ed6121c5565b5060010190565b634e487b7160e01b600052604160045260246000fd5b604051610160810167ffffffffffffffff8111828210171561223c57634e487b7160e01b600052604160045260246000fd5b60405290565b805161224d81612011565b919050565b80516006811061224d57600080fd5b6000610160828403121561227457600080fd5b61227c61220a565b8251815261228c60208401612242565b602082015261229d60408401612242565b6040820152606083015160608201526080830151608082015260a083015160a082015260c083015160c082015260e083015160e08201526101008084015181830152506101208084015181830152506101406122fa818501612252565b908201529392505050565b818103818111156112e1576112e16121c5565b60006020828403121561232a57600080fd5b5051919050565b634e487b7160e01b600052603160045260246000fd5b80820281158282048414176112e1576112e16121c5565b808201808211156112e1576112e16121c556fea264697066735822122043a491289de708c24c49f8a881e365e73c8efc3d944c78f974b1460ff005b2df64736f6c63430008150033",
  "immutableReferences": {},
  "source": "// SPDX-License-Identifier: Unlicensed\r\npragma solidity ^0.8.21;\r\n\r\nimport \"./PropertyLedger.sol\";\r\nimport \"./PropertyRegistry.sol\";\r\n\r\ncontract PropertyExchange {\r\n\r\n    PropertyLedger private propertiesContract;\r\n    PropertyRegistry private LandRegistryContract;\r\n\r\n    constructor(address _landRegistryContractAddress){\r\n        LandRegistryContract = PropertyRegistry(_landRegistryContractAddress);\r\n        \r\n        address propertiesContractAddress = LandRegistryContract.getPropertiesContract();  \r\n\r\n        propertiesContract = PropertyLedger(propertiesContractAddress);\r\n        LandRegistryContract.setTransferOwnershipContractAddress(address(this));\r\n    }    \r\n\r\n    enum SaleState {\r\n        Active, // on creation of sale by owner\r\n        AcceptedBuyerRequest, // on accepting a buyer request\r\n        Success // on successful payment and ownership transfer \r\n    }\r\n\r\n    enum RequestedUserToASaleState {\r\n        SentPurchaseRequest, // Buyer has sent purchase request to a seller\r\n        CancelPurchaseRequest, //  Buyer wants to cancel purchase request sent. \r\n\r\n        SellerAcceptedPurchaseRequest, // Seller Accepted Purchase Request of a Buyer\r\n        SellerRejectedPurchaseRequest, // Seller Rejected Purchase Request \r\n\r\n        SuccessfullyTransfered\r\n    }\r\n\r\n    struct RequestedUser {\r\n        address user;\r\n        uint256 priceOffered;\r\n        RequestedUserToASaleState state;\r\n        uint requestId; // request id from property contract\r\n    }\r\n\r\n    struct Sales {\r\n        uint256 saleId;\r\n        address owner;\r\n        uint256 price;\r\n        uint256 propertyId;\r\n        address acceptedFor;\r\n        uint256 acceptedPrice;\r\n        uint256 acceptedTime;\r\n        bool paymentDone;\r\n        SaleState state;\r\n        uint acceptedRequestId; // request id in Property contract that was accepted\r\n        uint256 deadlineForPayment;\r\n    }\r\n\r\n    Sales[] private sales;\r\n\r\n    mapping(address => uint256[]) private salesOfOwner;\r\n    mapping(address => uint256[]) public requestedSales;\r\n    mapping(uint256 => RequestedUser[]) requestedUsers;\r\n    mapping(uint256 => uint256[]) private propertiesOnSaleByLocation;\r\n\r\n    event PropertyOnSale(address indexed owner, uint256 indexed propertyId, uint256 saleId);\r\n    event PurchaseRequestSent(uint256 saleId, address requestedUser, uint256 priceOffered);\r\n    event SaleAccepted(uint256 saleId, address buyer, uint256 price, uint256 deadline);\r\n\r\n    // Conversion function from Ether to Wei\r\n    function convertToWei(uint256 etherValue) public pure returns (uint256) {\r\n        return etherValue * 1 ether;\r\n    }\r\n\r\n    // Add Property on Sale\r\n    function addPropertyOnSale( uint256 _propertyId, uint256 _price ) public {\r\n        require(msg.sender == propertiesContract.getLandDetailsAsStruct(_propertyId).owner, \"Only the owner can put the property on sale.\");\r\n\r\n        // add property id to list of properties that are available to sold on a loaction\r\n        uint256 priceInWei = convertToWei(_price);\r\n\r\n        Sales memory newSale = Sales({\r\n            saleId: sales.length,\r\n            owner: msg.sender,\r\n            price: priceInWei,\r\n            propertyId: _propertyId,\r\n            acceptedFor: address(0),\r\n            acceptedPrice: 0,\r\n            acceptedTime: 0,\r\n            paymentDone : false,\r\n            state : SaleState.Active,\r\n            acceptedRequestId: 0,\r\n            deadlineForPayment: 0\r\n        });\r\n\r\n        sales.push(newSale);\r\n\r\n        uint256[] storage propertiesOnSale = propertiesOnSaleByLocation[propertiesContract.getLandDetailsAsStruct(_propertyId).locationId];\r\n        propertiesOnSale.push(sales.length - 1);\r\n\r\n        salesOfOwner[msg.sender].push(newSale.saleId);\r\n\r\n        propertiesContract.putOnSale(_propertyId, msg.sender, priceInWei, false);\r\n\r\n        emit PropertyOnSale(msg.sender, _propertyId, newSale.saleId);\r\n    }\r\n\r\n    // function for getting all properties which are on sale of a owner\r\n    function getMySales( address _owner ) public view returns (Sales[] memory) {\r\n        uint256[] memory saleIds = salesOfOwner[_owner];\r\n        Sales[] memory ownerSales = new Sales[](saleIds.length);\r\n\r\n        for (uint256 i = 0; i < saleIds.length; i++) {\r\n            ownerSales[i] = sales[saleIds[i]];\r\n        }\r\n\r\n        return ownerSales;\r\n    }\r\n\r\n    // Function to get all requested user details\r\n    function getRequestedUsers( uint256 saleId ) public view returns (RequestedUser[] memory) {\r\n        return requestedUsers[saleId];\r\n    }\r\n\r\n    // function to get all my requested sales to purchase of a buyer\r\n    function getRequestedSales( address _owner ) public view returns (Sales[] memory) {\r\n        uint256[] memory saleIds = requestedSales[_owner];\r\n        Sales[] memory myRequestedSales = new Sales[](saleIds.length);\r\n\r\n        for (uint256 i = 0; i < saleIds.length; i++) {\r\n            myRequestedSales[i] = sales[saleIds[i]];\r\n        }\r\n\r\n        return myRequestedSales;\r\n    }\r\n\r\n    // function to return status of buyer request to purchase\r\n    function getStatusOfPurchaseRequest( uint256 _saleId ) public view returns (RequestedUser memory) {\r\n        bool buyerFound = false;\r\n        uint i = 0;\r\n        for (i = 0; i < requestedUsers[_saleId].length; i++) {\r\n            if (requestedUsers[_saleId][i].user == msg.sender) {\r\n                buyerFound = true;\r\n                break;\r\n            }\r\n        }\r\n\r\n        if(buyerFound == true){\r\n            return requestedUsers[_saleId][i];\r\n        } else {\r\n            return RequestedUser({ user: address(0), priceOffered: 0, state: RequestedUserToASaleState.SentPurchaseRequest, requestId: 0 });\r\n        }\r\n    }\r\n\r\n    // return all sales in that location\r\n    function getSalesByLocation( uint256 locationId ) public view returns (Sales[] memory) {\r\n        uint256[] memory saleIds = propertiesOnSaleByLocation[locationId];\r\n            \r\n        Sales[] memory salesGoingOnThisLocation = new Sales[](saleIds.length);\r\n\r\n        for (uint256 i = 0; i < saleIds.length; i++) {\r\n            salesGoingOnThisLocation[i] = sales[saleIds[i]];\r\n        }\r\n\r\n        return salesGoingOnThisLocation;\r\n    }\r\n\r\n    // send purchase request to seller to buy a land from buyer\r\n    function sendPurchaseRequest(uint256 _saleId, uint256 _priceOffered) public {\r\n        Sales storage sale = sales[_saleId];\r\n        \r\n        require(sale.propertyId != 0, \"Sale does not exist\");\r\n        require(sale.state == SaleState.Active, \"Property Not in Active State to Purchase\"); \r\n\r\n        // convert price offered to wei\r\n        uint256 priceWei = convertToWei(_priceOffered);\r\n\r\n        uint requestId = propertiesContract.requestToBuy(sale.propertyId, msg.sender, priceWei);\r\n\r\n        requestedUsers[sale.saleId].push(RequestedUser({\r\n            user: msg.sender,\r\n            priceOffered: priceWei,\r\n            state: RequestedUserToASaleState.SentPurchaseRequest,\r\n            requestId: requestId\r\n        }));\r\n        \r\n        requestedSales[msg.sender].push(sale.saleId);\r\n\r\n        emit PurchaseRequestSent(_saleId, msg.sender, priceWei);\r\n    }\r\n\r\n\r\n    // function to accept buyer request \r\n    function acceptBuyerRequest( uint256 _saleId, address _buyer, uint256 _price ) public {\r\n        uint256 priceWei = convertToWei(_price);\r\n\r\n        Sales storage sale = sales[_saleId];\r\n\r\n        require(sale.propertyId != 0, \"Sale does not exist\");\r\n        require(sale.state == SaleState.Active, \"Sale is not active\");\r\n        require(msg.sender == propertiesContract.getLandDetailsAsStruct(sale.propertyId).owner, \"Only the owner can accept the purchase request.\");\r\n\r\n        bool buyerFound = false;\r\n        uint idx = 0;\r\n        for (uint i = 0; i < requestedUsers[sale.saleId].length; i++) {\r\n            if (requestedUsers[sale.saleId][i].user == _buyer) {\r\n                buyerFound = true;\r\n                idx = i;\r\n                break;\r\n            }\r\n        }\r\n\r\n        require(buyerFound, \"Buyer not found in requested user array\");\r\n        require(priceWei == requestedUsers[sale.saleId][idx].priceOffered, \"Price mismatch with buyer's offer\");\r\n\r\n        uint requestId = requestedUsers[sale.saleId][idx].requestId;\r\n        require(requestId != 0, \"Invalid request id\");\r\n\r\n        propertiesContract.approveSale(sale.propertyId, requestId, msg.sender);\r\n\r\n        sale.acceptedFor = _buyer;\r\n        sale.acceptedPrice = priceWei;\r\n        sale.acceptedTime = block.timestamp;\r\n        sale.deadlineForPayment = block.timestamp + 5 minutes;\r\n        sale.state = SaleState.AcceptedBuyerRequest;\r\n        sale.acceptedRequestId = requestId;\r\n\r\n        requestedUsers[sale.saleId][idx].state = RequestedUserToASaleState.SellerAcceptedPurchaseRequest;\r\n\r\n        emit SaleAccepted(_saleId, _buyer, priceWei, sale.deadlineForPayment);\r\n    }\r\n\r\n    // function to cancel sale created by seller\r\n    function cancelSaleBySeller(uint256 _saleId) public returns (bool) {\r\n        Sales storage sale = sales[_saleId];\r\n        \r\n        require(sale.owner == msg.sender, \"Only property owner can cancel sale\");\r\n        require(!sale.paymentDone, \"Payment has already been made\");\r\n        require(sale.state != SaleState.Success, \"Succeeded sale can't be canceled.\");\r\n        require(sale.state != SaleState.AcceptedBuyerRequest, \"Sale accepted to buyer; cancel acceptance first\");\r\n\r\n        sale.state = SaleState.Active; \r\n        sale.acceptedFor = address(0);\r\n        sale.acceptedPrice = 0;\r\n        sale.acceptedTime = 0;\r\n        sale.deadlineForPayment = 0;\r\n        sale.paymentDone = false;\r\n        sale.acceptedRequestId = 0;\r\n\r\n        propertiesContract.putOnSale(sale.propertyId, msg.sender, 0, true);\r\n\r\n        return true;\r\n    }\r\n\r\n    // Buyer completes payment and triggers ownership transfer\r\n    function transferOwnerShip( uint256 saleId ) public payable {\r\n        Sales storage sale = sales[saleId];\r\n        \r\n        require(sale.acceptedFor != address(0), \"No buyer accepted\");\r\n        require(msg.sender == sale.acceptedFor, \"Only accepted buyer can complete the sale\");\r\n        require(msg.value == sale.acceptedPrice, \"Payment amount must be equal to accepted price\");\r\n        require(block.timestamp <= sale.deadlineForPayment, \"Payment deadline has passed\");\r\n        \r\n        bool buyerFound = false;\r\n        uint idx = 0;\r\n        for (uint i = 0; i < requestedUsers[sale.saleId].length; i++) {\r\n            if (requestedUsers[sale.saleId][i].user == msg.sender) {\r\n                buyerFound = true;\r\n                idx = i;\r\n                break;\r\n            }\r\n        }\r\n        require(buyerFound, \"Buyer not found in requested list\");\r\n        \r\n        payable(sale.owner).transfer(msg.value);\r\n\r\n        LandRegistryContract.transferOwnership(sale.propertyId, sale.acceptedRequestId, sale.acceptedFor);\r\n\r\n        requestedUsers[sale.saleId][idx].state = RequestedUserToASaleState.SuccessfullyTransfered;\r\n\r\n        uint256 _location = propertiesContract.getLandDetailsAsStruct(sale.propertyId).locationId;\r\n        uint256[] storage propertiesOnSale = propertiesOnSaleByLocation[_location];\r\n        for (uint i = 0; i < propertiesOnSale.length; i++) {\r\n            if (propertiesOnSale[i] == sale.saleId) {\r\n                propertiesOnSale[i] = propertiesOnSale[propertiesOnSale.length - 1];\r\n                propertiesOnSale.pop();\r\n                break;\r\n            }\r\n        }\r\n\r\n        sale.state = SaleState.Success;\r\n        sale.paymentDone = true;\r\n    }\r\n}",
  "sourcePath": "C:\\Users\\Shalini Patel\\Desktop\\College\\Capstone Project\\property-ledger\\contracts\\PropertyExchange.sol",
  "compiler": {
    "name": "solc",
    "version": "0.8.21+commit.d9974bed.Emscripten.clang"
  },
  "schemaVersion": "3.4.16",
  "updatedAt": "2025-11-13T18:48:28.149Z",
  "networkType": "ethereum",
  "devdoc": {
    "kind": "dev",
    "methods": {},
    "version": 1
  },
  "userdoc": {
    "kind": "user",
    "methods": {},
    "version": 1
  }
}