{
  "contractName": "PropertyExchange",
  "abi": [
    {
      "inputs": [
        {
          "internalType": "address",
          "name": "_landRegistryContractAddress",
          "type": "address"
        }
      ],
      "stateMutability": "nonpayable",
      "type": "constructor"
    },
    {
      "anonymous": false,
      "inputs": [
        {
          "indexed": true,
          "internalType": "address",
          "name": "owner",
          "type": "address"
        },
        {
          "indexed": true,
          "internalType": "uint256",
          "name": "propertyId",
          "type": "uint256"
        },
        {
          "indexed": false,
          "internalType": "uint256",
          "name": "saleId",
          "type": "uint256"
        }
      ],
      "name": "PropertyOnSale",
      "type": "event"
    },
    {
      "anonymous": false,
      "inputs": [
        {
          "indexed": false,
          "internalType": "uint256",
          "name": "saleId",
          "type": "uint256"
        },
        {
          "indexed": false,
          "internalType": "address",
          "name": "requestedUser",
          "type": "address"
        },
        {
          "indexed": false,
          "internalType": "uint256",
          "name": "priceOffered",
          "type": "uint256"
        }
      ],
      "name": "PurchaseRequestSent",
      "type": "event"
    },
    {
      "anonymous": false,
      "inputs": [
        {
          "indexed": false,
          "internalType": "uint256",
          "name": "saleId",
          "type": "uint256"
        },
        {
          "indexed": false,
          "internalType": "address",
          "name": "buyer",
          "type": "address"
        },
        {
          "indexed": false,
          "internalType": "uint256",
          "name": "price",
          "type": "uint256"
        },
        {
          "indexed": false,
          "internalType": "uint256",
          "name": "deadline",
          "type": "uint256"
        }
      ],
      "name": "SaleAccepted",
      "type": "event"
    },
    {
      "inputs": [
        {
          "internalType": "address",
          "name": "",
          "type": "address"
        },
        {
          "internalType": "uint256",
          "name": "",
          "type": "uint256"
        }
      ],
      "name": "requestedSales",
      "outputs": [
        {
          "internalType": "uint256",
          "name": "",
          "type": "uint256"
        }
      ],
      "stateMutability": "view",
      "type": "function",
      "constant": true
    },
    {
      "inputs": [
        {
          "internalType": "uint256",
          "name": "etherValue",
          "type": "uint256"
        }
      ],
      "name": "convertToWei",
      "outputs": [
        {
          "internalType": "uint256",
          "name": "",
          "type": "uint256"
        }
      ],
      "stateMutability": "pure",
      "type": "function",
      "constant": true
    },
    {
      "inputs": [
        {
          "internalType": "uint256",
          "name": "_propertyId",
          "type": "uint256"
        },
        {
          "internalType": "uint256",
          "name": "_price",
          "type": "uint256"
        }
      ],
      "name": "addPropertyOnSale",
      "outputs": [],
      "stateMutability": "nonpayable",
      "type": "function"
    },
    {
      "inputs": [
        {
          "internalType": "address",
          "name": "_owner",
          "type": "address"
        }
      ],
      "name": "getMySales",
      "outputs": [
        {
          "components": [
            {
              "internalType": "uint256",
              "name": "saleId",
              "type": "uint256"
            },
            {
              "internalType": "address",
              "name": "owner",
              "type": "address"
            },
            {
              "internalType": "uint256",
              "name": "price",
              "type": "uint256"
            },
            {
              "internalType": "uint256",
              "name": "propertyId",
              "type": "uint256"
            },
            {
              "internalType": "address",
              "name": "acceptedFor",
              "type": "address"
            },
            {
              "internalType": "uint256",
              "name": "acceptedPrice",
              "type": "uint256"
            },
            {
              "internalType": "uint256",
              "name": "acceptedTime",
              "type": "uint256"
            },
            {
              "internalType": "bool",
              "name": "paymentDone",
              "type": "bool"
            },
            {
              "internalType": "enum PropertyExchange.SaleState",
              "name": "state",
              "type": "uint8"
            },
            {
              "internalType": "uint256",
              "name": "acceptedRequestId",
              "type": "uint256"
            },
            {
              "internalType": "uint256",
              "name": "deadlineForPayment",
              "type": "uint256"
            }
          ],
          "internalType": "struct PropertyExchange.Sales[]",
          "name": "",
          "type": "tuple[]"
        }
      ],
      "stateMutability": "view",
      "type": "function",
      "constant": true
    },
    {
      "inputs": [
        {
          "internalType": "uint256",
          "name": "saleId",
          "type": "uint256"
        }
      ],
      "name": "getRequestedUsers",
      "outputs": [
        {
          "components": [
            {
              "internalType": "address",
              "name": "user",
              "type": "address"
            },
            {
              "internalType": "uint256",
              "name": "priceOffered",
              "type": "uint256"
            },
            {
              "internalType": "enum PropertyExchange.RequestedUserToASaleState",
              "name": "state",
              "type": "uint8"
            },
            {
              "internalType": "uint256",
              "name": "requestId",
              "type": "uint256"
            }
          ],
          "internalType": "struct PropertyExchange.RequestedUser[]",
          "name": "",
          "type": "tuple[]"
        }
      ],
      "stateMutability": "view",
      "type": "function",
      "constant": true
    },
    {
      "inputs": [
        {
          "internalType": "address",
          "name": "_owner",
          "type": "address"
        }
      ],
      "name": "getRequestedSales",
      "outputs": [
        {
          "components": [
            {
              "internalType": "uint256",
              "name": "saleId",
              "type": "uint256"
            },
            {
              "internalType": "address",
              "name": "owner",
              "type": "address"
            },
            {
              "internalType": "uint256",
              "name": "price",
              "type": "uint256"
            },
            {
              "internalType": "uint256",
              "name": "propertyId",
              "type": "uint256"
            },
            {
              "internalType": "address",
              "name": "acceptedFor",
              "type": "address"
            },
            {
              "internalType": "uint256",
              "name": "acceptedPrice",
              "type": "uint256"
            },
            {
              "internalType": "uint256",
              "name": "acceptedTime",
              "type": "uint256"
            },
            {
              "internalType": "bool",
              "name": "paymentDone",
              "type": "bool"
            },
            {
              "internalType": "enum PropertyExchange.SaleState",
              "name": "state",
              "type": "uint8"
            },
            {
              "internalType": "uint256",
              "name": "acceptedRequestId",
              "type": "uint256"
            },
            {
              "internalType": "uint256",
              "name": "deadlineForPayment",
              "type": "uint256"
            }
          ],
          "internalType": "struct PropertyExchange.Sales[]",
          "name": "",
          "type": "tuple[]"
        }
      ],
      "stateMutability": "view",
      "type": "function",
      "constant": true
    },
    {
      "inputs": [
        {
          "internalType": "uint256",
          "name": "_saleId",
          "type": "uint256"
        }
      ],
      "name": "getStatusOfPurchaseRequest",
      "outputs": [
        {
          "components": [
            {
              "internalType": "address",
              "name": "user",
              "type": "address"
            },
            {
              "internalType": "uint256",
              "name": "priceOffered",
              "type": "uint256"
            },
            {
              "internalType": "enum PropertyExchange.RequestedUserToASaleState",
              "name": "state",
              "type": "uint8"
            },
            {
              "internalType": "uint256",
              "name": "requestId",
              "type": "uint256"
            }
          ],
          "internalType": "struct PropertyExchange.RequestedUser",
          "name": "",
          "type": "tuple"
        }
      ],
      "stateMutability": "view",
      "type": "function",
      "constant": true
    },
    {
      "inputs": [
        {
          "internalType": "uint256",
          "name": "locationId",
          "type": "uint256"
        }
      ],
      "name": "getSalesByLocation",
      "outputs": [
        {
          "components": [
            {
              "internalType": "uint256",
              "name": "saleId",
              "type": "uint256"
            },
            {
              "internalType": "address",
              "name": "owner",
              "type": "address"
            },
            {
              "internalType": "uint256",
              "name": "price",
              "type": "uint256"
            },
            {
              "internalType": "uint256",
              "name": "propertyId",
              "type": "uint256"
            },
            {
              "internalType": "address",
              "name": "acceptedFor",
              "type": "address"
            },
            {
              "internalType": "uint256",
              "name": "acceptedPrice",
              "type": "uint256"
            },
            {
              "internalType": "uint256",
              "name": "acceptedTime",
              "type": "uint256"
            },
            {
              "internalType": "bool",
              "name": "paymentDone",
              "type": "bool"
            },
            {
              "internalType": "enum PropertyExchange.SaleState",
              "name": "state",
              "type": "uint8"
            },
            {
              "internalType": "uint256",
              "name": "acceptedRequestId",
              "type": "uint256"
            },
            {
              "internalType": "uint256",
              "name": "deadlineForPayment",
              "type": "uint256"
            }
          ],
          "internalType": "struct PropertyExchange.Sales[]",
          "name": "",
          "type": "tuple[]"
        }
      ],
      "stateMutability": "view",
      "type": "function",
      "constant": true
    },
    {
      "inputs": [
        {
          "internalType": "uint256",
          "name": "_saleId",
          "type": "uint256"
        },
        {
          "internalType": "uint256",
          "name": "_priceOffered",
          "type": "uint256"
        }
      ],
      "name": "sendPurchaseRequest",
      "outputs": [],
      "stateMutability": "nonpayable",
      "type": "function"
    },
    {
      "inputs": [
        {
          "internalType": "uint256",
          "name": "_saleId",
          "type": "uint256"
        },
        {
          "internalType": "address",
          "name": "_buyer",
          "type": "address"
        },
        {
          "internalType": "uint256",
          "name": "_price",
          "type": "uint256"
        }
      ],
      "name": "acceptBuyerRequest",
      "outputs": [],
      "stateMutability": "nonpayable",
      "type": "function"
    },
    {
      "inputs": [
        {
          "internalType": "uint256",
          "name": "_saleId",
          "type": "uint256"
        }
      ],
      "name": "cancelSaleBySeller",
      "outputs": [
        {
          "internalType": "bool",
          "name": "",
          "type": "bool"
        }
      ],
      "stateMutability": "nonpayable",
      "type": "function"
    },
    {
      "inputs": [
        {
          "internalType": "uint256",
          "name": "saleId",
          "type": "uint256"
        }
      ],
      "name": "transferOwnerShip",
      "outputs": [],
      "stateMutability": "payable",
      "type": "function",
      "payable": true
    }
  ],
  "bytecode": "0x60806040523480156200001157600080fd5b506040516200251338038062002513833981016040819052620000349162000137565b600180546001600160a01b0319166001600160a01b03831690811790915560408051632e7f8bfd60e21b815290516000929163b9fe2ff49160048083019260209291908290030181865afa15801562000091573d6000803e3d6000fd5b505050506040513d601f19601f82011682018060405250810190620000b7919062000137565b600080546001600160a01b0319166001600160a01b0383811691909117909155600154604051630cf36e5760e01b81523060048201529293501690630cf36e5790602401600060405180830381600087803b1580156200011657600080fd5b505af11580156200012b573d6000803e3d6000fd5b50505050505062000169565b6000602082840312156200014a57600080fd5b81516001600160a01b03811681146200016257600080fd5b9392505050565b61239a80620001796000396000f3fe6080604052600436106100a75760003560e01c8063a60dc38a11610064578063a60dc38a14610191578063b23ac000146101bf578063ba2961a4146101df578063ba36012a146101ff578063c921147f1461022f578063f62459fd1461024f57600080fd5b8063227da9f5146100ac5780633d4a5ca7146100e2578063449b6d3d1461010f5780635af7d7861461013c5780639f79a7f21461015e578063a0fe76fb1461017e575b600080fd5b3480156100b857600080fd5b506100cc6100c7366004611f3d565b61026f565b6040516100d99190611fa8565b60405180910390f35b3480156100ee57600080fd5b506101026100fd366004611f3d565b6103dc565b6040516100d99190611fb6565b34801561011b57600080fd5b5061012f61012a36600461201c565b6104a9565b6040516100d99190612054565b34801561014857600080fd5b5061015c61015736600461211c565b61069f565b005b34801561016a57600080fd5b5061015c61017936600461211c565b610b38565b61015c61018c366004611f3d565b610dcc565b34801561019d57600080fd5b506101b16101ac366004611f3d565b6112c0565b6040519081526020016100d9565b3480156101cb57600080fd5b5061015c6101da36600461213e565b6112da565b3480156101eb57600080fd5b5061012f6101fa366004611f3d565b61181c565b34801561020b57600080fd5b5061021f61021a366004611f3d565b611a00565b60405190151581526020016100d9565b34801561023b57600080fd5b506101b161024a366004612176565b611c9f565b34801561025b57600080fd5b5061012f61026a36600461201c565b611cd0565b604080516080810182526000808252602082018190529181018290526060810182905290805b6000848152600560205260409020548110156103085760008481526005602052604090208054339190839081106102ce576102ce6121a2565b60009182526020909120600490910201546001600160a01b0316036102f65760019150610308565b80610300816121ce565b915050610295565b8115156001036103af576000848152600560205260409020805482908110610332576103326121a2565b600091825260209182902060408051608081018252600493840290920180546001600160a01b0316835260018101549483019490945260028401549193929084019160ff169081111561038757610387611f56565b600481111561039857610398611f56565b815260200160038201548152505092505050919050565b60408051608081018252600080825260208201819052909182019081526000602090910152949350505050565b606060056000838152602001908152602001600020805480602002602001604051908101604052809291908181526020016000905b8282101561049e57600084815260209081902060408051608081018252600480870290930180546001600160a01b0316825260018101549482019490945260028401549093929184019160ff9091169081111561047057610470611f56565b600481111561048157610481611f56565b815260200160038201548152505081526020019060010190610411565b505050509050919050565b6001600160a01b038116600090815260046020908152604080832080548251818502810185019093528083526060949383018282801561050857602002820191906000526020600020905b8154815260200190600101908083116104f4575b505050505090506000815167ffffffffffffffff81111561052b5761052b6121e7565b60405190808252806020026020018201604052801561056457816020015b610551611ebe565b8152602001906001900390816105495790505b50905060005b8251811015610697576002838281518110610587576105876121a2565b60200260200101518154811061059f5761059f6121a2565b60009182526020918290206040805161016081018252600a9093029091018054835260018101546001600160a01b0390811694840194909452600280820154928401929092526003810154606084015260048101549093166080830152600583015460a0830152600683015460c0830152600783015460ff808216151560e0850152929392610100808601939204169081111561063e5761063e611f56565b600281111561064f5761064f611f56565b815260200160088201548152602001600982015481525050828281518110610679576106796121a2565b6020026020010181905250808061068f906121ce565b91505061056a565b509392505050565b60005460405163fbb62fe760e01b8152600481018490526001600160a01b039091169063fbb62fe79060240161016060405180830381865afa1580156106e9573d6000803e3d6000fd5b505050506040513d601f19601f8201168201806040525081019061070d9190612254565b602001516001600160a01b0316336001600160a01b03161461078b5760405162461bcd60e51b815260206004820152602c60248201527f4f6e6c7920746865206f776e65722063616e20707574207468652070726f706560448201526b393a3c9037b71039b0b6329760a11b60648201526084015b60405180910390fd5b6000805460405163fbb62fe760e01b81526004810185905260069183916001600160a01b039091169063fbb62fe79060240161016060405180830381865afa1580156107db573d6000803e3d6000fd5b505050506040513d601f19601f820116820180604052508101906107ff9190612254565b608001518152602080820192909252604001600090812060025481546001810183558284529383209093019290925590915061083a836112c0565b6040805161016081018252600280548083523360208401908152938301858152606084018a815260006080860181815260a0870182815260c0880183815260e08901848152610100808b018681526101208c018790526101408c0187905260018a018b55958a90528a51600a9099027f405787fa12a823e0f2b7631cc41b3ba8828b3321ca811111fa75cd3aa3bb5ace8101998a559b517f405787fa12a823e0f2b7631cc41b3ba8828b3321ca811111fa75cd3aa3bb5acf8d0180546001600160a01b039283166001600160a01b03199182161790915598517f405787fa12a823e0f2b7631cc41b3ba8828b3321ca811111fa75cd3aa3bb5ad08e015596517f405787fa12a823e0f2b7631cc41b3ba8828b3321ca811111fa75cd3aa3bb5ad18d015593517f405787fa12a823e0f2b7631cc41b3ba8828b3321ca811111fa75cd3aa3bb5ad28c01805491909716971696909617909455517f405787fa12a823e0f2b7631cc41b3ba8828b3321ca811111fa75cd3aa3bb5ad389015591517f405787fa12a823e0f2b7631cc41b3ba8828b3321ca811111fa75cd3aa3bb5ad488015591517f405787fa12a823e0f2b7631cc41b3ba8828b3321ca811111fa75cd3aa3bb5ad5909601805496151560ff1988168117825592519798509496879693959094909361ff001990931661ffff1990931692909217918490811115610a4357610a43611f56565b02179055506101208201516008820155610140909101516009909101553360008181526003602090815260408083208551815460018101835591855292842001919091558154905163bcee5a9d60e01b81526004810189905260248101939093526044830185905260648301919091526001600160a01b03169063bcee5a9d90608401600060405180830381600087803b158015610ae057600080fd5b505af1158015610af4573d6000803e3d6000fd5b505082516040519081528792503391507f2e3f92a5fda60f34892d89d5b35c9d5fced8bf480fa1c3c7acf0504950f4f1649060200160405180910390a35050505050565b600060028381548110610b4d57610b4d6121a2565b90600052602060002090600a020190508060030154600003610ba75760405162461bcd60e51b815260206004820152601360248201527214d85b1948191bd95cc81b9bdd08195e1a5cdd606a1b6044820152606401610782565b60006007820154610100900460ff166002811115610bc757610bc7611f56565b14610c255760405162461bcd60e51b815260206004820152602860248201527f50726f7065727479204e6f7420696e2041637469766520537461746520746f20604482015267507572636861736560c01b6064820152608401610782565b6000610c30836112c0565b600080546003850154604051630ae95ee760e21b815260048101919091523360248201526044810184905292935090916001600160a01b0390911690632ba57b9c906064016020604051808303816000875af1158015610c94573d6000803e3d6000fd5b505050506040513d601f19601f82011682018060405250810190610cb891906122f8565b83546000908152600560209081526040808320815160808101835233815280840188815292810185815260608201879052825460018082018555938752949095208151600495860290910180546001600160a01b0319166001600160a01b039092169190911781559251838301559351600283018054969750949592949093909260ff191691908490811115610d5057610d50611f56565b02179055506060918201516003909101553360008181526004602090815260408083208854815460018101835591855293839020019290925581518981529081019290925281018690527fc8563b268bdb427da3059ff194f3e6f4c1da1ed37cd2ed6b90993415398f6bda910160405180910390a15050505050565b600060028281548110610de157610de16121a2565b60009182526020909120600a9091020160048101549091506001600160a01b0316610e425760405162461bcd60e51b8152602060048201526011602482015270139bc8189d5e595c881858d8d95c1d1959607a1b6044820152606401610782565b60048101546001600160a01b03163314610eb05760405162461bcd60e51b815260206004820152602960248201527f4f6e6c792061636365707465642062757965722063616e20636f6d706c657465604482015268207468652073616c6560b81b6064820152608401610782565b80600501543414610f1a5760405162461bcd60e51b815260206004820152602e60248201527f5061796d656e7420616d6f756e74206d75737420626520657175616c20746f2060448201526d616363657074656420707269636560901b6064820152608401610782565b8060090154421115610f6e5760405162461bcd60e51b815260206004820152601b60248201527f5061796d656e7420646561646c696e65206861732070617373656400000000006044820152606401610782565b60008060005b8354600090815260056020526040902054811015610fee5783546000908152600560205260409020805433919083908110610fb157610fb16121a2565b60009182526020909120600490910201546001600160a01b031603610fdc5760019250809150610fee565b80610fe6816121ce565b915050610f74565b50816110465760405162461bcd60e51b815260206004820152602160248201527f4275796572206e6f7420666f756e6420696e20726571756573746564206c69736044820152601d60fa1b6064820152608401610782565b60018301546040516001600160a01b03909116903480156108fc02916000818181858888f19350505050158015611081573d6000803e3d6000fd5b5060015460038401546008850154600480870154604051631811ade360e01b81529182019390935260248101919091526001600160a01b039182166044820152911690631811ade390606401600060405180830381600087803b1580156110e757600080fd5b505af11580156110fb573d6000803e3d6000fd5b50508454600090815260056020526040902080546004935090915083908110611126576111266121a2565b906000526020600020906004020160020160006101000a81548160ff0219169083600481111561115857611158611f56565b021790555060008054600385015460405163fbb62fe760e01b81526001600160a01b039092169163fbb62fe7916111959160040190815260200190565b61016060405180830381865afa1580156111b3573d6000803e3d6000fd5b505050506040513d601f19601f820116820180604052508101906111d79190612254565b6080015160008181526006602052604081209192505b81548110156112a557856000015482828154811061120d5761120d6121a2565b906000526020600020015403611293578154829061122d90600190612311565b8154811061123d5761123d6121a2565b906000526020600020015482828154811061125a5761125a6121a2565b90600052602060002001819055508180548061127857611278612324565b600190038181906000526020600020016000905590556112a5565b8061129d816121ce565b9150506111ed565b50505050600791909101805461ffff19166102011790555050565b60006112d482670de0b6b3a764000061233a565b92915050565b60006112e5826112c0565b90506000600285815481106112fc576112fc6121a2565b90600052602060002090600a0201905080600301546000036113565760405162461bcd60e51b815260206004820152601360248201527214d85b1948191bd95cc81b9bdd08195e1a5cdd606a1b6044820152606401610782565b60006007820154610100900460ff16600281111561137657611376611f56565b146113b85760405162461bcd60e51b815260206004820152601260248201527153616c65206973206e6f742061637469766560701b6044820152606401610782565b600054600382015460405163fbb62fe760e01b81526001600160a01b039092169163fbb62fe7916113ef9160040190815260200190565b61016060405180830381865afa15801561140d573d6000803e3d6000fd5b505050506040513d601f19601f820116820180604052508101906114319190612254565b602001516001600160a01b0316336001600160a01b0316146114ad5760405162461bcd60e51b815260206004820152602f60248201527f4f6e6c7920746865206f776e65722063616e206163636570742074686520707560448201526e3931b430b9b2903932b8bab2b9ba1760891b6064820152608401610782565b60008060005b8354600090815260056020526040902054811015611536578354600090815260056020526040902080546001600160a01b0389169190839081106114f9576114f96121a2565b60009182526020909120600490910201546001600160a01b0316036115245760019250809150611536565b8061152e816121ce565b9150506114b3565b50816115945760405162461bcd60e51b815260206004820152602760248201527f4275796572206e6f7420666f756e6420696e20726571756573746564207573656044820152667220617272617960c81b6064820152608401610782565b825460009081526005602052604090208054829081106115b6576115b66121a2565b90600052602060002090600402016001015484146116205760405162461bcd60e51b815260206004820152602160248201527f5072696365206d69736d6174636820776974682062757965722773206f6666656044820152603960f91b6064820152608401610782565b82546000908152600560205260408120805483908110611642576116426121a2565b90600052602060002090600402016003015490508060000361169b5760405162461bcd60e51b8152602060048201526012602482015271125b9d985b1a59081c995c5d595cdd081a5960721b6044820152606401610782565b600054600385015460405163af506dbd60e01b81526004810191909152602481018390523360448201526001600160a01b039091169063af506dbd90606401600060405180830381600087803b1580156116f457600080fd5b505af1158015611708573d6000803e3d6000fd5b505050506004840180546001600160a01b0319166001600160a01b0389161790556005840185905542600685018190556117449061012c612351565b600985015560078401805461ff001916610100179055600884018190558354600090815260056020526040902080546002919084908110611787576117876121a2565b906000526020600020906004020160020160006101000a81548160ff021916908360048111156117b9576117b9611f56565b02179055506009840154604080518a81526001600160a01b038a1660208201528082018890526060810192909252517f36a90be4cc85a10604516d70cdf8d7fa5f0b470e9dc0f6ba6de9a74cae9546f39181900360800190a15050505050505050565b600081815260066020908152604080832080548251818502810185019093528083526060949383018282801561187157602002820191906000526020600020905b81548152602001906001019080831161185d575b505050505090506000815167ffffffffffffffff811115611894576118946121e7565b6040519080825280602002602001820160405280156118cd57816020015b6118ba611ebe565b8152602001906001900390816118b25790505b50905060005b82518110156106975760028382815181106118f0576118f06121a2565b602002602001015181548110611908576119086121a2565b60009182526020918290206040805161016081018252600a9093029091018054835260018101546001600160a01b0390811694840194909452600280820154928401929092526003810154606084015260048101549093166080830152600583015460a0830152600683015460c0830152600783015460ff808216151560e085015292939261010080860193920416908111156119a7576119a7611f56565b60028111156119b8576119b8611f56565b8152602001600882015481526020016009820154815250508282815181106119e2576119e26121a2565b602002602001018190525080806119f8906121ce565b9150506118d3565b60008060028381548110611a1657611a166121a2565b600091825260209091206001600a90920201908101549091506001600160a01b03163314611a925760405162461bcd60e51b815260206004820152602360248201527f4f6e6c792070726f7065727479206f776e65722063616e2063616e63656c2073604482015262616c6560e81b6064820152608401610782565b600781015460ff1615611ae75760405162461bcd60e51b815260206004820152601d60248201527f5061796d656e742068617320616c7265616479206265656e206d6164650000006044820152606401610782565b60026007820154610100900460ff166002811115611b0757611b07611f56565b03611b5e5760405162461bcd60e51b815260206004820152602160248201527f5375636365656465642073616c652063616e27742062652063616e63656c65646044820152601760f91b6064820152608401610782565b60016007820154610100900460ff166002811115611b7e57611b7e611f56565b03611be35760405162461bcd60e51b815260206004820152602f60248201527f53616c6520616363657074656420746f2062757965723b2063616e63656c206160448201526e18d8d95c1d185b98d948199a5c9cdd608a1b6064820152608401610782565b600781018054600480840180546001600160a01b0319169055600060058501819055600685018190556009850181905561ffff19909216909255600883018190558054600384015460405163bcee5a9d60e01b8152938401523360248401526044830191909152600160648301526001600160a01b03169063bcee5a9d90608401600060405180830381600087803b158015611c7e57600080fd5b505af1158015611c92573d6000803e3d6000fd5b5060019695505050505050565b60046020528160005260406000208181548110611cbb57600080fd5b90600052602060002001600091509150505481565b6001600160a01b0381166000908152600360209081526040808320805482518185028101850190935280835260609493830182828015611d2f57602002820191906000526020600020905b815481526020019060010190808311611d1b575b505050505090506000815167ffffffffffffffff811115611d5257611d526121e7565b604051908082528060200260200182016040528015611d8b57816020015b611d78611ebe565b815260200190600190039081611d705790505b50905060005b8251811015610697576002838281518110611dae57611dae6121a2565b602002602001015181548110611dc657611dc66121a2565b60009182526020918290206040805161016081018252600a9093029091018054835260018101546001600160a01b0390811694840194909452600280820154928401929092526003810154606084015260048101549093166080830152600583015460a0830152600683015460c0830152600783015460ff808216151560e08501529293926101008086019392041690811115611e6557611e65611f56565b6002811115611e7657611e76611f56565b815260200160088201548152602001600982015481525050828281518110611ea057611ea06121a2565b60200260200101819052508080611eb6906121ce565b915050611d91565b6040518061016001604052806000815260200160006001600160a01b03168152602001600081526020016000815260200160006001600160a01b03168152602001600081526020016000815260200160001515815260200160006002811115611f2957611f29611f56565b815260200160008152602001600081525090565b600060208284031215611f4f57600080fd5b5035919050565b634e487b7160e01b600052602160045260246000fd5b80516001600160a01b0316825260208082015190830152604081015160058110611f9857611f98611f56565b6040830152606090810151910152565b608081016112d48284611f6c565b6020808252825182820181905260009190848201906040850190845b81811015611ff857611fe5838551611f6c565b9284019260809290920191600101611fd2565b50909695505050505050565b6001600160a01b038116811461201957600080fd5b50565b60006020828403121561202e57600080fd5b813561203981612004565b9392505050565b6003811061205057612050611f56565b9052565b602080825282518282018190526000919060409081850190868401855b8281101561210f57815180518552868101516001600160a01b03908116888701528682015187870152606080830151908701526080808301519091169086015260a0808201519086015260c0808201519086015260e080820151151590860152610100808201516120e482880182612040565b5050610120818101519086015261014090810151908501526101609093019290850190600101612071565b5091979650505050505050565b6000806040838503121561212f57600080fd5b50508035926020909101359150565b60008060006060848603121561215357600080fd5b83359250602084013561216581612004565b929592945050506040919091013590565b6000806040838503121561218957600080fd5b823561219481612004565b946020939093013593505050565b634e487b7160e01b600052603260045260246000fd5b634e487b7160e01b600052601160045260246000fd5b6000600182016121e0576121e06121b8565b5060010190565b634e487b7160e01b600052604160045260246000fd5b604051610160810167ffffffffffffffff8111828210171561222f57634e487b7160e01b600052604160045260246000fd5b60405290565b805161224081612004565b919050565b80516006811061224057600080fd5b6000610160828403121561226757600080fd5b61226f6121fd565b8251815261227f60208401612235565b602082015261229060408401612235565b6040820152606083015160608201526080830151608082015260a083015160a082015260c083015160c082015260e083015160e08201526101008084015181830152506101208084015181830152506101406122ed818501612245565b908201529392505050565b60006020828403121561230a57600080fd5b5051919050565b818103818111156112d4576112d46121b8565b634e487b7160e01b600052603160045260246000fd5b80820281158282048414176112d4576112d46121b8565b808201808211156112d4576112d46121b856fea264697066735822122039c0e8185888bcc54a9794bee426ec9f7d2f0b59831988fc965361c5606b526f64736f6c63430008150033",
  "immutableReferences": {},
  "source": "// SPDX-License-Identifier: Unlicensed\r\npragma solidity ^0.8.21;\r\n\r\nimport \"./PropertyLedger.sol\";\r\nimport \"./PropertyRegistry.sol\";\r\n\r\ncontract PropertyExchange {\r\n\r\n    PropertyLedger private propertiesContract;\r\n    PropertyRegistry private LandRegistryContract;\r\n\r\n    constructor(address _landRegistryContractAddress){\r\n        LandRegistryContract = PropertyRegistry(_landRegistryContractAddress);\r\n        \r\n        address propertiesContractAddress = LandRegistryContract.getPropertiesContract();  \r\n\r\n        propertiesContract = PropertyLedger(propertiesContractAddress);\r\n\r\n        LandRegistryContract.setTransferOwnershipContractAddress(address(this));\r\n    }    \r\n\r\n    enum SaleState {\r\n        Active, // on creation of sale by owner\r\n        AcceptedBuyerRequest, // on accepting a buyer request\r\n        Success // on successful payment and ownership transfer \r\n    }\r\n\r\n    enum RequestedUserToASaleState {\r\n        SentPurchaseRequest, // Buyer has sent purchase request to a seller\r\n        CancelPurchaseRequest, //  Buyer wants to cancel purchase request sent. \r\n\r\n        SellerAcceptedPurchaseRequest, // Seller Accepted Purchase Request of a Buyer\r\n        SellerRejectedPurchaseRequest, // Seller Rejected Purchase Request \r\n\r\n        SuccessfullyTransfered\r\n    }\r\n\r\n    struct RequestedUser {\r\n        address user;\r\n        uint256 priceOffered;\r\n        RequestedUserToASaleState state;\r\n        uint requestId; // request id from property contract\r\n    }\r\n\r\n    struct Sales {\r\n        uint256 saleId;\r\n        address owner;\r\n        uint256 price;\r\n        uint256 propertyId;\r\n        address acceptedFor;\r\n        uint256 acceptedPrice;\r\n        uint256 acceptedTime;\r\n        bool paymentDone;\r\n        SaleState state;\r\n        uint acceptedRequestId; // request id in Property contract that was accepted\r\n        uint256 deadlineForPayment;\r\n    }\r\n\r\n    Sales[] private sales;\r\n\r\n    mapping(address => uint256[]) private salesOfOwner;\r\n    mapping(address => uint256[]) public requestedSales;\r\n    mapping(uint256 => RequestedUser[]) requestedUsers;\r\n    mapping(uint256 => uint256[]) private propertiesOnSaleByLocation;\r\n\r\n    event PropertyOnSale(address indexed owner, uint256 indexed propertyId, uint256 saleId);\r\n    event PurchaseRequestSent(uint256 saleId, address requestedUser, uint256 priceOffered);\r\n    event SaleAccepted(uint256 saleId, address buyer, uint256 price, uint256 deadline);\r\n\r\n    // Conversion function from Ether to Wei\r\n    function convertToWei(uint256 etherValue) public pure returns (uint256) {\r\n        return etherValue * 1 ether;\r\n    }\r\n\r\n    // Add Property on Sale\r\n    function addPropertyOnSale( uint256 _propertyId, uint256 _price ) public {\r\n        require(msg.sender == propertiesContract.getLandDetailsAsStruct(_propertyId).owner, \"Only the owner can put the property on sale.\");\r\n\r\n        // add property id to list of properties that are available to sold on a loaction\r\n        uint256[] storage propertiesOnSale = propertiesOnSaleByLocation[propertiesContract.getLandDetailsAsStruct(_propertyId).locationId];\r\n        propertiesOnSale.push(sales.length);\r\n\r\n        uint256 priceInWei = convertToWei(_price);\r\n\r\n        Sales memory newSale = Sales({\r\n            saleId: sales.length,\r\n            owner: msg.sender,\r\n            price: priceInWei,\r\n            propertyId: _propertyId,\r\n            acceptedFor: address(0),\r\n            acceptedPrice: 0,\r\n            acceptedTime: 0,\r\n            paymentDone : false,\r\n            state : SaleState.Active,\r\n            acceptedRequestId: 0,\r\n            deadlineForPayment: 0\r\n        });\r\n\r\n        sales.push(newSale);\r\n        salesOfOwner[msg.sender].push(newSale.saleId);\r\n\r\n        propertiesContract.putOnSale(_propertyId, msg.sender, priceInWei, false);\r\n\r\n        emit PropertyOnSale(msg.sender, _propertyId, newSale.saleId);\r\n    }\r\n\r\n    // function for getting all properties which are on sale of a owner\r\n    function getMySales( address _owner ) public view returns (Sales[] memory) {\r\n        uint256[] memory saleIds = salesOfOwner[_owner];\r\n        Sales[] memory ownerSales = new Sales[](saleIds.length);\r\n\r\n        for (uint256 i = 0; i < saleIds.length; i++) {\r\n            ownerSales[i] = sales[saleIds[i]];\r\n        }\r\n\r\n        return ownerSales;\r\n    }\r\n\r\n    // Function to get all requested user details\r\n    function getRequestedUsers( uint256 saleId ) public view returns (RequestedUser[] memory) {\r\n        return requestedUsers[saleId];\r\n    }\r\n\r\n    // function to get all my requested sales to purchase of a buyer\r\n    function getRequestedSales( address _owner ) public view returns (Sales[] memory) {\r\n        uint256[] memory saleIds = requestedSales[_owner];\r\n        Sales[] memory myRequestedSales = new Sales[](saleIds.length);\r\n\r\n        for (uint256 i = 0; i < saleIds.length; i++) {\r\n            myRequestedSales[i] = sales[saleIds[i]];\r\n        }\r\n\r\n        return myRequestedSales;\r\n    }\r\n\r\n    // function to return status of buyer request to purchase\r\n    function getStatusOfPurchaseRequest( uint256 _saleId ) public view returns (RequestedUser memory) {\r\n        bool buyerFound = false;\r\n        uint i = 0;\r\n        for (i = 0; i < requestedUsers[_saleId].length; i++) {\r\n            if (requestedUsers[_saleId][i].user == msg.sender) {\r\n                buyerFound = true;\r\n                break;\r\n            }\r\n        }\r\n\r\n        if(buyerFound == true){\r\n            return requestedUsers[_saleId][i];\r\n        } else {\r\n            return RequestedUser({ user: address(0), priceOffered: 0, state: RequestedUserToASaleState.SentPurchaseRequest, requestId: 0 });\r\n        }\r\n    }\r\n\r\n    // return all sales in that location\r\n    function getSalesByLocation( uint256 locationId ) public view returns (Sales[] memory) {\r\n        uint256[] memory saleIds = propertiesOnSaleByLocation[locationId];\r\n            \r\n        Sales[] memory salesGoingOnThisLocation = new Sales[](saleIds.length);\r\n\r\n        for (uint256 i = 0; i < saleIds.length; i++) {\r\n            salesGoingOnThisLocation[i] = sales[saleIds[i]];\r\n        }\r\n\r\n        return salesGoingOnThisLocation;\r\n    }\r\n\r\n    // send purchase request to seller to buy a land from buyer\r\n    function sendPurchaseRequest( uint256 _saleId, uint256 _priceOffered ) public {\r\n        Sales storage sale = sales[_saleId];\r\n        \r\n        require(sale.propertyId != 0, \"Sale does not exist\");\r\n        require(sale.state == SaleState.Active,\"Property Not in Active State to Purchase\");\r\n\r\n        uint256 priceWei = convertToWei(_priceOffered);\r\n\r\n        uint requestId = propertiesContract.requestToBuy(sale.propertyId, msg.sender, priceWei);\r\n\r\n        requestedUsers[sale.saleId].push(RequestedUser({\r\n            user: msg.sender,\r\n            priceOffered: priceWei,\r\n            state: RequestedUserToASaleState.SentPurchaseRequest,\r\n            requestId: requestId\r\n        }));\r\n        \r\n        requestedSales[msg.sender].push(sale.saleId);\r\n\r\n        emit PurchaseRequestSent(_saleId, msg.sender, _priceOffered);\r\n    }\r\n\r\n    // function to accept buyer request \r\n    function acceptBuyerRequest( uint256 _saleId, address _buyer, uint256 _price ) public {\r\n        uint256 priceWei = convertToWei(_price);\r\n\r\n        Sales storage sale = sales[_saleId];\r\n\r\n        require(sale.propertyId != 0, \"Sale does not exist\");\r\n        require(sale.state == SaleState.Active, \"Sale is not active\");\r\n        require(msg.sender == propertiesContract.getLandDetailsAsStruct(sale.propertyId).owner, \"Only the owner can accept the purchase request.\");\r\n\r\n        bool buyerFound = false;\r\n        uint idx = 0;\r\n        for (uint i = 0; i < requestedUsers[sale.saleId].length; i++) {\r\n            if (requestedUsers[sale.saleId][i].user == _buyer) {\r\n                buyerFound = true;\r\n                idx = i;\r\n                break;\r\n            }\r\n        }\r\n\r\n        require(buyerFound, \"Buyer not found in requested user array\");\r\n        require(priceWei == requestedUsers[sale.saleId][idx].priceOffered, \"Price mismatch with buyer's offer\");\r\n\r\n        uint requestId = requestedUsers[sale.saleId][idx].requestId;\r\n        require(requestId != 0, \"Invalid request id\");\r\n\r\n        propertiesContract.approveSale(sale.propertyId, requestId, msg.sender);\r\n\r\n        sale.acceptedFor = _buyer;\r\n        sale.acceptedPrice = priceWei;\r\n        sale.acceptedTime = block.timestamp;\r\n        sale.deadlineForPayment = block.timestamp + 5 minutes;\r\n        sale.state = SaleState.AcceptedBuyerRequest;\r\n        sale.acceptedRequestId = requestId;\r\n\r\n        requestedUsers[sale.saleId][idx].state = RequestedUserToASaleState.SellerAcceptedPurchaseRequest;\r\n\r\n        emit SaleAccepted(_saleId, _buyer, priceWei, sale.deadlineForPayment);\r\n    }\r\n\r\n    // function to cancel sale created by seller\r\n    function cancelSaleBySeller(uint256 _saleId) public returns (bool) {\r\n        Sales storage sale = sales[_saleId];\r\n        \r\n        require(sale.owner == msg.sender, \"Only property owner can cancel sale\");\r\n        require(!sale.paymentDone, \"Payment has already been made\");\r\n        require(sale.state != SaleState.Success, \"Succeeded sale can't be canceled.\");\r\n        require(sale.state != SaleState.AcceptedBuyerRequest, \"Sale accepted to buyer; cancel acceptance first\");\r\n\r\n        sale.state = SaleState.Active; \r\n        sale.acceptedFor = address(0);\r\n        sale.acceptedPrice = 0;\r\n        sale.acceptedTime = 0;\r\n        sale.deadlineForPayment = 0;\r\n        sale.paymentDone = false;\r\n        sale.acceptedRequestId = 0;\r\n\r\n        propertiesContract.putOnSale(sale.propertyId, msg.sender, 0, true);\r\n\r\n        return true;\r\n    }\r\n\r\n    // Buyer completes payment and triggers ownership transfer\r\n    function transferOwnerShip( uint256 saleId ) public payable {\r\n        Sales storage sale = sales[saleId];\r\n        \r\n        require(sale.acceptedFor != address(0), \"No buyer accepted\");\r\n        require(msg.sender == sale.acceptedFor, \"Only accepted buyer can complete the sale\");\r\n        require(msg.value == sale.acceptedPrice, \"Payment amount must be equal to accepted price\");\r\n        require(block.timestamp <= sale.deadlineForPayment, \"Payment deadline has passed\");\r\n        \r\n        bool buyerFound = false;\r\n        uint idx = 0;\r\n        for (uint i = 0; i < requestedUsers[sale.saleId].length; i++) {\r\n            if (requestedUsers[sale.saleId][i].user == msg.sender) {\r\n                buyerFound = true;\r\n                idx = i;\r\n                break;\r\n            }\r\n        }\r\n        require(buyerFound, \"Buyer not found in requested list\");\r\n        \r\n        payable(sale.owner).transfer(msg.value);\r\n\r\n        LandRegistryContract.transferOwnership(sale.propertyId, sale.acceptedRequestId, sale.acceptedFor);\r\n\r\n        requestedUsers[sale.saleId][idx].state = RequestedUserToASaleState.SuccessfullyTransfered;\r\n\r\n        uint256 _location = propertiesContract.getLandDetailsAsStruct(sale.propertyId).locationId;\r\n        uint256[] storage propertiesOnSale = propertiesOnSaleByLocation[_location];\r\n        for (uint i = 0; i < propertiesOnSale.length; i++) {\r\n            if (propertiesOnSale[i] == sale.saleId) {\r\n                propertiesOnSale[i] = propertiesOnSale[propertiesOnSale.length - 1];\r\n                propertiesOnSale.pop();\r\n                break;\r\n            }\r\n        }\r\n\r\n        sale.state = SaleState.Success;\r\n        sale.paymentDone = true;\r\n    }\r\n}",
  "sourcePath": "C:\\Users\\Shalini Patel\\Desktop\\College\\Capstone Project\\property-ledger\\contracts\\PropertyExchange.sol",
  "compiler": {
    "name": "solc",
    "version": "0.8.21+commit.d9974bed.Emscripten.clang"
  },
  "schemaVersion": "3.4.16",
  "updatedAt": "2025-11-12T20:53:18.455Z",
  "networkType": "ethereum",
  "devdoc": {
    "kind": "dev",
    "methods": {},
    "version": 1
  },
  "userdoc": {
    "kind": "user",
    "methods": {},
    "version": 1
  }
}