{
  "contractName": "PropertyLedger",
  "abi": [
    {
      "inputs": [
        {
          "internalType": "uint256",
          "name": "",
          "type": "uint256"
        },
        {
          "internalType": "uint256",
          "name": "",
          "type": "uint256"
        }
      ],
      "name": "landRequests",
      "outputs": [
        {
          "internalType": "address",
          "name": "buyer",
          "type": "address"
        },
        {
          "internalType": "uint256",
          "name": "offerPrice",
          "type": "uint256"
        },
        {
          "internalType": "bool",
          "name": "approvedByOwner",
          "type": "bool"
        },
        {
          "internalType": "bool",
          "name": "approvedByAdmin",
          "type": "bool"
        },
        {
          "internalType": "enum PropertyLedger.StateOfProperty",
          "name": "requestState",
          "type": "uint8"
        }
      ],
      "stateMutability": "view",
      "type": "function"
    },
    {
      "inputs": [
        {
          "internalType": "uint256",
          "name": "",
          "type": "uint256"
        }
      ],
      "name": "lands",
      "outputs": [
        {
          "internalType": "uint256",
          "name": "propertyId",
          "type": "uint256"
        },
        {
          "internalType": "address",
          "name": "owner",
          "type": "address"
        },
        {
          "internalType": "address",
          "name": "admin",
          "type": "address"
        },
        {
          "internalType": "uint256",
          "name": "revenueDepartmentId",
          "type": "uint256"
        },
        {
          "internalType": "uint256",
          "name": "locationId",
          "type": "uint256"
        },
        {
          "internalType": "uint256",
          "name": "surveyNumber",
          "type": "uint256"
        },
        {
          "internalType": "uint256",
          "name": "index",
          "type": "uint256"
        },
        {
          "internalType": "uint256",
          "name": "area",
          "type": "uint256"
        },
        {
          "internalType": "uint256",
          "name": "marketValue",
          "type": "uint256"
        },
        {
          "internalType": "uint256",
          "name": "noOfRequests",
          "type": "uint256"
        },
        {
          "internalType": "enum PropertyLedger.StateOfProperty",
          "name": "state",
          "type": "uint8"
        }
      ],
      "stateMutability": "view",
      "type": "function"
    },
    {
      "inputs": [
        {
          "internalType": "uint256",
          "name": "_locationId",
          "type": "uint256"
        },
        {
          "internalType": "uint256",
          "name": "_surveyNumber",
          "type": "uint256"
        },
        {
          "internalType": "uint256",
          "name": "_revenueDepartmentId",
          "type": "uint256"
        },
        {
          "internalType": "address",
          "name": "_owner",
          "type": "address"
        },
        {
          "internalType": "uint256",
          "name": "_area",
          "type": "uint256"
        }
      ],
      "name": "addLand",
      "outputs": [
        {
          "internalType": "uint256",
          "name": "",
          "type": "uint256"
        }
      ],
      "stateMutability": "nonpayable",
      "type": "function"
    },
    {
      "inputs": [
        {
          "internalType": "uint256",
          "name": "_propertyId",
          "type": "uint256"
        }
      ],
      "name": "getLandDetailsAsStruct",
      "outputs": [
        {
          "components": [
            {
              "internalType": "uint256",
              "name": "propertyId",
              "type": "uint256"
            },
            {
              "internalType": "address",
              "name": "owner",
              "type": "address"
            },
            {
              "internalType": "address",
              "name": "admin",
              "type": "address"
            },
            {
              "internalType": "uint256",
              "name": "revenueDepartmentId",
              "type": "uint256"
            },
            {
              "internalType": "uint256",
              "name": "locationId",
              "type": "uint256"
            },
            {
              "internalType": "uint256",
              "name": "surveyNumber",
              "type": "uint256"
            },
            {
              "internalType": "uint256",
              "name": "index",
              "type": "uint256"
            },
            {
              "internalType": "uint256",
              "name": "area",
              "type": "uint256"
            },
            {
              "internalType": "uint256",
              "name": "marketValue",
              "type": "uint256"
            },
            {
              "internalType": "uint256",
              "name": "noOfRequests",
              "type": "uint256"
            },
            {
              "internalType": "enum PropertyLedger.StateOfProperty",
              "name": "state",
              "type": "uint8"
            }
          ],
          "internalType": "struct PropertyLedger.Land",
          "name": "",
          "type": "tuple"
        }
      ],
      "stateMutability": "view",
      "type": "function"
    },
    {
      "inputs": [
        {
          "internalType": "uint256",
          "name": "_propertyId",
          "type": "uint256"
        },
        {
          "internalType": "uint256",
          "name": "_revenueDepartmentId",
          "type": "uint256"
        },
        {
          "internalType": "uint256",
          "name": "_locationId",
          "type": "uint256"
        },
        {
          "internalType": "uint256",
          "name": "_surveyNumber",
          "type": "uint256"
        },
        {
          "internalType": "address",
          "name": "_owner",
          "type": "address"
        },
        {
          "internalType": "uint256",
          "name": "_area",
          "type": "uint256"
        },
        {
          "internalType": "address",
          "name": "_admin",
          "type": "address"
        },
        {
          "internalType": "uint256",
          "name": "_marketValue",
          "type": "uint256"
        },
        {
          "internalType": "enum PropertyLedger.StateOfProperty",
          "name": "_state",
          "type": "uint8"
        }
      ],
      "name": "updateLand",
      "outputs": [],
      "stateMutability": "nonpayable",
      "type": "function"
    },
    {
      "inputs": [
        {
          "internalType": "uint256",
          "name": "_propertyId",
          "type": "uint256"
        },
        {
          "internalType": "address",
          "name": "_admin",
          "type": "address"
        }
      ],
      "name": "markVerified",
      "outputs": [],
      "stateMutability": "nonpayable",
      "type": "function"
    },
    {
      "inputs": [
        {
          "internalType": "uint256",
          "name": "_propertyId",
          "type": "uint256"
        },
        {
          "internalType": "address",
          "name": "_owner",
          "type": "address"
        },
        {
          "internalType": "uint256",
          "name": "_price",
          "type": "uint256"
        },
        {
          "internalType": "bool",
          "name": "_cancel",
          "type": "bool"
        }
      ],
      "name": "putOnSale",
      "outputs": [],
      "stateMutability": "nonpayable",
      "type": "function"
    },
    {
      "inputs": [
        {
          "internalType": "uint256",
          "name": "_propertyId",
          "type": "uint256"
        },
        {
          "internalType": "address",
          "name": "_owner",
          "type": "address"
        }
      ],
      "name": "cancelSale",
      "outputs": [],
      "stateMutability": "nonpayable",
      "type": "function"
    },
    {
      "inputs": [
        {
          "internalType": "uint256",
          "name": "_propertyId",
          "type": "uint256"
        },
        {
          "internalType": "address",
          "name": "_buyer",
          "type": "address"
        },
        {
          "internalType": "uint256",
          "name": "_offerPrice",
          "type": "uint256"
        }
      ],
      "name": "requestToBuy",
      "outputs": [
        {
          "internalType": "uint256",
          "name": "",
          "type": "uint256"
        }
      ],
      "stateMutability": "nonpayable",
      "type": "function"
    },
    {
      "inputs": [
        {
          "internalType": "uint256",
          "name": "_propertyId",
          "type": "uint256"
        },
        {
          "internalType": "uint256",
          "name": "requestId",
          "type": "uint256"
        },
        {
          "internalType": "address",
          "name": "_owner",
          "type": "address"
        }
      ],
      "name": "approveSale",
      "outputs": [],
      "stateMutability": "nonpayable",
      "type": "function"
    },
    {
      "inputs": [
        {
          "internalType": "uint256",
          "name": "_propertyId",
          "type": "uint256"
        },
        {
          "internalType": "uint256",
          "name": "requestId",
          "type": "uint256"
        },
        {
          "internalType": "address",
          "name": "_newOwner",
          "type": "address"
        }
      ],
      "name": "transferOwnership",
      "outputs": [],
      "stateMutability": "nonpayable",
      "type": "function"
    }
  ],
  "bytecode": "0x608060405234801561001057600080fd5b5061104c806100206000396000f3fe608060405234801561001057600080fd5b50600436106100a95760003560e01c8063635f554d11610071578063635f554d14610122578063813d2ad81461018b578063af506dbd1461019e578063bcee5a9d146101b1578063e261f1e5146101c4578063fbb62fe71461025157600080fd5b806302402589146100ae57806311e6bceb146100d45780631811ade3146100e95780632ba57b9c146100fc57806354f1e7b81461010f575b600080fd5b6100c16100bc366004610c4c565b610271565b6040519081526020015b60405180910390f35b6100e76100e2366004610c93565b6102f6565b005b6100e76100f7366004610d19565b6103c6565b6100c161010a366004610d4e565b6105ad565b6100e761011d366004610d83565b610722565b61017a610130366004610daf565b600160208181526000938452604080852090915291835291208054918101546002909101546001600160a01b039092169160ff808216916101008104821691620100009091041685565b6040516100cb959493929190610e09565b6100e7610199366004610d83565b610792565b6100e76101ac366004610d19565b6108ce565b6100e76101bf366004610e47565b6109e4565b61023a6101d2366004610e94565b600060208190529081526040902080546001820154600283015460038401546004850154600586015460068701546007880154600889015460098a0154600a909a015498996001600160a01b0398891699989097169795969495939492939192909160ff168b565b6040516100cb9b9a99989796959493929190610ead565b61026461025f366004610e94565b610ae3565b6040516100cb9190610f1d565b600280546000918261028283610fc2565b9091555050600280546000818152602081905260408120918255600382019690965560048101979097556005870195909555506001850180546001600160a01b0319166001600160a01b0393909316929092179091556007840155600a8301805460ff191690556009909201919091555490565b600089815260208190526040812054900361032c5760405162461bcd60e51b815260040161032390610fe9565b60405180910390fd5b600089815260208190526040902060038101899055600481018890556005808201889055600180830180546001600160a01b03808b166001600160a01b031992831617909255600785018990556002850180549289169290911691909117905560088301859055600a830180548593919260ff199091169184908111156103b5576103b5610dd1565b021790555050505050505050505050565b600083815260208190526040812080549091036103f55760405162461bcd60e51b815260040161032390610fe9565b600083118015610409575080600901548311155b6104475760405162461bcd60e51b815260206004820152600f60248201526e125b9d985b1a59081c995c5d595cdd608a1b6044820152606401610323565b60008481526001602090815260408083208684529091529020600281015460ff166104bf5760405162461bcd60e51b815260206004820152602260248201527f4f776e657220686173206e6f7420617070726f766564207468652072657175656044820152611cdd60f21b6064820152608401610323565b6004600282015462010000900460ff1660058111156104e0576104e0610dd1565b148061050a57506005600282015462010000900460ff16600581111561050857610508610dd1565b145b6105565760405162461bcd60e51b815260206004820152601e60248201527f52657175657374206e6f7420726561647920666f72207472616e7366657200006044820152606401610323565b600182810180546001600160a01b0319166001600160a01b038616179055600a8301805460ff1916828002179055506002810180546001919062ff0000191662010000830217905550506000600890910155505050565b6000838152602081905260408120805482036105db5760405162461bcd60e51b815260040161032390610fe9565b6002600a82015460ff1660058111156105f6576105f6610dd1565b1461063b5760405162461bcd60e51b815260206004820152601560248201527450726f7065727479206e6f7420666f722073616c6560581b6044820152606401610323565b60098101805490600061064d83610fc2565b90915550506040805160a0810182526001600160a01b03868116825260208083018781526000848601818152606086018281526003608088019081528d8452600180875289852060098c01548652909652979092208651815496166001600160a01b031990961695909517855591519284019290925551600283018054925115156101000261ff00199215159290921661ffff1990931692909217178082559351929391929162ff000019166201000083600581111561070f5761070f610dd1565b0217905550505060090154949350505050565b600082815260208190526040812054900361074f5760405162461bcd60e51b815260040161032390610fe9565b60008281526020819052604090206002810180546001600160a01b0319166001600160a01b038416179055600a0180546001919060ff1916828002179055505050565b60008281526020819052604081205490036107bf5760405162461bcd60e51b815260040161032390610fe9565b6000828152602081905260409020600101546001600160a01b0382811691161461082b5760405162461bcd60e51b815260206004820152601a60248201527f4f6e6c79206f776e65722063616e2063616e63656c2073616c650000000000006044820152606401610323565b60026000838152602081905260409020600a015460ff16600581111561085357610853610dd1565b146108aa5760405162461bcd60e51b815260206004820152602160248201527f50726f7065727479206973206e6f742063757272656e746c79206f6e2073616c6044820152606560f81b6064820152608401610323565b506000908152602081905260408120600a8101805460ff1916600117905560080155565b600083815260208190526040812080549091036108fd5760405162461bcd60e51b815260040161032390610fe9565b60018101546001600160a01b038381169116146109555760405162461bcd60e51b81526020600482015260166024820152754f6e6c79206f776e65722063616e20617070726f766560501b6044820152606401610323565b806009015483111561099b5760405162461bcd60e51b815260206004820152600f60248201526e125b9d985b1a59081c995c5d595cdd608a1b6044820152606401610323565b6000848152600160208181526040808420878552909152909120600201805462ff00ff191662040001179055600a8201805460049260ff1990911690835b021790555050505050565b6000848152602081905260408120549003610a115760405162461bcd60e51b815260040161032390610fe9565b6000848152602081905260409020600101546001600160a01b03848116911614610a875760405162461bcd60e51b815260206004820152602160248201527f4f6e6c79206f776e65722063616e206d6f646966792073616c652073746174756044820152607360f81b6064820152608401610323565b8015610ab3576000848152602081905260408120600a8101805460ff1916600117905560080155610add565b600084815260208190526040902060088101839055600a0180546002919060ff19166001836109d9565b50505050565b610aeb610bb4565b600082815260208181526040918290208251610160810184528154815260018201546001600160a01b0390811693820193909352600282015490921692820192909252600382015460608201526004820154608082015260058083015460a0830152600683015460c0830152600783015460e083015260088301546101008301526009830154610120830152600a83015491929161014084019160ff90911690811115610b9a57610b9a610dd1565b6005811115610bab57610bab610dd1565b90525092915050565b6040518061016001604052806000815260200160006001600160a01b0316815260200160006001600160a01b031681526020016000815260200160008152602001600081526020016000815260200160008152602001600081526020016000815260200160006005811115610c2b57610c2b610dd1565b905290565b80356001600160a01b0381168114610c4757600080fd5b919050565b600080600080600060a08688031215610c6457600080fd5b853594506020860135935060408601359250610c8260608701610c30565b949793965091946080013592915050565b60008060008060008060008060006101208a8c031215610cb257600080fd5b8935985060208a0135975060408a0135965060608a01359550610cd760808b01610c30565b945060a08a01359350610cec60c08b01610c30565b925060e08a013591506101008a013560068110610d0857600080fd5b809150509295985092959850929598565b600080600060608486031215610d2e57600080fd5b8335925060208401359150610d4560408501610c30565b90509250925092565b600080600060608486031215610d6357600080fd5b83359250610d7360208501610c30565b9150604084013590509250925092565b60008060408385031215610d9657600080fd5b82359150610da660208401610c30565b90509250929050565b60008060408385031215610dc257600080fd5b50508035926020909101359150565b634e487b7160e01b600052602160045260246000fd5b60068110610e0557634e487b7160e01b600052602160045260246000fd5b9052565b6001600160a01b0386168152602081018590528315156040820152821515606082015260a08101610e3d6080830184610de7565b9695505050505050565b60008060008060808587031215610e5d57600080fd5b84359350610e6d60208601610c30565b92506040850135915060608501358015158114610e8957600080fd5b939692955090935050565b600060208284031215610ea657600080fd5b5035919050565b8b81526001600160a01b038b811660208301528a166040820152606081018990526080810188905260a0810187905260c0810186905260e08101859052610100810184905261012081018390526101608101610f0d610140830184610de7565b9c9b505050505050505050505050565b81518152602080830151610160830191610f41908401826001600160a01b03169052565b506040830151610f5c60408401826001600160a01b03169052565b50606083015160608301526080830151608083015260a083015160a083015260c083015160c083015260e083015160e083015261010080840151818401525061012080840151818401525061014080840151610fba82850182610de7565b505092915050565b600060018201610fe257634e487b7160e01b600052601160045260246000fd5b5060010190565b60208082526013908201527213185b9908191bd95cc81b9bdd08195e1a5cdd606a1b60408201526060019056fea2646970667358221220c51c434bcd7a8308d7e45f7b4402c687cc102902f64a5a9a54d6de36c4adda1f64736f6c63430008150033",
  "immutableReferences": {},
  "source": "// SPDX-License-Identifier: Unlicensed\r\npragma solidity ^0.8.21;\r\n\r\ncontract PropertyLedger {\r\n    \r\n    enum StateOfProperty { \r\n        Registered, //Property added by Regional Admin; not yet verified on-chain.\r\n        Verified, //Admin approved property; NFT can be minted or metadata recorded.\r\n        OnSale, //Owner has marked property For Sale.\r\n        SaleRequested, //Buyer sent purchase request; waiting for owner approval. \r\n        SaleApproved, //Owner accepted the buyer; waiting for admin confirmation or payment.   \r\n        PendingTransfer //Ownership transfer is being processed on-chain.   \r\n    }\r\n    \r\n    struct Land {\r\n        uint256 propertyId; //unique identifier\r\n        address owner; //owner address\r\n        address admin; //address of admin who verified\r\n        uint256 revenueDepartmentId;\r\n        uint256 locationId;\r\n        uint256 surveyNumber;\r\n        uint index; //owners property index\r\n        uint256 area;\r\n        uint256 marketValue;\r\n        uint noOfRequests;\r\n        StateOfProperty state;\r\n    }\r\n\r\n    struct RequestDetails {\r\n        address buyer;\r\n        uint256 offerPrice;\r\n        bool approvedByOwner; // Whether owner approved\r\n        bool approvedByAdmin; // Whether admin approved (if needed)\r\n        StateOfProperty requestState; // SaleRequested, SaleApproved, etc.\r\n    }\r\n\r\n    mapping(uint256 => Land) public lands;\r\n    mapping(uint256 => mapping(uint => RequestDetails)) public landRequests; //propID -> //purchase requests (request number  RequestDetails)\r\n    uint256 private landCount;\r\n    \r\n    function addLand( \r\n        uint256 _locationId, \r\n        uint256 _surveyNumber,\r\n        uint256 _revenueDepartmentId, \r\n        address _owner, \r\n        uint256 _area \r\n    ) public returns (uint256) {\r\n        landCount++;\r\n\r\n        Land storage newLand = lands[landCount];\r\n\r\n        newLand.propertyId = landCount;\r\n        newLand.revenueDepartmentId = _revenueDepartmentId;\r\n        newLand.locationId = _locationId;\r\n        newLand.surveyNumber = _surveyNumber;\r\n        newLand.owner = _owner;\r\n        newLand.area = _area;\r\n        newLand.state = StateOfProperty.Registered;\r\n        newLand.noOfRequests = 0;\r\n\r\n        return landCount; // Return the new property's ID\r\n    }\r\n\r\n    // Get Property Details\r\n    function getLandDetailsAsStruct(uint256 _propertyId) public view returns (Land memory) {\r\n        return lands[_propertyId];\r\n    }\r\n    \r\n    function updateLand(\r\n        uint256 _propertyId,\r\n        uint256 _revenueDepartmentId,\r\n        uint256 _locationId,\r\n        uint256 _surveyNumber,\r\n        address _owner,\r\n        uint256 _area,\r\n        address _admin,\r\n        uint256 _marketValue,\r\n        StateOfProperty _state\r\n    ) public {\r\n        require(lands[_propertyId].propertyId != 0, \"Land does not exist\");\r\n\r\n        Land storage land = lands[_propertyId];\r\n\r\n        land.revenueDepartmentId = _revenueDepartmentId;\r\n        land.locationId = _locationId;\r\n        land.surveyNumber = _surveyNumber;\r\n        land.owner = _owner;\r\n        land.area = _area;\r\n        land.admin = _admin;\r\n        land.marketValue = _marketValue;\r\n        land.state = _state;\r\n    }\r\n\r\n    // Mark Verified by admin\r\n    // changeStateToVerified \r\n    function markVerified(uint256 _propertyId, address _admin) public { \r\n        require(lands[_propertyId].propertyId != 0, \"Land does not exist\");\r\n\r\n        lands[_propertyId].admin = _admin;\r\n        lands[_propertyId].state = StateOfProperty.Verified;\r\n    }\r\n\r\n    // Put on Sale\r\n    // changeStateToOnSale\r\n    function putOnSale(uint256 _propertyId, address _owner, uint256 _price, bool _cancel) public {\r\n        require(lands[_propertyId].propertyId != 0, \"Land does not exist\");\r\n        require(lands[_propertyId].owner == _owner, \"Only owner can modify sale status\");\r\n\r\n        if (_cancel) {\r\n            // Cancel sale: revert state to Verified\r\n            lands[_propertyId].state = StateOfProperty.Verified;\r\n            lands[_propertyId].marketValue = 0;\r\n        } else {\r\n            // Put property on sale\r\n            lands[_propertyId].marketValue = _price;\r\n            lands[_propertyId].state = StateOfProperty.OnSale;\r\n        }\r\n    }\r\n\r\n    // Cancel sale by owner and revert to Verified state\r\n    function cancelSale(uint256 _propertyId, address _owner) public {\r\n        require(lands[_propertyId].propertyId != 0, \"Land does not exist\");\r\n        require(lands[_propertyId].owner == _owner, \"Only owner can cancel sale\");\r\n        require(lands[_propertyId].state == StateOfProperty.OnSale, \"Property is not currently on sale\");\r\n\r\n        lands[_propertyId].state = StateOfProperty.Verified;\r\n        lands[_propertyId].marketValue = 0;  // Reset market value to zero\r\n    }\r\n\r\n\r\n\r\n    // Request to Buy\r\n    function requestToBuy(uint256 _propertyId, address _buyer, uint256 _offerPrice) public returns (uint256) {\r\n        Land storage land = lands[_propertyId];\r\n        \r\n        require(land.propertyId != 0, \"Land does not exist\");\r\n        require(land.state == StateOfProperty.OnSale, \"Property not for sale\");\r\n\r\n        land.noOfRequests++;\r\n        landRequests[_propertyId][land.noOfRequests] = RequestDetails({\r\n            buyer: _buyer,\r\n            offerPrice: _offerPrice,\r\n            approvedByOwner: false,\r\n            approvedByAdmin: false,\r\n            requestState: StateOfProperty.SaleRequested\r\n        });\r\n\r\n        return land.noOfRequests;\r\n    }\r\n\r\n    // Approve Sale by Owner\r\n    function approveSale(uint256 _propertyId, uint requestId, address _owner) public {\r\n        Land storage land = lands[_propertyId];\r\n        \r\n        require(land.propertyId != 0, \"Land does not exist\");\r\n        require(land.owner == _owner, \"Only owner can approve\");\r\n        require(requestId <= land.noOfRequests, \"Invalid request\");\r\n\r\n        landRequests[_propertyId][requestId].approvedByOwner = true;\r\n        landRequests[_propertyId][requestId].requestState = StateOfProperty.SaleApproved;\r\n        land.state = StateOfProperty.SaleApproved;\r\n    }\r\n\r\n    // Transfer Ownership\r\n    function transferOwnership(uint256 _propertyId, uint requestId, address _newOwner) public {\r\n        Land storage land = lands[_propertyId];\r\n        \r\n        require(land.propertyId != 0, \"Land does not exist\");\r\n        require(requestId > 0 && requestId <= land.noOfRequests, \"Invalid request\");\r\n\r\n        RequestDetails storage request = landRequests[_propertyId][requestId];\r\n        require(request.approvedByOwner, \"Owner has not approved the request\");\r\n        require(request.requestState == StateOfProperty.SaleApproved || request.requestState == StateOfProperty.PendingTransfer, \r\n            \"Request not ready for transfer\");\r\n\r\n        // Transfer ownership\r\n        land.owner = _newOwner;\r\n        land.state = StateOfProperty.Verified; // Reset state to Verified after transfer\r\n        request.requestState = StateOfProperty.Verified;\r\n\r\n        // Reset market value after sale\r\n        land.marketValue = 0;\r\n    }\r\n}",
  "sourcePath": "C:\\Users\\Shalini Patel\\Desktop\\College\\Capstone Project\\property-ledger\\contracts\\PropertyLedger.sol",
  "compiler": {
    "name": "solc",
    "version": "0.8.21+commit.d9974bed.Emscripten.clang"
  },
  "schemaVersion": "3.4.16",
  "updatedAt": "2025-11-13T20:30:53.106Z",
  "devdoc": {
    "kind": "dev",
    "methods": {},
    "version": 1
  },
  "userdoc": {
    "kind": "user",
    "methods": {},
    "version": 1
  }
}