{
  "contractName": "PropertyRegistry",
  "abi": [
    {
      "inputs": [],
      "stateMutability": "nonpayable",
      "type": "constructor"
    },
    {
      "anonymous": false,
      "inputs": [
        {
          "indexed": true,
          "internalType": "address",
          "name": "owner",
          "type": "address"
        },
        {
          "indexed": true,
          "internalType": "uint256",
          "name": "propertyId",
          "type": "uint256"
        }
      ],
      "name": "LandAdded",
      "type": "event"
    },
    {
      "inputs": [],
      "name": "propertiesContract",
      "outputs": [
        {
          "internalType": "contract PropertyLedger",
          "name": "",
          "type": "address"
        }
      ],
      "stateMutability": "view",
      "type": "function",
      "constant": true
    },
    {
      "inputs": [
        {
          "internalType": "uint256",
          "name": "",
          "type": "uint256"
        }
      ],
      "name": "revenueDeptIdToEmployee",
      "outputs": [
        {
          "internalType": "address",
          "name": "",
          "type": "address"
        }
      ],
      "stateMutability": "view",
      "type": "function",
      "constant": true
    },
    {
      "inputs": [
        {
          "internalType": "address",
          "name": "contractAddress",
          "type": "address"
        }
      ],
      "name": "setTransferOwnershipContractAddress",
      "outputs": [],
      "stateMutability": "nonpayable",
      "type": "function"
    },
    {
      "inputs": [
        {
          "internalType": "uint256",
          "name": "_locationId",
          "type": "uint256"
        },
        {
          "internalType": "uint256",
          "name": "_revenueDepartmentId",
          "type": "uint256"
        },
        {
          "internalType": "uint256",
          "name": "_surveyNumber",
          "type": "uint256"
        },
        {
          "internalType": "uint256",
          "name": "_area",
          "type": "uint256"
        }
      ],
      "name": "addLand",
      "outputs": [
        {
          "internalType": "uint256",
          "name": "",
          "type": "uint256"
        }
      ],
      "stateMutability": "nonpayable",
      "type": "function"
    },
    {
      "inputs": [
        {
          "internalType": "uint256",
          "name": "_propertyId",
          "type": "uint256"
        }
      ],
      "name": "getPropertyDetails",
      "outputs": [
        {
          "components": [
            {
              "internalType": "uint256",
              "name": "propertyId",
              "type": "uint256"
            },
            {
              "internalType": "address",
              "name": "owner",
              "type": "address"
            },
            {
              "internalType": "address",
              "name": "admin",
              "type": "address"
            },
            {
              "internalType": "uint256",
              "name": "revenueDepartmentId",
              "type": "uint256"
            },
            {
              "internalType": "uint256",
              "name": "locationId",
              "type": "uint256"
            },
            {
              "internalType": "uint256",
              "name": "surveyNumber",
              "type": "uint256"
            },
            {
              "internalType": "uint256",
              "name": "index",
              "type": "uint256"
            },
            {
              "internalType": "uint256",
              "name": "area",
              "type": "uint256"
            },
            {
              "internalType": "uint256",
              "name": "marketValue",
              "type": "uint256"
            },
            {
              "internalType": "uint256",
              "name": "noOfRequests",
              "type": "uint256"
            },
            {
              "internalType": "enum PropertyLedger.StateOfProperty",
              "name": "state",
              "type": "uint8"
            }
          ],
          "internalType": "struct PropertyLedger.Land",
          "name": "",
          "type": "tuple"
        }
      ],
      "stateMutability": "view",
      "type": "function",
      "constant": true
    },
    {
      "inputs": [
        {
          "internalType": "address",
          "name": "_owner",
          "type": "address"
        }
      ],
      "name": "getPropertiesOfOwner",
      "outputs": [
        {
          "components": [
            {
              "internalType": "uint256",
              "name": "propertyId",
              "type": "uint256"
            },
            {
              "internalType": "address",
              "name": "owner",
              "type": "address"
            },
            {
              "internalType": "address",
              "name": "admin",
              "type": "address"
            },
            {
              "internalType": "uint256",
              "name": "revenueDepartmentId",
              "type": "uint256"
            },
            {
              "internalType": "uint256",
              "name": "locationId",
              "type": "uint256"
            },
            {
              "internalType": "uint256",
              "name": "surveyNumber",
              "type": "uint256"
            },
            {
              "internalType": "uint256",
              "name": "index",
              "type": "uint256"
            },
            {
              "internalType": "uint256",
              "name": "area",
              "type": "uint256"
            },
            {
              "internalType": "uint256",
              "name": "marketValue",
              "type": "uint256"
            },
            {
              "internalType": "uint256",
              "name": "noOfRequests",
              "type": "uint256"
            },
            {
              "internalType": "enum PropertyLedger.StateOfProperty",
              "name": "state",
              "type": "uint8"
            }
          ],
          "internalType": "struct PropertyLedger.Land[]",
          "name": "",
          "type": "tuple[]"
        }
      ],
      "stateMutability": "view",
      "type": "function",
      "constant": true
    },
    {
      "inputs": [
        {
          "internalType": "uint256",
          "name": "_revenueDeptId",
          "type": "uint256"
        }
      ],
      "name": "getPropertiesByRevenueDeptId",
      "outputs": [
        {
          "components": [
            {
              "internalType": "uint256",
              "name": "propertyId",
              "type": "uint256"
            },
            {
              "internalType": "address",
              "name": "owner",
              "type": "address"
            },
            {
              "internalType": "address",
              "name": "admin",
              "type": "address"
            },
            {
              "internalType": "uint256",
              "name": "revenueDepartmentId",
              "type": "uint256"
            },
            {
              "internalType": "uint256",
              "name": "locationId",
              "type": "uint256"
            },
            {
              "internalType": "uint256",
              "name": "surveyNumber",
              "type": "uint256"
            },
            {
              "internalType": "uint256",
              "name": "index",
              "type": "uint256"
            },
            {
              "internalType": "uint256",
              "name": "area",
              "type": "uint256"
            },
            {
              "internalType": "uint256",
              "name": "marketValue",
              "type": "uint256"
            },
            {
              "internalType": "uint256",
              "name": "noOfRequests",
              "type": "uint256"
            },
            {
              "internalType": "enum PropertyLedger.StateOfProperty",
              "name": "state",
              "type": "uint8"
            }
          ],
          "internalType": "struct PropertyLedger.Land[]",
          "name": "",
          "type": "tuple[]"
        }
      ],
      "stateMutability": "view",
      "type": "function",
      "constant": true
    },
    {
      "inputs": [
        {
          "internalType": "uint256",
          "name": "revenueDeptId",
          "type": "uint256"
        },
        {
          "internalType": "address",
          "name": "employeeAddress",
          "type": "address"
        }
      ],
      "name": "mapRevenueDeptIdToEmployee",
      "outputs": [],
      "stateMutability": "nonpayable",
      "type": "function"
    },
    {
      "inputs": [
        {
          "internalType": "uint256",
          "name": "_propertyId",
          "type": "uint256"
        }
      ],
      "name": "verifyProperty",
      "outputs": [],
      "stateMutability": "nonpayable",
      "type": "function"
    },
    {
      "inputs": [
        {
          "internalType": "uint256",
          "name": "_propertyId",
          "type": "uint256"
        }
      ],
      "name": "rejectProperty",
      "outputs": [],
      "stateMutability": "nonpayable",
      "type": "function"
    },
    {
      "inputs": [
        {
          "internalType": "uint256",
          "name": "_propertyId",
          "type": "uint256"
        },
        {
          "internalType": "uint256",
          "name": "requestId",
          "type": "uint256"
        },
        {
          "internalType": "address",
          "name": "newOwner",
          "type": "address"
        }
      ],
      "name": "transferOwnership",
      "outputs": [],
      "stateMutability": "nonpayable",
      "type": "function"
    },
    {
      "inputs": [],
      "name": "getPropertiesContract",
      "outputs": [
        {
          "internalType": "address",
          "name": "",
          "type": "address"
        }
      ],
      "stateMutability": "view",
      "type": "function",
      "constant": true
    }
  ],
  "bytecode": "0x60806040526001805460ff60a01b1916905534801561001d57600080fd5b50600080546001600160a01b03191633179055600180546001600160a81b031916905560405161004c9061008e565b604051809103906000f080158015610068573d6000803e3d6000fd5b50600280546001600160a01b0319166001600160a01b039290921691909117905561009b565b610f128061110b83390190565b611061806100aa6000396000f3fe608060405234801561001057600080fd5b50600436106100b45760003560e01c80634212a8ae116100715780634212a8ae14610165578063677ff94214610178578063a6262ba314610198578063b9fe2ff4146101ab578063ddef358d146101bc578063e90b6c72146101cf57600080fd5b806301da8a48146100b95780630cf36e57146100df578063126dbe43146100f45780631811ade31461011457806327983fcf146101275780633aeb6d761461013a575b600080fd5b6100cc6100c7366004610c13565b6101f8565b6040519081526020015b60405180910390f35b6100f26100ed366004610c5d565b610307565b005b610107610102366004610c81565b61038d565b6040516100d69190610d6f565b6100f2610122366004610d7e565b610409565b6100f2610135366004610c81565b610656565b60025461014d906001600160a01b031681565b6040516001600160a01b0390911681526020016100d6565b6100f2610173366004610c81565b61070c565b61018b610186366004610c5d565b610782565b6040516100d69190610db7565b6100f26101a6366004610e06565b610915565b6002546001600160a01b031661014d565b61018b6101ca366004610c81565b61099d565b61014d6101dd366004610c81565b6005602052600090815260409020546001600160a01b031681565b600254604051630240258960e01b8152600481018690526024810184905260448101859052336064820181905260848201849052600092909183916001600160a01b03169063024025899060a4016020604051808303816000875af1158015610265573d6000803e3d6000fd5b505050506040513d601f19601f820116820180604052508101906102899190610e36565b6001600160a01b0383166000818152600360209081526040808320805460018181018355918552838520018690558b8452600483528184208054918201815584529183209091018490555192935083927f6273d4d594c3e9579a60a0212122fd582600ec6505e091f5863299f8c7c17e4f9190a39695505050505050565b600154600160a01b900460ff16156103665760405162461bcd60e51b815260206004820152601960248201527f416c6c6f776564204f6e6c79204f6e636520746f2063616c6c0000000000000060448201526064015b60405180910390fd5b600180546001600160a81b0319166001600160a01b0390921691909117600160a01b179055565b610395610b97565b60025460405163fbb62fe760e01b8152600481018490526001600160a01b039091169063fbb62fe79060240161016060405180830381865afa1580156103df573d6000803e3d6000fd5b505050506040513d601f19601f820116820180604052508101906104039190610ebc565b92915050565b6001546001600160a01b031633146104755760405162461bcd60e51b815260206004820152602960248201527f4f6e6c79205472616e736665724f664f776e65727368697020636f6e747261636044820152681d08185b1b1bddd95960ba1b606482015260840161035d565b60025460405163fbb62fe760e01b8152600481018590526000916001600160a01b03169063fbb62fe79060240161016060405180830381865afa1580156104c0573d6000803e3d6000fd5b505050506040513d601f19601f820116820180604052508101906104e49190610ebc565b6020908101516001600160a01b0381166000908152600390925260408220909250905b81548110156105bb578582828154811061052357610523610f60565b9060005260206000200154036105a9578154829061054390600190610f8c565b8154811061055357610553610f60565b906000526020600020015482828154811061057057610570610f60565b90600052602060002001819055508180548061058e5761058e610f9f565b600190038181906000526020600020016000905590556105bb565b806105b381610fb5565b915050610507565b506001600160a01b038381166000818152600360209081526040808320805460018101825590845291909220018890556002549051631811ade360e01b81526004810189905260248101889052604481019290925290911690631811ade390606401600060405180830381600087803b15801561063757600080fd5b505af115801561064b573d6000803e3d6000fd5b505050505050505050565b61065f81610b1e565b6000818152600560205260409020546001600160a01b031633146106955760405162461bcd60e51b815260040161035d90610fce565b60025460405163bcee5a9d60e01b81526004810184905233602482015260006044820152600160648201526001600160a01b039091169063bcee5a9d906084015b600060405180830381600087803b1580156106f057600080fd5b505af1158015610704573d6000803e3d6000fd5b505050505050565b61071581610b1e565b6000818152600560205260409020546001600160a01b0316331461074b5760405162461bcd60e51b815260040161035d90610fce565b600254604051630a9e3cf760e31b8152600481018490523360248201526001600160a01b03909116906354f1e7b8906044016106d6565b6001600160a01b03811660009081526003602090815260408083208054825181850281018501909352808352606094938301828280156107e157602002820191906000526020600020905b8154815260200190600101908083116107cd575b505050505090506000815167ffffffffffffffff81111561080457610804610e4f565b60405190808252806020026020018201604052801561083d57816020015b61082a610b97565b8152602001906001900390816108225790505b50905060005b825181101561090d5760025483516001600160a01b039091169063fbb62fe79085908490811061087557610875610f60565b60200260200101516040518263ffffffff1660e01b815260040161089b91815260200190565b61016060405180830381865afa1580156108b9573d6000803e3d6000fd5b505050506040513d601f19601f820116820180604052508101906108dd9190610ebc565b8282815181106108ef576108ef610f60565b6020026020010181905250808061090590610fb5565b915050610843565b509392505050565b6000546001600160a01b0316331461096f5760405162461bcd60e51b815260206004820152601760248201527f43616c6c6572206973206e6f7420746865206f776e6572000000000000000000604482015260640161035d565b60009182526005602052604090912080546001600160a01b0319166001600160a01b03909216919091179055565b60008181526004602090815260408083208054825181850281018501909352808352606094938301828280156109f257602002820191906000526020600020905b8154815260200190600101908083116109de575b505050505090506000815167ffffffffffffffff811115610a1557610a15610e4f565b604051908082528060200260200182016040528015610a4e57816020015b610a3b610b97565b815260200190600190039081610a335790505b50905060005b825181101561090d5760025483516001600160a01b039091169063fbb62fe790859084908110610a8657610a86610f60565b60200260200101516040518263ffffffff1660e01b8152600401610aac91815260200190565b61016060405180830381865afa158015610aca573d6000803e3d6000fd5b505050506040513d601f19601f82011682018060405250810190610aee9190610ebc565b828281518110610b0057610b00610f60565b60200260200101819052508080610b1690610fb5565b915050610a54565b60025460405163fbb62fe760e01b8152600481018390526000916001600160a01b03169063fbb62fe79060240161016060405180830381865afa158015610b69573d6000803e3d6000fd5b505050506040513d601f19601f82011682018060405250810190610b8d9190610ebc565b6060015192915050565b6040518061016001604052806000815260200160006001600160a01b0316815260200160006001600160a01b031681526020016000815260200160008152602001600081526020016000815260200160008152602001600081526020016000815260200160006005811115610c0e57610c0e610c9a565b905290565b60008060008060808587031215610c2957600080fd5b5050823594602084013594506040840135936060013592509050565b6001600160a01b0381168114610c5a57600080fd5b50565b600060208284031215610c6f57600080fd5b8135610c7a81610c45565b9392505050565b600060208284031215610c9357600080fd5b5035919050565b634e487b7160e01b600052602160045260246000fd5b60068110610cce57634e487b7160e01b600052602160045260246000fd5b9052565b805182526020810151610cf060208401826001600160a01b03169052565b506040810151610d0b60408401826001600160a01b03169052565b50606081015160608301526080810151608083015260a081015160a083015260c081015160c083015260e081015160e083015261010080820151818401525061012080820151818401525061014080820151610d6982850182610cb0565b50505050565b61016081016104038284610cd2565b600080600060608486031215610d9357600080fd5b83359250602084013591506040840135610dac81610c45565b809150509250925092565b6020808252825182820181905260009190848201906040850190845b81811015610dfa57610de6838551610cd2565b928401926101609290920191600101610dd3565b50909695505050505050565b60008060408385031215610e1957600080fd5b823591506020830135610e2b81610c45565b809150509250929050565b600060208284031215610e4857600080fd5b5051919050565b634e487b7160e01b600052604160045260246000fd5b604051610160810167ffffffffffffffff81118282101715610e9757634e487b7160e01b600052604160045260246000fd5b60405290565b8051610ea881610c45565b919050565b805160068110610ea857600080fd5b60006101608284031215610ecf57600080fd5b610ed7610e65565b82518152610ee760208401610e9d565b6020820152610ef860408401610e9d565b6040820152606083015160608201526080830151608082015260a083015160a082015260c083015160c082015260e083015160e0820152610100808401518183015250610120808401518183015250610140610f55818501610ead565b908201529392505050565b634e487b7160e01b600052603260045260246000fd5b634e487b7160e01b600052601160045260246000fd5b8181038181111561040357610403610f76565b634e487b7160e01b600052603160045260246000fd5b600060018201610fc757610fc7610f76565b5060010190565b6020808252603c908201527f4f6e6c792074686520726576656e7565206465706172746d656e7420656d706c60408201527f6f7965652063616e2063616c6c20746869732066756e6374696f6e2e0000000060608201526080019056fea2646970667358221220ec6c2f2cc31d3b4558da3e19da99493851f488ed286cbed508952649559cf00864736f6c63430008150033608060405234801561001057600080fd5b50610ef2806100206000396000f3fe608060405234801561001057600080fd5b506004361061009e5760003560e01c8063635f554d11610066578063635f554d14610117578063af506dbd14610180578063bcee5a9d14610193578063e261f1e5146101a6578063fbb62fe71461023357600080fd5b806302402589146100a357806311e6bceb146100c95780631811ade3146100de5780632ba57b9c146100f157806354f1e7b814610104575b600080fd5b6100b66100b1366004610af2565b610253565b6040519081526020015b60405180910390f35b6100dc6100d7366004610b39565b6102d8565b005b6100dc6100ec366004610bbf565b6103a8565b6100b66100ff366004610bf4565b61058f565b6100dc610112366004610c29565b610704565b61016f610125366004610c55565b600160208181526000938452604080852090915291835291208054918101546002909101546001600160a01b039092169160ff808216916101008104821691620100009091041685565b6040516100c0959493929190610caf565b6100dc61018e366004610bbf565b610774565b6100dc6101a1366004610ced565b61088a565b61021c6101b4366004610d3a565b600060208190529081526040902080546001820154600283015460038401546004850154600586015460068701546007880154600889015460098a0154600a909a015498996001600160a01b0398891699989097169795969495939492939192909160ff168b565b6040516100c09b9a99989796959493929190610d53565b610246610241366004610d3a565b610989565b6040516100c09190610dc3565b600280546000918261026483610e68565b9091555050600280546000818152602081905260408120918255600382019690965560048101979097556005870195909555506001850180546001600160a01b0319166001600160a01b0393909316929092179091556007840155600a8301805460ff191690556009909201919091555490565b600089815260208190526040812054900361030e5760405162461bcd60e51b815260040161030590610e8f565b60405180910390fd5b600089815260208190526040902060038101899055600481018890556005808201889055600180830180546001600160a01b03808b166001600160a01b031992831617909255600785018990556002850180549289169290911691909117905560088301859055600a830180548593919260ff1990911691849081111561039757610397610c77565b021790555050505050505050505050565b600083815260208190526040812080549091036103d75760405162461bcd60e51b815260040161030590610e8f565b6000831180156103eb575080600901548311155b6104295760405162461bcd60e51b815260206004820152600f60248201526e125b9d985b1a59081c995c5d595cdd608a1b6044820152606401610305565b60008481526001602090815260408083208684529091529020600281015460ff166104a15760405162461bcd60e51b815260206004820152602260248201527f4f776e657220686173206e6f7420617070726f766564207468652072657175656044820152611cdd60f21b6064820152608401610305565b6004600282015462010000900460ff1660058111156104c2576104c2610c77565b14806104ec57506005600282015462010000900460ff1660058111156104ea576104ea610c77565b145b6105385760405162461bcd60e51b815260206004820152601e60248201527f52657175657374206e6f7420726561647920666f72207472616e7366657200006044820152606401610305565b600182810180546001600160a01b0319166001600160a01b038616179055600a8301805460ff1916828002179055506002810180546001919062ff0000191662010000830217905550506000600890910155505050565b6000838152602081905260408120805482036105bd5760405162461bcd60e51b815260040161030590610e8f565b6002600a82015460ff1660058111156105d8576105d8610c77565b1461061d5760405162461bcd60e51b815260206004820152601560248201527450726f7065727479206e6f7420666f722073616c6560581b6044820152606401610305565b60098101805490600061062f83610e68565b90915550506040805160a0810182526001600160a01b03868116825260208083018781526000848601818152606086018281526003608088019081528d8452600180875289852060098c01548652909652979092208651815496166001600160a01b031990961695909517855591519284019290925551600283018054925115156101000261ff00199215159290921661ffff1990931692909217178082559351929391929162ff00001916620100008360058111156106f1576106f1610c77565b0217905550505060090154949350505050565b60008281526020819052604081205490036107315760405162461bcd60e51b815260040161030590610e8f565b60008281526020819052604090206002810180546001600160a01b0319166001600160a01b038416179055600a0180546001919060ff1916828002179055505050565b600083815260208190526040812080549091036107a35760405162461bcd60e51b815260040161030590610e8f565b60018101546001600160a01b038381169116146107fb5760405162461bcd60e51b81526020600482015260166024820152754f6e6c79206f776e65722063616e20617070726f766560501b6044820152606401610305565b80600901548311156108415760405162461bcd60e51b815260206004820152600f60248201526e125b9d985b1a59081c995c5d595cdd608a1b6044820152606401610305565b6000848152600160208181526040808420878552909152909120600201805462ff00ff191662040001179055600a8201805460049260ff1990911690835b021790555050505050565b60008481526020819052604081205490036108b75760405162461bcd60e51b815260040161030590610e8f565b6000848152602081905260409020600101546001600160a01b0384811691161461092d5760405162461bcd60e51b815260206004820152602160248201527f4f6e6c79206f776e65722063616e206d6f646966792073616c652073746174756044820152607360f81b6064820152608401610305565b8015610959576000848152602081905260408120600a8101805460ff1916600117905560080155610983565b600084815260208190526040902060088101839055600a0180546002919060ff191660018361087f565b50505050565b610991610a5a565b600082815260208181526040918290208251610160810184528154815260018201546001600160a01b0390811693820193909352600282015490921692820192909252600382015460608201526004820154608082015260058083015460a0830152600683015460c0830152600783015460e083015260088301546101008301526009830154610120830152600a83015491929161014084019160ff90911690811115610a4057610a40610c77565b6005811115610a5157610a51610c77565b90525092915050565b6040518061016001604052806000815260200160006001600160a01b0316815260200160006001600160a01b031681526020016000815260200160008152602001600081526020016000815260200160008152602001600081526020016000815260200160006005811115610ad157610ad1610c77565b905290565b80356001600160a01b0381168114610aed57600080fd5b919050565b600080600080600060a08688031215610b0a57600080fd5b853594506020860135935060408601359250610b2860608701610ad6565b949793965091946080013592915050565b60008060008060008060008060006101208a8c031215610b5857600080fd5b8935985060208a0135975060408a0135965060608a01359550610b7d60808b01610ad6565b945060a08a01359350610b9260c08b01610ad6565b925060e08a013591506101008a013560068110610bae57600080fd5b809150509295985092959850929598565b600080600060608486031215610bd457600080fd5b8335925060208401359150610beb60408501610ad6565b90509250925092565b600080600060608486031215610c0957600080fd5b83359250610c1960208501610ad6565b9150604084013590509250925092565b60008060408385031215610c3c57600080fd5b82359150610c4c60208401610ad6565b90509250929050565b60008060408385031215610c6857600080fd5b50508035926020909101359150565b634e487b7160e01b600052602160045260246000fd5b60068110610cab57634e487b7160e01b600052602160045260246000fd5b9052565b6001600160a01b0386168152602081018590528315156040820152821515606082015260a08101610ce36080830184610c8d565b9695505050505050565b60008060008060808587031215610d0357600080fd5b84359350610d1360208601610ad6565b92506040850135915060608501358015158114610d2f57600080fd5b939692955090935050565b600060208284031215610d4c57600080fd5b5035919050565b8b81526001600160a01b038b811660208301528a166040820152606081018990526080810188905260a0810187905260c0810186905260e08101859052610100810184905261012081018390526101608101610db3610140830184610c8d565b9c9b505050505050505050505050565b81518152602080830151610160830191610de7908401826001600160a01b03169052565b506040830151610e0260408401826001600160a01b03169052565b50606083015160608301526080830151608083015260a083015160a083015260c083015160c083015260e083015160e083015261010080840151818401525061012080840151818401525061014080840151610e6082850182610c8d565b505092915050565b600060018201610e8857634e487b7160e01b600052601160045260246000fd5b5060010190565b60208082526013908201527213185b9908191bd95cc81b9bdd08195e1a5cdd606a1b60408201526060019056fea264697066735822122010ef45a060741d3574a29361b19f89e7ce4243d8874d228908d262aa9937df3764736f6c63430008150033",
  "immutableReferences": {},
  "source": "// SPDX-License-Identifier: Unlicensed\r\npragma solidity ^0.8.21;\r\n\r\nimport \"./PropertyLedger.sol\";\r\n\r\ncontract PropertyRegistry {\r\n    \r\n    address private contractOwner;\r\n    address private transferOwnershipContractAddress;\r\n    bool private transferOwnershipContractAddressUpdated = false;\r\n\r\n    PropertyLedger public propertiesContract;\r\n\r\n    constructor() {\r\n        contractOwner = msg.sender;\r\n        transferOwnershipContractAddress = address(0);\r\n        transferOwnershipContractAddressUpdated = false;\r\n        propertiesContract = new PropertyLedger();\r\n    }\r\n\r\n    modifier onlyOwner() {\r\n        require(msg.sender == contractOwner, \"Caller is not the owner\");\r\n        _;\r\n    }\r\n\r\n    modifier onlyRevenueDeptEmployee(uint256 revenueDeptId) {\r\n        require(msg.sender == revenueDeptIdToEmployee[revenueDeptId], \"Only the revenue department employee can call this function.\");\r\n        _;\r\n    }\r\n\r\n    event LandAdded(address indexed owner,uint256 indexed propertyId);\r\n\r\n    mapping(address => uint256[]) private propertiesOfOwner;\r\n    mapping(uint256 => uint256[]) private propertiesControlledByRevenueDept;\r\n    mapping (uint256 => address) public revenueDeptIdToEmployee;\r\n\r\n    // Set the address of the TransferOfOwnership contract (only once)\r\n    function setTransferOwnershipContractAddress( address contractAddress ) public {\r\n        require(transferOwnershipContractAddressUpdated==false,\"Allowed Only Once to call\");\r\n        \r\n        transferOwnershipContractAddress = contractAddress;\r\n        transferOwnershipContractAddressUpdated = true;\r\n    }\r\n\r\n    // Add New Land\r\n    function addLand(uint256 _locationId, uint256 _revenueDepartmentId, uint256 _surveyNumber, uint256 _area) public returns (uint256) {\r\n        address _owner = msg.sender;\r\n        uint256 propertyId = propertiesContract.addLand(_locationId, _surveyNumber, _revenueDepartmentId, _owner, _area);\r\n\r\n        propertiesOfOwner[_owner].push(propertyId); // Map property to owner\r\n        propertiesControlledByRevenueDept[_revenueDepartmentId].push(propertyId); // Map property to revenue department\r\n\r\n        emit LandAdded(_owner, propertyId);\r\n\r\n        return propertyId;\r\n    }\r\n\r\n    // Get property details by property ID\r\n    function getPropertyDetails( uint256 _propertyId ) public view returns ( PropertyLedger.Land memory ) {\r\n        return propertiesContract.getLandDetailsAsStruct(_propertyId);\r\n    }\r\n\r\n    // Get all properties of an owner\r\n    function getPropertiesOfOwner( address _owner ) public view returns ( PropertyLedger.Land[] memory ) {\r\n        uint256[] memory propertyIds = propertiesOfOwner[_owner];\r\n        PropertyLedger.Land[] memory properties = new PropertyLedger.Land[](propertyIds.length);\r\n        \r\n        for (uint256 i = 0; i < propertyIds.length; i++) {\r\n            properties[i] = propertiesContract.getLandDetailsAsStruct(propertyIds[i]);\r\n        }\r\n\r\n        return properties;\r\n    }\r\n\r\n    // Get properties by revenue department\r\n    function getPropertiesByRevenueDeptId( uint256 _revenueDeptId ) public view returns ( PropertyLedger.Land[] memory ) {\r\n        uint256[] memory propertyIds = propertiesControlledByRevenueDept[_revenueDeptId];\r\n        \r\n        PropertyLedger.Land[] memory properties = new PropertyLedger.Land[](propertyIds.length);\r\n        \r\n        for (uint256 i = 0; i < propertyIds.length; i++) {\r\n            properties[i] = propertiesContract.getLandDetailsAsStruct(propertyIds[i]);\r\n        }\r\n          \r\n        return properties;\r\n    }\r\n            \r\n    // Map revenue department id to employee\r\n    function mapRevenueDeptIdToEmployee( uint256 revenueDeptId, address employeeAddress ) public onlyOwner {\r\n        revenueDeptIdToEmployee[revenueDeptId] = employeeAddress;\r\n    }\r\n\r\n    // Get revenue dept id of a property\r\n    function getRevenueDeptId(uint256 propertyId) private view returns (uint256) {\r\n        return propertiesContract.getLandDetailsAsStruct(propertyId).revenueDepartmentId;\r\n    }\r\n\r\n    function verifyProperty( uint256 _propertyId ) public onlyRevenueDeptEmployee(getRevenueDeptId(_propertyId)) {\r\n        propertiesContract.markVerified(_propertyId, msg.sender);\r\n    }\r\n\r\n    function rejectProperty( uint256 _propertyId ) public onlyRevenueDeptEmployee(getRevenueDeptId(_propertyId)) {\r\n        propertiesContract.putOnSale(_propertyId, msg.sender, 0, true);\r\n    }\r\n\r\n    function transferOwnership (uint256 _propertyId, uint requestId, address newOwner) public {\r\n        require(msg.sender == transferOwnershipContractAddress, \"Only TransferOfOwnership contract allowed\");\r\n\r\n        // Remove property from old owner's list\r\n        address oldOwner = propertiesContract.getLandDetailsAsStruct(_propertyId).owner;\r\n        uint256[] storage oldOwnerProps = propertiesOfOwner[oldOwner];\r\n        for (uint i = 0; i < oldOwnerProps.length; i++) {\r\n            if (oldOwnerProps[i] == _propertyId) {\r\n                oldOwnerProps[i] = oldOwnerProps[oldOwnerProps.length - 1];\r\n                oldOwnerProps.pop();\r\n                break;\r\n            }\r\n        }\r\n\r\n        // Add property to new owner's list\r\n        propertiesOfOwner[newOwner].push(_propertyId);\r\n\r\n        // Update ownership in Property contract\r\n        propertiesContract.transferOwnership(_propertyId, requestId, newOwner);\r\n    }\r\n\r\n    function getPropertiesContract() public view returns (address){\r\n        return address(propertiesContract);\r\n    }\r\n}",
  "sourcePath": "C:\\Users\\Shalini Patel\\Desktop\\College\\Capstone Project\\property-ledger\\contracts\\PropertyRegistry.sol",
  "compiler": {
    "name": "solc",
    "version": "0.8.21+commit.d9974bed.Emscripten.clang"
  },
  "schemaVersion": "3.4.16",
  "updatedAt": "2025-10-14T21:44:41.421Z",
  "networkType": "ethereum",
  "devdoc": {
    "kind": "dev",
    "methods": {},
    "version": 1
  },
  "userdoc": {
    "kind": "user",
    "methods": {},
    "version": 1
  }
}