{
  "contractName": "PropertyRegistry",
  "abi": [
    {
      "inputs": [],
      "stateMutability": "nonpayable",
      "type": "constructor"
    },
    {
      "anonymous": false,
      "inputs": [
        {
          "indexed": true,
          "internalType": "address",
          "name": "owner",
          "type": "address"
        },
        {
          "indexed": true,
          "internalType": "uint256",
          "name": "propertyId",
          "type": "uint256"
        }
      ],
      "name": "LandAdded",
      "type": "event"
    },
    {
      "inputs": [],
      "name": "propertiesContract",
      "outputs": [
        {
          "internalType": "contract PropertyLedger",
          "name": "",
          "type": "address"
        }
      ],
      "stateMutability": "view",
      "type": "function",
      "constant": true
    },
    {
      "inputs": [
        {
          "internalType": "uint256",
          "name": "",
          "type": "uint256"
        }
      ],
      "name": "revenueDeptIdToEmployee",
      "outputs": [
        {
          "internalType": "address",
          "name": "",
          "type": "address"
        }
      ],
      "stateMutability": "view",
      "type": "function",
      "constant": true
    },
    {
      "inputs": [
        {
          "internalType": "address",
          "name": "contractAddress",
          "type": "address"
        }
      ],
      "name": "setTransferOwnershipContractAddress",
      "outputs": [],
      "stateMutability": "nonpayable",
      "type": "function"
    },
    {
      "inputs": [
        {
          "internalType": "uint256",
          "name": "_locationId",
          "type": "uint256"
        },
        {
          "internalType": "uint256",
          "name": "_revenueDepartmentId",
          "type": "uint256"
        },
        {
          "internalType": "uint256",
          "name": "_surveyNumber",
          "type": "uint256"
        },
        {
          "internalType": "uint256",
          "name": "_area",
          "type": "uint256"
        }
      ],
      "name": "addLand",
      "outputs": [
        {
          "internalType": "uint256",
          "name": "",
          "type": "uint256"
        }
      ],
      "stateMutability": "nonpayable",
      "type": "function"
    },
    {
      "inputs": [
        {
          "internalType": "uint256",
          "name": "_propertyId",
          "type": "uint256"
        }
      ],
      "name": "getPropertyDetails",
      "outputs": [
        {
          "components": [
            {
              "internalType": "uint256",
              "name": "propertyId",
              "type": "uint256"
            },
            {
              "internalType": "address",
              "name": "owner",
              "type": "address"
            },
            {
              "internalType": "address",
              "name": "admin",
              "type": "address"
            },
            {
              "internalType": "uint256",
              "name": "revenueDepartmentId",
              "type": "uint256"
            },
            {
              "internalType": "uint256",
              "name": "locationId",
              "type": "uint256"
            },
            {
              "internalType": "uint256",
              "name": "surveyNumber",
              "type": "uint256"
            },
            {
              "internalType": "uint256",
              "name": "index",
              "type": "uint256"
            },
            {
              "internalType": "uint256",
              "name": "area",
              "type": "uint256"
            },
            {
              "internalType": "uint256",
              "name": "marketValue",
              "type": "uint256"
            },
            {
              "internalType": "uint256",
              "name": "noOfRequests",
              "type": "uint256"
            },
            {
              "internalType": "enum PropertyLedger.StateOfProperty",
              "name": "state",
              "type": "uint8"
            }
          ],
          "internalType": "struct PropertyLedger.Land",
          "name": "",
          "type": "tuple"
        }
      ],
      "stateMutability": "view",
      "type": "function",
      "constant": true
    },
    {
      "inputs": [
        {
          "internalType": "address",
          "name": "_owner",
          "type": "address"
        }
      ],
      "name": "getPropertiesOfOwner",
      "outputs": [
        {
          "components": [
            {
              "internalType": "uint256",
              "name": "propertyId",
              "type": "uint256"
            },
            {
              "internalType": "address",
              "name": "owner",
              "type": "address"
            },
            {
              "internalType": "address",
              "name": "admin",
              "type": "address"
            },
            {
              "internalType": "uint256",
              "name": "revenueDepartmentId",
              "type": "uint256"
            },
            {
              "internalType": "uint256",
              "name": "locationId",
              "type": "uint256"
            },
            {
              "internalType": "uint256",
              "name": "surveyNumber",
              "type": "uint256"
            },
            {
              "internalType": "uint256",
              "name": "index",
              "type": "uint256"
            },
            {
              "internalType": "uint256",
              "name": "area",
              "type": "uint256"
            },
            {
              "internalType": "uint256",
              "name": "marketValue",
              "type": "uint256"
            },
            {
              "internalType": "uint256",
              "name": "noOfRequests",
              "type": "uint256"
            },
            {
              "internalType": "enum PropertyLedger.StateOfProperty",
              "name": "state",
              "type": "uint8"
            }
          ],
          "internalType": "struct PropertyLedger.Land[]",
          "name": "",
          "type": "tuple[]"
        }
      ],
      "stateMutability": "view",
      "type": "function",
      "constant": true
    },
    {
      "inputs": [
        {
          "internalType": "uint256",
          "name": "_revenueDeptId",
          "type": "uint256"
        }
      ],
      "name": "getPropertiesByRevenueDeptId",
      "outputs": [
        {
          "components": [
            {
              "internalType": "uint256",
              "name": "propertyId",
              "type": "uint256"
            },
            {
              "internalType": "address",
              "name": "owner",
              "type": "address"
            },
            {
              "internalType": "address",
              "name": "admin",
              "type": "address"
            },
            {
              "internalType": "uint256",
              "name": "revenueDepartmentId",
              "type": "uint256"
            },
            {
              "internalType": "uint256",
              "name": "locationId",
              "type": "uint256"
            },
            {
              "internalType": "uint256",
              "name": "surveyNumber",
              "type": "uint256"
            },
            {
              "internalType": "uint256",
              "name": "index",
              "type": "uint256"
            },
            {
              "internalType": "uint256",
              "name": "area",
              "type": "uint256"
            },
            {
              "internalType": "uint256",
              "name": "marketValue",
              "type": "uint256"
            },
            {
              "internalType": "uint256",
              "name": "noOfRequests",
              "type": "uint256"
            },
            {
              "internalType": "enum PropertyLedger.StateOfProperty",
              "name": "state",
              "type": "uint8"
            }
          ],
          "internalType": "struct PropertyLedger.Land[]",
          "name": "",
          "type": "tuple[]"
        }
      ],
      "stateMutability": "view",
      "type": "function",
      "constant": true
    },
    {
      "inputs": [
        {
          "internalType": "uint256",
          "name": "revenueDeptId",
          "type": "uint256"
        },
        {
          "internalType": "address",
          "name": "employeeAddress",
          "type": "address"
        }
      ],
      "name": "mapRevenueDeptIdToEmployee",
      "outputs": [],
      "stateMutability": "nonpayable",
      "type": "function"
    },
    {
      "inputs": [],
      "name": "getAllProperties",
      "outputs": [
        {
          "components": [
            {
              "internalType": "uint256",
              "name": "propertyId",
              "type": "uint256"
            },
            {
              "internalType": "address",
              "name": "owner",
              "type": "address"
            },
            {
              "internalType": "address",
              "name": "admin",
              "type": "address"
            },
            {
              "internalType": "uint256",
              "name": "revenueDepartmentId",
              "type": "uint256"
            },
            {
              "internalType": "uint256",
              "name": "locationId",
              "type": "uint256"
            },
            {
              "internalType": "uint256",
              "name": "surveyNumber",
              "type": "uint256"
            },
            {
              "internalType": "uint256",
              "name": "index",
              "type": "uint256"
            },
            {
              "internalType": "uint256",
              "name": "area",
              "type": "uint256"
            },
            {
              "internalType": "uint256",
              "name": "marketValue",
              "type": "uint256"
            },
            {
              "internalType": "uint256",
              "name": "noOfRequests",
              "type": "uint256"
            },
            {
              "internalType": "enum PropertyLedger.StateOfProperty",
              "name": "state",
              "type": "uint8"
            }
          ],
          "internalType": "struct PropertyLedger.Land[]",
          "name": "",
          "type": "tuple[]"
        }
      ],
      "stateMutability": "view",
      "type": "function",
      "constant": true
    },
    {
      "inputs": [],
      "name": "getPendingPropertiesForVerification",
      "outputs": [
        {
          "components": [
            {
              "internalType": "uint256",
              "name": "propertyId",
              "type": "uint256"
            },
            {
              "internalType": "address",
              "name": "owner",
              "type": "address"
            },
            {
              "internalType": "address",
              "name": "admin",
              "type": "address"
            },
            {
              "internalType": "uint256",
              "name": "revenueDepartmentId",
              "type": "uint256"
            },
            {
              "internalType": "uint256",
              "name": "locationId",
              "type": "uint256"
            },
            {
              "internalType": "uint256",
              "name": "surveyNumber",
              "type": "uint256"
            },
            {
              "internalType": "uint256",
              "name": "index",
              "type": "uint256"
            },
            {
              "internalType": "uint256",
              "name": "area",
              "type": "uint256"
            },
            {
              "internalType": "uint256",
              "name": "marketValue",
              "type": "uint256"
            },
            {
              "internalType": "uint256",
              "name": "noOfRequests",
              "type": "uint256"
            },
            {
              "internalType": "enum PropertyLedger.StateOfProperty",
              "name": "state",
              "type": "uint8"
            }
          ],
          "internalType": "struct PropertyLedger.Land[]",
          "name": "",
          "type": "tuple[]"
        }
      ],
      "stateMutability": "view",
      "type": "function",
      "constant": true
    },
    {
      "inputs": [],
      "name": "getVerifiedProperties",
      "outputs": [
        {
          "components": [
            {
              "internalType": "uint256",
              "name": "propertyId",
              "type": "uint256"
            },
            {
              "internalType": "address",
              "name": "owner",
              "type": "address"
            },
            {
              "internalType": "address",
              "name": "admin",
              "type": "address"
            },
            {
              "internalType": "uint256",
              "name": "revenueDepartmentId",
              "type": "uint256"
            },
            {
              "internalType": "uint256",
              "name": "locationId",
              "type": "uint256"
            },
            {
              "internalType": "uint256",
              "name": "surveyNumber",
              "type": "uint256"
            },
            {
              "internalType": "uint256",
              "name": "index",
              "type": "uint256"
            },
            {
              "internalType": "uint256",
              "name": "area",
              "type": "uint256"
            },
            {
              "internalType": "uint256",
              "name": "marketValue",
              "type": "uint256"
            },
            {
              "internalType": "uint256",
              "name": "noOfRequests",
              "type": "uint256"
            },
            {
              "internalType": "enum PropertyLedger.StateOfProperty",
              "name": "state",
              "type": "uint8"
            }
          ],
          "internalType": "struct PropertyLedger.Land[]",
          "name": "",
          "type": "tuple[]"
        }
      ],
      "stateMutability": "view",
      "type": "function",
      "constant": true
    },
    {
      "inputs": [],
      "name": "getOnSaleProperties",
      "outputs": [
        {
          "components": [
            {
              "internalType": "uint256",
              "name": "propertyId",
              "type": "uint256"
            },
            {
              "internalType": "address",
              "name": "owner",
              "type": "address"
            },
            {
              "internalType": "address",
              "name": "admin",
              "type": "address"
            },
            {
              "internalType": "uint256",
              "name": "revenueDepartmentId",
              "type": "uint256"
            },
            {
              "internalType": "uint256",
              "name": "locationId",
              "type": "uint256"
            },
            {
              "internalType": "uint256",
              "name": "surveyNumber",
              "type": "uint256"
            },
            {
              "internalType": "uint256",
              "name": "index",
              "type": "uint256"
            },
            {
              "internalType": "uint256",
              "name": "area",
              "type": "uint256"
            },
            {
              "internalType": "uint256",
              "name": "marketValue",
              "type": "uint256"
            },
            {
              "internalType": "uint256",
              "name": "noOfRequests",
              "type": "uint256"
            },
            {
              "internalType": "enum PropertyLedger.StateOfProperty",
              "name": "state",
              "type": "uint8"
            }
          ],
          "internalType": "struct PropertyLedger.Land[]",
          "name": "",
          "type": "tuple[]"
        }
      ],
      "stateMutability": "view",
      "type": "function",
      "constant": true
    },
    {
      "inputs": [
        {
          "internalType": "uint256",
          "name": "_propertyId",
          "type": "uint256"
        }
      ],
      "name": "verifyProperty",
      "outputs": [],
      "stateMutability": "nonpayable",
      "type": "function"
    },
    {
      "inputs": [
        {
          "internalType": "uint256",
          "name": "_propertyId",
          "type": "uint256"
        }
      ],
      "name": "rejectProperty",
      "outputs": [],
      "stateMutability": "nonpayable",
      "type": "function"
    },
    {
      "inputs": [
        {
          "internalType": "uint256",
          "name": "_propertyId",
          "type": "uint256"
        },
        {
          "internalType": "uint256",
          "name": "requestId",
          "type": "uint256"
        },
        {
          "internalType": "address",
          "name": "newOwner",
          "type": "address"
        }
      ],
      "name": "transferOwnership",
      "outputs": [],
      "stateMutability": "nonpayable",
      "type": "function"
    },
    {
      "inputs": [],
      "name": "getPropertiesContract",
      "outputs": [
        {
          "internalType": "address",
          "name": "",
          "type": "address"
        }
      ],
      "stateMutability": "view",
      "type": "function",
      "constant": true
    }
  ],
  "bytecode": "0x60806040526001805460ff60a01b1916905534801561001d57600080fd5b50600080546001600160a01b03191633179055600180546001600160a81b031916905560405161004c9061008e565b604051809103906000f080158015610068573d6000803e3d6000fd5b50600280546001600160a01b0319166001600160a01b039290921691909117905561009b565b61106c806119a983390190565b6118ff806100aa6000396000f3fe608060405234801561001057600080fd5b50600436106101005760003560e01c80634212a8ae11610097578063b9fe2ff411610066578063b9fe2ff41461020f578063bc45a6e614610220578063ddef358d14610228578063e90b6c721461023b57600080fd5b80634212a8ae146101ce57806358efa66a146101e1578063677ff942146101e9578063a6262ba3146101fc57600080fd5b806327983fcf116100d357806327983fcf1461017357806329dc139a146101865780633aeb6d761461019b5780633d51402c146101c657600080fd5b806301da8a48146101055780630cf36e571461012b578063126dbe43146101405780631811ade314610160575b600080fd5b6101186101133660046114b1565b610264565b6040519081526020015b60405180910390f35b61013e6101393660046114fb565b6103a4565b005b61015361014e36600461151f565b61042a565b604051610122919061160d565b61013e61016e36600461161c565b6104a6565b61013e61018136600461151f565b6106f3565b61018e6107a9565b6040516101229190611655565b6002546101ae906001600160a01b031681565b6040516001600160a01b039091168152602001610122565b61018e6109f3565b61013e6101dc36600461151f565b610b28565b61018e610b9e565b61018e6101f73660046114fb565b610ddf565b61013e61020a3660046116a4565b610f72565b6002546001600160a01b03166101ae565b61018e610ffa565b61018e61023636600461151f565b61123b565b6101ae61024936600461151f565b6005602052600090815260409020546001600160a01b031681565b600254604051630240258960e01b8152600481018690526024810184905260448101859052336064820181905260848201849052600092909183916001600160a01b03169063024025899060a4016020604051808303816000875af11580156102d1573d6000803e3d6000fd5b505050506040513d601f19601f820116820180604052508101906102f591906116d4565b6006805460018181019092557ff652222313e28459528d920b65115c16c04f3efc82aaedc97be59f3f377c0d3f018290556001600160a01b038416600081815260036020908152604080832080548087018255908452828420018690558b8352600482528083208054958601815583529082209093018490559151929350839290917f6273d4d594c3e9579a60a0212122fd582600ec6505e091f5863299f8c7c17e4f91a39695505050505050565b600154600160a01b900460ff16156104035760405162461bcd60e51b815260206004820152601960248201527f416c6c6f776564204f6e6c79204f6e636520746f2063616c6c0000000000000060448201526064015b60405180910390fd5b600180546001600160a81b0319166001600160a01b0390921691909117600160a01b179055565b610432611435565b60025460405163fbb62fe760e01b8152600481018490526001600160a01b039091169063fbb62fe79060240161016060405180830381865afa15801561047c573d6000803e3d6000fd5b505050506040513d601f19601f820116820180604052508101906104a0919061175a565b92915050565b6001546001600160a01b031633146105125760405162461bcd60e51b815260206004820152602960248201527f4f6e6c79205472616e736665724f664f776e65727368697020636f6e747261636044820152681d08185b1b1bddd95960ba1b60648201526084016103fa565b60025460405163fbb62fe760e01b8152600481018590526000916001600160a01b03169063fbb62fe79060240161016060405180830381865afa15801561055d573d6000803e3d6000fd5b505050506040513d601f19601f82011682018060405250810190610581919061175a565b6020908101516001600160a01b0381166000908152600390925260408220909250905b815481101561065857858282815481106105c0576105c06117fe565b90600052602060002001540361064657815482906105e09060019061182a565b815481106105f0576105f06117fe565b906000526020600020015482828154811061060d5761060d6117fe565b90600052602060002001819055508180548061062b5761062b61183d565b60019003818190600052602060002001600090559055610658565b8061065081611853565b9150506105a4565b506001600160a01b038381166000818152600360209081526040808320805460018101825590845291909220018890556002549051631811ade360e01b81526004810189905260248101889052604481019290925290911690631811ade390606401600060405180830381600087803b1580156106d457600080fd5b505af11580156106e8573d6000803e3d6000fd5b505050505050505050565b6106fc816113bc565b6000818152600560205260409020546001600160a01b031633146107325760405162461bcd60e51b81526004016103fa9061186c565b60025460405163bcee5a9d60e01b81526004810184905233602482015260006044820152600160648201526001600160a01b039091169063bcee5a9d906084015b600060405180830381600087803b15801561078d57600080fd5b505af11580156107a1573d6000803e3d6000fd5b505050505050565b60606000805b60065481101561088f57600254600680546000926001600160a01b03169163fbb62fe791859081106107e3576107e36117fe565b90600052602060002001546040518263ffffffff1660e01b815260040161080c91815260200190565b61016060405180830381865afa15801561082a573d6000803e3d6000fd5b505050506040513d601f19601f8201168201806040525081019061084e919061175a565b90506000816101400151600581111561086957610869611538565b0361087c578261087881611853565b9350505b508061088781611853565b9150506107af565b5060008167ffffffffffffffff8111156108ab576108ab6116ed565b6040519080825280602002602001820160405280156108e457816020015b6108d1611435565b8152602001906001900390816108c95790505b5090506000805b6006548110156109ea57600254600680546000926001600160a01b03169163fbb62fe7918590811061091f5761091f6117fe565b90600052602060002001546040518263ffffffff1660e01b815260040161094891815260200190565b61016060405180830381865afa158015610966573d6000803e3d6000fd5b505050506040513d601f19601f8201168201806040525081019061098a919061175a565b9050600081610140015160058111156109a5576109a5611538565b036109d757808484815181106109bd576109bd6117fe565b602002602001018190525082806109d390611853565b9350505b50806109e281611853565b9150506108eb565b50909392505050565b60065460609060009067ffffffffffffffff811115610a1457610a146116ed565b604051908082528060200260200182016040528015610a4d57816020015b610a3a611435565b815260200190600190039081610a325790505b50905060005b600654811015610b2257600254600680546001600160a01b039092169163fbb62fe7919084908110610a8757610a876117fe565b90600052602060002001546040518263ffffffff1660e01b8152600401610ab091815260200190565b61016060405180830381865afa158015610ace573d6000803e3d6000fd5b505050506040513d601f19601f82011682018060405250810190610af2919061175a565b828281518110610b0457610b046117fe565b60200260200101819052508080610b1a90611853565b915050610a53565b50919050565b610b31816113bc565b6000818152600560205260409020546001600160a01b03163314610b675760405162461bcd60e51b81526004016103fa9061186c565b600254604051630a9e3cf760e31b8152600481018490523360248201526001600160a01b03909116906354f1e7b890604401610773565b60606000805b600654811015610c8457600254600680546000926001600160a01b03169163fbb62fe79185908110610bd857610bd86117fe565b90600052602060002001546040518263ffffffff1660e01b8152600401610c0191815260200190565b61016060405180830381865afa158015610c1f573d6000803e3d6000fd5b505050506040513d601f19601f82011682018060405250810190610c43919061175a565b905060018161014001516005811115610c5e57610c5e611538565b03610c715782610c6d81611853565b9350505b5080610c7c81611853565b915050610ba4565b5060008167ffffffffffffffff811115610ca057610ca06116ed565b604051908082528060200260200182016040528015610cd957816020015b610cc6611435565b815260200190600190039081610cbe5790505b5090506000805b6006548110156109ea57600254600680546000926001600160a01b03169163fbb62fe79185908110610d1457610d146117fe565b90600052602060002001546040518263ffffffff1660e01b8152600401610d3d91815260200190565b61016060405180830381865afa158015610d5b573d6000803e3d6000fd5b505050506040513d601f19601f82011682018060405250810190610d7f919061175a565b905060018161014001516005811115610d9a57610d9a611538565b03610dcc5780848481518110610db257610db26117fe565b60200260200101819052508280610dc890611853565b9350505b5080610dd781611853565b915050610ce0565b6001600160a01b0381166000908152600360209081526040808320805482518185028101850190935280835260609493830182828015610e3e57602002820191906000526020600020905b815481526020019060010190808311610e2a575b505050505090506000815167ffffffffffffffff811115610e6157610e616116ed565b604051908082528060200260200182016040528015610e9a57816020015b610e87611435565b815260200190600190039081610e7f5790505b50905060005b8251811015610f6a5760025483516001600160a01b039091169063fbb62fe790859084908110610ed257610ed26117fe565b60200260200101516040518263ffffffff1660e01b8152600401610ef891815260200190565b61016060405180830381865afa158015610f16573d6000803e3d6000fd5b505050506040513d601f19601f82011682018060405250810190610f3a919061175a565b828281518110610f4c57610f4c6117fe565b60200260200101819052508080610f6290611853565b915050610ea0565b509392505050565b6000546001600160a01b03163314610fcc5760405162461bcd60e51b815260206004820152601760248201527f43616c6c6572206973206e6f7420746865206f776e657200000000000000000060448201526064016103fa565b60009182526005602052604090912080546001600160a01b0319166001600160a01b03909216919091179055565b60606000805b6006548110156110e057600254600680546000926001600160a01b03169163fbb62fe79185908110611034576110346117fe565b90600052602060002001546040518263ffffffff1660e01b815260040161105d91815260200190565b61016060405180830381865afa15801561107b573d6000803e3d6000fd5b505050506040513d601f19601f8201168201806040525081019061109f919061175a565b9050600281610140015160058111156110ba576110ba611538565b036110cd57826110c981611853565b9350505b50806110d881611853565b915050611000565b5060008167ffffffffffffffff8111156110fc576110fc6116ed565b60405190808252806020026020018201604052801561113557816020015b611122611435565b81526020019060019003908161111a5790505b5090506000805b6006548110156109ea57600254600680546000926001600160a01b03169163fbb62fe79185908110611170576111706117fe565b90600052602060002001546040518263ffffffff1660e01b815260040161119991815260200190565b61016060405180830381865afa1580156111b7573d6000803e3d6000fd5b505050506040513d601f19601f820116820180604052508101906111db919061175a565b9050600281610140015160058111156111f6576111f6611538565b03611228578084848151811061120e5761120e6117fe565b6020026020010181905250828061122490611853565b9350505b508061123381611853565b91505061113c565b600081815260046020908152604080832080548251818502810185019093528083526060949383018282801561129057602002820191906000526020600020905b81548152602001906001019080831161127c575b505050505090506000815167ffffffffffffffff8111156112b3576112b36116ed565b6040519080825280602002602001820160405280156112ec57816020015b6112d9611435565b8152602001906001900390816112d15790505b50905060005b8251811015610f6a5760025483516001600160a01b039091169063fbb62fe790859084908110611324576113246117fe565b60200260200101516040518263ffffffff1660e01b815260040161134a91815260200190565b61016060405180830381865afa158015611368573d6000803e3d6000fd5b505050506040513d601f19601f8201168201806040525081019061138c919061175a565b82828151811061139e5761139e6117fe565b602002602001018190525080806113b490611853565b9150506112f2565b60025460405163fbb62fe760e01b8152600481018390526000916001600160a01b03169063fbb62fe79060240161016060405180830381865afa158015611407573d6000803e3d6000fd5b505050506040513d601f19601f8201168201806040525081019061142b919061175a565b6060015192915050565b6040518061016001604052806000815260200160006001600160a01b0316815260200160006001600160a01b0316815260200160008152602001600081526020016000815260200160008152602001600081526020016000815260200160008152602001600060058111156114ac576114ac611538565b905290565b600080600080608085870312156114c757600080fd5b5050823594602084013594506040840135936060013592509050565b6001600160a01b03811681146114f857600080fd5b50565b60006020828403121561150d57600080fd5b8135611518816114e3565b9392505050565b60006020828403121561153157600080fd5b5035919050565b634e487b7160e01b600052602160045260246000fd5b6006811061156c57634e487b7160e01b600052602160045260246000fd5b9052565b80518252602081015161158e60208401826001600160a01b03169052565b5060408101516115a960408401826001600160a01b03169052565b50606081015160608301526080810151608083015260a081015160a083015260c081015160c083015260e081015160e0830152610100808201518184015250610120808201518184015250610140808201516116078285018261154e565b50505050565b61016081016104a08284611570565b60008060006060848603121561163157600080fd5b8335925060208401359150604084013561164a816114e3565b809150509250925092565b6020808252825182820181905260009190848201906040850190845b8181101561169857611684838551611570565b928401926101609290920191600101611671565b50909695505050505050565b600080604083850312156116b757600080fd5b8235915060208301356116c9816114e3565b809150509250929050565b6000602082840312156116e657600080fd5b5051919050565b634e487b7160e01b600052604160045260246000fd5b604051610160810167ffffffffffffffff8111828210171561173557634e487b7160e01b600052604160045260246000fd5b60405290565b8051611746816114e3565b919050565b80516006811061174657600080fd5b6000610160828403121561176d57600080fd5b611775611703565b825181526117856020840161173b565b60208201526117966040840161173b565b6040820152606083015160608201526080830151608082015260a083015160a082015260c083015160c082015260e083015160e08201526101008084015181830152506101208084015181830152506101406117f381850161174b565b908201529392505050565b634e487b7160e01b600052603260045260246000fd5b634e487b7160e01b600052601160045260246000fd5b818103818111156104a0576104a0611814565b634e487b7160e01b600052603160045260246000fd5b60006001820161186557611865611814565b5060010190565b6020808252603c908201527f4f6e6c792074686520726576656e7565206465706172746d656e7420656d706c60408201527f6f7965652063616e2063616c6c20746869732066756e6374696f6e2e0000000060608201526080019056fea2646970667358221220a5d68a9d299e619ce4a83ffc613046983c88a69f59e30e95727e24ec77ef639264736f6c63430008150033608060405234801561001057600080fd5b5061104c806100206000396000f3fe608060405234801561001057600080fd5b50600436106100a95760003560e01c8063635f554d11610071578063635f554d14610122578063813d2ad81461018b578063af506dbd1461019e578063bcee5a9d146101b1578063e261f1e5146101c4578063fbb62fe71461025157600080fd5b806302402589146100ae57806311e6bceb146100d45780631811ade3146100e95780632ba57b9c146100fc57806354f1e7b81461010f575b600080fd5b6100c16100bc366004610c4c565b610271565b6040519081526020015b60405180910390f35b6100e76100e2366004610c93565b6102f6565b005b6100e76100f7366004610d19565b6103c6565b6100c161010a366004610d4e565b6105ad565b6100e761011d366004610d83565b610722565b61017a610130366004610daf565b600160208181526000938452604080852090915291835291208054918101546002909101546001600160a01b039092169160ff808216916101008104821691620100009091041685565b6040516100cb959493929190610e09565b6100e7610199366004610d83565b610792565b6100e76101ac366004610d19565b6108ce565b6100e76101bf366004610e47565b6109e4565b61023a6101d2366004610e94565b600060208190529081526040902080546001820154600283015460038401546004850154600586015460068701546007880154600889015460098a0154600a909a015498996001600160a01b0398891699989097169795969495939492939192909160ff168b565b6040516100cb9b9a99989796959493929190610ead565b61026461025f366004610e94565b610ae3565b6040516100cb9190610f1d565b600280546000918261028283610fc2565b9091555050600280546000818152602081905260408120918255600382019690965560048101979097556005870195909555506001850180546001600160a01b0319166001600160a01b0393909316929092179091556007840155600a8301805460ff191690556009909201919091555490565b600089815260208190526040812054900361032c5760405162461bcd60e51b815260040161032390610fe9565b60405180910390fd5b600089815260208190526040902060038101899055600481018890556005808201889055600180830180546001600160a01b03808b166001600160a01b031992831617909255600785018990556002850180549289169290911691909117905560088301859055600a830180548593919260ff199091169184908111156103b5576103b5610dd1565b021790555050505050505050505050565b600083815260208190526040812080549091036103f55760405162461bcd60e51b815260040161032390610fe9565b600083118015610409575080600901548311155b6104475760405162461bcd60e51b815260206004820152600f60248201526e125b9d985b1a59081c995c5d595cdd608a1b6044820152606401610323565b60008481526001602090815260408083208684529091529020600281015460ff166104bf5760405162461bcd60e51b815260206004820152602260248201527f4f776e657220686173206e6f7420617070726f766564207468652072657175656044820152611cdd60f21b6064820152608401610323565b6004600282015462010000900460ff1660058111156104e0576104e0610dd1565b148061050a57506005600282015462010000900460ff16600581111561050857610508610dd1565b145b6105565760405162461bcd60e51b815260206004820152601e60248201527f52657175657374206e6f7420726561647920666f72207472616e7366657200006044820152606401610323565b600182810180546001600160a01b0319166001600160a01b038616179055600a8301805460ff1916828002179055506002810180546001919062ff0000191662010000830217905550506000600890910155505050565b6000838152602081905260408120805482036105db5760405162461bcd60e51b815260040161032390610fe9565b6002600a82015460ff1660058111156105f6576105f6610dd1565b1461063b5760405162461bcd60e51b815260206004820152601560248201527450726f7065727479206e6f7420666f722073616c6560581b6044820152606401610323565b60098101805490600061064d83610fc2565b90915550506040805160a0810182526001600160a01b03868116825260208083018781526000848601818152606086018281526003608088019081528d8452600180875289852060098c01548652909652979092208651815496166001600160a01b031990961695909517855591519284019290925551600283018054925115156101000261ff00199215159290921661ffff1990931692909217178082559351929391929162ff000019166201000083600581111561070f5761070f610dd1565b0217905550505060090154949350505050565b600082815260208190526040812054900361074f5760405162461bcd60e51b815260040161032390610fe9565b60008281526020819052604090206002810180546001600160a01b0319166001600160a01b038416179055600a0180546001919060ff1916828002179055505050565b60008281526020819052604081205490036107bf5760405162461bcd60e51b815260040161032390610fe9565b6000828152602081905260409020600101546001600160a01b0382811691161461082b5760405162461bcd60e51b815260206004820152601a60248201527f4f6e6c79206f776e65722063616e2063616e63656c2073616c650000000000006044820152606401610323565b60026000838152602081905260409020600a015460ff16600581111561085357610853610dd1565b146108aa5760405162461bcd60e51b815260206004820152602160248201527f50726f7065727479206973206e6f742063757272656e746c79206f6e2073616c6044820152606560f81b6064820152608401610323565b506000908152602081905260408120600a8101805460ff1916600117905560080155565b600083815260208190526040812080549091036108fd5760405162461bcd60e51b815260040161032390610fe9565b60018101546001600160a01b038381169116146109555760405162461bcd60e51b81526020600482015260166024820152754f6e6c79206f776e65722063616e20617070726f766560501b6044820152606401610323565b806009015483111561099b5760405162461bcd60e51b815260206004820152600f60248201526e125b9d985b1a59081c995c5d595cdd608a1b6044820152606401610323565b6000848152600160208181526040808420878552909152909120600201805462ff00ff191662040001179055600a8201805460049260ff1990911690835b021790555050505050565b6000848152602081905260408120549003610a115760405162461bcd60e51b815260040161032390610fe9565b6000848152602081905260409020600101546001600160a01b03848116911614610a875760405162461bcd60e51b815260206004820152602160248201527f4f6e6c79206f776e65722063616e206d6f646966792073616c652073746174756044820152607360f81b6064820152608401610323565b8015610ab3576000848152602081905260408120600a8101805460ff1916600117905560080155610add565b600084815260208190526040902060088101839055600a0180546002919060ff19166001836109d9565b50505050565b610aeb610bb4565b600082815260208181526040918290208251610160810184528154815260018201546001600160a01b0390811693820193909352600282015490921692820192909252600382015460608201526004820154608082015260058083015460a0830152600683015460c0830152600783015460e083015260088301546101008301526009830154610120830152600a83015491929161014084019160ff90911690811115610b9a57610b9a610dd1565b6005811115610bab57610bab610dd1565b90525092915050565b6040518061016001604052806000815260200160006001600160a01b0316815260200160006001600160a01b031681526020016000815260200160008152602001600081526020016000815260200160008152602001600081526020016000815260200160006005811115610c2b57610c2b610dd1565b905290565b80356001600160a01b0381168114610c4757600080fd5b919050565b600080600080600060a08688031215610c6457600080fd5b853594506020860135935060408601359250610c8260608701610c30565b949793965091946080013592915050565b60008060008060008060008060006101208a8c031215610cb257600080fd5b8935985060208a0135975060408a0135965060608a01359550610cd760808b01610c30565b945060a08a01359350610cec60c08b01610c30565b925060e08a013591506101008a013560068110610d0857600080fd5b809150509295985092959850929598565b600080600060608486031215610d2e57600080fd5b8335925060208401359150610d4560408501610c30565b90509250925092565b600080600060608486031215610d6357600080fd5b83359250610d7360208501610c30565b9150604084013590509250925092565b60008060408385031215610d9657600080fd5b82359150610da660208401610c30565b90509250929050565b60008060408385031215610dc257600080fd5b50508035926020909101359150565b634e487b7160e01b600052602160045260246000fd5b60068110610e0557634e487b7160e01b600052602160045260246000fd5b9052565b6001600160a01b0386168152602081018590528315156040820152821515606082015260a08101610e3d6080830184610de7565b9695505050505050565b60008060008060808587031215610e5d57600080fd5b84359350610e6d60208601610c30565b92506040850135915060608501358015158114610e8957600080fd5b939692955090935050565b600060208284031215610ea657600080fd5b5035919050565b8b81526001600160a01b038b811660208301528a166040820152606081018990526080810188905260a0810187905260c0810186905260e08101859052610100810184905261012081018390526101608101610f0d610140830184610de7565b9c9b505050505050505050505050565b81518152602080830151610160830191610f41908401826001600160a01b03169052565b506040830151610f5c60408401826001600160a01b03169052565b50606083015160608301526080830151608083015260a083015160a083015260c083015160c083015260e083015160e083015261010080840151818401525061012080840151818401525061014080840151610fba82850182610de7565b505092915050565b600060018201610fe257634e487b7160e01b600052601160045260246000fd5b5060010190565b60208082526013908201527213185b9908191bd95cc81b9bdd08195e1a5cdd606a1b60408201526060019056fea2646970667358221220c51c434bcd7a8308d7e45f7b4402c687cc102902f64a5a9a54d6de36c4adda1f64736f6c63430008150033",
  "immutableReferences": {},
  "source": "// SPDX-License-Identifier: Unlicensed\r\npragma solidity ^0.8.21;\r\n\r\nimport \"./PropertyLedger.sol\";\r\n\r\ncontract PropertyRegistry {\r\n    \r\n    address private contractOwner;\r\n    address private transferOwnershipContractAddress;\r\n    bool private transferOwnershipContractAddressUpdated = false;\r\n\r\n    PropertyLedger public propertiesContract;\r\n\r\n    constructor() {\r\n        contractOwner = msg.sender;\r\n        transferOwnershipContractAddress = address(0);\r\n        transferOwnershipContractAddressUpdated = false;\r\n        propertiesContract = new PropertyLedger();\r\n    }\r\n\r\n    modifier onlyOwner() {\r\n        require(msg.sender == contractOwner, \"Caller is not the owner\");\r\n        _;\r\n    }\r\n\r\n    modifier onlyRevenueDeptEmployee(uint256 revenueDeptId) {\r\n        require(msg.sender == revenueDeptIdToEmployee[revenueDeptId], \"Only the revenue department employee can call this function.\");\r\n        _;\r\n    }\r\n\r\n    event LandAdded(address indexed owner,uint256 indexed propertyId);\r\n\r\n    mapping(address => uint256[]) private propertiesOfOwner;\r\n    mapping(uint256 => uint256[]) private propertiesControlledByRevenueDept;\r\n    mapping (uint256 => address) public revenueDeptIdToEmployee;\r\n\r\n    uint256[] private allProperties;\r\n\r\n    // Set the address of the TransferOfOwnership contract (only once)\r\n    function setTransferOwnershipContractAddress( address contractAddress ) public {\r\n        require(transferOwnershipContractAddressUpdated==false,\"Allowed Only Once to call\");\r\n        \r\n        transferOwnershipContractAddress = contractAddress;\r\n        transferOwnershipContractAddressUpdated = true;\r\n    }\r\n\r\n    // Add New Land\r\n    function addLand(uint256 _locationId, uint256 _revenueDepartmentId, uint256 _surveyNumber, uint256 _area) public returns (uint256) {\r\n        address _owner = msg.sender;\r\n        uint256 propertyId = propertiesContract.addLand(_locationId, _surveyNumber, _revenueDepartmentId, _owner, _area);\r\n\r\n        allProperties.push(propertyId); // track all properties\r\n\r\n        propertiesOfOwner[_owner].push(propertyId); // Map property to owner\r\n        propertiesControlledByRevenueDept[_revenueDepartmentId].push(propertyId); // Map property to revenue department\r\n\r\n        emit LandAdded(_owner, propertyId);\r\n\r\n        return propertyId;\r\n    }\r\n\r\n    // Get property details by property ID\r\n    function getPropertyDetails( uint256 _propertyId ) public view returns ( PropertyLedger.Land memory ) {\r\n        return propertiesContract.getLandDetailsAsStruct(_propertyId);\r\n    }\r\n\r\n    // Get all properties of an owner\r\n    function getPropertiesOfOwner( address _owner ) public view returns ( PropertyLedger.Land[] memory ) {\r\n        uint256[] memory propertyIds = propertiesOfOwner[_owner];\r\n        PropertyLedger.Land[] memory properties = new PropertyLedger.Land[](propertyIds.length);\r\n        \r\n        for (uint256 i = 0; i < propertyIds.length; i++) {\r\n            properties[i] = propertiesContract.getLandDetailsAsStruct(propertyIds[i]);\r\n        }\r\n\r\n        return properties;\r\n    }\r\n\r\n    // Get properties by revenue department\r\n    function getPropertiesByRevenueDeptId( uint256 _revenueDeptId ) public view returns ( PropertyLedger.Land[] memory ) {\r\n        uint256[] memory propertyIds = propertiesControlledByRevenueDept[_revenueDeptId];\r\n        \r\n        PropertyLedger.Land[] memory properties = new PropertyLedger.Land[](propertyIds.length);\r\n        \r\n        for (uint256 i = 0; i < propertyIds.length; i++) {\r\n            properties[i] = propertiesContract.getLandDetailsAsStruct(propertyIds[i]);\r\n        }\r\n          \r\n        return properties;\r\n    }\r\n            \r\n    // Map revenue department id to employee\r\n    function mapRevenueDeptIdToEmployee( uint256 revenueDeptId, address employeeAddress ) public onlyOwner {\r\n        revenueDeptIdToEmployee[revenueDeptId] = employeeAddress;\r\n    }\r\n\r\n    // Get revenue dept id of a property\r\n    function getRevenueDeptId(uint256 propertyId) private view returns (uint256) {\r\n        return propertiesContract.getLandDetailsAsStruct(propertyId).revenueDepartmentId;\r\n    }\r\n\r\n\r\n    //Get all properties\r\n    function getAllProperties() public view returns (PropertyLedger.Land[] memory) {\r\n        PropertyLedger.Land[] memory all = new PropertyLedger.Land[](allProperties.length);\r\n        for (uint i = 0; i < allProperties.length; i++) {\r\n            all[i] = propertiesContract.getLandDetailsAsStruct(allProperties[i]);\r\n        }\r\n        return all;\r\n    }\r\n\r\n    //Get pending properties\r\n    function getPendingPropertiesForVerification() public view returns (PropertyLedger.Land[] memory) {\r\n        uint count = 0;\r\n\r\n        // Count how many are in Registered state (assuming State 0 means Registered)\r\n        for (uint i = 0; i < allProperties.length; i++) {\r\n            PropertyLedger.Land memory land = propertiesContract.getLandDetailsAsStruct(allProperties[i]);\r\n            if (land.state == PropertyLedger.StateOfProperty.Registered) {\r\n                count++;\r\n            }\r\n        }\r\n\r\n        PropertyLedger.Land[] memory pendingProperties = new PropertyLedger.Land[](count);\r\n        uint idx = 0;\r\n\r\n        for (uint i = 0; i < allProperties.length; i++) {\r\n            PropertyLedger.Land memory land = propertiesContract.getLandDetailsAsStruct(allProperties[i]);\r\n            if (land.state == PropertyLedger.StateOfProperty.Registered) {\r\n                pendingProperties[idx] = land;\r\n                idx++;\r\n            }\r\n        }\r\n\r\n        return pendingProperties;\r\n    }\r\n\r\n    //Get verified properties\r\n    function getVerifiedProperties() public view returns (PropertyLedger.Land[] memory) {\r\n        uint count = 0;\r\n\r\n        // Count how many properties are in Verified state\r\n        for (uint i = 0; i < allProperties.length; i++) {\r\n            PropertyLedger.Land memory land = propertiesContract.getLandDetailsAsStruct(allProperties[i]);\r\n            if (land.state == PropertyLedger.StateOfProperty.Verified) {\r\n                count++;\r\n            }\r\n        }\r\n\r\n        PropertyLedger.Land[] memory verifiedProperties = new PropertyLedger.Land[](count);\r\n        uint idx = 0;\r\n\r\n        for (uint i = 0; i < allProperties.length; i++) {\r\n            PropertyLedger.Land memory land = propertiesContract.getLandDetailsAsStruct(allProperties[i]);\r\n            if (land.state == PropertyLedger.StateOfProperty.Verified) {\r\n                verifiedProperties[idx] = land;\r\n                idx++;\r\n            }\r\n        }\r\n\r\n        return verifiedProperties;\r\n    }\r\n\r\n    //Get on sale properties\r\n    function getOnSaleProperties() public view returns (PropertyLedger.Land[] memory) {\r\n        uint count = 0;\r\n        \r\n        for (uint i = 0; i < allProperties.length; i++) {\r\n            PropertyLedger.Land memory land = propertiesContract.getLandDetailsAsStruct(allProperties[i]);\r\n            if (land.state == PropertyLedger.StateOfProperty.OnSale) {\r\n                count++;\r\n            }\r\n        }\r\n        PropertyLedger.Land[] memory onSale = new PropertyLedger.Land[](count);\r\n        uint idx = 0;\r\n        \r\n        for (uint i = 0; i < allProperties.length; i++) {\r\n            PropertyLedger.Land memory land = propertiesContract.getLandDetailsAsStruct(allProperties[i]);\r\n            if (land.state == PropertyLedger.StateOfProperty.OnSale) {\r\n                onSale[idx] = land;\r\n                idx++;\r\n            }\r\n        }\r\n        return onSale;\r\n    }\r\n\r\n\r\n    function verifyProperty( uint256 _propertyId ) public onlyRevenueDeptEmployee(getRevenueDeptId(_propertyId)) {\r\n        propertiesContract.markVerified(_propertyId, msg.sender);\r\n    }\r\n\r\n    function rejectProperty( uint256 _propertyId ) public onlyRevenueDeptEmployee(getRevenueDeptId(_propertyId)) {\r\n        propertiesContract.putOnSale(_propertyId, msg.sender, 0, true);\r\n    }\r\n\r\n    function transferOwnership (uint256 _propertyId, uint requestId, address newOwner) public {\r\n        require(msg.sender == transferOwnershipContractAddress, \"Only TransferOfOwnership contract allowed\");\r\n\r\n        // Remove property from old owner's list\r\n        address oldOwner = propertiesContract.getLandDetailsAsStruct(_propertyId).owner;\r\n        uint256[] storage oldOwnerProps = propertiesOfOwner[oldOwner];\r\n        for (uint i = 0; i < oldOwnerProps.length; i++) {\r\n            if (oldOwnerProps[i] == _propertyId) {\r\n                oldOwnerProps[i] = oldOwnerProps[oldOwnerProps.length - 1];\r\n                oldOwnerProps.pop();\r\n                break;\r\n            }\r\n        }\r\n\r\n        // Add property to new owner's list\r\n        propertiesOfOwner[newOwner].push(_propertyId);\r\n\r\n        // Update ownership in Property contract\r\n        propertiesContract.transferOwnership(_propertyId, requestId, newOwner);\r\n    }\r\n\r\n    function getPropertiesContract() public view returns (address){\r\n        return address(propertiesContract);\r\n    }\r\n}",
  "sourcePath": "C:\\Users\\Shalini Patel\\Desktop\\College\\Capstone Project\\property-ledger\\contracts\\PropertyRegistry.sol",
  "compiler": {
    "name": "solc",
    "version": "0.8.21+commit.d9974bed.Emscripten.clang"
  },
  "schemaVersion": "3.4.16",
  "updatedAt": "2025-11-13T17:35:25.377Z",
  "networkType": "ethereum",
  "devdoc": {
    "kind": "dev",
    "methods": {},
    "version": 1
  },
  "userdoc": {
    "kind": "user",
    "methods": {},
    "version": 1
  }
}