{
  "contractName": "UserRegistry",
  "abi": [
    {
      "inputs": [
        {
          "components": [
            {
              "internalType": "string",
              "name": "firstName",
              "type": "string"
            },
            {
              "internalType": "string",
              "name": "lastName",
              "type": "string"
            },
            {
              "internalType": "string",
              "name": "dateOfBirth",
              "type": "string"
            },
            {
              "internalType": "string",
              "name": "aadharNumber",
              "type": "string"
            },
            {
              "internalType": "string",
              "name": "resAddress",
              "type": "string"
            },
            {
              "internalType": "string",
              "name": "email",
              "type": "string"
            },
            {
              "internalType": "string",
              "name": "aadharFileHash",
              "type": "string"
            }
          ],
          "internalType": "struct UserRegistry.UserProfile",
          "name": "mainAdminProfile",
          "type": "tuple"
        },
        {
          "internalType": "address",
          "name": "initialRegionalAdminAddress",
          "type": "address"
        },
        {
          "components": [
            {
              "internalType": "string",
              "name": "firstName",
              "type": "string"
            },
            {
              "internalType": "string",
              "name": "lastName",
              "type": "string"
            },
            {
              "internalType": "string",
              "name": "dateOfBirth",
              "type": "string"
            },
            {
              "internalType": "string",
              "name": "aadharNumber",
              "type": "string"
            },
            {
              "internalType": "string",
              "name": "resAddress",
              "type": "string"
            },
            {
              "internalType": "string",
              "name": "email",
              "type": "string"
            },
            {
              "internalType": "string",
              "name": "aadharFileHash",
              "type": "string"
            }
          ],
          "internalType": "struct UserRegistry.UserProfile",
          "name": "initialRegionalAdminProfile",
          "type": "tuple"
        }
      ],
      "stateMutability": "nonpayable",
      "type": "constructor"
    },
    {
      "anonymous": false,
      "inputs": [
        {
          "indexed": true,
          "internalType": "address",
          "name": "userID",
          "type": "address"
        }
      ],
      "name": "RegionalAdminAdded",
      "type": "event"
    },
    {
      "anonymous": false,
      "inputs": [
        {
          "indexed": true,
          "internalType": "address",
          "name": "userID",
          "type": "address"
        }
      ],
      "name": "UserApproved",
      "type": "event"
    },
    {
      "anonymous": false,
      "inputs": [
        {
          "indexed": true,
          "internalType": "address",
          "name": "userID",
          "type": "address"
        },
        {
          "indexed": false,
          "internalType": "enum UserRegistry.Role",
          "name": "role",
          "type": "uint8"
        },
        {
          "indexed": true,
          "internalType": "uint256",
          "name": "accountCreatedDateTime",
          "type": "uint256"
        }
      ],
      "name": "UserRegistered",
      "type": "event"
    },
    {
      "anonymous": false,
      "inputs": [
        {
          "indexed": true,
          "internalType": "address",
          "name": "userID",
          "type": "address"
        },
        {
          "indexed": false,
          "internalType": "enum UserRegistry.Role",
          "name": "role",
          "type": "uint8"
        }
      ],
      "name": "UserVerified",
      "type": "event"
    },
    {
      "inputs": [],
      "name": "mainAdministrator",
      "outputs": [
        {
          "internalType": "address",
          "name": "",
          "type": "address"
        }
      ],
      "stateMutability": "view",
      "type": "function",
      "constant": true
    },
    {
      "inputs": [
        {
          "internalType": "address",
          "name": "",
          "type": "address"
        }
      ],
      "name": "regionalAdmins",
      "outputs": [
        {
          "internalType": "bool",
          "name": "",
          "type": "bool"
        }
      ],
      "stateMutability": "view",
      "type": "function",
      "constant": true
    },
    {
      "inputs": [
        {
          "internalType": "address",
          "name": "",
          "type": "address"
        }
      ],
      "name": "registeredUsers",
      "outputs": [
        {
          "internalType": "bool",
          "name": "",
          "type": "bool"
        }
      ],
      "stateMutability": "view",
      "type": "function",
      "constant": true
    },
    {
      "inputs": [
        {
          "internalType": "address",
          "name": "",
          "type": "address"
        }
      ],
      "name": "users",
      "outputs": [
        {
          "internalType": "address",
          "name": "userID",
          "type": "address"
        },
        {
          "internalType": "string",
          "name": "firstName",
          "type": "string"
        },
        {
          "internalType": "string",
          "name": "lastName",
          "type": "string"
        },
        {
          "internalType": "string",
          "name": "dateOfBirth",
          "type": "string"
        },
        {
          "internalType": "string",
          "name": "aadharNumber",
          "type": "string"
        },
        {
          "internalType": "string",
          "name": "resAddress",
          "type": "string"
        },
        {
          "internalType": "string",
          "name": "email",
          "type": "string"
        },
        {
          "internalType": "string",
          "name": "aadharFileHash",
          "type": "string"
        },
        {
          "internalType": "enum UserRegistry.Role",
          "name": "role",
          "type": "uint8"
        },
        {
          "internalType": "bool",
          "name": "verified",
          "type": "bool"
        },
        {
          "internalType": "uint256",
          "name": "accountCreatedDateTime",
          "type": "uint256"
        },
        {
          "internalType": "uint256",
          "name": "totalIndices",
          "type": "uint256"
        },
        {
          "internalType": "uint256",
          "name": "requestIndices",
          "type": "uint256"
        }
      ],
      "stateMutability": "view",
      "type": "function",
      "constant": true
    },
    {
      "inputs": [
        {
          "internalType": "string",
          "name": "_firstName",
          "type": "string"
        },
        {
          "internalType": "string",
          "name": "_lastName",
          "type": "string"
        },
        {
          "internalType": "string",
          "name": "_dateOfBirth",
          "type": "string"
        },
        {
          "internalType": "string",
          "name": "_aadharNumber",
          "type": "string"
        },
        {
          "internalType": "string",
          "name": "_resAddress",
          "type": "string"
        },
        {
          "internalType": "string",
          "name": "_email",
          "type": "string"
        },
        {
          "internalType": "string",
          "name": "_aadharFileHash",
          "type": "string"
        }
      ],
      "name": "updateMainAdminProfile",
      "outputs": [],
      "stateMutability": "nonpayable",
      "type": "function"
    },
    {
      "inputs": [
        {
          "internalType": "string",
          "name": "_firstName",
          "type": "string"
        },
        {
          "internalType": "string",
          "name": "_lastName",
          "type": "string"
        },
        {
          "internalType": "string",
          "name": "_dateOfBirth",
          "type": "string"
        },
        {
          "internalType": "string",
          "name": "_aadharNumber",
          "type": "string"
        },
        {
          "internalType": "string",
          "name": "_resAddress",
          "type": "string"
        },
        {
          "internalType": "string",
          "name": "_email",
          "type": "string"
        },
        {
          "internalType": "string",
          "name": "_aadharFileHash",
          "type": "string"
        }
      ],
      "name": "registerUser",
      "outputs": [],
      "stateMutability": "nonpayable",
      "type": "function"
    },
    {
      "inputs": [
        {
          "internalType": "string",
          "name": "_lastName",
          "type": "string"
        },
        {
          "internalType": "string",
          "name": "_resAddress",
          "type": "string"
        },
        {
          "internalType": "string",
          "name": "_email",
          "type": "string"
        }
      ],
      "name": "updateUserProfile",
      "outputs": [],
      "stateMutability": "nonpayable",
      "type": "function"
    },
    {
      "inputs": [
        {
          "internalType": "address",
          "name": "_adminAddress",
          "type": "address"
        }
      ],
      "name": "addRegionalAdmin",
      "outputs": [],
      "stateMutability": "nonpayable",
      "type": "function"
    },
    {
      "inputs": [
        {
          "internalType": "address",
          "name": "_adminAddress",
          "type": "address"
        }
      ],
      "name": "removeRegionalAdmin",
      "outputs": [],
      "stateMutability": "nonpayable",
      "type": "function"
    },
    {
      "inputs": [
        {
          "internalType": "address",
          "name": "_userAddress",
          "type": "address"
        }
      ],
      "name": "verifyUser",
      "outputs": [],
      "stateMutability": "nonpayable",
      "type": "function"
    },
    {
      "inputs": [
        {
          "internalType": "address",
          "name": "_userId",
          "type": "address"
        }
      ],
      "name": "getUserDetails",
      "outputs": [
        {
          "internalType": "string",
          "name": "firstName",
          "type": "string"
        },
        {
          "internalType": "string",
          "name": "lastName",
          "type": "string"
        },
        {
          "internalType": "string",
          "name": "dateOfBirth",
          "type": "string"
        },
        {
          "internalType": "string",
          "name": "aadharNumber",
          "type": "string"
        },
        {
          "internalType": "string",
          "name": "resAddress",
          "type": "string"
        },
        {
          "internalType": "string",
          "name": "email",
          "type": "string"
        },
        {
          "internalType": "string",
          "name": "aadharFileHash",
          "type": "string"
        },
        {
          "internalType": "string",
          "name": "role",
          "type": "string"
        },
        {
          "internalType": "bool",
          "name": "verified",
          "type": "bool"
        },
        {
          "internalType": "uint256",
          "name": "accountCreated",
          "type": "uint256"
        }
      ],
      "stateMutability": "view",
      "type": "function",
      "constant": true
    },
    {
      "inputs": [
        {
          "internalType": "address",
          "name": "_user",
          "type": "address"
        }
      ],
      "name": "incrementTotalProperties",
      "outputs": [],
      "stateMutability": "nonpayable",
      "type": "function"
    },
    {
      "inputs": [
        {
          "internalType": "address",
          "name": "_user",
          "type": "address"
        }
      ],
      "name": "incrementRequests",
      "outputs": [],
      "stateMutability": "nonpayable",
      "type": "function"
    },
    {
      "inputs": [
        {
          "internalType": "address",
          "name": "_user",
          "type": "address"
        }
      ],
      "name": "isRegionalAdmin",
      "outputs": [
        {
          "internalType": "bool",
          "name": "",
          "type": "bool"
        }
      ],
      "stateMutability": "view",
      "type": "function",
      "constant": true
    },
    {
      "inputs": [],
      "name": "getAllRegionalAdmins",
      "outputs": [
        {
          "internalType": "address[]",
          "name": "",
          "type": "address[]"
        }
      ],
      "stateMutability": "view",
      "type": "function",
      "constant": true
    },
    {
      "inputs": [],
      "name": "getPendingUserVerifications",
      "outputs": [
        {
          "internalType": "address[]",
          "name": "",
          "type": "address[]"
        }
      ],
      "stateMutability": "view",
      "type": "function",
      "constant": true
    },
    {
      "inputs": [],
      "name": "getTotalUsers",
      "outputs": [
        {
          "internalType": "uint256",
          "name": "",
          "type": "uint256"
        }
      ],
      "stateMutability": "view",
      "type": "function",
      "constant": true
    },
    {
      "inputs": [],
      "name": "getRegionalAdminCount",
      "outputs": [
        {
          "internalType": "uint256",
          "name": "",
          "type": "uint256"
        }
      ],
      "stateMutability": "view",
      "type": "function",
      "constant": true
    }
  ],
  "bytecode": "0x60806040523480156200001157600080fd5b5060405162002b0e38038062002b0e83398101604081905262000034916200075d565b600580546001600160a01b03191633908117909155604080516101a08101825291825284516020808401919091528501518282015284015160608083019190915284015160808083019190915284015160a08083019190915284015160c08083019190915284015160e082015261010081016000815260016020808301829052426040808501919091526000606085018190526080909401849052338452828252909220835181546001600160a01b0319166001600160a01b0390911617815591830151908201906200010890826200088d565b50604082015160028201906200011f90826200088d565b50606082015160038201906200013690826200088d565b50608082015160048201906200014d90826200088d565b5060a082015160058201906200016490826200088d565b5060c082015160068201906200017b90826200088d565b5060e082015160078201906200019290826200088d565b5061010082015160088201805460ff19166001836002811115620001ba57620001ba620007e8565b02179055506101208201516008820180549115156101000261ff00199092169190911790556101408201516009820155610160820151600a82015561018090910151600b9091015533600081815260208190526040808220805460ff191660011790555142929160008051602062002aee833981519152916200023e919062000959565b60405180910390a3604051806101a00160405280836001600160a01b0316815260200182600001518152602001826020015181526020018260400151815260200182606001518152602001826080015181526020018260a0015181526020018260c00151815260200160016002811115620002bd57620002bd620007e8565b8152600160208083018290524260408085019190915260006060850181905260809094018490526001600160a01b0387811685528383529320845181546001600160a01b0319169416939093178355830151908201906200031f90826200088d565b50604082015160028201906200033690826200088d565b50606082015160038201906200034d90826200088d565b50608082015160048201906200036490826200088d565b5060a082015160058201906200037b90826200088d565b5060c082015160068201906200039290826200088d565b5060e08201516007820190620003a990826200088d565b5061010082015160088201805460ff19166001836002811115620003d157620003d1620007e8565b02179055506101208201516008820180549115156101000261ff00199092169190911790556101408201516009820155610160820151600a82015561018090910151600b909101556001600160a01b038216600090815260208181526040808320805460ff199081166001908117909255600390935290832080549092161790556004805491620004628362000982565b919050555042826001600160a01b031660008051602062002aee833981519152600160405162000493919062000959565b60405180910390a36040516001600160a01b038316907f0110fdaeadd542c332cd26892cb7d915de6e76321aaabf60db70177f7a9e392090600090a2816001600160a01b03167f3e60282061aa9f0ac8f17cb522ab49946225e94f8597d84e6504593ee06a81e060016040516200050b919062000959565b60405180910390a2505050620009aa565b634e487b7160e01b600052604160045260246000fd5b60405160e081016001600160401b03811182821017156200055757620005576200051c565b60405290565b604051601f8201601f191681016001600160401b03811182821017156200058857620005886200051c565b604052919050565b600082601f830112620005a257600080fd5b81516001600160401b03811115620005be57620005be6200051c565b6020620005d4601f8301601f191682016200055d565b8281528582848701011115620005e957600080fd5b60005b8381101562000609578581018301518282018401528201620005ec565b506000928101909101919091529392505050565b600060e082840312156200063057600080fd5b6200063a62000532565b82519091506001600160401b03808211156200065557600080fd5b620006638583860162000590565b835260208401519150808211156200067a57600080fd5b620006888583860162000590565b60208401526040840151915080821115620006a257600080fd5b620006b08583860162000590565b60408401526060840151915080821115620006ca57600080fd5b620006d88583860162000590565b60608401526080840151915080821115620006f257600080fd5b620007008583860162000590565b608084015260a08401519150808211156200071a57600080fd5b620007288583860162000590565b60a084015260c08401519150808211156200074257600080fd5b50620007518482850162000590565b60c08301525092915050565b6000806000606084860312156200077357600080fd5b83516001600160401b03808211156200078b57600080fd5b62000799878388016200061d565b602087015190955091506001600160a01b0382168214620007b957600080fd5b604086015191935080821115620007cf57600080fd5b50620007de868287016200061d565b9150509250925092565b634e487b7160e01b600052602160045260246000fd5b600181811c908216806200081357607f821691505b6020821081036200083457634e487b7160e01b600052602260045260246000fd5b50919050565b601f8211156200088857600081815260208120601f850160051c81016020861015620008635750805b601f850160051c820191505b8181101562000884578281556001016200086f565b5050505b505050565b81516001600160401b03811115620008a957620008a96200051c565b620008c181620008ba8454620007fe565b846200083a565b602080601f831160018114620008f95760008415620008e05750858301515b600019600386901b1c1916600185901b17855562000884565b600085815260208120601f198616915b828110156200092a5788860151825594840194600190910190840162000909565b5085821015620009495787850151600019600388901b60f8161c191681555b5050505050600190811b01905550565b60208101600383106200097c57634e487b7160e01b600052602160045260246000fd5b91905290565b600060018201620009a357634e487b7160e01b600052601160045260246000fd5b5060010190565b61213480620009ba6000396000f3fe608060405234801561001057600080fd5b50600436106101165760003560e01c80639be572f6116100a2578063bace029011610071578063bace029014610294578063c19c9037146102a7578063cc3d967b146102ba578063d684d14a146102e3578063e095b37a146102eb57600080fd5b80639be572f614610217578063a2fc2ce114610229578063a87430ba14610255578063b56fe5031461028157600080fd5b80634ae8af09116100e95780634ae8af091461019e5780634d813120146101b15780635764767b146101c457806361e1b0b5146101d957806363350431146101ec57600080fd5b80630e50cee51461011b578063147494ee1461015357806342ceaf1f14610168578063463ac5f71461017b575b600080fd5b61013e6101293660046119cc565b60006020819052908152604090205460ff1681565b60405190151581526020015b60405180910390f35b6101666101613660046119cc565b6102f3565b005b6101666101763660046119cc565b610423565b61013e6101893660046119cc565b60036020526000908152604090205460ff1681565b6101666101ac366004611a9f565b610482565b6101666101bf3660046119cc565b6107d2565b6101cc6109b5565b60405161014a9190611bba565b6101666101e73660046119cc565b610aea565b6005546101ff906001600160a01b031681565b6040516001600160a01b03909116815260200161014a565b6006545b60405190815260200161014a565b61013e6102373660046119cc565b6001600160a01b031660009081526003602052604090205460ff1690565b6102686102633660046119cc565b610c0a565b60405161014a9d9c9b9a99989796959493929190611c8f565b61016661028f366004611a9f565b611033565b6101666102a2366004611d69565b6110ec565b6101666102b53660046119cc565b61115d565b6102cd6102c83660046119cc565b6111bc565b60405161014a9a99989796959493929190611df1565b6101cc61176a565b60045461021b565b6005546001600160a01b031633146103265760405162461bcd60e51b815260040161031d90611ead565b60405180910390fd5b6001600160a01b03811660009081526020819052604090205460ff1661035e5760405162461bcd60e51b815260040161031d90611efc565b60016001600160a01b03821660009081526001602052604090206008015460ff16600281111561039057610390611c57565b146103d45760405162461bcd60e51b81526020600482015260146024820152732737ba1030903932b3b4b7b730b61030b236b4b760611b604482015260640161031d565b6001600160a01b0381166000908152600160209081526040808320600801805461ffff1916600217905560039091528120805460ff19169055600480549161041b83611f3f565b919050555050565b6001600160a01b03811660009081526020819052604090205460ff1661045b5760405162461bcd60e51b815260040161031d90611efc565b6001600160a01b0381166000908152600160205260408120600a0180549161041b83611f56565b3360009081526020819052604090205460ff16156104e25760405162461bcd60e51b815260206004820152601760248201527f5573657220616c72656164792072656769737465726564000000000000000000604482015260640161031d565b6002846040516104f29190611f6f565b9081526040519081900360200190205460ff16156105525760405162461bcd60e51b815260206004820181905260248201527f416164686172206e756d62657220616c72656164792072656769737465726564604482015260640161031d565b6000604051806101a00160405280336001600160a01b031681526020018981526020018881526020018781526020018681526020018581526020018481526020018381526020016002808111156105ab576105ab611c57565b81526000602080830182905242604080850191909152606084018390526080909301829052338252600180825292909120835181546001600160a01b0319166001600160a01b0390911617815590830151929350839290918201906106109082612014565b50604082015160028201906106259082612014565b506060820151600382019061063a9082612014565b506080820151600482019061064f9082612014565b5060a082015160058201906106649082612014565b5060c082015160068201906106799082612014565b5060e0820151600782019061068e9082612014565b5061010082015160088201805460ff191660018360028111156106b3576106b3611c57565b02179055506101208201516008820180549115156101000261ff00199092169190911790556101408201516009820155610160820151600a82015561018090910151600b909101553360009081526020819052604090819020805460ff19166001908117909155905160029061072a908890611f6f565b908152604051908190036020018120805492151560ff1990931692909217909155600680546001810182556000919091527ff652222313e28459528d920b65115c16c04f3efc82aaedc97be59f3f377c0d3f0180546001600160a01b0319163390811790915542917feea238307e4577ec1b8645d63505c2d57767cfc074bb5ab579a615525f07a257906107c0906002906120d4565b60405180910390a35050505050505050565b60013360009081526001602052604090206008015460ff1660028111156107fb576107fb611c57565b14801561081f575033600090815260016020526040902060080154610100900460ff165b61086b5760405162461bcd60e51b815260206004820152601c60248201527f4f6e6c7920766572696669656420526567696f6e616c2041646d696e00000000604482015260640161031d565b6001600160a01b03811660009081526020819052604090205460ff166108a35760405162461bcd60e51b815260040161031d90611efc565b60026001600160a01b03821660009081526001602052604090206008015460ff1660028111156108d5576108d5611c57565b146109225760405162461bcd60e51b815260206004820152601a60248201527f4e6f7420612067656e6572616c2075736572206163636f756e74000000000000604482015260640161031d565b6001600160a01b038116600081815260016020526040808220600801805461ff001916610100179055517ffbb0a472171a6eb950c8a87421215268a1b2df816da0a48e920e72ade27cfcf79190a2806001600160a01b03167f3e60282061aa9f0ac8f17cb522ab49946225e94f8597d84e6504593ee06a81e060026040516109aa91906120d4565b60405180910390a250565b6060600060045467ffffffffffffffff8111156109d4576109d46119fc565b6040519080825280602002602001820160405280156109fd578160200160208202803683370190505b5090506000805b600654811015610ae257600180600060068481548110610a2657610a266120e8565b60009182526020808320909101546001600160a01b0316835282019290925260400190206008015460ff166002811115610a6257610a62611c57565b03610ad05760068181548110610a7a57610a7a6120e8565b9060005260206000200160009054906101000a90046001600160a01b0316838381518110610aaa57610aaa6120e8565b6001600160a01b039092166020928302919091019091015281610acc81611f56565b9250505b80610ada81611f56565b915050610a04565b509092915050565b6005546001600160a01b03163314610b145760405162461bcd60e51b815260040161031d90611ead565b6001600160a01b03811660009081526020819052604090205460ff16610b4c5760405162461bcd60e51b815260040161031d90611efc565b6001600160a01b0381166000908152600160208181526040808420600801805461ffff191661010117905560039091528220805460ff191690911790556004805491610b9783611f56565b90915550506040516001600160a01b038216907f0110fdaeadd542c332cd26892cb7d915de6e76321aaabf60db70177f7a9e392090600090a2806001600160a01b03167f3e60282061aa9f0ac8f17cb522ab49946225e94f8597d84e6504593ee06a81e060016040516109aa91906120d4565b6001602081905260009182526040909120805491810180546001600160a01b0390931692610c3790611f8b565b80601f0160208091040260200160405190810160405280929190818152602001828054610c6390611f8b565b8015610cb05780601f10610c8557610100808354040283529160200191610cb0565b820191906000526020600020905b815481529060010190602001808311610c9357829003601f168201915b505050505090806002018054610cc590611f8b565b80601f0160208091040260200160405190810160405280929190818152602001828054610cf190611f8b565b8015610d3e5780601f10610d1357610100808354040283529160200191610d3e565b820191906000526020600020905b815481529060010190602001808311610d2157829003601f168201915b505050505090806003018054610d5390611f8b565b80601f0160208091040260200160405190810160405280929190818152602001828054610d7f90611f8b565b8015610dcc5780601f10610da157610100808354040283529160200191610dcc565b820191906000526020600020905b815481529060010190602001808311610daf57829003601f168201915b505050505090806004018054610de190611f8b565b80601f0160208091040260200160405190810160405280929190818152602001828054610e0d90611f8b565b8015610e5a5780601f10610e2f57610100808354040283529160200191610e5a565b820191906000526020600020905b815481529060010190602001808311610e3d57829003601f168201915b505050505090806005018054610e6f90611f8b565b80601f0160208091040260200160405190810160405280929190818152602001828054610e9b90611f8b565b8015610ee85780601f10610ebd57610100808354040283529160200191610ee8565b820191906000526020600020905b815481529060010190602001808311610ecb57829003601f168201915b505050505090806006018054610efd90611f8b565b80601f0160208091040260200160405190810160405280929190818152602001828054610f2990611f8b565b8015610f765780601f10610f4b57610100808354040283529160200191610f76565b820191906000526020600020905b815481529060010190602001808311610f5957829003601f168201915b505050505090806007018054610f8b90611f8b565b80601f0160208091040260200160405190810160405280929190818152602001828054610fb790611f8b565b80156110045780601f10610fd957610100808354040283529160200191611004565b820191906000526020600020905b815481529060010190602001808311610fe757829003601f168201915b5050505060088301546009840154600a850154600b90950154939460ff8084169561010090940416935090918d565b6005546001600160a01b0316331461105d5760405162461bcd60e51b815260040161031d90611ead565b6005546001600160a01b031660009081526001602081905260409091209081016110878982612014565b50600281016110968882612014565b50600381016110a58782612014565b50600481016110b48682612014565b50600581016110c38582612014565b50600681016110d28482612014565b50600781016110e18382612014565b505050505050505050565b3360009081526020819052604090205460ff1661111b5760405162461bcd60e51b815260040161031d90611efc565b336000908152600160205260409020600281016111388582612014565b50600581016111478482612014565b50600681016111568382612014565b5050505050565b6001600160a01b03811660009081526020819052604090205460ff166111955760405162461bcd60e51b815260040161031d90611efc565b6001600160a01b0381166000908152600160205260408120600b0180549161041b83611f56565b6001600160a01b0381811660009081526001602052604081205460609283928392839283928392839283929182911661122d5760405162461bcd60e51b8152602060048201526013602482015272155cd95c88191bd95cc81b9bdd08195e1a5cdd606a1b604482015260640161031d565b6001600160a01b038b16600090815260016020526040812090606090600883015460ff16600281111561126257611262611c57565b03611296575060408051808201909152601281527126b0b4b71020b236b4b734b9ba3930ba37b960711b602082015261133f565b6001600883015460ff1660028111156112b1576112b1611c57565b036112e1575060408051808201909152600e81526d2932b3b4b7b730b61020b236b4b760911b602082015261133f565b6002600883015460ff1660028111156112fc576112fc611c57565b0361132257506040805180820190915260048152632ab9b2b960e11b602082015261133f565b506040805180820190915260048152634e6f6e6560e01b60208201525b81600101826002018360030184600401856005018660060187600701878960080160019054906101000a900460ff168a6009015489805461137f90611f8b565b80601f01602080910402602001604051908101604052809291908181526020018280546113ab90611f8b565b80156113f85780601f106113cd576101008083540402835291602001916113f8565b820191906000526020600020905b8154815290600101906020018083116113db57829003601f168201915b5050505050995088805461140b90611f8b565b80601f016020809104026020016040519081016040528092919081815260200182805461143790611f8b565b80156114845780601f1061145957610100808354040283529160200191611484565b820191906000526020600020905b81548152906001019060200180831161146757829003601f168201915b5050505050985087805461149790611f8b565b80601f01602080910402602001604051908101604052809291908181526020018280546114c390611f8b565b80156115105780601f106114e557610100808354040283529160200191611510565b820191906000526020600020905b8154815290600101906020018083116114f357829003601f168201915b5050505050975086805461152390611f8b565b80601f016020809104026020016040519081016040528092919081815260200182805461154f90611f8b565b801561159c5780601f106115715761010080835404028352916020019161159c565b820191906000526020600020905b81548152906001019060200180831161157f57829003601f168201915b505050505096508580546115af90611f8b565b80601f01602080910402602001604051908101604052809291908181526020018280546115db90611f8b565b80156116285780601f106115fd57610100808354040283529160200191611628565b820191906000526020600020905b81548152906001019060200180831161160b57829003601f168201915b5050505050955084805461163b90611f8b565b80601f016020809104026020016040519081016040528092919081815260200182805461166790611f8b565b80156116b45780601f10611689576101008083540402835291602001916116b4565b820191906000526020600020905b81548152906001019060200180831161169757829003601f168201915b505050505094508380546116c790611f8b565b80601f01602080910402602001604051908101604052809291908181526020018280546116f390611f8b565b80156117405780601f1061171557610100808354040283529160200191611740565b820191906000526020600020905b81548152906001019060200180831161172357829003601f168201915b505050505093509b509b509b509b509b509b509b509b509b509b5050509193959799509193959799565b60606000805b6006548110156118465760026001600060068481548110611793576117936120e8565b60009182526020808320909101546001600160a01b0316835282019290925260400190206008015460ff1660028111156117cf576117cf611c57565b148015611821575060016000600683815481106117ee576117ee6120e8565b60009182526020808320909101546001600160a01b0316835282019290925260400190206008015460ff61010090910416155b15611834578161183081611f56565b9250505b8061183e81611f56565b915050611770565b5060008167ffffffffffffffff811115611862576118626119fc565b60405190808252806020026020018201604052801561188b578160200160208202803683370190505b5090506000805b6006548110156119c357600260016000600684815481106118b5576118b56120e8565b60009182526020808320909101546001600160a01b0316835282019290925260400190206008015460ff1660028111156118f1576118f1611c57565b14801561194357506001600060068381548110611910576119106120e8565b60009182526020808320909101546001600160a01b0316835282019290925260400190206008015460ff61010090910416155b156119b1576006818154811061195b5761195b6120e8565b9060005260206000200160009054906101000a90046001600160a01b031683838151811061198b5761198b6120e8565b6001600160a01b0390921660209283029190910190910152816119ad81611f56565b9250505b806119bb81611f56565b915050611892565b50909392505050565b6000602082840312156119de57600080fd5b81356001600160a01b03811681146119f557600080fd5b9392505050565b634e487b7160e01b600052604160045260246000fd5b600082601f830112611a2357600080fd5b813567ffffffffffffffff80821115611a3e57611a3e6119fc565b604051601f8301601f19908116603f01168101908282118183101715611a6657611a666119fc565b81604052838152866020858801011115611a7f57600080fd5b836020870160208301376000602085830101528094505050505092915050565b600080600080600080600060e0888a031215611aba57600080fd5b873567ffffffffffffffff80821115611ad257600080fd5b611ade8b838c01611a12565b985060208a0135915080821115611af457600080fd5b611b008b838c01611a12565b975060408a0135915080821115611b1657600080fd5b611b228b838c01611a12565b965060608a0135915080821115611b3857600080fd5b611b448b838c01611a12565b955060808a0135915080821115611b5a57600080fd5b611b668b838c01611a12565b945060a08a0135915080821115611b7c57600080fd5b611b888b838c01611a12565b935060c08a0135915080821115611b9e57600080fd5b50611bab8a828b01611a12565b91505092959891949750929550565b6020808252825182820181905260009190848201906040850190845b81811015611bfb5783516001600160a01b031683529284019291840191600101611bd6565b50909695505050505050565b60005b83811015611c22578181015183820152602001611c0a565b50506000910152565b60008151808452611c43816020860160208601611c07565b601f01601f19169290920160200192915050565b634e487b7160e01b600052602160045260246000fd5b60038110611c8b57634e487b7160e01b600052602160045260246000fd5b9052565b6001600160a01b038e1681526101a060208201526000611cb36101a083018f611c2b565b8281036040840152611cc5818f611c2b565b90508281036060840152611cd9818e611c2b565b90508281036080840152611ced818d611c2b565b905082810360a0840152611d01818c611c2b565b905082810360c0840152611d15818b611c2b565b905082810360e0840152611d29818a611c2b565b915050611d3a610100830188611c6d565b941515610120820152610140810193909352610160830191909152610180909101529998505050505050505050565b600080600060608486031215611d7e57600080fd5b833567ffffffffffffffff80821115611d9657600080fd5b611da287838801611a12565b94506020860135915080821115611db857600080fd5b611dc487838801611a12565b93506040860135915080821115611dda57600080fd5b50611de786828701611a12565b9150509250925092565b6000610140808352611e058184018e611c2b565b90508281036020840152611e19818d611c2b565b90508281036040840152611e2d818c611c2b565b90508281036060840152611e41818b611c2b565b90508281036080840152611e55818a611c2b565b905082810360a0840152611e698189611c2b565b905082810360c0840152611e7d8188611c2b565b905082810360e0840152611e918187611c2b565b9415156101008401525050610120015298975050505050505050565b6020808252602f908201527f4f6e6c79204d61696e2041646d696e6973747261746f722063616e207065726660408201526e37b936903a3434b99030b1ba34b7b760891b606082015260800190565b602080825260139082015272155cd95c881b9bdd081c9959da5cdd195c9959606a1b604082015260600190565b634e487b7160e01b600052601160045260246000fd5b600081611f4e57611f4e611f29565b506000190190565b600060018201611f6857611f68611f29565b5060010190565b60008251611f81818460208701611c07565b9190910192915050565b600181811c90821680611f9f57607f821691505b602082108103611fbf57634e487b7160e01b600052602260045260246000fd5b50919050565b601f82111561200f57600081815260208120601f850160051c81016020861015611fec5750805b601f850160051c820191505b8181101561200b57828155600101611ff8565b5050505b505050565b815167ffffffffffffffff81111561202e5761202e6119fc565b6120428161203c8454611f8b565b84611fc5565b602080601f831160018114612077576000841561205f5750858301515b600019600386901b1c1916600185901b17855561200b565b600085815260208120601f198616915b828110156120a657888601518255948401946001909101908401612087565b50858210156120c45787850151600019600388901b60f8161c191681555b5050505050600190811b01905550565b602081016120e28284611c6d565b92915050565b634e487b7160e01b600052603260045260246000fdfea2646970667358221220928a1c2a6993c92a6f41c765b85f4a6e4642a9d66119337ea69aca413baed26d64736f6c63430008150033eea238307e4577ec1b8645d63505c2d57767cfc074bb5ab579a615525f07a257",
  "immutableReferences": {},
  "source": "// SPDX-License-Identifier: Unlicensed\r\npragma solidity ^0.8.21;\r\n\r\ncontract UserRegistry {\r\n\r\n    enum Role { MainAdministrator, RegionalAdmin, User }\r\n\r\n    struct User {\r\n        address userID;\r\n        string firstName;\r\n        string lastName;\r\n        string dateOfBirth;\r\n        string aadharNumber;\r\n        string resAddress;\r\n        string email;\r\n        string aadharFileHash; // IPFS hash of Aadhar PDF\r\n        Role role;\r\n        bool verified; // true only after admin verification\r\n        uint256 accountCreatedDateTime;\r\n        uint totalIndices; //Number of properties owned by the user\r\n        uint requestIndices; //Number of purchase requests made by the user\r\n    }\r\n\r\n    mapping(address => bool) public registeredUsers;\r\n    mapping(address => User) public users;\r\n    mapping(string => bool) private aadharNumbers;\r\n    mapping(address => bool) public regionalAdmins;\r\n\r\n    uint private countRegionalAdmins;\r\n\r\n    address public mainAdministrator;\r\n\r\n    address[] private allUsers;\r\n\r\n    event UserRegistered(address indexed userID, Role role, uint256 indexed accountCreatedDateTime);\r\n    event UserVerified(address indexed userID, Role role); //for User\r\n    event RegionalAdminAdded(address indexed userID);\r\n    event UserApproved(address indexed userID); //for Regional Admin\r\n\r\n    modifier onlyMainAdministrator() {\r\n        require(msg.sender == mainAdministrator, \"Only Main Administrator can perform this action\");\r\n        _;\r\n    }\r\n\r\n    modifier onlyRegionalAdmin() {\r\n        require(users[msg.sender].role == Role.RegionalAdmin && users[msg.sender].verified, \"Only verified Regional Admin\");\r\n        _;\r\n    }\r\n\r\n    struct UserProfile {\r\n        string firstName;\r\n        string lastName;\r\n        string dateOfBirth;\r\n        string aadharNumber;\r\n        string resAddress;\r\n        string email;\r\n        string aadharFileHash;\r\n    }\r\n    \r\n    // First wallet becomes system deployer\r\n    constructor(\r\n        UserProfile memory mainAdminProfile,\r\n        address initialRegionalAdminAddress,\r\n        UserProfile memory initialRegionalAdminProfile\r\n    ) {\r\n        mainAdministrator = msg.sender;\r\n\r\n        users[msg.sender] = User({\r\n            userID: msg.sender,\r\n            firstName: mainAdminProfile.firstName,\r\n            lastName: mainAdminProfile.lastName,\r\n            dateOfBirth: mainAdminProfile.dateOfBirth,\r\n            aadharNumber: mainAdminProfile.aadharNumber,\r\n            resAddress: mainAdminProfile.resAddress,\r\n            email: mainAdminProfile.email,\r\n            aadharFileHash: mainAdminProfile.aadharFileHash,\r\n            role: Role.MainAdministrator,\r\n            verified: true,\r\n            accountCreatedDateTime: block.timestamp,\r\n            totalIndices:0,\r\n            requestIndices:0\r\n        });\r\n\r\n        registeredUsers[msg.sender] = true;\r\n        emit UserRegistered(msg.sender, Role.MainAdministrator, block.timestamp);\r\n\r\n        users[initialRegionalAdminAddress] = User({\r\n            userID: initialRegionalAdminAddress,\r\n            firstName: initialRegionalAdminProfile.firstName,\r\n            lastName: initialRegionalAdminProfile.lastName,\r\n            dateOfBirth: initialRegionalAdminProfile.dateOfBirth,\r\n            aadharNumber: initialRegionalAdminProfile.aadharNumber,\r\n            resAddress: initialRegionalAdminProfile.resAddress,\r\n            email: initialRegionalAdminProfile.email,\r\n            aadharFileHash: initialRegionalAdminProfile.aadharFileHash,\r\n            role: Role.RegionalAdmin,\r\n            verified: true,\r\n            accountCreatedDateTime: block.timestamp,\r\n            totalIndices: 0,\r\n            requestIndices: 0\r\n        });\r\n\r\n        registeredUsers[initialRegionalAdminAddress] = true;\r\n        regionalAdmins[initialRegionalAdminAddress] = true;\r\n        countRegionalAdmins++;\r\n\r\n        emit UserRegistered(initialRegionalAdminAddress, Role.RegionalAdmin, block.timestamp);\r\n        emit RegionalAdminAdded(initialRegionalAdminAddress);\r\n        emit UserVerified(initialRegionalAdminAddress, Role.RegionalAdmin);\r\n    }\r\n\r\n\r\n    function updateMainAdminProfile(\r\n        string memory _firstName,\r\n        string memory _lastName,\r\n        string memory _dateOfBirth,\r\n        string memory _aadharNumber,\r\n        string memory _resAddress,\r\n        string memory _email,\r\n        string memory _aadharFileHash\r\n    ) public onlyMainAdministrator {\r\n        User storage admin = users[mainAdministrator];\r\n        admin.firstName = _firstName;\r\n        admin.lastName = _lastName;\r\n        admin.dateOfBirth = _dateOfBirth;\r\n        admin.aadharNumber = _aadharNumber;\r\n        admin.resAddress = _resAddress;\r\n        admin.email = _email;\r\n        admin.aadharFileHash = _aadharFileHash;\r\n        // Optionally emit an event here\r\n    }\r\n\r\n\r\n    // Register New User\r\n    function registerUser(\r\n        string memory _firstName,\r\n        string memory _lastName,\r\n        string memory _dateOfBirth,\r\n        string memory _aadharNumber,\r\n        string memory _resAddress,\r\n        string memory _email,\r\n        string memory _aadharFileHash\r\n    ) public {\r\n        require(!registeredUsers[msg.sender], \"User already registered\");\r\n        require(!aadharNumbers[_aadharNumber], \"Aadhar number already registered\");\r\n\r\n        User memory newUser = User({\r\n            userID: msg.sender,\r\n            firstName: _firstName,\r\n            lastName: _lastName,\r\n            dateOfBirth: _dateOfBirth,\r\n            aadharNumber: _aadharNumber,\r\n            resAddress: _resAddress,\r\n            email: _email,\r\n            aadharFileHash: _aadharFileHash,\r\n            role: Role.User, // Default role\r\n            verified: false,\r\n            accountCreatedDateTime: block.timestamp,\r\n            totalIndices: 0,  \r\n            requestIndices: 0 \r\n        });\r\n\r\n        users[msg.sender] = newUser;\r\n        registeredUsers[msg.sender] = true;\r\n        aadharNumbers[_aadharNumber] = true;\r\n\r\n        allUsers.push(msg.sender);\r\n\r\n        emit UserRegistered(msg.sender, Role.User, block.timestamp);\r\n    }\r\n\r\n    // Update User Profile\r\n    function updateUserProfile(\r\n        string memory _lastName,\r\n        string memory _resAddress,\r\n        string memory _email\r\n    ) public {\r\n        require(registeredUsers[msg.sender], \"User not registered\");\r\n        User storage user = users[msg.sender];\r\n\r\n        user.lastName = _lastName;\r\n        user.resAddress = _resAddress;\r\n        user.email = _email;\r\n    }\r\n\r\n\r\n    // Main Admin adds Regional Admin\r\n    function addRegionalAdmin(address _adminAddress) external onlyMainAdministrator {\r\n        require(registeredUsers[_adminAddress], \"User not registered\");\r\n        \r\n        users[_adminAddress].role = Role.RegionalAdmin;\r\n        users[_adminAddress].verified = true;\r\n\r\n        regionalAdmins[_adminAddress] = true;\r\n        countRegionalAdmins++;\r\n\r\n        emit RegionalAdminAdded(_adminAddress);\r\n        emit UserVerified(_adminAddress, Role.RegionalAdmin);\r\n    }\r\n\r\n    // Remove Regional Admin: revert role to User and update mappings/counts accordingly\r\n    function removeRegionalAdmin(address _adminAddress) external onlyMainAdministrator {\r\n        require(registeredUsers[_adminAddress], \"User not registered\");\r\n        require(users[_adminAddress].role == Role.RegionalAdmin, \"Not a regional admin\");\r\n\r\n        users[_adminAddress].role = Role.User;\r\n        users[_adminAddress].verified = false; // Optionally revoke verification or keep true as needed\r\n\r\n        regionalAdmins[_adminAddress] = false;\r\n        countRegionalAdmins--;\r\n\r\n        // Emit an event if desired (not currently defined, but recommended for tracking)\r\n        // emit RegionalAdminRemoved(_adminAddress);\r\n    }\r\n\r\n\r\n    // Regional Admin verifies Users\r\n    function verifyUser(address _userAddress) external onlyRegionalAdmin {\r\n        require(registeredUsers[_userAddress], \"User not registered\");\r\n        require(users[_userAddress].role == Role.User, \"Not a general user account\");\r\n        \r\n        users[_userAddress].verified = true;\r\n\r\n        emit UserApproved(_userAddress);\r\n        emit UserVerified(_userAddress, Role.User);\r\n    }\r\n\r\n    // Get User Details\r\n    function getUserDetails(address _userId) public view returns (\r\n        string memory firstName,\r\n        string memory lastName,\r\n        string memory dateOfBirth,\r\n        string memory aadharNumber,\r\n        string memory resAddress,\r\n        string memory email,\r\n        string memory aadharFileHash,\r\n        string memory role,\r\n        bool verified,\r\n        uint256 accountCreated\r\n    ) {\r\n        require(users[_userId].userID != address(0), \"User does not exist\");\r\n\r\n        User storage user = users[_userId];\r\n\r\n        string memory roleString;\r\n        if (user.role == Role.MainAdministrator) roleString = \"Main Administrator\";\r\n        else if (user.role == Role.RegionalAdmin) roleString = \"Regional Admin\";\r\n        else if (user.role == Role.User) roleString = \"User\";\r\n        else roleString = \"None\";\r\n\r\n        return (\r\n            user.firstName,\r\n            user.lastName,\r\n            user.dateOfBirth,\r\n            user.aadharNumber,\r\n            user.resAddress,\r\n            user.email,\r\n            user.aadharFileHash,\r\n            roleString,\r\n            user.verified,\r\n            user.accountCreatedDateTime\r\n        );\r\n    }\r\n\r\n    // THIS Should be in property contratct\r\n    function incrementTotalProperties(address _user) external {\r\n        require(registeredUsers[_user], \"User not registered\");\r\n        users[_user].totalIndices++;\r\n    }\r\n\r\n    function incrementRequests(address _user) external {\r\n        require(registeredUsers[_user], \"User not registered\");\r\n        users[_user].requestIndices++;\r\n    }\r\n\r\n    function isRegionalAdmin(address _user) public view returns (bool) {\r\n        return regionalAdmins[_user];\r\n    }\r\n\r\n    function getAllRegionalAdmins() public view returns (address[] memory) {\r\n        address[] memory admins = new address[](countRegionalAdmins);\r\n        uint count = 0;\r\n        for (uint i = 0; i < allUsers.length; i++) {\r\n            if (users[allUsers[i]].role == Role.RegionalAdmin) {\r\n                admins[count] = allUsers[i];\r\n                count++;\r\n            }\r\n        }\r\n        return admins;\r\n    }\r\n\r\n    function getPendingUserVerifications() public view returns(address[] memory) {\r\n        uint count = 0;\r\n        for (uint i = 0; i < allUsers.length; i++) {\r\n            if (users[allUsers[i]].role == Role.User && !users[allUsers[i]].verified) {\r\n                count++;\r\n            }\r\n        }\r\n        address[] memory pending = new address[](count);\r\n        uint idx = 0;\r\n        for (uint i = 0; i < allUsers.length; i++) {\r\n            if (users[allUsers[i]].role == Role.User && !users[allUsers[i]].verified) {\r\n                pending[idx] = allUsers[i];\r\n                idx++;\r\n            }\r\n        }\r\n        return pending;\r\n    }\r\n\r\n    function getTotalUsers() public view returns (uint256) {\r\n        return allUsers.length;\r\n    }\r\n\r\n    function getRegionalAdminCount() public view returns (uint256) {\r\n        return countRegionalAdmins;\r\n    }\r\n\r\n}",
  "sourcePath": "C:\\Users\\Shalini Patel\\Desktop\\College\\Capstone Project\\property-ledger\\contracts\\UserRegistry.sol",
  "compiler": {
    "name": "solc",
    "version": "0.8.21+commit.d9974bed.Emscripten.clang"
  },
  "schemaVersion": "3.4.16",
  "updatedAt": "2025-11-14T04:47:57.543Z",
  "networkType": "ethereum",
  "devdoc": {
    "kind": "dev",
    "methods": {},
    "version": 1
  },
  "userdoc": {
    "kind": "user",
    "methods": {},
    "version": 1
  }
}