{
  "contractName": "UserRegistry",
  "abi": [
    {
      "inputs": [
        {
          "components": [
            {
              "internalType": "string",
              "name": "firstName",
              "type": "string"
            },
            {
              "internalType": "string",
              "name": "lastName",
              "type": "string"
            },
            {
              "internalType": "string",
              "name": "dateOfBirth",
              "type": "string"
            },
            {
              "internalType": "string",
              "name": "aadharNumber",
              "type": "string"
            },
            {
              "internalType": "string",
              "name": "resAddress",
              "type": "string"
            },
            {
              "internalType": "string",
              "name": "email",
              "type": "string"
            },
            {
              "internalType": "string",
              "name": "aadharFileHash",
              "type": "string"
            }
          ],
          "internalType": "struct UserRegistry.UserProfile",
          "name": "mainAdminProfile",
          "type": "tuple"
        },
        {
          "internalType": "address",
          "name": "initialRegionalAdminAddress",
          "type": "address"
        },
        {
          "components": [
            {
              "internalType": "string",
              "name": "firstName",
              "type": "string"
            },
            {
              "internalType": "string",
              "name": "lastName",
              "type": "string"
            },
            {
              "internalType": "string",
              "name": "dateOfBirth",
              "type": "string"
            },
            {
              "internalType": "string",
              "name": "aadharNumber",
              "type": "string"
            },
            {
              "internalType": "string",
              "name": "resAddress",
              "type": "string"
            },
            {
              "internalType": "string",
              "name": "email",
              "type": "string"
            },
            {
              "internalType": "string",
              "name": "aadharFileHash",
              "type": "string"
            }
          ],
          "internalType": "struct UserRegistry.UserProfile",
          "name": "initialRegionalAdminProfile",
          "type": "tuple"
        }
      ],
      "stateMutability": "nonpayable",
      "type": "constructor"
    },
    {
      "anonymous": false,
      "inputs": [
        {
          "indexed": true,
          "internalType": "address",
          "name": "userID",
          "type": "address"
        }
      ],
      "name": "RegionalAdminAdded",
      "type": "event"
    },
    {
      "anonymous": false,
      "inputs": [
        {
          "indexed": true,
          "internalType": "address",
          "name": "userID",
          "type": "address"
        }
      ],
      "name": "UserApproved",
      "type": "event"
    },
    {
      "anonymous": false,
      "inputs": [
        {
          "indexed": true,
          "internalType": "address",
          "name": "userID",
          "type": "address"
        },
        {
          "indexed": false,
          "internalType": "enum UserRegistry.Role",
          "name": "role",
          "type": "uint8"
        },
        {
          "indexed": true,
          "internalType": "uint256",
          "name": "accountCreatedDateTime",
          "type": "uint256"
        }
      ],
      "name": "UserRegistered",
      "type": "event"
    },
    {
      "anonymous": false,
      "inputs": [
        {
          "indexed": true,
          "internalType": "address",
          "name": "userID",
          "type": "address"
        },
        {
          "indexed": false,
          "internalType": "enum UserRegistry.Role",
          "name": "role",
          "type": "uint8"
        }
      ],
      "name": "UserVerified",
      "type": "event"
    },
    {
      "inputs": [],
      "name": "mainAdministrator",
      "outputs": [
        {
          "internalType": "address",
          "name": "",
          "type": "address"
        }
      ],
      "stateMutability": "view",
      "type": "function",
      "constant": true
    },
    {
      "inputs": [
        {
          "internalType": "address",
          "name": "",
          "type": "address"
        }
      ],
      "name": "regionalAdmins",
      "outputs": [
        {
          "internalType": "bool",
          "name": "",
          "type": "bool"
        }
      ],
      "stateMutability": "view",
      "type": "function",
      "constant": true
    },
    {
      "inputs": [
        {
          "internalType": "address",
          "name": "",
          "type": "address"
        }
      ],
      "name": "registeredUsers",
      "outputs": [
        {
          "internalType": "bool",
          "name": "",
          "type": "bool"
        }
      ],
      "stateMutability": "view",
      "type": "function",
      "constant": true
    },
    {
      "inputs": [
        {
          "internalType": "address",
          "name": "",
          "type": "address"
        }
      ],
      "name": "users",
      "outputs": [
        {
          "internalType": "address",
          "name": "userID",
          "type": "address"
        },
        {
          "internalType": "string",
          "name": "firstName",
          "type": "string"
        },
        {
          "internalType": "string",
          "name": "lastName",
          "type": "string"
        },
        {
          "internalType": "string",
          "name": "dateOfBirth",
          "type": "string"
        },
        {
          "internalType": "string",
          "name": "aadharNumber",
          "type": "string"
        },
        {
          "internalType": "string",
          "name": "resAddress",
          "type": "string"
        },
        {
          "internalType": "string",
          "name": "email",
          "type": "string"
        },
        {
          "internalType": "string",
          "name": "aadharFileHash",
          "type": "string"
        },
        {
          "internalType": "enum UserRegistry.Role",
          "name": "role",
          "type": "uint8"
        },
        {
          "internalType": "bool",
          "name": "verified",
          "type": "bool"
        },
        {
          "internalType": "uint256",
          "name": "accountCreatedDateTime",
          "type": "uint256"
        },
        {
          "internalType": "uint256",
          "name": "totalIndices",
          "type": "uint256"
        },
        {
          "internalType": "uint256",
          "name": "requestIndices",
          "type": "uint256"
        }
      ],
      "stateMutability": "view",
      "type": "function",
      "constant": true
    },
    {
      "inputs": [
        {
          "internalType": "string",
          "name": "_firstName",
          "type": "string"
        },
        {
          "internalType": "string",
          "name": "_lastName",
          "type": "string"
        },
        {
          "internalType": "string",
          "name": "_dateOfBirth",
          "type": "string"
        },
        {
          "internalType": "string",
          "name": "_aadharNumber",
          "type": "string"
        },
        {
          "internalType": "string",
          "name": "_resAddress",
          "type": "string"
        },
        {
          "internalType": "string",
          "name": "_email",
          "type": "string"
        },
        {
          "internalType": "string",
          "name": "_aadharFileHash",
          "type": "string"
        }
      ],
      "name": "updateMainAdminProfile",
      "outputs": [],
      "stateMutability": "nonpayable",
      "type": "function"
    },
    {
      "inputs": [
        {
          "internalType": "string",
          "name": "_firstName",
          "type": "string"
        },
        {
          "internalType": "string",
          "name": "_lastName",
          "type": "string"
        },
        {
          "internalType": "string",
          "name": "_dateOfBirth",
          "type": "string"
        },
        {
          "internalType": "string",
          "name": "_aadharNumber",
          "type": "string"
        },
        {
          "internalType": "string",
          "name": "_resAddress",
          "type": "string"
        },
        {
          "internalType": "string",
          "name": "_email",
          "type": "string"
        },
        {
          "internalType": "string",
          "name": "_aadharFileHash",
          "type": "string"
        }
      ],
      "name": "registerUser",
      "outputs": [],
      "stateMutability": "nonpayable",
      "type": "function"
    },
    {
      "inputs": [
        {
          "internalType": "address",
          "name": "_adminAddress",
          "type": "address"
        }
      ],
      "name": "addRegionalAdmin",
      "outputs": [],
      "stateMutability": "nonpayable",
      "type": "function"
    },
    {
      "inputs": [
        {
          "internalType": "address",
          "name": "_adminAddress",
          "type": "address"
        }
      ],
      "name": "removeRegionalAdmin",
      "outputs": [],
      "stateMutability": "nonpayable",
      "type": "function"
    },
    {
      "inputs": [
        {
          "internalType": "address",
          "name": "_userAddress",
          "type": "address"
        }
      ],
      "name": "verifyUser",
      "outputs": [],
      "stateMutability": "nonpayable",
      "type": "function"
    },
    {
      "inputs": [
        {
          "internalType": "address",
          "name": "_userId",
          "type": "address"
        }
      ],
      "name": "getUserDetails",
      "outputs": [
        {
          "internalType": "string",
          "name": "firstName",
          "type": "string"
        },
        {
          "internalType": "string",
          "name": "lastName",
          "type": "string"
        },
        {
          "internalType": "string",
          "name": "dateOfBirth",
          "type": "string"
        },
        {
          "internalType": "string",
          "name": "aadharNumber",
          "type": "string"
        },
        {
          "internalType": "string",
          "name": "resAddress",
          "type": "string"
        },
        {
          "internalType": "string",
          "name": "email",
          "type": "string"
        },
        {
          "internalType": "string",
          "name": "aadharFileHash",
          "type": "string"
        },
        {
          "internalType": "string",
          "name": "role",
          "type": "string"
        },
        {
          "internalType": "bool",
          "name": "verified",
          "type": "bool"
        },
        {
          "internalType": "uint256",
          "name": "accountCreated",
          "type": "uint256"
        }
      ],
      "stateMutability": "view",
      "type": "function",
      "constant": true
    },
    {
      "inputs": [
        {
          "internalType": "address",
          "name": "_user",
          "type": "address"
        }
      ],
      "name": "incrementTotalProperties",
      "outputs": [],
      "stateMutability": "nonpayable",
      "type": "function"
    },
    {
      "inputs": [
        {
          "internalType": "address",
          "name": "_user",
          "type": "address"
        }
      ],
      "name": "incrementRequests",
      "outputs": [],
      "stateMutability": "nonpayable",
      "type": "function"
    },
    {
      "inputs": [
        {
          "internalType": "address",
          "name": "_user",
          "type": "address"
        }
      ],
      "name": "isRegionalAdmin",
      "outputs": [
        {
          "internalType": "bool",
          "name": "",
          "type": "bool"
        }
      ],
      "stateMutability": "view",
      "type": "function",
      "constant": true
    },
    {
      "inputs": [],
      "name": "getAllRegionalAdmins",
      "outputs": [
        {
          "internalType": "address[]",
          "name": "",
          "type": "address[]"
        }
      ],
      "stateMutability": "view",
      "type": "function",
      "constant": true
    },
    {
      "inputs": [],
      "name": "getPendingUserVerifications",
      "outputs": [
        {
          "internalType": "address[]",
          "name": "",
          "type": "address[]"
        }
      ],
      "stateMutability": "view",
      "type": "function",
      "constant": true
    }
  ],
  "bytecode": "0x60806040523480156200001157600080fd5b50604051620029c7380380620029c783398101604081905262000034916200075d565b600580546001600160a01b03191633908117909155604080516101a08101825291825284516020808401919091528501518282015284015160608083019190915284015160808083019190915284015160a08083019190915284015160c08083019190915284015160e082015261010081016000815260016020808301829052426040808501919091526000606085018190526080909401849052338452828252909220835181546001600160a01b0319166001600160a01b0390911617815591830151908201906200010890826200088d565b50604082015160028201906200011f90826200088d565b50606082015160038201906200013690826200088d565b50608082015160048201906200014d90826200088d565b5060a082015160058201906200016490826200088d565b5060c082015160068201906200017b90826200088d565b5060e082015160078201906200019290826200088d565b5061010082015160088201805460ff19166001836002811115620001ba57620001ba620007e8565b02179055506101208201516008820180549115156101000261ff00199092169190911790556101408201516009820155610160820151600a82015561018090910151600b9091015533600081815260208190526040808220805460ff1916600117905551429291600080516020620029a7833981519152916200023e919062000959565b60405180910390a3604051806101a00160405280836001600160a01b0316815260200182600001518152602001826020015181526020018260400151815260200182606001518152602001826080015181526020018260a0015181526020018260c00151815260200160016002811115620002bd57620002bd620007e8565b8152600160208083018290524260408085019190915260006060850181905260809094018490526001600160a01b0387811685528383529320845181546001600160a01b0319169416939093178355830151908201906200031f90826200088d565b50604082015160028201906200033690826200088d565b50606082015160038201906200034d90826200088d565b50608082015160048201906200036490826200088d565b5060a082015160058201906200037b90826200088d565b5060c082015160068201906200039290826200088d565b5060e08201516007820190620003a990826200088d565b5061010082015160088201805460ff19166001836002811115620003d157620003d1620007e8565b02179055506101208201516008820180549115156101000261ff00199092169190911790556101408201516009820155610160820151600a82015561018090910151600b909101556001600160a01b038216600090815260208181526040808320805460ff199081166001908117909255600390935290832080549092161790556004805491620004628362000982565b919050555042826001600160a01b0316600080516020620029a7833981519152600160405162000493919062000959565b60405180910390a36040516001600160a01b038316907f0110fdaeadd542c332cd26892cb7d915de6e76321aaabf60db70177f7a9e392090600090a2816001600160a01b03167f3e60282061aa9f0ac8f17cb522ab49946225e94f8597d84e6504593ee06a81e060016040516200050b919062000959565b60405180910390a2505050620009aa565b634e487b7160e01b600052604160045260246000fd5b60405160e081016001600160401b03811182821017156200055757620005576200051c565b60405290565b604051601f8201601f191681016001600160401b03811182821017156200058857620005886200051c565b604052919050565b600082601f830112620005a257600080fd5b81516001600160401b03811115620005be57620005be6200051c565b6020620005d4601f8301601f191682016200055d565b8281528582848701011115620005e957600080fd5b60005b8381101562000609578581018301518282018401528201620005ec565b506000928101909101919091529392505050565b600060e082840312156200063057600080fd5b6200063a62000532565b82519091506001600160401b03808211156200065557600080fd5b620006638583860162000590565b835260208401519150808211156200067a57600080fd5b620006888583860162000590565b60208401526040840151915080821115620006a257600080fd5b620006b08583860162000590565b60408401526060840151915080821115620006ca57600080fd5b620006d88583860162000590565b60608401526080840151915080821115620006f257600080fd5b620007008583860162000590565b608084015260a08401519150808211156200071a57600080fd5b620007288583860162000590565b60a084015260c08401519150808211156200074257600080fd5b50620007518482850162000590565b60c08301525092915050565b6000806000606084860312156200077357600080fd5b83516001600160401b03808211156200078b57600080fd5b62000799878388016200061d565b602087015190955091506001600160a01b0382168214620007b957600080fd5b604086015191935080821115620007cf57600080fd5b50620007de868287016200061d565b9150509250925092565b634e487b7160e01b600052602160045260246000fd5b600181811c908216806200081357607f821691505b6020821081036200083457634e487b7160e01b600052602260045260246000fd5b50919050565b601f8211156200088857600081815260208120601f850160051c81016020861015620008635750805b601f850160051c820191505b8181101562000884578281556001016200086f565b5050505b505050565b81516001600160401b03811115620008a957620008a96200051c565b620008c181620008ba8454620007fe565b846200083a565b602080601f831160018114620008f95760008415620008e05750858301515b600019600386901b1c1916600185901b17855562000884565b600085815260208120601f198616915b828110156200092a5788860151825594840194600190910190840162000909565b5085821015620009495787850151600019600388901b60f8161c191681555b5050505050600190811b01905550565b60208101600383106200097c57634e487b7160e01b600052602160045260246000fd5b91905290565b600060018201620009a357634e487b7160e01b600052601160045260246000fd5b5060010190565b611fed80620009ba6000396000f3fe608060405234801561001057600080fd5b50600436106100f55760003560e01c806361e1b0b511610097578063b56fe50311610066578063b56fe5031461024e578063c19c903714610261578063cc3d967b14610274578063d684d14a1461029d57600080fd5b806361e1b0b5146101b857806363350431146101cb578063a2fc2ce1146101f6578063a87430ba1461022257600080fd5b8063463ac5f7116100d3578063463ac5f71461015a5780634ae8af091461017d5780634d813120146101905780635764767b146101a357600080fd5b80630e50cee5146100fa578063147494ee1461013257806342ceaf1f14610147575b600080fd5b61011d61010836600461190d565b60006020819052908152604090205460ff1681565b60405190151581526020015b60405180910390f35b61014561014036600461190d565b6102a5565b005b61014561015536600461190d565b6103d5565b61011d61016836600461190d565b60036020526000908152604090205460ff1681565b61014561018b3660046119e0565b610434565b61014561019e36600461190d565b610784565b6101ab610967565b6040516101299190611afb565b6101456101c636600461190d565b610a9c565b6005546101de906001600160a01b031681565b6040516001600160a01b039091168152602001610129565b61011d61020436600461190d565b6001600160a01b031660009081526003602052604090205460ff1690565b61023561023036600461190d565b610bbc565b6040516101299d9c9b9a99989796959493929190611bd0565b61014561025c3660046119e0565b610fe5565b61014561026f36600461190d565b61109e565b61028761028236600461190d565b6110fd565b6040516101299a99989796959493929190611caa565b6101ab6116ab565b6005546001600160a01b031633146102d85760405162461bcd60e51b81526004016102cf90611d66565b60405180910390fd5b6001600160a01b03811660009081526020819052604090205460ff166103105760405162461bcd60e51b81526004016102cf90611db5565b60016001600160a01b03821660009081526001602052604090206008015460ff16600281111561034257610342611b98565b146103865760405162461bcd60e51b81526020600482015260146024820152732737ba1030903932b3b4b7b730b61030b236b4b760611b60448201526064016102cf565b6001600160a01b0381166000908152600160209081526040808320600801805461ffff1916600217905560039091528120805460ff1916905560048054916103cd83611df8565b919050555050565b6001600160a01b03811660009081526020819052604090205460ff1661040d5760405162461bcd60e51b81526004016102cf90611db5565b6001600160a01b0381166000908152600160205260408120600a018054916103cd83611e0f565b3360009081526020819052604090205460ff16156104945760405162461bcd60e51b815260206004820152601760248201527f5573657220616c7265616479207265676973746572656400000000000000000060448201526064016102cf565b6002846040516104a49190611e28565b9081526040519081900360200190205460ff16156105045760405162461bcd60e51b815260206004820181905260248201527f416164686172206e756d62657220616c7265616479207265676973746572656460448201526064016102cf565b6000604051806101a00160405280336001600160a01b0316815260200189815260200188815260200187815260200186815260200185815260200184815260200183815260200160028081111561055d5761055d611b98565b81526000602080830182905242604080850191909152606084018390526080909301829052338252600180825292909120835181546001600160a01b0319166001600160a01b0390911617815590830151929350839290918201906105c29082611ecd565b50604082015160028201906105d79082611ecd565b50606082015160038201906105ec9082611ecd565b50608082015160048201906106019082611ecd565b5060a082015160058201906106169082611ecd565b5060c0820151600682019061062b9082611ecd565b5060e082015160078201906106409082611ecd565b5061010082015160088201805460ff1916600183600281111561066557610665611b98565b02179055506101208201516008820180549115156101000261ff00199092169190911790556101408201516009820155610160820151600a82015561018090910151600b909101553360009081526020819052604090819020805460ff1916600190811790915590516002906106dc908890611e28565b908152604051908190036020018120805492151560ff1990931692909217909155600680546001810182556000919091527ff652222313e28459528d920b65115c16c04f3efc82aaedc97be59f3f377c0d3f0180546001600160a01b0319163390811790915542917feea238307e4577ec1b8645d63505c2d57767cfc074bb5ab579a615525f07a2579061077290600290611f8d565b60405180910390a35050505050505050565b60013360009081526001602052604090206008015460ff1660028111156107ad576107ad611b98565b1480156107d1575033600090815260016020526040902060080154610100900460ff165b61081d5760405162461bcd60e51b815260206004820152601c60248201527f4f6e6c7920766572696669656420526567696f6e616c2041646d696e0000000060448201526064016102cf565b6001600160a01b03811660009081526020819052604090205460ff166108555760405162461bcd60e51b81526004016102cf90611db5565b60026001600160a01b03821660009081526001602052604090206008015460ff16600281111561088757610887611b98565b146108d45760405162461bcd60e51b815260206004820152601a60248201527f4e6f7420612067656e6572616c2075736572206163636f756e7400000000000060448201526064016102cf565b6001600160a01b038116600081815260016020526040808220600801805461ff001916610100179055517ffbb0a472171a6eb950c8a87421215268a1b2df816da0a48e920e72ade27cfcf79190a2806001600160a01b03167f3e60282061aa9f0ac8f17cb522ab49946225e94f8597d84e6504593ee06a81e0600260405161095c9190611f8d565b60405180910390a250565b6060600060045467ffffffffffffffff8111156109865761098661193d565b6040519080825280602002602001820160405280156109af578160200160208202803683370190505b5090506000805b600654811015610a94576001806000600684815481106109d8576109d8611fa1565b60009182526020808320909101546001600160a01b0316835282019290925260400190206008015460ff166002811115610a1457610a14611b98565b03610a825760068181548110610a2c57610a2c611fa1565b9060005260206000200160009054906101000a90046001600160a01b0316838381518110610a5c57610a5c611fa1565b6001600160a01b039092166020928302919091019091015281610a7e81611e0f565b9250505b80610a8c81611e0f565b9150506109b6565b509092915050565b6005546001600160a01b03163314610ac65760405162461bcd60e51b81526004016102cf90611d66565b6001600160a01b03811660009081526020819052604090205460ff16610afe5760405162461bcd60e51b81526004016102cf90611db5565b6001600160a01b0381166000908152600160208181526040808420600801805461ffff191661010117905560039091528220805460ff191690911790556004805491610b4983611e0f565b90915550506040516001600160a01b038216907f0110fdaeadd542c332cd26892cb7d915de6e76321aaabf60db70177f7a9e392090600090a2806001600160a01b03167f3e60282061aa9f0ac8f17cb522ab49946225e94f8597d84e6504593ee06a81e0600160405161095c9190611f8d565b6001602081905260009182526040909120805491810180546001600160a01b0390931692610be990611e44565b80601f0160208091040260200160405190810160405280929190818152602001828054610c1590611e44565b8015610c625780601f10610c3757610100808354040283529160200191610c62565b820191906000526020600020905b815481529060010190602001808311610c4557829003601f168201915b505050505090806002018054610c7790611e44565b80601f0160208091040260200160405190810160405280929190818152602001828054610ca390611e44565b8015610cf05780601f10610cc557610100808354040283529160200191610cf0565b820191906000526020600020905b815481529060010190602001808311610cd357829003601f168201915b505050505090806003018054610d0590611e44565b80601f0160208091040260200160405190810160405280929190818152602001828054610d3190611e44565b8015610d7e5780601f10610d5357610100808354040283529160200191610d7e565b820191906000526020600020905b815481529060010190602001808311610d6157829003601f168201915b505050505090806004018054610d9390611e44565b80601f0160208091040260200160405190810160405280929190818152602001828054610dbf90611e44565b8015610e0c5780601f10610de157610100808354040283529160200191610e0c565b820191906000526020600020905b815481529060010190602001808311610def57829003601f168201915b505050505090806005018054610e2190611e44565b80601f0160208091040260200160405190810160405280929190818152602001828054610e4d90611e44565b8015610e9a5780601f10610e6f57610100808354040283529160200191610e9a565b820191906000526020600020905b815481529060010190602001808311610e7d57829003601f168201915b505050505090806006018054610eaf90611e44565b80601f0160208091040260200160405190810160405280929190818152602001828054610edb90611e44565b8015610f285780601f10610efd57610100808354040283529160200191610f28565b820191906000526020600020905b815481529060010190602001808311610f0b57829003601f168201915b505050505090806007018054610f3d90611e44565b80601f0160208091040260200160405190810160405280929190818152602001828054610f6990611e44565b8015610fb65780601f10610f8b57610100808354040283529160200191610fb6565b820191906000526020600020905b815481529060010190602001808311610f9957829003601f168201915b5050505060088301546009840154600a850154600b90950154939460ff8084169561010090940416935090918d565b6005546001600160a01b0316331461100f5760405162461bcd60e51b81526004016102cf90611d66565b6005546001600160a01b031660009081526001602081905260409091209081016110398982611ecd565b50600281016110488882611ecd565b50600381016110578782611ecd565b50600481016110668682611ecd565b50600581016110758582611ecd565b50600681016110848482611ecd565b50600781016110938382611ecd565b505050505050505050565b6001600160a01b03811660009081526020819052604090205460ff166110d65760405162461bcd60e51b81526004016102cf90611db5565b6001600160a01b0381166000908152600160205260408120600b018054916103cd83611e0f565b6001600160a01b0381811660009081526001602052604081205460609283928392839283928392839283929182911661116e5760405162461bcd60e51b8152602060048201526013602482015272155cd95c88191bd95cc81b9bdd08195e1a5cdd606a1b60448201526064016102cf565b6001600160a01b038b16600090815260016020526040812090606090600883015460ff1660028111156111a3576111a3611b98565b036111d7575060408051808201909152601281527126b0b4b71020b236b4b734b9ba3930ba37b960711b6020820152611280565b6001600883015460ff1660028111156111f2576111f2611b98565b03611222575060408051808201909152600e81526d2932b3b4b7b730b61020b236b4b760911b6020820152611280565b6002600883015460ff16600281111561123d5761123d611b98565b0361126357506040805180820190915260048152632ab9b2b960e11b6020820152611280565b506040805180820190915260048152634e6f6e6560e01b60208201525b81600101826002018360030184600401856005018660060187600701878960080160019054906101000a900460ff168a600901548980546112c090611e44565b80601f01602080910402602001604051908101604052809291908181526020018280546112ec90611e44565b80156113395780601f1061130e57610100808354040283529160200191611339565b820191906000526020600020905b81548152906001019060200180831161131c57829003601f168201915b5050505050995088805461134c90611e44565b80601f016020809104026020016040519081016040528092919081815260200182805461137890611e44565b80156113c55780601f1061139a576101008083540402835291602001916113c5565b820191906000526020600020905b8154815290600101906020018083116113a857829003601f168201915b505050505098508780546113d890611e44565b80601f016020809104026020016040519081016040528092919081815260200182805461140490611e44565b80156114515780601f1061142657610100808354040283529160200191611451565b820191906000526020600020905b81548152906001019060200180831161143457829003601f168201915b5050505050975086805461146490611e44565b80601f016020809104026020016040519081016040528092919081815260200182805461149090611e44565b80156114dd5780601f106114b2576101008083540402835291602001916114dd565b820191906000526020600020905b8154815290600101906020018083116114c057829003601f168201915b505050505096508580546114f090611e44565b80601f016020809104026020016040519081016040528092919081815260200182805461151c90611e44565b80156115695780601f1061153e57610100808354040283529160200191611569565b820191906000526020600020905b81548152906001019060200180831161154c57829003601f168201915b5050505050955084805461157c90611e44565b80601f01602080910402602001604051908101604052809291908181526020018280546115a890611e44565b80156115f55780601f106115ca576101008083540402835291602001916115f5565b820191906000526020600020905b8154815290600101906020018083116115d857829003601f168201915b5050505050945083805461160890611e44565b80601f016020809104026020016040519081016040528092919081815260200182805461163490611e44565b80156116815780601f1061165657610100808354040283529160200191611681565b820191906000526020600020905b81548152906001019060200180831161166457829003601f168201915b505050505093509b509b509b509b509b509b509b509b509b509b5050509193959799509193959799565b60606000805b60065481101561178757600260016000600684815481106116d4576116d4611fa1565b60009182526020808320909101546001600160a01b0316835282019290925260400190206008015460ff16600281111561171057611710611b98565b1480156117625750600160006006838154811061172f5761172f611fa1565b60009182526020808320909101546001600160a01b0316835282019290925260400190206008015460ff61010090910416155b15611775578161177181611e0f565b9250505b8061177f81611e0f565b9150506116b1565b5060008167ffffffffffffffff8111156117a3576117a361193d565b6040519080825280602002602001820160405280156117cc578160200160208202803683370190505b5090506000805b60065481101561190457600260016000600684815481106117f6576117f6611fa1565b60009182526020808320909101546001600160a01b0316835282019290925260400190206008015460ff16600281111561183257611832611b98565b1480156118845750600160006006838154811061185157611851611fa1565b60009182526020808320909101546001600160a01b0316835282019290925260400190206008015460ff61010090910416155b156118f2576006818154811061189c5761189c611fa1565b9060005260206000200160009054906101000a90046001600160a01b03168383815181106118cc576118cc611fa1565b6001600160a01b0390921660209283029190910190910152816118ee81611e0f565b9250505b806118fc81611e0f565b9150506117d3565b50909392505050565b60006020828403121561191f57600080fd5b81356001600160a01b038116811461193657600080fd5b9392505050565b634e487b7160e01b600052604160045260246000fd5b600082601f83011261196457600080fd5b813567ffffffffffffffff8082111561197f5761197f61193d565b604051601f8301601f19908116603f011681019082821181831017156119a7576119a761193d565b816040528381528660208588010111156119c057600080fd5b836020870160208301376000602085830101528094505050505092915050565b600080600080600080600060e0888a0312156119fb57600080fd5b873567ffffffffffffffff80821115611a1357600080fd5b611a1f8b838c01611953565b985060208a0135915080821115611a3557600080fd5b611a418b838c01611953565b975060408a0135915080821115611a5757600080fd5b611a638b838c01611953565b965060608a0135915080821115611a7957600080fd5b611a858b838c01611953565b955060808a0135915080821115611a9b57600080fd5b611aa78b838c01611953565b945060a08a0135915080821115611abd57600080fd5b611ac98b838c01611953565b935060c08a0135915080821115611adf57600080fd5b50611aec8a828b01611953565b91505092959891949750929550565b6020808252825182820181905260009190848201906040850190845b81811015611b3c5783516001600160a01b031683529284019291840191600101611b17565b50909695505050505050565b60005b83811015611b63578181015183820152602001611b4b565b50506000910152565b60008151808452611b84816020860160208601611b48565b601f01601f19169290920160200192915050565b634e487b7160e01b600052602160045260246000fd5b60038110611bcc57634e487b7160e01b600052602160045260246000fd5b9052565b6001600160a01b038e1681526101a060208201526000611bf46101a083018f611b6c565b8281036040840152611c06818f611b6c565b90508281036060840152611c1a818e611b6c565b90508281036080840152611c2e818d611b6c565b905082810360a0840152611c42818c611b6c565b905082810360c0840152611c56818b611b6c565b905082810360e0840152611c6a818a611b6c565b915050611c7b610100830188611bae565b941515610120820152610140810193909352610160830191909152610180909101529998505050505050505050565b6000610140808352611cbe8184018e611b6c565b90508281036020840152611cd2818d611b6c565b90508281036040840152611ce6818c611b6c565b90508281036060840152611cfa818b611b6c565b90508281036080840152611d0e818a611b6c565b905082810360a0840152611d228189611b6c565b905082810360c0840152611d368188611b6c565b905082810360e0840152611d4a8187611b6c565b9415156101008401525050610120015298975050505050505050565b6020808252602f908201527f4f6e6c79204d61696e2041646d696e6973747261746f722063616e207065726660408201526e37b936903a3434b99030b1ba34b7b760891b606082015260800190565b602080825260139082015272155cd95c881b9bdd081c9959da5cdd195c9959606a1b604082015260600190565b634e487b7160e01b600052601160045260246000fd5b600081611e0757611e07611de2565b506000190190565b600060018201611e2157611e21611de2565b5060010190565b60008251611e3a818460208701611b48565b9190910192915050565b600181811c90821680611e5857607f821691505b602082108103611e7857634e487b7160e01b600052602260045260246000fd5b50919050565b601f821115611ec857600081815260208120601f850160051c81016020861015611ea55750805b601f850160051c820191505b81811015611ec457828155600101611eb1565b5050505b505050565b815167ffffffffffffffff811115611ee757611ee761193d565b611efb81611ef58454611e44565b84611e7e565b602080601f831160018114611f305760008415611f185750858301515b600019600386901b1c1916600185901b178555611ec4565b600085815260208120601f198616915b82811015611f5f57888601518255948401946001909101908401611f40565b5085821015611f7d5787850151600019600388901b60f8161c191681555b5050505050600190811b01905550565b60208101611f9b8284611bae565b92915050565b634e487b7160e01b600052603260045260246000fdfea26469706673582212202244be06f760a366acce79ab4f5928833590d98cb10f2adfb7f439dca5d21d8964736f6c63430008150033eea238307e4577ec1b8645d63505c2d57767cfc074bb5ab579a615525f07a257",
  "immutableReferences": {},
  "source": "// SPDX-License-Identifier: Unlicensed\r\npragma solidity ^0.8.21;\r\n\r\ncontract UserRegistry {\r\n\r\n    enum Role { MainAdministrator, RegionalAdmin, User }\r\n\r\n    struct User {\r\n        address userID;\r\n        string firstName;\r\n        string lastName;\r\n        string dateOfBirth;\r\n        string aadharNumber;\r\n        string resAddress;\r\n        string email;\r\n        string aadharFileHash; // IPFS hash of Aadhar PDF\r\n        Role role;\r\n        bool verified; // true only after admin verification\r\n        uint256 accountCreatedDateTime;\r\n        uint totalIndices; //Number of properties owned by the user\r\n        uint requestIndices; //Number of purchase requests made by the user\r\n    }\r\n\r\n    mapping(address => bool) public registeredUsers;\r\n    mapping(address => User) public users;\r\n    mapping(string => bool) private aadharNumbers;\r\n    mapping(address => bool) public regionalAdmins;\r\n\r\n    uint private countRegionalAdmins;\r\n\r\n    address public mainAdministrator;\r\n\r\n    address[] private allUsers;\r\n\r\n    event UserRegistered(address indexed userID, Role role, uint256 indexed accountCreatedDateTime);\r\n    event UserVerified(address indexed userID, Role role); //for User\r\n    event RegionalAdminAdded(address indexed userID);\r\n    event UserApproved(address indexed userID); //for Regional Admin\r\n\r\n    modifier onlyMainAdministrator() {\r\n        require(msg.sender == mainAdministrator, \"Only Main Administrator can perform this action\");\r\n        _;\r\n    }\r\n\r\n    modifier onlyRegionalAdmin() {\r\n        require(users[msg.sender].role == Role.RegionalAdmin && users[msg.sender].verified, \"Only verified Regional Admin\");\r\n        _;\r\n    }\r\n\r\n    struct UserProfile {\r\n        string firstName;\r\n        string lastName;\r\n        string dateOfBirth;\r\n        string aadharNumber;\r\n        string resAddress;\r\n        string email;\r\n        string aadharFileHash;\r\n    }\r\n    \r\n    // First wallet becomes system deployer\r\n    constructor(\r\n        UserProfile memory mainAdminProfile,\r\n        address initialRegionalAdminAddress,\r\n        UserProfile memory initialRegionalAdminProfile\r\n    ) {\r\n        mainAdministrator = msg.sender;\r\n\r\n        users[msg.sender] = User({\r\n            userID: msg.sender,\r\n            firstName: mainAdminProfile.firstName,\r\n            lastName: mainAdminProfile.lastName,\r\n            dateOfBirth: mainAdminProfile.dateOfBirth,\r\n            aadharNumber: mainAdminProfile.aadharNumber,\r\n            resAddress: mainAdminProfile.resAddress,\r\n            email: mainAdminProfile.email,\r\n            aadharFileHash: mainAdminProfile.aadharFileHash,\r\n            role: Role.MainAdministrator,\r\n            verified: true,\r\n            accountCreatedDateTime: block.timestamp,\r\n            totalIndices:0,\r\n            requestIndices:0\r\n        });\r\n\r\n        registeredUsers[msg.sender] = true;\r\n        emit UserRegistered(msg.sender, Role.MainAdministrator, block.timestamp);\r\n\r\n        users[initialRegionalAdminAddress] = User({\r\n            userID: initialRegionalAdminAddress,\r\n            firstName: initialRegionalAdminProfile.firstName,\r\n            lastName: initialRegionalAdminProfile.lastName,\r\n            dateOfBirth: initialRegionalAdminProfile.dateOfBirth,\r\n            aadharNumber: initialRegionalAdminProfile.aadharNumber,\r\n            resAddress: initialRegionalAdminProfile.resAddress,\r\n            email: initialRegionalAdminProfile.email,\r\n            aadharFileHash: initialRegionalAdminProfile.aadharFileHash,\r\n            role: Role.RegionalAdmin,\r\n            verified: true,\r\n            accountCreatedDateTime: block.timestamp,\r\n            totalIndices: 0,\r\n            requestIndices: 0\r\n        });\r\n\r\n        registeredUsers[initialRegionalAdminAddress] = true;\r\n        regionalAdmins[initialRegionalAdminAddress] = true;\r\n        countRegionalAdmins++;\r\n\r\n        emit UserRegistered(initialRegionalAdminAddress, Role.RegionalAdmin, block.timestamp);\r\n        emit RegionalAdminAdded(initialRegionalAdminAddress);\r\n        emit UserVerified(initialRegionalAdminAddress, Role.RegionalAdmin);\r\n    }\r\n\r\n\r\n    function updateMainAdminProfile(\r\n        string memory _firstName,\r\n        string memory _lastName,\r\n        string memory _dateOfBirth,\r\n        string memory _aadharNumber,\r\n        string memory _resAddress,\r\n        string memory _email,\r\n        string memory _aadharFileHash\r\n    ) public onlyMainAdministrator {\r\n        User storage admin = users[mainAdministrator];\r\n        admin.firstName = _firstName;\r\n        admin.lastName = _lastName;\r\n        admin.dateOfBirth = _dateOfBirth;\r\n        admin.aadharNumber = _aadharNumber;\r\n        admin.resAddress = _resAddress;\r\n        admin.email = _email;\r\n        admin.aadharFileHash = _aadharFileHash;\r\n        // Optionally emit an event here\r\n    }\r\n\r\n\r\n    // Register New User\r\n    function registerUser(\r\n        string memory _firstName,\r\n        string memory _lastName,\r\n        string memory _dateOfBirth,\r\n        string memory _aadharNumber,\r\n        string memory _resAddress,\r\n        string memory _email,\r\n        string memory _aadharFileHash\r\n    ) public {\r\n        require(!registeredUsers[msg.sender], \"User already registered\");\r\n        require(!aadharNumbers[_aadharNumber], \"Aadhar number already registered\");\r\n\r\n        User memory newUser = User({\r\n            userID: msg.sender,\r\n            firstName: _firstName,\r\n            lastName: _lastName,\r\n            dateOfBirth: _dateOfBirth,\r\n            aadharNumber: _aadharNumber,\r\n            resAddress: _resAddress,\r\n            email: _email,\r\n            aadharFileHash: _aadharFileHash,\r\n            role: Role.User, // Default role\r\n            verified: false,\r\n            accountCreatedDateTime: block.timestamp,\r\n            totalIndices: 0,  \r\n            requestIndices: 0 \r\n        });\r\n\r\n        users[msg.sender] = newUser;\r\n        registeredUsers[msg.sender] = true;\r\n        aadharNumbers[_aadharNumber] = true;\r\n\r\n        allUsers.push(msg.sender);\r\n\r\n        emit UserRegistered(msg.sender, Role.User, block.timestamp);\r\n    }\r\n\r\n    // Main Admin adds Regional Admin\r\n    function addRegionalAdmin(address _adminAddress) external onlyMainAdministrator {\r\n        require(registeredUsers[_adminAddress], \"User not registered\");\r\n        \r\n        users[_adminAddress].role = Role.RegionalAdmin;\r\n        users[_adminAddress].verified = true;\r\n\r\n        regionalAdmins[_adminAddress] = true;\r\n        countRegionalAdmins++;\r\n\r\n        emit RegionalAdminAdded(_adminAddress);\r\n        emit UserVerified(_adminAddress, Role.RegionalAdmin);\r\n    }\r\n\r\n    // Remove Regional Admin: revert role to User and update mappings/counts accordingly\r\n    function removeRegionalAdmin(address _adminAddress) external onlyMainAdministrator {\r\n        require(registeredUsers[_adminAddress], \"User not registered\");\r\n        require(users[_adminAddress].role == Role.RegionalAdmin, \"Not a regional admin\");\r\n\r\n        users[_adminAddress].role = Role.User;\r\n        users[_adminAddress].verified = false; // Optionally revoke verification or keep true as needed\r\n\r\n        regionalAdmins[_adminAddress] = false;\r\n        countRegionalAdmins--;\r\n\r\n        // Emit an event if desired (not currently defined, but recommended for tracking)\r\n        // emit RegionalAdminRemoved(_adminAddress);\r\n    }\r\n\r\n\r\n    // Regional Admin verifies Users\r\n    function verifyUser(address _userAddress) external onlyRegionalAdmin {\r\n        require(registeredUsers[_userAddress], \"User not registered\");\r\n        require(users[_userAddress].role == Role.User, \"Not a general user account\");\r\n        \r\n        users[_userAddress].verified = true;\r\n\r\n        emit UserApproved(_userAddress);\r\n        emit UserVerified(_userAddress, Role.User);\r\n    }\r\n\r\n    // Get User Details\r\n    function getUserDetails(address _userId) public view returns (\r\n        string memory firstName,\r\n        string memory lastName,\r\n        string memory dateOfBirth,\r\n        string memory aadharNumber,\r\n        string memory resAddress,\r\n        string memory email,\r\n        string memory aadharFileHash,\r\n        string memory role,\r\n        bool verified,\r\n        uint256 accountCreated\r\n    ) {\r\n        require(users[_userId].userID != address(0), \"User does not exist\");\r\n\r\n        User storage user = users[_userId];\r\n\r\n        string memory roleString;\r\n        if (user.role == Role.MainAdministrator) roleString = \"Main Administrator\";\r\n        else if (user.role == Role.RegionalAdmin) roleString = \"Regional Admin\";\r\n        else if (user.role == Role.User) roleString = \"User\";\r\n        else roleString = \"None\";\r\n\r\n        return (\r\n            user.firstName,\r\n            user.lastName,\r\n            user.dateOfBirth,\r\n            user.aadharNumber,\r\n            user.resAddress,\r\n            user.email,\r\n            user.aadharFileHash,\r\n            roleString,\r\n            user.verified,\r\n            user.accountCreatedDateTime\r\n        );\r\n    }\r\n\r\n    // THIS Should be in property contratct\r\n    function incrementTotalProperties(address _user) external {\r\n        require(registeredUsers[_user], \"User not registered\");\r\n        users[_user].totalIndices++;\r\n    }\r\n\r\n    function incrementRequests(address _user) external {\r\n        require(registeredUsers[_user], \"User not registered\");\r\n        users[_user].requestIndices++;\r\n    }\r\n\r\n    function isRegionalAdmin(address _user) public view returns (bool) {\r\n        return regionalAdmins[_user];\r\n    }\r\n\r\n    function getAllRegionalAdmins() public view returns (address[] memory) {\r\n        address[] memory admins = new address[](countRegionalAdmins);\r\n        uint count = 0;\r\n        for (uint i = 0; i < allUsers.length; i++) {\r\n            if (users[allUsers[i]].role == Role.RegionalAdmin) {\r\n                admins[count] = allUsers[i];\r\n                count++;\r\n            }\r\n        }\r\n        return admins;\r\n    }\r\n\r\n    function getPendingUserVerifications() public view returns(address[] memory) {\r\n        uint count = 0;\r\n        for (uint i = 0; i < allUsers.length; i++) {\r\n            if (users[allUsers[i]].role == Role.User && !users[allUsers[i]].verified) {\r\n                count++;\r\n            }\r\n        }\r\n        address[] memory pending = new address[](count);\r\n        uint idx = 0;\r\n        for (uint i = 0; i < allUsers.length; i++) {\r\n            if (users[allUsers[i]].role == Role.User && !users[allUsers[i]].verified) {\r\n                pending[idx] = allUsers[i];\r\n                idx++;\r\n            }\r\n        }\r\n        return pending;\r\n    }\r\n}\r\n",
  "sourcePath": "C:\\Users\\Shalini Patel\\Desktop\\College\\Capstone Project\\property-ledger\\contracts\\UserRegistry.sol",
  "compiler": {
    "name": "solc",
    "version": "0.8.21+commit.d9974bed.Emscripten.clang"
  },
  "schemaVersion": "3.4.16",
  "updatedAt": "2025-11-13T18:48:28.121Z",
  "networkType": "ethereum",
  "devdoc": {
    "kind": "dev",
    "methods": {},
    "version": 1
  },
  "userdoc": {
    "kind": "user",
    "methods": {},
    "version": 1
  }
}