{
  "contractName": "UserRegistry",
  "abi": [
    {
      "inputs": [
        {
          "components": [
            {
              "internalType": "string",
              "name": "firstName",
              "type": "string"
            },
            {
              "internalType": "string",
              "name": "lastName",
              "type": "string"
            },
            {
              "internalType": "string",
              "name": "dateOfBirth",
              "type": "string"
            },
            {
              "internalType": "string",
              "name": "aadharNumber",
              "type": "string"
            },
            {
              "internalType": "string",
              "name": "resAddress",
              "type": "string"
            },
            {
              "internalType": "string",
              "name": "email",
              "type": "string"
            },
            {
              "internalType": "string",
              "name": "aadharFileHash",
              "type": "string"
            }
          ],
          "internalType": "struct UserRegistry.UserProfile",
          "name": "mainAdminProfile",
          "type": "tuple"
        },
        {
          "internalType": "address",
          "name": "initialRegionalAdminAddress",
          "type": "address"
        },
        {
          "components": [
            {
              "internalType": "string",
              "name": "firstName",
              "type": "string"
            },
            {
              "internalType": "string",
              "name": "lastName",
              "type": "string"
            },
            {
              "internalType": "string",
              "name": "dateOfBirth",
              "type": "string"
            },
            {
              "internalType": "string",
              "name": "aadharNumber",
              "type": "string"
            },
            {
              "internalType": "string",
              "name": "resAddress",
              "type": "string"
            },
            {
              "internalType": "string",
              "name": "email",
              "type": "string"
            },
            {
              "internalType": "string",
              "name": "aadharFileHash",
              "type": "string"
            }
          ],
          "internalType": "struct UserRegistry.UserProfile",
          "name": "initialRegionalAdminProfile",
          "type": "tuple"
        }
      ],
      "stateMutability": "nonpayable",
      "type": "constructor"
    },
    {
      "anonymous": false,
      "inputs": [
        {
          "indexed": true,
          "internalType": "address",
          "name": "userID",
          "type": "address"
        }
      ],
      "name": "RegionalAdminAdded",
      "type": "event"
    },
    {
      "anonymous": false,
      "inputs": [
        {
          "indexed": true,
          "internalType": "address",
          "name": "userID",
          "type": "address"
        }
      ],
      "name": "UserApproved",
      "type": "event"
    },
    {
      "anonymous": false,
      "inputs": [
        {
          "indexed": true,
          "internalType": "address",
          "name": "userID",
          "type": "address"
        },
        {
          "indexed": false,
          "internalType": "enum UserRegistry.Role",
          "name": "role",
          "type": "uint8"
        },
        {
          "indexed": true,
          "internalType": "uint256",
          "name": "accountCreatedDateTime",
          "type": "uint256"
        }
      ],
      "name": "UserRegistered",
      "type": "event"
    },
    {
      "anonymous": false,
      "inputs": [
        {
          "indexed": true,
          "internalType": "address",
          "name": "userID",
          "type": "address"
        },
        {
          "indexed": false,
          "internalType": "enum UserRegistry.Role",
          "name": "role",
          "type": "uint8"
        }
      ],
      "name": "UserVerified",
      "type": "event"
    },
    {
      "inputs": [],
      "name": "mainAdministrator",
      "outputs": [
        {
          "internalType": "address",
          "name": "",
          "type": "address"
        }
      ],
      "stateMutability": "view",
      "type": "function",
      "constant": true
    },
    {
      "inputs": [
        {
          "internalType": "address",
          "name": "",
          "type": "address"
        }
      ],
      "name": "regionalAdmins",
      "outputs": [
        {
          "internalType": "bool",
          "name": "",
          "type": "bool"
        }
      ],
      "stateMutability": "view",
      "type": "function",
      "constant": true
    },
    {
      "inputs": [
        {
          "internalType": "address",
          "name": "",
          "type": "address"
        }
      ],
      "name": "registeredUsers",
      "outputs": [
        {
          "internalType": "bool",
          "name": "",
          "type": "bool"
        }
      ],
      "stateMutability": "view",
      "type": "function",
      "constant": true
    },
    {
      "inputs": [
        {
          "internalType": "address",
          "name": "",
          "type": "address"
        }
      ],
      "name": "users",
      "outputs": [
        {
          "internalType": "address",
          "name": "userID",
          "type": "address"
        },
        {
          "internalType": "string",
          "name": "firstName",
          "type": "string"
        },
        {
          "internalType": "string",
          "name": "lastName",
          "type": "string"
        },
        {
          "internalType": "string",
          "name": "dateOfBirth",
          "type": "string"
        },
        {
          "internalType": "string",
          "name": "aadharNumber",
          "type": "string"
        },
        {
          "internalType": "string",
          "name": "resAddress",
          "type": "string"
        },
        {
          "internalType": "string",
          "name": "email",
          "type": "string"
        },
        {
          "internalType": "string",
          "name": "aadharFileHash",
          "type": "string"
        },
        {
          "internalType": "enum UserRegistry.Role",
          "name": "role",
          "type": "uint8"
        },
        {
          "internalType": "bool",
          "name": "verified",
          "type": "bool"
        },
        {
          "internalType": "uint256",
          "name": "accountCreatedDateTime",
          "type": "uint256"
        },
        {
          "internalType": "uint256",
          "name": "totalIndices",
          "type": "uint256"
        },
        {
          "internalType": "uint256",
          "name": "requestIndices",
          "type": "uint256"
        }
      ],
      "stateMutability": "view",
      "type": "function",
      "constant": true
    },
    {
      "inputs": [
        {
          "internalType": "string",
          "name": "_firstName",
          "type": "string"
        },
        {
          "internalType": "string",
          "name": "_lastName",
          "type": "string"
        },
        {
          "internalType": "string",
          "name": "_dateOfBirth",
          "type": "string"
        },
        {
          "internalType": "string",
          "name": "_aadharNumber",
          "type": "string"
        },
        {
          "internalType": "string",
          "name": "_resAddress",
          "type": "string"
        },
        {
          "internalType": "string",
          "name": "_email",
          "type": "string"
        },
        {
          "internalType": "string",
          "name": "_aadharFileHash",
          "type": "string"
        }
      ],
      "name": "updateMainAdminProfile",
      "outputs": [],
      "stateMutability": "nonpayable",
      "type": "function"
    },
    {
      "inputs": [
        {
          "internalType": "string",
          "name": "_firstName",
          "type": "string"
        },
        {
          "internalType": "string",
          "name": "_lastName",
          "type": "string"
        },
        {
          "internalType": "string",
          "name": "_dateOfBirth",
          "type": "string"
        },
        {
          "internalType": "string",
          "name": "_aadharNumber",
          "type": "string"
        },
        {
          "internalType": "string",
          "name": "_resAddress",
          "type": "string"
        },
        {
          "internalType": "string",
          "name": "_email",
          "type": "string"
        },
        {
          "internalType": "string",
          "name": "_aadharFileHash",
          "type": "string"
        }
      ],
      "name": "registerUser",
      "outputs": [],
      "stateMutability": "nonpayable",
      "type": "function"
    },
    {
      "inputs": [
        {
          "internalType": "address",
          "name": "_adminAddress",
          "type": "address"
        }
      ],
      "name": "addRegionalAdmin",
      "outputs": [],
      "stateMutability": "nonpayable",
      "type": "function"
    },
    {
      "inputs": [
        {
          "internalType": "address",
          "name": "_userAddress",
          "type": "address"
        }
      ],
      "name": "verifyUser",
      "outputs": [],
      "stateMutability": "nonpayable",
      "type": "function"
    },
    {
      "inputs": [
        {
          "internalType": "address",
          "name": "_userId",
          "type": "address"
        }
      ],
      "name": "getUserDetails",
      "outputs": [
        {
          "internalType": "string",
          "name": "firstName",
          "type": "string"
        },
        {
          "internalType": "string",
          "name": "lastName",
          "type": "string"
        },
        {
          "internalType": "string",
          "name": "dateOfBirth",
          "type": "string"
        },
        {
          "internalType": "string",
          "name": "aadharNumber",
          "type": "string"
        },
        {
          "internalType": "string",
          "name": "resAddress",
          "type": "string"
        },
        {
          "internalType": "string",
          "name": "email",
          "type": "string"
        },
        {
          "internalType": "string",
          "name": "aadharFileHash",
          "type": "string"
        },
        {
          "internalType": "string",
          "name": "role",
          "type": "string"
        },
        {
          "internalType": "bool",
          "name": "verified",
          "type": "bool"
        },
        {
          "internalType": "uint256",
          "name": "accountCreated",
          "type": "uint256"
        }
      ],
      "stateMutability": "view",
      "type": "function",
      "constant": true
    },
    {
      "inputs": [
        {
          "internalType": "address",
          "name": "_user",
          "type": "address"
        }
      ],
      "name": "incrementTotalProperties",
      "outputs": [],
      "stateMutability": "nonpayable",
      "type": "function"
    },
    {
      "inputs": [
        {
          "internalType": "address",
          "name": "_user",
          "type": "address"
        }
      ],
      "name": "incrementRequests",
      "outputs": [],
      "stateMutability": "nonpayable",
      "type": "function"
    },
    {
      "inputs": [
        {
          "internalType": "address",
          "name": "_user",
          "type": "address"
        }
      ],
      "name": "isRegionalAdmin",
      "outputs": [
        {
          "internalType": "bool",
          "name": "",
          "type": "bool"
        }
      ],
      "stateMutability": "view",
      "type": "function",
      "constant": true
    },
    {
      "inputs": [],
      "name": "getAllRegionalAdmins",
      "outputs": [
        {
          "internalType": "address[]",
          "name": "",
          "type": "address[]"
        }
      ],
      "stateMutability": "view",
      "type": "function",
      "constant": true
    },
    {
      "inputs": [],
      "name": "getPendingUserVerifications",
      "outputs": [
        {
          "internalType": "address[]",
          "name": "",
          "type": "address[]"
        }
      ],
      "stateMutability": "view",
      "type": "function",
      "constant": true
    }
  ],
  "bytecode": "0x60806040523480156200001157600080fd5b506040516200286b3803806200286b83398101604081905262000034916200075d565b600580546001600160a01b03191633908117909155604080516101a08101825291825284516020808401919091528501518282015284015160608083019190915284015160808083019190915284015160a08083019190915284015160c08083019190915284015160e082015261010081016000815260016020808301829052426040808501919091526000606085018190526080909401849052338452828252909220835181546001600160a01b0319166001600160a01b0390911617815591830151908201906200010890826200088d565b50604082015160028201906200011f90826200088d565b50606082015160038201906200013690826200088d565b50608082015160048201906200014d90826200088d565b5060a082015160058201906200016490826200088d565b5060c082015160068201906200017b90826200088d565b5060e082015160078201906200019290826200088d565b5061010082015160088201805460ff19166001836002811115620001ba57620001ba620007e8565b02179055506101208201516008820180549115156101000261ff00199092169190911790556101408201516009820155610160820151600a82015561018090910151600b9091015533600081815260208190526040808220805460ff19166001179055514292916000805160206200284b833981519152916200023e919062000959565b60405180910390a3604051806101a00160405280836001600160a01b0316815260200182600001518152602001826020015181526020018260400151815260200182606001518152602001826080015181526020018260a0015181526020018260c00151815260200160016002811115620002bd57620002bd620007e8565b8152600160208083018290524260408085019190915260006060850181905260809094018490526001600160a01b0387811685528383529320845181546001600160a01b0319169416939093178355830151908201906200031f90826200088d565b50604082015160028201906200033690826200088d565b50606082015160038201906200034d90826200088d565b50608082015160048201906200036490826200088d565b5060a082015160058201906200037b90826200088d565b5060c082015160068201906200039290826200088d565b5060e08201516007820190620003a990826200088d565b5061010082015160088201805460ff19166001836002811115620003d157620003d1620007e8565b02179055506101208201516008820180549115156101000261ff00199092169190911790556101408201516009820155610160820151600a82015561018090910151600b909101556001600160a01b038216600090815260208181526040808320805460ff199081166001908117909255600390935290832080549092161790556004805491620004628362000982565b919050555042826001600160a01b03166000805160206200284b833981519152600160405162000493919062000959565b60405180910390a36040516001600160a01b038316907f0110fdaeadd542c332cd26892cb7d915de6e76321aaabf60db70177f7a9e392090600090a2816001600160a01b03167f3e60282061aa9f0ac8f17cb522ab49946225e94f8597d84e6504593ee06a81e060016040516200050b919062000959565b60405180910390a2505050620009aa565b634e487b7160e01b600052604160045260246000fd5b60405160e081016001600160401b03811182821017156200055757620005576200051c565b60405290565b604051601f8201601f191681016001600160401b03811182821017156200058857620005886200051c565b604052919050565b600082601f830112620005a257600080fd5b81516001600160401b03811115620005be57620005be6200051c565b6020620005d4601f8301601f191682016200055d565b8281528582848701011115620005e957600080fd5b60005b8381101562000609578581018301518282018401528201620005ec565b506000928101909101919091529392505050565b600060e082840312156200063057600080fd5b6200063a62000532565b82519091506001600160401b03808211156200065557600080fd5b620006638583860162000590565b835260208401519150808211156200067a57600080fd5b620006888583860162000590565b60208401526040840151915080821115620006a257600080fd5b620006b08583860162000590565b60408401526060840151915080821115620006ca57600080fd5b620006d88583860162000590565b60608401526080840151915080821115620006f257600080fd5b620007008583860162000590565b608084015260a08401519150808211156200071a57600080fd5b620007288583860162000590565b60a084015260c08401519150808211156200074257600080fd5b50620007518482850162000590565b60c08301525092915050565b6000806000606084860312156200077357600080fd5b83516001600160401b03808211156200078b57600080fd5b62000799878388016200061d565b602087015190955091506001600160a01b0382168214620007b957600080fd5b604086015191935080821115620007cf57600080fd5b50620007de868287016200061d565b9150509250925092565b634e487b7160e01b600052602160045260246000fd5b600181811c908216806200081357607f821691505b6020821081036200083457634e487b7160e01b600052602260045260246000fd5b50919050565b601f8211156200088857600081815260208120601f850160051c81016020861015620008635750805b601f850160051c820191505b8181101562000884578281556001016200086f565b5050505b505050565b81516001600160401b03811115620008a957620008a96200051c565b620008c181620008ba8454620007fe565b846200083a565b602080601f831160018114620008f95760008415620008e05750858301515b600019600386901b1c1916600185901b17855562000884565b600085815260208120601f198616915b828110156200092a5788860151825594840194600190910190840162000909565b5085821015620009495787850151600019600388901b60f8161c191681555b5050505050600190811b01905550565b60208101600383106200097c57634e487b7160e01b600052602160045260246000fd5b91905290565b600060018201620009a357634e487b7160e01b600052601160045260246000fd5b5060010190565b611e9180620009ba6000396000f3fe608060405234801561001057600080fd5b50600436106100ea5760003560e01c8063633504311161008c578063b56fe50311610066578063b56fe50314610230578063c19c903714610243578063cc3d967b14610256578063d684d14a1461027f57600080fd5b806363350431146101ad578063a2fc2ce1146101d8578063a87430ba1461020457600080fd5b80634ae8af09116100c85780634ae8af091461015f5780634d813120146101725780635764767b1461018557806361e1b0b51461019a57600080fd5b80630e50cee5146100ef57806342ceaf1f14610127578063463ac5f71461013c575b600080fd5b6101126100fd3660046117d0565b60006020819052908152604090205460ff1681565b60405190151581526020015b60405180910390f35b61013a6101353660046117d0565b610287565b005b61011261014a3660046117d0565b60036020526000908152604090205460ff1681565b61013a61016d3660046118a3565b6102f7565b61013a6101803660046117d0565b610647565b61018d61082a565b60405161011e91906119be565b61013a6101a83660046117d0565b61095f565b6005546101c0906001600160a01b031681565b6040516001600160a01b03909116815260200161011e565b6101126101e63660046117d0565b6001600160a01b031660009081526003602052604090205460ff1690565b6102176102123660046117d0565b610a7f565b60405161011e9d9c9b9a99989796959493929190611a93565b61013a61023e3660046118a3565b610ea8565b61013a6102513660046117d0565b610f61565b6102696102643660046117d0565b610fc0565b60405161011e9a99989796959493929190611b6d565b61018d61156e565b6001600160a01b03811660009081526020819052604090205460ff166102c85760405162461bcd60e51b81526004016102bf90611c29565b60405180910390fd5b6001600160a01b0381166000908152600160205260408120600a018054916102ef83611c56565b919050555050565b3360009081526020819052604090205460ff16156103575760405162461bcd60e51b815260206004820152601760248201527f5573657220616c7265616479207265676973746572656400000000000000000060448201526064016102bf565b6002846040516103679190611c7d565b9081526040519081900360200190205460ff16156103c75760405162461bcd60e51b815260206004820181905260248201527f416164686172206e756d62657220616c7265616479207265676973746572656460448201526064016102bf565b6000604051806101a00160405280336001600160a01b0316815260200189815260200188815260200187815260200186815260200185815260200184815260200183815260200160028081111561042057610420611a5b565b81526000602080830182905242604080850191909152606084018390526080909301829052338252600180825292909120835181546001600160a01b0319166001600160a01b0390911617815590830151929350839290918201906104859082611d22565b506040820151600282019061049a9082611d22565b50606082015160038201906104af9082611d22565b50608082015160048201906104c49082611d22565b5060a082015160058201906104d99082611d22565b5060c082015160068201906104ee9082611d22565b5060e082015160078201906105039082611d22565b5061010082015160088201805460ff1916600183600281111561052857610528611a5b565b02179055506101208201516008820180549115156101000261ff00199092169190911790556101408201516009820155610160820151600a82015561018090910151600b909101553360009081526020819052604090819020805460ff19166001908117909155905160029061059f908890611c7d565b908152604051908190036020018120805492151560ff1990931692909217909155600680546001810182556000919091527ff652222313e28459528d920b65115c16c04f3efc82aaedc97be59f3f377c0d3f0180546001600160a01b0319163390811790915542917feea238307e4577ec1b8645d63505c2d57767cfc074bb5ab579a615525f07a2579061063590600290611de2565b60405180910390a35050505050505050565b60013360009081526001602052604090206008015460ff16600281111561067057610670611a5b565b148015610694575033600090815260016020526040902060080154610100900460ff165b6106e05760405162461bcd60e51b815260206004820152601c60248201527f4f6e6c7920766572696669656420526567696f6e616c2041646d696e0000000060448201526064016102bf565b6001600160a01b03811660009081526020819052604090205460ff166107185760405162461bcd60e51b81526004016102bf90611c29565b60026001600160a01b03821660009081526001602052604090206008015460ff16600281111561074a5761074a611a5b565b146107975760405162461bcd60e51b815260206004820152601a60248201527f4e6f7420612067656e6572616c2075736572206163636f756e7400000000000060448201526064016102bf565b6001600160a01b038116600081815260016020526040808220600801805461ff001916610100179055517ffbb0a472171a6eb950c8a87421215268a1b2df816da0a48e920e72ade27cfcf79190a2806001600160a01b03167f3e60282061aa9f0ac8f17cb522ab49946225e94f8597d84e6504593ee06a81e0600260405161081f9190611de2565b60405180910390a250565b6060600060045467ffffffffffffffff81111561084957610849611800565b604051908082528060200260200182016040528015610872578160200160208202803683370190505b5090506000805b6006548110156109575760018060006006848154811061089b5761089b611df6565b60009182526020808320909101546001600160a01b0316835282019290925260400190206008015460ff1660028111156108d7576108d7611a5b565b0361094557600681815481106108ef576108ef611df6565b9060005260206000200160009054906101000a90046001600160a01b031683838151811061091f5761091f611df6565b6001600160a01b03909216602092830291909101909101528161094181611c56565b9250505b8061094f81611c56565b915050610879565b509092915050565b6005546001600160a01b031633146109895760405162461bcd60e51b81526004016102bf90611e0c565b6001600160a01b03811660009081526020819052604090205460ff166109c15760405162461bcd60e51b81526004016102bf90611c29565b6001600160a01b0381166000908152600160208181526040808420600801805461ffff191661010117905560039091528220805460ff191690911790556004805491610a0c83611c56565b90915550506040516001600160a01b038216907f0110fdaeadd542c332cd26892cb7d915de6e76321aaabf60db70177f7a9e392090600090a2806001600160a01b03167f3e60282061aa9f0ac8f17cb522ab49946225e94f8597d84e6504593ee06a81e0600160405161081f9190611de2565b6001602081905260009182526040909120805491810180546001600160a01b0390931692610aac90611c99565b80601f0160208091040260200160405190810160405280929190818152602001828054610ad890611c99565b8015610b255780601f10610afa57610100808354040283529160200191610b25565b820191906000526020600020905b815481529060010190602001808311610b0857829003601f168201915b505050505090806002018054610b3a90611c99565b80601f0160208091040260200160405190810160405280929190818152602001828054610b6690611c99565b8015610bb35780601f10610b8857610100808354040283529160200191610bb3565b820191906000526020600020905b815481529060010190602001808311610b9657829003601f168201915b505050505090806003018054610bc890611c99565b80601f0160208091040260200160405190810160405280929190818152602001828054610bf490611c99565b8015610c415780601f10610c1657610100808354040283529160200191610c41565b820191906000526020600020905b815481529060010190602001808311610c2457829003601f168201915b505050505090806004018054610c5690611c99565b80601f0160208091040260200160405190810160405280929190818152602001828054610c8290611c99565b8015610ccf5780601f10610ca457610100808354040283529160200191610ccf565b820191906000526020600020905b815481529060010190602001808311610cb257829003601f168201915b505050505090806005018054610ce490611c99565b80601f0160208091040260200160405190810160405280929190818152602001828054610d1090611c99565b8015610d5d5780601f10610d3257610100808354040283529160200191610d5d565b820191906000526020600020905b815481529060010190602001808311610d4057829003601f168201915b505050505090806006018054610d7290611c99565b80601f0160208091040260200160405190810160405280929190818152602001828054610d9e90611c99565b8015610deb5780601f10610dc057610100808354040283529160200191610deb565b820191906000526020600020905b815481529060010190602001808311610dce57829003601f168201915b505050505090806007018054610e0090611c99565b80601f0160208091040260200160405190810160405280929190818152602001828054610e2c90611c99565b8015610e795780601f10610e4e57610100808354040283529160200191610e79565b820191906000526020600020905b815481529060010190602001808311610e5c57829003601f168201915b5050505060088301546009840154600a850154600b90950154939460ff8084169561010090940416935090918d565b6005546001600160a01b03163314610ed25760405162461bcd60e51b81526004016102bf90611e0c565b6005546001600160a01b03166000908152600160208190526040909120908101610efc8982611d22565b5060028101610f0b8882611d22565b5060038101610f1a8782611d22565b5060048101610f298682611d22565b5060058101610f388582611d22565b5060068101610f478482611d22565b5060078101610f568382611d22565b505050505050505050565b6001600160a01b03811660009081526020819052604090205460ff16610f995760405162461bcd60e51b81526004016102bf90611c29565b6001600160a01b0381166000908152600160205260408120600b018054916102ef83611c56565b6001600160a01b038181166000908152600160205260408120546060928392839283928392839283928392918291166110315760405162461bcd60e51b8152602060048201526013602482015272155cd95c88191bd95cc81b9bdd08195e1a5cdd606a1b60448201526064016102bf565b6001600160a01b038b16600090815260016020526040812090606090600883015460ff16600281111561106657611066611a5b565b0361109a575060408051808201909152601281527126b0b4b71020b236b4b734b9ba3930ba37b960711b6020820152611143565b6001600883015460ff1660028111156110b5576110b5611a5b565b036110e5575060408051808201909152600e81526d2932b3b4b7b730b61020b236b4b760911b6020820152611143565b6002600883015460ff16600281111561110057611100611a5b565b0361112657506040805180820190915260048152632ab9b2b960e11b6020820152611143565b506040805180820190915260048152634e6f6e6560e01b60208201525b81600101826002018360030184600401856005018660060187600701878960080160019054906101000a900460ff168a6009015489805461118390611c99565b80601f01602080910402602001604051908101604052809291908181526020018280546111af90611c99565b80156111fc5780601f106111d1576101008083540402835291602001916111fc565b820191906000526020600020905b8154815290600101906020018083116111df57829003601f168201915b5050505050995088805461120f90611c99565b80601f016020809104026020016040519081016040528092919081815260200182805461123b90611c99565b80156112885780601f1061125d57610100808354040283529160200191611288565b820191906000526020600020905b81548152906001019060200180831161126b57829003601f168201915b5050505050985087805461129b90611c99565b80601f01602080910402602001604051908101604052809291908181526020018280546112c790611c99565b80156113145780601f106112e957610100808354040283529160200191611314565b820191906000526020600020905b8154815290600101906020018083116112f757829003601f168201915b5050505050975086805461132790611c99565b80601f016020809104026020016040519081016040528092919081815260200182805461135390611c99565b80156113a05780601f10611375576101008083540402835291602001916113a0565b820191906000526020600020905b81548152906001019060200180831161138357829003601f168201915b505050505096508580546113b390611c99565b80601f01602080910402602001604051908101604052809291908181526020018280546113df90611c99565b801561142c5780601f106114015761010080835404028352916020019161142c565b820191906000526020600020905b81548152906001019060200180831161140f57829003601f168201915b5050505050955084805461143f90611c99565b80601f016020809104026020016040519081016040528092919081815260200182805461146b90611c99565b80156114b85780601f1061148d576101008083540402835291602001916114b8565b820191906000526020600020905b81548152906001019060200180831161149b57829003601f168201915b505050505094508380546114cb90611c99565b80601f01602080910402602001604051908101604052809291908181526020018280546114f790611c99565b80156115445780601f1061151957610100808354040283529160200191611544565b820191906000526020600020905b81548152906001019060200180831161152757829003601f168201915b505050505093509b509b509b509b509b509b509b509b509b509b5050509193959799509193959799565b60606000805b60065481101561164a576002600160006006848154811061159757611597611df6565b60009182526020808320909101546001600160a01b0316835282019290925260400190206008015460ff1660028111156115d3576115d3611a5b565b148015611625575060016000600683815481106115f2576115f2611df6565b60009182526020808320909101546001600160a01b0316835282019290925260400190206008015460ff61010090910416155b15611638578161163481611c56565b9250505b8061164281611c56565b915050611574565b5060008167ffffffffffffffff81111561166657611666611800565b60405190808252806020026020018201604052801561168f578160200160208202803683370190505b5090506000805b6006548110156117c757600260016000600684815481106116b9576116b9611df6565b60009182526020808320909101546001600160a01b0316835282019290925260400190206008015460ff1660028111156116f5576116f5611a5b565b1480156117475750600160006006838154811061171457611714611df6565b60009182526020808320909101546001600160a01b0316835282019290925260400190206008015460ff61010090910416155b156117b5576006818154811061175f5761175f611df6565b9060005260206000200160009054906101000a90046001600160a01b031683838151811061178f5761178f611df6565b6001600160a01b0390921660209283029190910190910152816117b181611c56565b9250505b806117bf81611c56565b915050611696565b50909392505050565b6000602082840312156117e257600080fd5b81356001600160a01b03811681146117f957600080fd5b9392505050565b634e487b7160e01b600052604160045260246000fd5b600082601f83011261182757600080fd5b813567ffffffffffffffff8082111561184257611842611800565b604051601f8301601f19908116603f0116810190828211818310171561186a5761186a611800565b8160405283815286602085880101111561188357600080fd5b836020870160208301376000602085830101528094505050505092915050565b600080600080600080600060e0888a0312156118be57600080fd5b873567ffffffffffffffff808211156118d657600080fd5b6118e28b838c01611816565b985060208a01359150808211156118f857600080fd5b6119048b838c01611816565b975060408a013591508082111561191a57600080fd5b6119268b838c01611816565b965060608a013591508082111561193c57600080fd5b6119488b838c01611816565b955060808a013591508082111561195e57600080fd5b61196a8b838c01611816565b945060a08a013591508082111561198057600080fd5b61198c8b838c01611816565b935060c08a01359150808211156119a257600080fd5b506119af8a828b01611816565b91505092959891949750929550565b6020808252825182820181905260009190848201906040850190845b818110156119ff5783516001600160a01b0316835292840192918401916001016119da565b50909695505050505050565b60005b83811015611a26578181015183820152602001611a0e565b50506000910152565b60008151808452611a47816020860160208601611a0b565b601f01601f19169290920160200192915050565b634e487b7160e01b600052602160045260246000fd5b60038110611a8f57634e487b7160e01b600052602160045260246000fd5b9052565b6001600160a01b038e1681526101a060208201526000611ab76101a083018f611a2f565b8281036040840152611ac9818f611a2f565b90508281036060840152611add818e611a2f565b90508281036080840152611af1818d611a2f565b905082810360a0840152611b05818c611a2f565b905082810360c0840152611b19818b611a2f565b905082810360e0840152611b2d818a611a2f565b915050611b3e610100830188611a71565b941515610120820152610140810193909352610160830191909152610180909101529998505050505050505050565b6000610140808352611b818184018e611a2f565b90508281036020840152611b95818d611a2f565b90508281036040840152611ba9818c611a2f565b90508281036060840152611bbd818b611a2f565b90508281036080840152611bd1818a611a2f565b905082810360a0840152611be58189611a2f565b905082810360c0840152611bf98188611a2f565b905082810360e0840152611c0d8187611a2f565b9415156101008401525050610120015298975050505050505050565b602080825260139082015272155cd95c881b9bdd081c9959da5cdd195c9959606a1b604082015260600190565b600060018201611c7657634e487b7160e01b600052601160045260246000fd5b5060010190565b60008251611c8f818460208701611a0b565b9190910192915050565b600181811c90821680611cad57607f821691505b602082108103611ccd57634e487b7160e01b600052602260045260246000fd5b50919050565b601f821115611d1d57600081815260208120601f850160051c81016020861015611cfa5750805b601f850160051c820191505b81811015611d1957828155600101611d06565b5050505b505050565b815167ffffffffffffffff811115611d3c57611d3c611800565b611d5081611d4a8454611c99565b84611cd3565b602080601f831160018114611d855760008415611d6d5750858301515b600019600386901b1c1916600185901b178555611d19565b600085815260208120601f198616915b82811015611db457888601518255948401946001909101908401611d95565b5085821015611dd25787850151600019600388901b60f8161c191681555b5050505050600190811b01905550565b60208101611df08284611a71565b92915050565b634e487b7160e01b600052603260045260246000fd5b6020808252602f908201527f4f6e6c79204d61696e2041646d696e6973747261746f722063616e207065726660408201526e37b936903a3434b99030b1ba34b7b760891b60608201526080019056fea264697066735822122066a5fc27aa3357a03ae8d1e5f74d37e72f4cb4719a2f56679bce71b09466d35f64736f6c63430008150033eea238307e4577ec1b8645d63505c2d57767cfc074bb5ab579a615525f07a257",
  "immutableReferences": {},
  "source": "// SPDX-License-Identifier: Unlicensed\r\npragma solidity ^0.8.21;\r\n\r\ncontract UserRegistry {\r\n\r\n    enum Role { MainAdministrator, RegionalAdmin, User }\r\n\r\n    struct User {\r\n        address userID;\r\n        string firstName;\r\n        string lastName;\r\n        string dateOfBirth;\r\n        string aadharNumber;\r\n        string resAddress;\r\n        string email;\r\n        string aadharFileHash; // IPFS hash of Aadhar PDF\r\n        Role role;\r\n        bool verified; // true only after admin verification\r\n        uint256 accountCreatedDateTime;\r\n        uint totalIndices; //Number of properties owned by the user\r\n        uint requestIndices; //Number of purchase requests made by the user\r\n    }\r\n\r\n    mapping(address => bool) public registeredUsers;\r\n    mapping(address => User) public users;\r\n    mapping(string => bool) private aadharNumbers;\r\n    mapping(address => bool) public regionalAdmins;\r\n\r\n    uint private countRegionalAdmins;\r\n\r\n    address public mainAdministrator;\r\n\r\n    address[] private allUsers;\r\n\r\n    event UserRegistered(address indexed userID, Role role, uint256 indexed accountCreatedDateTime);\r\n    event UserVerified(address indexed userID, Role role); //for User\r\n    event RegionalAdminAdded(address indexed userID);\r\n    event UserApproved(address indexed userID); //for Regional Admin\r\n\r\n    modifier onlyMainAdministrator() {\r\n        require(msg.sender == mainAdministrator, \"Only Main Administrator can perform this action\");\r\n        _;\r\n    }\r\n\r\n    modifier onlyRegionalAdmin() {\r\n        require(users[msg.sender].role == Role.RegionalAdmin && users[msg.sender].verified, \"Only verified Regional Admin\");\r\n        _;\r\n    }\r\n\r\n    struct UserProfile {\r\n        string firstName;\r\n        string lastName;\r\n        string dateOfBirth;\r\n        string aadharNumber;\r\n        string resAddress;\r\n        string email;\r\n        string aadharFileHash;\r\n    }\r\n    \r\n    // First wallet becomes system deployer\r\n    constructor(\r\n        UserProfile memory mainAdminProfile,\r\n        address initialRegionalAdminAddress,\r\n        UserProfile memory initialRegionalAdminProfile\r\n    ) {\r\n        mainAdministrator = msg.sender;\r\n\r\n        users[msg.sender] = User({\r\n            userID: msg.sender,\r\n            firstName: mainAdminProfile.firstName,\r\n            lastName: mainAdminProfile.lastName,\r\n            dateOfBirth: mainAdminProfile.dateOfBirth,\r\n            aadharNumber: mainAdminProfile.aadharNumber,\r\n            resAddress: mainAdminProfile.resAddress,\r\n            email: mainAdminProfile.email,\r\n            aadharFileHash: mainAdminProfile.aadharFileHash,\r\n            role: Role.MainAdministrator,\r\n            verified: true,\r\n            accountCreatedDateTime: block.timestamp,\r\n            totalIndices:0,\r\n            requestIndices:0\r\n        });\r\n\r\n        registeredUsers[msg.sender] = true;\r\n        emit UserRegistered(msg.sender, Role.MainAdministrator, block.timestamp);\r\n\r\n        users[initialRegionalAdminAddress] = User({\r\n            userID: initialRegionalAdminAddress,\r\n            firstName: initialRegionalAdminProfile.firstName,\r\n            lastName: initialRegionalAdminProfile.lastName,\r\n            dateOfBirth: initialRegionalAdminProfile.dateOfBirth,\r\n            aadharNumber: initialRegionalAdminProfile.aadharNumber,\r\n            resAddress: initialRegionalAdminProfile.resAddress,\r\n            email: initialRegionalAdminProfile.email,\r\n            aadharFileHash: initialRegionalAdminProfile.aadharFileHash,\r\n            role: Role.RegionalAdmin,\r\n            verified: true,\r\n            accountCreatedDateTime: block.timestamp,\r\n            totalIndices: 0,\r\n            requestIndices: 0\r\n        });\r\n\r\n        registeredUsers[initialRegionalAdminAddress] = true;\r\n        regionalAdmins[initialRegionalAdminAddress] = true;\r\n        countRegionalAdmins++;\r\n\r\n        emit UserRegistered(initialRegionalAdminAddress, Role.RegionalAdmin, block.timestamp);\r\n        emit RegionalAdminAdded(initialRegionalAdminAddress);\r\n        emit UserVerified(initialRegionalAdminAddress, Role.RegionalAdmin);\r\n    }\r\n\r\n\r\n    function updateMainAdminProfile(\r\n        string memory _firstName,\r\n        string memory _lastName,\r\n        string memory _dateOfBirth,\r\n        string memory _aadharNumber,\r\n        string memory _resAddress,\r\n        string memory _email,\r\n        string memory _aadharFileHash\r\n    ) public onlyMainAdministrator {\r\n        User storage admin = users[mainAdministrator];\r\n        admin.firstName = _firstName;\r\n        admin.lastName = _lastName;\r\n        admin.dateOfBirth = _dateOfBirth;\r\n        admin.aadharNumber = _aadharNumber;\r\n        admin.resAddress = _resAddress;\r\n        admin.email = _email;\r\n        admin.aadharFileHash = _aadharFileHash;\r\n        // Optionally emit an event here\r\n    }\r\n\r\n\r\n    // Register New User\r\n    function registerUser(\r\n        string memory _firstName,\r\n        string memory _lastName,\r\n        string memory _dateOfBirth,\r\n        string memory _aadharNumber,\r\n        string memory _resAddress,\r\n        string memory _email,\r\n        string memory _aadharFileHash\r\n    ) public {\r\n        require(!registeredUsers[msg.sender], \"User already registered\");\r\n        require(!aadharNumbers[_aadharNumber], \"Aadhar number already registered\");\r\n\r\n        User memory newUser = User({\r\n            userID: msg.sender,\r\n            firstName: _firstName,\r\n            lastName: _lastName,\r\n            dateOfBirth: _dateOfBirth,\r\n            aadharNumber: _aadharNumber,\r\n            resAddress: _resAddress,\r\n            email: _email,\r\n            aadharFileHash: _aadharFileHash,\r\n            role: Role.User, // Default role\r\n            verified: false,\r\n            accountCreatedDateTime: block.timestamp,\r\n            totalIndices: 0,  \r\n            requestIndices: 0 \r\n        });\r\n\r\n        users[msg.sender] = newUser;\r\n        registeredUsers[msg.sender] = true;\r\n        aadharNumbers[_aadharNumber] = true;\r\n\r\n        allUsers.push(msg.sender);\r\n\r\n        emit UserRegistered(msg.sender, Role.User, block.timestamp);\r\n    }\r\n\r\n    // Main Admin adds Regional Admin\r\n    function addRegionalAdmin(address _adminAddress) external onlyMainAdministrator {\r\n        require(registeredUsers[_adminAddress], \"User not registered\");\r\n        \r\n        users[_adminAddress].role = Role.RegionalAdmin;\r\n        users[_adminAddress].verified = true;\r\n\r\n        regionalAdmins[_adminAddress] = true;\r\n        countRegionalAdmins++;\r\n\r\n        emit RegionalAdminAdded(_adminAddress);\r\n        emit UserVerified(_adminAddress, Role.RegionalAdmin);\r\n    }\r\n\r\n    // Regional Admin verifies Users\r\n    function verifyUser(address _userAddress) external onlyRegionalAdmin {\r\n        require(registeredUsers[_userAddress], \"User not registered\");\r\n        require(users[_userAddress].role == Role.User, \"Not a general user account\");\r\n        \r\n        users[_userAddress].verified = true;\r\n\r\n        emit UserApproved(_userAddress);\r\n        emit UserVerified(_userAddress, Role.User);\r\n    }\r\n\r\n    // Get User Details\r\n    function getUserDetails(address _userId) public view returns (\r\n        string memory firstName,\r\n        string memory lastName,\r\n        string memory dateOfBirth,\r\n        string memory aadharNumber,\r\n        string memory resAddress,\r\n        string memory email,\r\n        string memory aadharFileHash,\r\n        string memory role,\r\n        bool verified,\r\n        uint256 accountCreated\r\n    ) {\r\n        require(users[_userId].userID != address(0), \"User does not exist\");\r\n\r\n        User storage user = users[_userId];\r\n\r\n        string memory roleString;\r\n        if (user.role == Role.MainAdministrator) roleString = \"Main Administrator\";\r\n        else if (user.role == Role.RegionalAdmin) roleString = \"Regional Admin\";\r\n        else if (user.role == Role.User) roleString = \"User\";\r\n        else roleString = \"None\";\r\n\r\n        return (\r\n            user.firstName,\r\n            user.lastName,\r\n            user.dateOfBirth,\r\n            user.aadharNumber,\r\n            user.resAddress,\r\n            user.email,\r\n            user.aadharFileHash,\r\n            roleString,\r\n            user.verified,\r\n            user.accountCreatedDateTime\r\n        );\r\n    }\r\n\r\n    // THIS Should be in property contratct\r\n    function incrementTotalProperties(address _user) external {\r\n        require(registeredUsers[_user], \"User not registered\");\r\n        users[_user].totalIndices++;\r\n    }\r\n\r\n    function incrementRequests(address _user) external {\r\n        require(registeredUsers[_user], \"User not registered\");\r\n        users[_user].requestIndices++;\r\n    }\r\n\r\n    function isRegionalAdmin(address _user) public view returns (bool) {\r\n        return regionalAdmins[_user];\r\n    }\r\n\r\n    function getAllRegionalAdmins() public view returns (address[] memory) {\r\n        address[] memory admins = new address[](countRegionalAdmins);\r\n        uint count = 0;\r\n        for (uint i = 0; i < allUsers.length; i++) {\r\n            if (users[allUsers[i]].role == Role.RegionalAdmin) {\r\n                admins[count] = allUsers[i];\r\n                count++;\r\n            }\r\n        }\r\n        return admins;\r\n    }\r\n\r\n    function getPendingUserVerifications() public view returns(address[] memory) {\r\n        uint count = 0;\r\n        for (uint i = 0; i < allUsers.length; i++) {\r\n            if (users[allUsers[i]].role == Role.User && !users[allUsers[i]].verified) {\r\n                count++;\r\n            }\r\n        }\r\n        address[] memory pending = new address[](count);\r\n        uint idx = 0;\r\n        for (uint i = 0; i < allUsers.length; i++) {\r\n            if (users[allUsers[i]].role == Role.User && !users[allUsers[i]].verified) {\r\n                pending[idx] = allUsers[i];\r\n                idx++;\r\n            }\r\n        }\r\n        return pending;\r\n    }\r\n}\r\n",
  "sourcePath": "C:\\Users\\Shalini Patel\\Desktop\\College\\Capstone Project\\property-ledger\\contracts\\UserRegistry.sol",
  "compiler": {
    "name": "solc",
    "version": "0.8.21+commit.d9974bed.Emscripten.clang"
  },
  "schemaVersion": "3.4.16",
  "updatedAt": "2025-11-12T20:53:18.428Z",
  "networkType": "ethereum",
  "devdoc": {
    "kind": "dev",
    "methods": {},
    "version": 1
  },
  "userdoc": {
    "kind": "user",
    "methods": {},
    "version": 1
  }
}