{
  "contractName": "UserRegistry",
  "abi": [
    {
      "inputs": [],
      "stateMutability": "nonpayable",
      "type": "constructor"
    },
    {
      "anonymous": false,
      "inputs": [
        {
          "indexed": true,
          "internalType": "address",
          "name": "userID",
          "type": "address"
        }
      ],
      "name": "RegionalAdminAdded",
      "type": "event"
    },
    {
      "anonymous": false,
      "inputs": [
        {
          "indexed": true,
          "internalType": "address",
          "name": "userID",
          "type": "address"
        }
      ],
      "name": "UserApproved",
      "type": "event"
    },
    {
      "anonymous": false,
      "inputs": [
        {
          "indexed": true,
          "internalType": "address",
          "name": "userID",
          "type": "address"
        },
        {
          "indexed": false,
          "internalType": "enum UserRegistry.Role",
          "name": "role",
          "type": "uint8"
        },
        {
          "indexed": true,
          "internalType": "uint256",
          "name": "accountCreatedDateTime",
          "type": "uint256"
        }
      ],
      "name": "UserRegistered",
      "type": "event"
    },
    {
      "anonymous": false,
      "inputs": [
        {
          "indexed": true,
          "internalType": "address",
          "name": "userID",
          "type": "address"
        },
        {
          "indexed": false,
          "internalType": "enum UserRegistry.Role",
          "name": "role",
          "type": "uint8"
        }
      ],
      "name": "UserVerified",
      "type": "event"
    },
    {
      "inputs": [],
      "name": "mainAdministrator",
      "outputs": [
        {
          "internalType": "address",
          "name": "",
          "type": "address"
        }
      ],
      "stateMutability": "view",
      "type": "function",
      "constant": true
    },
    {
      "inputs": [
        {
          "internalType": "address",
          "name": "",
          "type": "address"
        }
      ],
      "name": "regionalAdmins",
      "outputs": [
        {
          "internalType": "bool",
          "name": "",
          "type": "bool"
        }
      ],
      "stateMutability": "view",
      "type": "function",
      "constant": true
    },
    {
      "inputs": [
        {
          "internalType": "address",
          "name": "",
          "type": "address"
        }
      ],
      "name": "registeredUsers",
      "outputs": [
        {
          "internalType": "bool",
          "name": "",
          "type": "bool"
        }
      ],
      "stateMutability": "view",
      "type": "function",
      "constant": true
    },
    {
      "inputs": [
        {
          "internalType": "address",
          "name": "",
          "type": "address"
        }
      ],
      "name": "users",
      "outputs": [
        {
          "internalType": "address",
          "name": "userID",
          "type": "address"
        },
        {
          "internalType": "string",
          "name": "firstName",
          "type": "string"
        },
        {
          "internalType": "string",
          "name": "lastName",
          "type": "string"
        },
        {
          "internalType": "string",
          "name": "dateOfBirth",
          "type": "string"
        },
        {
          "internalType": "string",
          "name": "aadharNumber",
          "type": "string"
        },
        {
          "internalType": "string",
          "name": "resAddress",
          "type": "string"
        },
        {
          "internalType": "string",
          "name": "email",
          "type": "string"
        },
        {
          "internalType": "string",
          "name": "aadharFileHash",
          "type": "string"
        },
        {
          "internalType": "enum UserRegistry.Role",
          "name": "role",
          "type": "uint8"
        },
        {
          "internalType": "bool",
          "name": "verified",
          "type": "bool"
        },
        {
          "internalType": "uint256",
          "name": "accountCreatedDateTime",
          "type": "uint256"
        },
        {
          "internalType": "uint256",
          "name": "totalIndices",
          "type": "uint256"
        },
        {
          "internalType": "uint256",
          "name": "requestIndices",
          "type": "uint256"
        }
      ],
      "stateMutability": "view",
      "type": "function",
      "constant": true
    },
    {
      "inputs": [
        {
          "internalType": "string",
          "name": "_firstName",
          "type": "string"
        },
        {
          "internalType": "string",
          "name": "_lastName",
          "type": "string"
        },
        {
          "internalType": "string",
          "name": "_dateOfBirth",
          "type": "string"
        },
        {
          "internalType": "string",
          "name": "_aadharNumber",
          "type": "string"
        },
        {
          "internalType": "string",
          "name": "_resAddress",
          "type": "string"
        },
        {
          "internalType": "string",
          "name": "_email",
          "type": "string"
        },
        {
          "internalType": "string",
          "name": "_aadharFileHash",
          "type": "string"
        }
      ],
      "name": "registerUser",
      "outputs": [],
      "stateMutability": "nonpayable",
      "type": "function"
    },
    {
      "inputs": [
        {
          "internalType": "address",
          "name": "_adminAddress",
          "type": "address"
        }
      ],
      "name": "addRegionalAdmin",
      "outputs": [],
      "stateMutability": "nonpayable",
      "type": "function"
    },
    {
      "inputs": [
        {
          "internalType": "address",
          "name": "_userAddress",
          "type": "address"
        }
      ],
      "name": "verifyUser",
      "outputs": [],
      "stateMutability": "nonpayable",
      "type": "function"
    },
    {
      "inputs": [
        {
          "internalType": "address",
          "name": "_userId",
          "type": "address"
        }
      ],
      "name": "getUserDetails",
      "outputs": [
        {
          "internalType": "string",
          "name": "firstName",
          "type": "string"
        },
        {
          "internalType": "string",
          "name": "lastName",
          "type": "string"
        },
        {
          "internalType": "string",
          "name": "dateOfBirth",
          "type": "string"
        },
        {
          "internalType": "string",
          "name": "aadharNumber",
          "type": "string"
        },
        {
          "internalType": "string",
          "name": "resAddress",
          "type": "string"
        },
        {
          "internalType": "string",
          "name": "email",
          "type": "string"
        },
        {
          "internalType": "string",
          "name": "aadharFileHash",
          "type": "string"
        },
        {
          "internalType": "string",
          "name": "role",
          "type": "string"
        },
        {
          "internalType": "bool",
          "name": "verified",
          "type": "bool"
        },
        {
          "internalType": "uint256",
          "name": "accountCreated",
          "type": "uint256"
        }
      ],
      "stateMutability": "view",
      "type": "function",
      "constant": true
    },
    {
      "inputs": [
        {
          "internalType": "address",
          "name": "_user",
          "type": "address"
        }
      ],
      "name": "incrementTotalProperties",
      "outputs": [],
      "stateMutability": "nonpayable",
      "type": "function"
    },
    {
      "inputs": [
        {
          "internalType": "address",
          "name": "_user",
          "type": "address"
        }
      ],
      "name": "incrementRequests",
      "outputs": [],
      "stateMutability": "nonpayable",
      "type": "function"
    },
    {
      "inputs": [
        {
          "internalType": "address",
          "name": "_user",
          "type": "address"
        }
      ],
      "name": "isRegionalAdmin",
      "outputs": [
        {
          "internalType": "bool",
          "name": "",
          "type": "bool"
        }
      ],
      "stateMutability": "view",
      "type": "function",
      "constant": true
    }
  ],
  "bytecode": "0x60806040523480156200001157600080fd5b5060058054336001600160a01b03199182168117909255604080516101a08101825283815281518083018352600481526326b0b4b760e11b60208083019190915280830191825283518085018552600d81526c20b236b4b734b9ba3930ba37b960991b81830152838501528351808201855260008082526060850191909152845180860186526003808252624e2f4160e81b8285018190526080870192909252865180880188529081528084019190915260a08501528451808301865281815260c08501528451808301865281815260e085015260016101008501819052610120850181905242610140860152610160850182905261018085018290529681529086905292909220815181546001600160a01b0390911694169390931783559051909282019062000143908262000358565b50604082015160028201906200015a908262000358565b506060820151600382019062000171908262000358565b506080820151600482019062000188908262000358565b5060a082015160058201906200019f908262000358565b5060c08201516006820190620001b6908262000358565b5060e08201516007820190620001cd908262000358565b5061010082015160088201805460ff19166001836003811115620001f557620001f56200029d565b02179055506101208201516008820180549115156101000261ff00199092169190911790556101408201516009820155610160820151600a82015561018090910151600b909101553360008181526020819052604090819020805460ff1916600190811790915590514292917feea238307e4577ec1b8645d63505c2d57767cfc074bb5ab579a615525f07a257916200028f919062000424565b60405180910390a36200044d565b634e487b7160e01b600052602160045260246000fd5b634e487b7160e01b600052604160045260246000fd5b600181811c90821680620002de57607f821691505b602082108103620002ff57634e487b7160e01b600052602260045260246000fd5b50919050565b601f8211156200035357600081815260208120601f850160051c810160208610156200032e5750805b601f850160051c820191505b818110156200034f578281556001016200033a565b5050505b505050565b81516001600160401b03811115620003745762000374620002b3565b6200038c81620003858454620002c9565b8462000305565b602080601f831160018114620003c45760008415620003ab5750858301515b600019600386901b1c1916600185901b1785556200034f565b600085815260208120601f198616915b82811015620003f557888601518255948401946001909101908401620003d4565b5085821015620004145787850151600019600388901b60f8161c191681555b5050505050600190811b01905550565b60208101600483106200044757634e487b7160e01b600052602160045260246000fd5b91905290565b611926806200045d6000396000f3fe608060405234801561001057600080fd5b50600436106100a95760003560e01c806361e1b0b51161007157806361e1b0b5146101445780636335043114610157578063a2fc2ce114610182578063a87430ba146101ae578063c19c9037146101da578063cc3d967b146101ed57600080fd5b80630e50cee5146100ae57806342ceaf1f146100e6578063463ac5f7146100fb5780634ae8af091461011e5780634d81312014610131575b600080fd5b6100d16100bc366004611317565b60006020819052908152604090205460ff1681565b60405190151581526020015b60405180910390f35b6100f96100f4366004611317565b610216565b005b6100d1610109366004611317565b60036020526000908152604090205460ff1681565b6100f961012c3660046113ea565b610286565b6100f961013f366004611317565b610593565b6100f9610152366004611317565b610776565b60055461016a906001600160a01b031681565b6040516001600160a01b0390911681526020016100dd565b6100d1610190366004611317565b6001600160a01b031660009081526003602052604090205460ff1690565b6101c16101bc366004611317565b6108de565b6040516100dd9d9c9b9a9998979695949392919061158d565b6100f96101e8366004611317565b610d07565b6102006101fb366004611317565b610d66565b6040516100dd9a99989796959493929190611667565b6001600160a01b03811660009081526020819052604090205460ff166102575760405162461bcd60e51b815260040161024e90611723565b60405180910390fd5b6001600160a01b0381166000908152600160205260408120600a0180549161027e83611750565b919050555050565b3360009081526020819052604090205460ff16156102e65760405162461bcd60e51b815260206004820152601760248201527f5573657220616c72656164792072656769737465726564000000000000000000604482015260640161024e565b6002846040516102f69190611777565b9081526040519081900360200190205460ff16156103565760405162461bcd60e51b815260206004820181905260248201527f416164686172206e756d62657220616c72656164792072656769737465726564604482015260640161024e565b6000604051806101a00160405280336001600160a01b031681526020018981526020018881526020018781526020018681526020018581526020018481526020018381526020016003808111156103af576103af611555565b81526000602080830182905242604080850191909152606084018390526080909301829052338252600180825292909120835181546001600160a01b0319166001600160a01b039091161781559083015192935083929091820190610414908261181c565b5060408201516002820190610429908261181c565b506060820151600382019061043e908261181c565b5060808201516004820190610453908261181c565b5060a08201516005820190610468908261181c565b5060c0820151600682019061047d908261181c565b5060e08201516007820190610492908261181c565b5061010082015160088201805460ff191660018360038111156104b7576104b7611555565b02179055506101208201516008820180549115156101000261ff00199092169190911790556101408201516009820155610160820151600a82015561018090910151600b909101553360009081526020819052604090819020805460ff19166001908117909155905160029061052e908890611777565b908152604051908190036020018120805492151560ff1990931692909217909155429033907feea238307e4577ec1b8645d63505c2d57767cfc074bb5ab579a615525f07a25790610581906003906118dc565b60405180910390a35050505050505050565b60023360009081526001602052604090206008015460ff1660038111156105bc576105bc611555565b1480156105e0575033600090815260016020526040902060080154610100900460ff165b61062c5760405162461bcd60e51b815260206004820152601c60248201527f4f6e6c7920766572696669656420526567696f6e616c2041646d696e00000000604482015260640161024e565b6001600160a01b03811660009081526020819052604090205460ff166106645760405162461bcd60e51b815260040161024e90611723565b60036001600160a01b03821660009081526001602052604090206008015460ff16600381111561069657610696611555565b146106e35760405162461bcd60e51b815260206004820152601a60248201527f4e6f7420612067656e6572616c2075736572206163636f756e74000000000000604482015260640161024e565b6001600160a01b038116600081815260016020526040808220600801805461ff001916610100179055517ffbb0a472171a6eb950c8a87421215268a1b2df816da0a48e920e72ade27cfcf79190a2806001600160a01b03167f3e60282061aa9f0ac8f17cb522ab49946225e94f8597d84e6504593ee06a81e0600360405161076b91906118dc565b60405180910390a250565b6005546001600160a01b031633146107e85760405162461bcd60e51b815260206004820152602f60248201527f4f6e6c79204d61696e2041646d696e6973747261746f722063616e207065726660448201526e37b936903a3434b99030b1ba34b7b760891b606482015260840161024e565b6001600160a01b03811660009081526020819052604090205460ff166108205760405162461bcd60e51b815260040161024e90611723565b6001600160a01b0381166000908152600160208181526040808420600801805461ffff191661010217905560039091528220805460ff19169091179055600480549161086b83611750565b90915550506040516001600160a01b038216907f0110fdaeadd542c332cd26892cb7d915de6e76321aaabf60db70177f7a9e392090600090a2806001600160a01b03167f3e60282061aa9f0ac8f17cb522ab49946225e94f8597d84e6504593ee06a81e0600260405161076b91906118dc565b6001602081905260009182526040909120805491810180546001600160a01b039093169261090b90611793565b80601f016020809104026020016040519081016040528092919081815260200182805461093790611793565b80156109845780601f1061095957610100808354040283529160200191610984565b820191906000526020600020905b81548152906001019060200180831161096757829003601f168201915b50505050509080600201805461099990611793565b80601f01602080910402602001604051908101604052809291908181526020018280546109c590611793565b8015610a125780601f106109e757610100808354040283529160200191610a12565b820191906000526020600020905b8154815290600101906020018083116109f557829003601f168201915b505050505090806003018054610a2790611793565b80601f0160208091040260200160405190810160405280929190818152602001828054610a5390611793565b8015610aa05780601f10610a7557610100808354040283529160200191610aa0565b820191906000526020600020905b815481529060010190602001808311610a8357829003601f168201915b505050505090806004018054610ab590611793565b80601f0160208091040260200160405190810160405280929190818152602001828054610ae190611793565b8015610b2e5780601f10610b0357610100808354040283529160200191610b2e565b820191906000526020600020905b815481529060010190602001808311610b1157829003601f168201915b505050505090806005018054610b4390611793565b80601f0160208091040260200160405190810160405280929190818152602001828054610b6f90611793565b8015610bbc5780601f10610b9157610100808354040283529160200191610bbc565b820191906000526020600020905b815481529060010190602001808311610b9f57829003601f168201915b505050505090806006018054610bd190611793565b80601f0160208091040260200160405190810160405280929190818152602001828054610bfd90611793565b8015610c4a5780601f10610c1f57610100808354040283529160200191610c4a565b820191906000526020600020905b815481529060010190602001808311610c2d57829003601f168201915b505050505090806007018054610c5f90611793565b80601f0160208091040260200160405190810160405280929190818152602001828054610c8b90611793565b8015610cd85780601f10610cad57610100808354040283529160200191610cd8565b820191906000526020600020905b815481529060010190602001808311610cbb57829003601f168201915b5050505060088301546009840154600a850154600b90950154939460ff8084169561010090940416935090918d565b6001600160a01b03811660009081526020819052604090205460ff16610d3f5760405162461bcd60e51b815260040161024e90611723565b6001600160a01b0381166000908152600160205260408120600b0180549161027e83611750565b6001600160a01b03818116600090815260016020526040812054606092839283928392839283928392839291829116610dd75760405162461bcd60e51b8152602060048201526013602482015272155cd95c88191bd95cc81b9bdd08195e1a5cdd606a1b604482015260640161024e565b6001600160a01b038b16600090815260016020819052604090912090606090600883015460ff166003811115610e0f57610e0f611555565b03610e43575060408051808201909152601281527126b0b4b71020b236b4b734b9ba3930ba37b960711b6020820152610eec565b6002600883015460ff166003811115610e5e57610e5e611555565b03610e8e575060408051808201909152600e81526d2932b3b4b7b730b61020b236b4b760911b6020820152610eec565b6003600883015460ff166003811115610ea957610ea9611555565b03610ecf57506040805180820190915260048152632ab9b2b960e11b6020820152610eec565b506040805180820190915260048152634e6f6e6560e01b60208201525b81600101826002018360030184600401856005018660060187600701878960080160019054906101000a900460ff168a60090154898054610f2c90611793565b80601f0160208091040260200160405190810160405280929190818152602001828054610f5890611793565b8015610fa55780601f10610f7a57610100808354040283529160200191610fa5565b820191906000526020600020905b815481529060010190602001808311610f8857829003601f168201915b50505050509950888054610fb890611793565b80601f0160208091040260200160405190810160405280929190818152602001828054610fe490611793565b80156110315780601f1061100657610100808354040283529160200191611031565b820191906000526020600020905b81548152906001019060200180831161101457829003601f168201915b5050505050985087805461104490611793565b80601f016020809104026020016040519081016040528092919081815260200182805461107090611793565b80156110bd5780601f10611092576101008083540402835291602001916110bd565b820191906000526020600020905b8154815290600101906020018083116110a057829003601f168201915b505050505097508680546110d090611793565b80601f01602080910402602001604051908101604052809291908181526020018280546110fc90611793565b80156111495780601f1061111e57610100808354040283529160200191611149565b820191906000526020600020905b81548152906001019060200180831161112c57829003601f168201915b5050505050965085805461115c90611793565b80601f016020809104026020016040519081016040528092919081815260200182805461118890611793565b80156111d55780601f106111aa576101008083540402835291602001916111d5565b820191906000526020600020905b8154815290600101906020018083116111b857829003601f168201915b505050505095508480546111e890611793565b80601f016020809104026020016040519081016040528092919081815260200182805461121490611793565b80156112615780601f1061123657610100808354040283529160200191611261565b820191906000526020600020905b81548152906001019060200180831161124457829003601f168201915b5050505050945083805461127490611793565b80601f01602080910402602001604051908101604052809291908181526020018280546112a090611793565b80156112ed5780601f106112c2576101008083540402835291602001916112ed565b820191906000526020600020905b8154815290600101906020018083116112d057829003601f168201915b505050505093509b509b509b509b509b509b509b509b509b509b5050509193959799509193959799565b60006020828403121561132957600080fd5b81356001600160a01b038116811461134057600080fd5b9392505050565b634e487b7160e01b600052604160045260246000fd5b600082601f83011261136e57600080fd5b813567ffffffffffffffff8082111561138957611389611347565b604051601f8301601f19908116603f011681019082821181831017156113b1576113b1611347565b816040528381528660208588010111156113ca57600080fd5b836020870160208301376000602085830101528094505050505092915050565b600080600080600080600060e0888a03121561140557600080fd5b873567ffffffffffffffff8082111561141d57600080fd5b6114298b838c0161135d565b985060208a013591508082111561143f57600080fd5b61144b8b838c0161135d565b975060408a013591508082111561146157600080fd5b61146d8b838c0161135d565b965060608a013591508082111561148357600080fd5b61148f8b838c0161135d565b955060808a01359150808211156114a557600080fd5b6114b18b838c0161135d565b945060a08a01359150808211156114c757600080fd5b6114d38b838c0161135d565b935060c08a01359150808211156114e957600080fd5b506114f68a828b0161135d565b91505092959891949750929550565b60005b83811015611520578181015183820152602001611508565b50506000910152565b60008151808452611541816020860160208601611505565b601f01601f19169290920160200192915050565b634e487b7160e01b600052602160045260246000fd5b6004811061158957634e487b7160e01b600052602160045260246000fd5b9052565b6001600160a01b038e1681526101a0602082015260006115b16101a083018f611529565b82810360408401526115c3818f611529565b905082810360608401526115d7818e611529565b905082810360808401526115eb818d611529565b905082810360a08401526115ff818c611529565b905082810360c0840152611613818b611529565b905082810360e0840152611627818a611529565b91505061163861010083018861156b565b941515610120820152610140810193909352610160830191909152610180909101529998505050505050505050565b600061014080835261167b8184018e611529565b9050828103602084015261168f818d611529565b905082810360408401526116a3818c611529565b905082810360608401526116b7818b611529565b905082810360808401526116cb818a611529565b905082810360a08401526116df8189611529565b905082810360c08401526116f38188611529565b905082810360e08401526117078187611529565b9415156101008401525050610120015298975050505050505050565b602080825260139082015272155cd95c881b9bdd081c9959da5cdd195c9959606a1b604082015260600190565b60006001820161177057634e487b7160e01b600052601160045260246000fd5b5060010190565b60008251611789818460208701611505565b9190910192915050565b600181811c908216806117a757607f821691505b6020821081036117c757634e487b7160e01b600052602260045260246000fd5b50919050565b601f82111561181757600081815260208120601f850160051c810160208610156117f45750805b601f850160051c820191505b8181101561181357828155600101611800565b5050505b505050565b815167ffffffffffffffff81111561183657611836611347565b61184a816118448454611793565b846117cd565b602080601f83116001811461187f57600084156118675750858301515b600019600386901b1c1916600185901b178555611813565b600085815260208120601f198616915b828110156118ae5788860151825594840194600190910190840161188f565b50858210156118cc5787850151600019600388901b60f8161c191681555b5050505050600190811b01905550565b602081016118ea828461156b565b9291505056fea2646970667358221220b2cc02b2759e2d3dea2e8c703d6354d1baa66db429de95711fb7d92edeccf42464736f6c63430008150033",
  "immutableReferences": {},
  "source": "// SPDX-License-Identifier: Unlicensed\r\npragma solidity ^0.8.21;\r\n\r\ncontract UserRegistry {\r\n\r\n    enum Role { None, MainAdministrator, RegionalAdmin, User }\r\n\r\n    struct User {\r\n        address userID;\r\n        string firstName;\r\n        string lastName;\r\n        string dateOfBirth;\r\n        string aadharNumber;\r\n        string resAddress;\r\n        string email;\r\n        string aadharFileHash; // IPFS hash of Aadhar PDF\r\n        Role role;\r\n        bool verified; // true only after admin verification\r\n        uint256 accountCreatedDateTime;\r\n        uint totalIndices; //Number of properties owned by the user\r\n        uint requestIndices; //Number of purchase requests made by the user\r\n    }\r\n\r\n    mapping(address => bool) public registeredUsers;\r\n    mapping(address => User) public users;\r\n    mapping(string => bool) private aadharNumbers;\r\n    mapping(address => bool) public regionalAdmins;\r\n\r\n    uint private countRegionalAdmins;\r\n\r\n    address public mainAdministrator;\r\n\r\n    event UserRegistered(address indexed userID, Role role, uint256 indexed accountCreatedDateTime);\r\n    event UserVerified(address indexed userID, Role role); //for User\r\n    event RegionalAdminAdded(address indexed userID);\r\n    event UserApproved(address indexed userID); //for Regional Admin\r\n\r\n    modifier onlyMainAdministrator() {\r\n        require(msg.sender == mainAdministrator, \"Only Main Administrator can perform this action\");\r\n        _;\r\n    }\r\n\r\n    modifier onlyRegionalAdmin() {\r\n        require(users[msg.sender].role == Role.RegionalAdmin && users[msg.sender].verified, \"Only verified Regional Admin\");\r\n        _;\r\n    }\r\n\r\n    // First wallet becomes system deployer\r\n    constructor() {\r\n        mainAdministrator = msg.sender;\r\n        users[msg.sender] = User({\r\n            userID: msg.sender,\r\n            firstName: \"Main\",\r\n            lastName: \"Administrator\",\r\n            dateOfBirth: \"\",\r\n            aadharNumber: \"N/A\",\r\n            resAddress: \"N/A\",\r\n            email: \"\",\r\n            aadharFileHash: \"\",\r\n            role: Role.MainAdministrator,\r\n            verified: true,\r\n            accountCreatedDateTime: block.timestamp,\r\n            totalIndices: 0,  \r\n            requestIndices: 0 \r\n        });\r\n        registeredUsers[msg.sender] = true;\r\n        emit UserRegistered(msg.sender, Role.MainAdministrator, block.timestamp);\r\n    }\r\n\r\n    // Register New User\r\n    function registerUser(\r\n        string memory _firstName,\r\n        string memory _lastName,\r\n        string memory _dateOfBirth,\r\n        string memory _aadharNumber,\r\n        string memory _resAddress,\r\n        string memory _email,\r\n        string memory _aadharFileHash\r\n    ) public {\r\n        require(!registeredUsers[msg.sender], \"User already registered\");\r\n        require(!aadharNumbers[_aadharNumber], \"Aadhar number already registered\");\r\n\r\n        User memory newUser = User({\r\n            userID: msg.sender,\r\n            firstName: _firstName,\r\n            lastName: _lastName,\r\n            dateOfBirth: _dateOfBirth,\r\n            aadharNumber: _aadharNumber,\r\n            resAddress: _resAddress,\r\n            email: _email,\r\n            aadharFileHash: _aadharFileHash,\r\n            role: Role.User, // Default role\r\n            verified: false,\r\n            accountCreatedDateTime: block.timestamp,\r\n            totalIndices: 0,  \r\n            requestIndices: 0 \r\n        });\r\n\r\n        users[msg.sender] = newUser;\r\n        registeredUsers[msg.sender] = true;\r\n        aadharNumbers[_aadharNumber] = true;\r\n\r\n        emit UserRegistered(msg.sender, Role.User, block.timestamp);\r\n    }\r\n\r\n    // Main Admin adds Regional Admin\r\n    function addRegionalAdmin(address _adminAddress) external onlyMainAdministrator {\r\n        require(registeredUsers[_adminAddress], \"User not registered\");\r\n        \r\n        users[_adminAddress].role = Role.RegionalAdmin;\r\n        users[_adminAddress].verified = true;\r\n\r\n        regionalAdmins[_adminAddress] = true;\r\n        countRegionalAdmins++;\r\n\r\n        emit RegionalAdminAdded(_adminAddress);\r\n        emit UserVerified(_adminAddress, Role.RegionalAdmin);\r\n    }\r\n\r\n    // Regional Admin verifies Users\r\n    function verifyUser(address _userAddress) external onlyRegionalAdmin {\r\n        require(registeredUsers[_userAddress], \"User not registered\");\r\n        require(users[_userAddress].role == Role.User, \"Not a general user account\");\r\n        \r\n        users[_userAddress].verified = true;\r\n\r\n        emit UserApproved(_userAddress);\r\n        emit UserVerified(_userAddress, Role.User);\r\n    }\r\n\r\n    // Get User Details\r\n    function getUserDetails(address _userId) public view returns (\r\n        string memory firstName,\r\n        string memory lastName,\r\n        string memory dateOfBirth,\r\n        string memory aadharNumber,\r\n        string memory resAddress,\r\n        string memory email,\r\n        string memory aadharFileHash,\r\n        string memory role,\r\n        bool verified,\r\n        uint256 accountCreated\r\n    ) {\r\n        require(users[_userId].userID != address(0), \"User does not exist\");\r\n\r\n        User storage user = users[_userId];\r\n\r\n        string memory roleString;\r\n        if (user.role == Role.MainAdministrator) roleString = \"Main Administrator\";\r\n        else if (user.role == Role.RegionalAdmin) roleString = \"Regional Admin\";\r\n        else if (user.role == Role.User) roleString = \"User\";\r\n        else roleString = \"None\";\r\n\r\n        return (\r\n            user.firstName,\r\n            user.lastName,\r\n            user.dateOfBirth,\r\n            user.aadharNumber,\r\n            user.resAddress,\r\n            user.email,\r\n            user.aadharFileHash,\r\n            roleString,\r\n            user.verified,\r\n            user.accountCreatedDateTime\r\n        );\r\n    }\r\n\r\n    // THIS Should be in property contratct\r\n    function incrementTotalProperties(address _user) external {\r\n        require(registeredUsers[_user], \"User not registered\");\r\n        users[_user].totalIndices++;\r\n    }\r\n\r\n    function incrementRequests(address _user) external {\r\n        require(registeredUsers[_user], \"User not registered\");\r\n        users[_user].requestIndices++;\r\n    }\r\n\r\n    function isRegionalAdmin(address _user) public view returns (bool) {\r\n        return regionalAdmins[_user];\r\n    }\r\n}\r\n",
  "sourcePath": "C:\\Users\\Shalini Patel\\Desktop\\College\\Capstone Project\\property-ledger\\contracts\\UserRegistry.sol",
  "compiler": {
    "name": "solc",
    "version": "0.8.21+commit.d9974bed.Emscripten.clang"
  },
  "schemaVersion": "3.4.16",
  "updatedAt": "2025-10-10T05:08:59.989Z",
  "networkType": "ethereum",
  "devdoc": {
    "kind": "dev",
    "methods": {},
    "version": 1
  },
  "userdoc": {
    "kind": "user",
    "methods": {},
    "version": 1
  }
}