{
  "contractName": "UserRegistry",
  "abi": [
    {
      "inputs": [
        {
          "components": [
            {
              "internalType": "string",
              "name": "firstName",
              "type": "string"
            },
            {
              "internalType": "string",
              "name": "lastName",
              "type": "string"
            },
            {
              "internalType": "string",
              "name": "dateOfBirth",
              "type": "string"
            },
            {
              "internalType": "string",
              "name": "aadharNumber",
              "type": "string"
            },
            {
              "internalType": "string",
              "name": "resAddress",
              "type": "string"
            },
            {
              "internalType": "string",
              "name": "email",
              "type": "string"
            },
            {
              "internalType": "string",
              "name": "aadharFileHash",
              "type": "string"
            }
          ],
          "internalType": "struct UserRegistry.UserProfile",
          "name": "mainAdminProfile",
          "type": "tuple"
        },
        {
          "internalType": "address",
          "name": "initialRegionalAdminAddress",
          "type": "address"
        },
        {
          "components": [
            {
              "internalType": "string",
              "name": "firstName",
              "type": "string"
            },
            {
              "internalType": "string",
              "name": "lastName",
              "type": "string"
            },
            {
              "internalType": "string",
              "name": "dateOfBirth",
              "type": "string"
            },
            {
              "internalType": "string",
              "name": "aadharNumber",
              "type": "string"
            },
            {
              "internalType": "string",
              "name": "resAddress",
              "type": "string"
            },
            {
              "internalType": "string",
              "name": "email",
              "type": "string"
            },
            {
              "internalType": "string",
              "name": "aadharFileHash",
              "type": "string"
            }
          ],
          "internalType": "struct UserRegistry.UserProfile",
          "name": "initialRegionalAdminProfile",
          "type": "tuple"
        }
      ],
      "stateMutability": "nonpayable",
      "type": "constructor"
    },
    {
      "anonymous": false,
      "inputs": [
        {
          "indexed": true,
          "internalType": "address",
          "name": "userID",
          "type": "address"
        }
      ],
      "name": "RegionalAdminAdded",
      "type": "event"
    },
    {
      "anonymous": false,
      "inputs": [
        {
          "indexed": true,
          "internalType": "address",
          "name": "userID",
          "type": "address"
        }
      ],
      "name": "UserApproved",
      "type": "event"
    },
    {
      "anonymous": false,
      "inputs": [
        {
          "indexed": true,
          "internalType": "address",
          "name": "userID",
          "type": "address"
        },
        {
          "indexed": false,
          "internalType": "enum UserRegistry.Role",
          "name": "role",
          "type": "uint8"
        },
        {
          "indexed": true,
          "internalType": "uint256",
          "name": "accountCreatedDateTime",
          "type": "uint256"
        }
      ],
      "name": "UserRegistered",
      "type": "event"
    },
    {
      "anonymous": false,
      "inputs": [
        {
          "indexed": true,
          "internalType": "address",
          "name": "userID",
          "type": "address"
        },
        {
          "indexed": false,
          "internalType": "enum UserRegistry.Role",
          "name": "role",
          "type": "uint8"
        }
      ],
      "name": "UserVerified",
      "type": "event"
    },
    {
      "inputs": [],
      "name": "mainAdministrator",
      "outputs": [
        {
          "internalType": "address",
          "name": "",
          "type": "address"
        }
      ],
      "stateMutability": "view",
      "type": "function",
      "constant": true
    },
    {
      "inputs": [
        {
          "internalType": "address",
          "name": "",
          "type": "address"
        }
      ],
      "name": "regionalAdmins",
      "outputs": [
        {
          "internalType": "bool",
          "name": "",
          "type": "bool"
        }
      ],
      "stateMutability": "view",
      "type": "function",
      "constant": true
    },
    {
      "inputs": [
        {
          "internalType": "address",
          "name": "",
          "type": "address"
        }
      ],
      "name": "registeredUsers",
      "outputs": [
        {
          "internalType": "bool",
          "name": "",
          "type": "bool"
        }
      ],
      "stateMutability": "view",
      "type": "function",
      "constant": true
    },
    {
      "inputs": [
        {
          "internalType": "address",
          "name": "",
          "type": "address"
        }
      ],
      "name": "users",
      "outputs": [
        {
          "internalType": "address",
          "name": "userID",
          "type": "address"
        },
        {
          "internalType": "string",
          "name": "firstName",
          "type": "string"
        },
        {
          "internalType": "string",
          "name": "lastName",
          "type": "string"
        },
        {
          "internalType": "string",
          "name": "dateOfBirth",
          "type": "string"
        },
        {
          "internalType": "string",
          "name": "aadharNumber",
          "type": "string"
        },
        {
          "internalType": "string",
          "name": "resAddress",
          "type": "string"
        },
        {
          "internalType": "string",
          "name": "email",
          "type": "string"
        },
        {
          "internalType": "string",
          "name": "aadharFileHash",
          "type": "string"
        },
        {
          "internalType": "enum UserRegistry.Role",
          "name": "role",
          "type": "uint8"
        },
        {
          "internalType": "bool",
          "name": "verified",
          "type": "bool"
        },
        {
          "internalType": "uint256",
          "name": "accountCreatedDateTime",
          "type": "uint256"
        },
        {
          "internalType": "uint256",
          "name": "totalIndices",
          "type": "uint256"
        },
        {
          "internalType": "uint256",
          "name": "requestIndices",
          "type": "uint256"
        }
      ],
      "stateMutability": "view",
      "type": "function",
      "constant": true
    },
    {
      "inputs": [
        {
          "internalType": "string",
          "name": "_firstName",
          "type": "string"
        },
        {
          "internalType": "string",
          "name": "_lastName",
          "type": "string"
        },
        {
          "internalType": "string",
          "name": "_dateOfBirth",
          "type": "string"
        },
        {
          "internalType": "string",
          "name": "_aadharNumber",
          "type": "string"
        },
        {
          "internalType": "string",
          "name": "_resAddress",
          "type": "string"
        },
        {
          "internalType": "string",
          "name": "_email",
          "type": "string"
        },
        {
          "internalType": "string",
          "name": "_aadharFileHash",
          "type": "string"
        }
      ],
      "name": "updateMainAdminProfile",
      "outputs": [],
      "stateMutability": "nonpayable",
      "type": "function"
    },
    {
      "inputs": [
        {
          "internalType": "string",
          "name": "_firstName",
          "type": "string"
        },
        {
          "internalType": "string",
          "name": "_lastName",
          "type": "string"
        },
        {
          "internalType": "string",
          "name": "_dateOfBirth",
          "type": "string"
        },
        {
          "internalType": "string",
          "name": "_aadharNumber",
          "type": "string"
        },
        {
          "internalType": "string",
          "name": "_resAddress",
          "type": "string"
        },
        {
          "internalType": "string",
          "name": "_email",
          "type": "string"
        },
        {
          "internalType": "string",
          "name": "_aadharFileHash",
          "type": "string"
        }
      ],
      "name": "registerUser",
      "outputs": [],
      "stateMutability": "nonpayable",
      "type": "function"
    },
    {
      "inputs": [
        {
          "internalType": "address",
          "name": "_adminAddress",
          "type": "address"
        }
      ],
      "name": "addRegionalAdmin",
      "outputs": [],
      "stateMutability": "nonpayable",
      "type": "function"
    },
    {
      "inputs": [
        {
          "internalType": "address",
          "name": "_userAddress",
          "type": "address"
        }
      ],
      "name": "verifyUser",
      "outputs": [],
      "stateMutability": "nonpayable",
      "type": "function"
    },
    {
      "inputs": [
        {
          "internalType": "address",
          "name": "_userId",
          "type": "address"
        }
      ],
      "name": "getUserDetails",
      "outputs": [
        {
          "internalType": "string",
          "name": "firstName",
          "type": "string"
        },
        {
          "internalType": "string",
          "name": "lastName",
          "type": "string"
        },
        {
          "internalType": "string",
          "name": "dateOfBirth",
          "type": "string"
        },
        {
          "internalType": "string",
          "name": "aadharNumber",
          "type": "string"
        },
        {
          "internalType": "string",
          "name": "resAddress",
          "type": "string"
        },
        {
          "internalType": "string",
          "name": "email",
          "type": "string"
        },
        {
          "internalType": "string",
          "name": "aadharFileHash",
          "type": "string"
        },
        {
          "internalType": "string",
          "name": "role",
          "type": "string"
        },
        {
          "internalType": "bool",
          "name": "verified",
          "type": "bool"
        },
        {
          "internalType": "uint256",
          "name": "accountCreated",
          "type": "uint256"
        }
      ],
      "stateMutability": "view",
      "type": "function",
      "constant": true
    },
    {
      "inputs": [
        {
          "internalType": "address",
          "name": "_user",
          "type": "address"
        }
      ],
      "name": "incrementTotalProperties",
      "outputs": [],
      "stateMutability": "nonpayable",
      "type": "function"
    },
    {
      "inputs": [
        {
          "internalType": "address",
          "name": "_user",
          "type": "address"
        }
      ],
      "name": "incrementRequests",
      "outputs": [],
      "stateMutability": "nonpayable",
      "type": "function"
    },
    {
      "inputs": [
        {
          "internalType": "address",
          "name": "_user",
          "type": "address"
        }
      ],
      "name": "isRegionalAdmin",
      "outputs": [
        {
          "internalType": "bool",
          "name": "",
          "type": "bool"
        }
      ],
      "stateMutability": "view",
      "type": "function",
      "constant": true
    },
    {
      "inputs": [],
      "name": "getAllRegionalAdmins",
      "outputs": [
        {
          "internalType": "address[]",
          "name": "",
          "type": "address[]"
        }
      ],
      "stateMutability": "view",
      "type": "function",
      "constant": true
    },
    {
      "inputs": [],
      "name": "getPendingUserVerifications",
      "outputs": [
        {
          "internalType": "address[]",
          "name": "",
          "type": "address[]"
        }
      ],
      "stateMutability": "view",
      "type": "function",
      "constant": true
    }
  ],
  "bytecode": "0x60806040523480156200001157600080fd5b506040516200286e3803806200286e83398101604081905262000034916200075c565b60058054336001600160a01b03199182168117909255604080516101a0810182528381528651602080830191825280890151838501528884015160608085019190915289015160808085019190915289015160a08085019190915289015160c08085019190915289015160e0840152600161010084018190526101208401819052426101408501526000610160850181905261018085018190529687529081905292909420815181546001600160a01b0390911694169390931783559251908201906200010290826200088c565b50604082015160028201906200011990826200088c565b50606082015160038201906200013090826200088c565b50608082015160048201906200014790826200088c565b5060a082015160058201906200015e90826200088c565b5060c082015160068201906200017590826200088c565b5060e082015160078201906200018c90826200088c565b5061010082015160088201805460ff19166001836003811115620001b457620001b4620007e7565b02179055506101208201516008820180549115156101000261ff00199092169190911790556101408201516009820155610160820151600a82015561018090910151600b909101553360008181526020819052604090819020805460ff1916600190811790915590514292916000805160206200284e833981519152916200023d919062000958565b60405180910390a3604051806101a00160405280836001600160a01b0316815260200182600001518152602001826020015181526020018260400151815260200182606001518152602001826080015181526020018260a0015181526020018260c00151815260200160026003811115620002bc57620002bc620007e7565b8152600160208083018290524260408085019190915260006060850181905260809094018490526001600160a01b0387811685528383529320845181546001600160a01b0319169416939093178355830151908201906200031e90826200088c565b50604082015160028201906200033590826200088c565b50606082015160038201906200034c90826200088c565b50608082015160048201906200036390826200088c565b5060a082015160058201906200037a90826200088c565b5060c082015160068201906200039190826200088c565b5060e08201516007820190620003a890826200088c565b5061010082015160088201805460ff19166001836003811115620003d057620003d0620007e7565b02179055506101208201516008820180549115156101000261ff00199092169190911790556101408201516009820155610160820151600a82015561018090910151600b909101556001600160a01b038216600090815260208181526040808320805460ff199081166001908117909255600390935290832080549092161790556004805491620004618362000981565b919050555042826001600160a01b03166000805160206200284e833981519152600260405162000492919062000958565b60405180910390a36040516001600160a01b038316907f0110fdaeadd542c332cd26892cb7d915de6e76321aaabf60db70177f7a9e392090600090a2816001600160a01b03167f3e60282061aa9f0ac8f17cb522ab49946225e94f8597d84e6504593ee06a81e060026040516200050a919062000958565b60405180910390a2505050620009a9565b634e487b7160e01b600052604160045260246000fd5b60405160e081016001600160401b03811182821017156200055657620005566200051b565b60405290565b604051601f8201601f191681016001600160401b03811182821017156200058757620005876200051b565b604052919050565b600082601f830112620005a157600080fd5b81516001600160401b03811115620005bd57620005bd6200051b565b6020620005d3601f8301601f191682016200055c565b8281528582848701011115620005e857600080fd5b60005b8381101562000608578581018301518282018401528201620005eb565b506000928101909101919091529392505050565b600060e082840312156200062f57600080fd5b6200063962000531565b82519091506001600160401b03808211156200065457600080fd5b62000662858386016200058f565b835260208401519150808211156200067957600080fd5b62000687858386016200058f565b60208401526040840151915080821115620006a157600080fd5b620006af858386016200058f565b60408401526060840151915080821115620006c957600080fd5b620006d7858386016200058f565b60608401526080840151915080821115620006f157600080fd5b620006ff858386016200058f565b608084015260a08401519150808211156200071957600080fd5b62000727858386016200058f565b60a084015260c08401519150808211156200074157600080fd5b5062000750848285016200058f565b60c08301525092915050565b6000806000606084860312156200077257600080fd5b83516001600160401b03808211156200078a57600080fd5b62000798878388016200061c565b602087015190955091506001600160a01b0382168214620007b857600080fd5b604086015191935080821115620007ce57600080fd5b50620007dd868287016200061c565b9150509250925092565b634e487b7160e01b600052602160045260246000fd5b600181811c908216806200081257607f821691505b6020821081036200083357634e487b7160e01b600052602260045260246000fd5b50919050565b601f8211156200088757600081815260208120601f850160051c81016020861015620008625750805b601f850160051c820191505b8181101562000883578281556001016200086e565b5050505b505050565b81516001600160401b03811115620008a857620008a86200051b565b620008c081620008b98454620007fd565b8462000839565b602080601f831160018114620008f85760008415620008df5750858301515b600019600386901b1c1916600185901b17855562000883565b600085815260208120601f198616915b82811015620009295788860151825594840194600190910190840162000908565b5085821015620009485787850151600019600388901b60f8161c191681555b5050505050600190811b01905550565b60208101600483106200097b57634e487b7160e01b600052602160045260246000fd5b91905290565b600060018201620009a257634e487b7160e01b600052601160045260246000fd5b5060010190565b611e9580620009b96000396000f3fe608060405234801561001057600080fd5b50600436106100ea5760003560e01c8063633504311161008c578063b56fe50311610066578063b56fe50314610230578063c19c903714610243578063cc3d967b14610256578063d684d14a1461027f57600080fd5b806363350431146101ad578063a2fc2ce1146101d8578063a87430ba1461020457600080fd5b80634ae8af09116100c85780634ae8af091461015f5780634d813120146101725780635764767b1461018557806361e1b0b51461019a57600080fd5b80630e50cee5146100ef57806342ceaf1f14610127578063463ac5f71461013c575b600080fd5b6101126100fd3660046117d4565b60006020819052908152604090205460ff1681565b60405190151581526020015b60405180910390f35b61013a6101353660046117d4565b610287565b005b61011261014a3660046117d4565b60036020526000908152604090205460ff1681565b61013a61016d3660046118a7565b6102f7565b61013a6101803660046117d4565b610647565b61018d61082a565b60405161011e91906119c2565b61013a6101a83660046117d4565b610960565b6005546101c0906001600160a01b031681565b6040516001600160a01b03909116815260200161011e565b6101126101e63660046117d4565b6001600160a01b031660009081526003602052604090205460ff1690565b6102176102123660046117d4565b610a80565b60405161011e9d9c9b9a99989796959493929190611a97565b61013a61023e3660046118a7565b610ea9565b61013a6102513660046117d4565b610f62565b6102696102643660046117d4565b610fc1565b60405161011e9a99989796959493929190611b71565b61018d611572565b6001600160a01b03811660009081526020819052604090205460ff166102c85760405162461bcd60e51b81526004016102bf90611c2d565b60405180910390fd5b6001600160a01b0381166000908152600160205260408120600a018054916102ef83611c5a565b919050555050565b3360009081526020819052604090205460ff16156103575760405162461bcd60e51b815260206004820152601760248201527f5573657220616c7265616479207265676973746572656400000000000000000060448201526064016102bf565b6002846040516103679190611c81565b9081526040519081900360200190205460ff16156103c75760405162461bcd60e51b815260206004820181905260248201527f416164686172206e756d62657220616c7265616479207265676973746572656460448201526064016102bf565b6000604051806101a00160405280336001600160a01b0316815260200189815260200188815260200187815260200186815260200185815260200184815260200183815260200160038081111561042057610420611a5f565b81526000602080830182905242604080850191909152606084018390526080909301829052338252600180825292909120835181546001600160a01b0319166001600160a01b0390911617815590830151929350839290918201906104859082611d26565b506040820151600282019061049a9082611d26565b50606082015160038201906104af9082611d26565b50608082015160048201906104c49082611d26565b5060a082015160058201906104d99082611d26565b5060c082015160068201906104ee9082611d26565b5060e082015160078201906105039082611d26565b5061010082015160088201805460ff1916600183600381111561052857610528611a5f565b02179055506101208201516008820180549115156101000261ff00199092169190911790556101408201516009820155610160820151600a82015561018090910151600b909101553360009081526020819052604090819020805460ff19166001908117909155905160029061059f908890611c81565b908152604051908190036020018120805492151560ff1990931692909217909155600680546001810182556000919091527ff652222313e28459528d920b65115c16c04f3efc82aaedc97be59f3f377c0d3f0180546001600160a01b0319163390811790915542917feea238307e4577ec1b8645d63505c2d57767cfc074bb5ab579a615525f07a2579061063590600390611de6565b60405180910390a35050505050505050565b60023360009081526001602052604090206008015460ff16600381111561067057610670611a5f565b148015610694575033600090815260016020526040902060080154610100900460ff165b6106e05760405162461bcd60e51b815260206004820152601c60248201527f4f6e6c7920766572696669656420526567696f6e616c2041646d696e0000000060448201526064016102bf565b6001600160a01b03811660009081526020819052604090205460ff166107185760405162461bcd60e51b81526004016102bf90611c2d565b60036001600160a01b03821660009081526001602052604090206008015460ff16600381111561074a5761074a611a5f565b146107975760405162461bcd60e51b815260206004820152601a60248201527f4e6f7420612067656e6572616c2075736572206163636f756e7400000000000060448201526064016102bf565b6001600160a01b038116600081815260016020526040808220600801805461ff001916610100179055517ffbb0a472171a6eb950c8a87421215268a1b2df816da0a48e920e72ade27cfcf79190a2806001600160a01b03167f3e60282061aa9f0ac8f17cb522ab49946225e94f8597d84e6504593ee06a81e0600360405161081f9190611de6565b60405180910390a250565b6060600060045467ffffffffffffffff81111561084957610849611804565b604051908082528060200260200182016040528015610872578160200160208202803683370190505b5090506000805b600654811015610958576002600160006006848154811061089c5761089c611dfa565b60009182526020808320909101546001600160a01b0316835282019290925260400190206008015460ff1660038111156108d8576108d8611a5f565b0361094657600681815481106108f0576108f0611dfa565b9060005260206000200160009054906101000a90046001600160a01b031683838151811061092057610920611dfa565b6001600160a01b03909216602092830291909101909101528161094281611c5a565b9250505b8061095081611c5a565b915050610879565b509092915050565b6005546001600160a01b0316331461098a5760405162461bcd60e51b81526004016102bf90611e10565b6001600160a01b03811660009081526020819052604090205460ff166109c25760405162461bcd60e51b81526004016102bf90611c2d565b6001600160a01b0381166000908152600160208181526040808420600801805461ffff191661010217905560039091528220805460ff191690911790556004805491610a0d83611c5a565b90915550506040516001600160a01b038216907f0110fdaeadd542c332cd26892cb7d915de6e76321aaabf60db70177f7a9e392090600090a2806001600160a01b03167f3e60282061aa9f0ac8f17cb522ab49946225e94f8597d84e6504593ee06a81e0600260405161081f9190611de6565b6001602081905260009182526040909120805491810180546001600160a01b0390931692610aad90611c9d565b80601f0160208091040260200160405190810160405280929190818152602001828054610ad990611c9d565b8015610b265780601f10610afb57610100808354040283529160200191610b26565b820191906000526020600020905b815481529060010190602001808311610b0957829003601f168201915b505050505090806002018054610b3b90611c9d565b80601f0160208091040260200160405190810160405280929190818152602001828054610b6790611c9d565b8015610bb45780601f10610b8957610100808354040283529160200191610bb4565b820191906000526020600020905b815481529060010190602001808311610b9757829003601f168201915b505050505090806003018054610bc990611c9d565b80601f0160208091040260200160405190810160405280929190818152602001828054610bf590611c9d565b8015610c425780601f10610c1757610100808354040283529160200191610c42565b820191906000526020600020905b815481529060010190602001808311610c2557829003601f168201915b505050505090806004018054610c5790611c9d565b80601f0160208091040260200160405190810160405280929190818152602001828054610c8390611c9d565b8015610cd05780601f10610ca557610100808354040283529160200191610cd0565b820191906000526020600020905b815481529060010190602001808311610cb357829003601f168201915b505050505090806005018054610ce590611c9d565b80601f0160208091040260200160405190810160405280929190818152602001828054610d1190611c9d565b8015610d5e5780601f10610d3357610100808354040283529160200191610d5e565b820191906000526020600020905b815481529060010190602001808311610d4157829003601f168201915b505050505090806006018054610d7390611c9d565b80601f0160208091040260200160405190810160405280929190818152602001828054610d9f90611c9d565b8015610dec5780601f10610dc157610100808354040283529160200191610dec565b820191906000526020600020905b815481529060010190602001808311610dcf57829003601f168201915b505050505090806007018054610e0190611c9d565b80601f0160208091040260200160405190810160405280929190818152602001828054610e2d90611c9d565b8015610e7a5780601f10610e4f57610100808354040283529160200191610e7a565b820191906000526020600020905b815481529060010190602001808311610e5d57829003601f168201915b5050505060088301546009840154600a850154600b90950154939460ff8084169561010090940416935090918d565b6005546001600160a01b03163314610ed35760405162461bcd60e51b81526004016102bf90611e10565b6005546001600160a01b03166000908152600160208190526040909120908101610efd8982611d26565b5060028101610f0c8882611d26565b5060038101610f1b8782611d26565b5060048101610f2a8682611d26565b5060058101610f398582611d26565b5060068101610f488482611d26565b5060078101610f578382611d26565b505050505050505050565b6001600160a01b03811660009081526020819052604090205460ff16610f9a5760405162461bcd60e51b81526004016102bf90611c2d565b6001600160a01b0381166000908152600160205260408120600b018054916102ef83611c5a565b6001600160a01b038181166000908152600160205260408120546060928392839283928392839283928392918291166110325760405162461bcd60e51b8152602060048201526013602482015272155cd95c88191bd95cc81b9bdd08195e1a5cdd606a1b60448201526064016102bf565b6001600160a01b038b16600090815260016020819052604090912090606090600883015460ff16600381111561106a5761106a611a5f565b0361109e575060408051808201909152601281527126b0b4b71020b236b4b734b9ba3930ba37b960711b6020820152611147565b6002600883015460ff1660038111156110b9576110b9611a5f565b036110e9575060408051808201909152600e81526d2932b3b4b7b730b61020b236b4b760911b6020820152611147565b6003600883015460ff16600381111561110457611104611a5f565b0361112a57506040805180820190915260048152632ab9b2b960e11b6020820152611147565b506040805180820190915260048152634e6f6e6560e01b60208201525b81600101826002018360030184600401856005018660060187600701878960080160019054906101000a900460ff168a6009015489805461118790611c9d565b80601f01602080910402602001604051908101604052809291908181526020018280546111b390611c9d565b80156112005780601f106111d557610100808354040283529160200191611200565b820191906000526020600020905b8154815290600101906020018083116111e357829003601f168201915b5050505050995088805461121390611c9d565b80601f016020809104026020016040519081016040528092919081815260200182805461123f90611c9d565b801561128c5780601f106112615761010080835404028352916020019161128c565b820191906000526020600020905b81548152906001019060200180831161126f57829003601f168201915b5050505050985087805461129f90611c9d565b80601f01602080910402602001604051908101604052809291908181526020018280546112cb90611c9d565b80156113185780601f106112ed57610100808354040283529160200191611318565b820191906000526020600020905b8154815290600101906020018083116112fb57829003601f168201915b5050505050975086805461132b90611c9d565b80601f016020809104026020016040519081016040528092919081815260200182805461135790611c9d565b80156113a45780601f10611379576101008083540402835291602001916113a4565b820191906000526020600020905b81548152906001019060200180831161138757829003601f168201915b505050505096508580546113b790611c9d565b80601f01602080910402602001604051908101604052809291908181526020018280546113e390611c9d565b80156114305780601f1061140557610100808354040283529160200191611430565b820191906000526020600020905b81548152906001019060200180831161141357829003601f168201915b5050505050955084805461144390611c9d565b80601f016020809104026020016040519081016040528092919081815260200182805461146f90611c9d565b80156114bc5780601f10611491576101008083540402835291602001916114bc565b820191906000526020600020905b81548152906001019060200180831161149f57829003601f168201915b505050505094508380546114cf90611c9d565b80601f01602080910402602001604051908101604052809291908181526020018280546114fb90611c9d565b80156115485780601f1061151d57610100808354040283529160200191611548565b820191906000526020600020905b81548152906001019060200180831161152b57829003601f168201915b505050505093509b509b509b509b509b509b509b509b509b509b5050509193959799509193959799565b60606000805b60065481101561164e576003600160006006848154811061159b5761159b611dfa565b60009182526020808320909101546001600160a01b0316835282019290925260400190206008015460ff1660038111156115d7576115d7611a5f565b148015611629575060016000600683815481106115f6576115f6611dfa565b60009182526020808320909101546001600160a01b0316835282019290925260400190206008015460ff61010090910416155b1561163c578161163881611c5a565b9250505b8061164681611c5a565b915050611578565b5060008167ffffffffffffffff81111561166a5761166a611804565b604051908082528060200260200182016040528015611693578160200160208202803683370190505b5090506000805b6006548110156117cb57600360016000600684815481106116bd576116bd611dfa565b60009182526020808320909101546001600160a01b0316835282019290925260400190206008015460ff1660038111156116f9576116f9611a5f565b14801561174b5750600160006006838154811061171857611718611dfa565b60009182526020808320909101546001600160a01b0316835282019290925260400190206008015460ff61010090910416155b156117b9576006818154811061176357611763611dfa565b9060005260206000200160009054906101000a90046001600160a01b031683838151811061179357611793611dfa565b6001600160a01b0390921660209283029190910190910152816117b581611c5a565b9250505b806117c381611c5a565b91505061169a565b50909392505050565b6000602082840312156117e657600080fd5b81356001600160a01b03811681146117fd57600080fd5b9392505050565b634e487b7160e01b600052604160045260246000fd5b600082601f83011261182b57600080fd5b813567ffffffffffffffff8082111561184657611846611804565b604051601f8301601f19908116603f0116810190828211818310171561186e5761186e611804565b8160405283815286602085880101111561188757600080fd5b836020870160208301376000602085830101528094505050505092915050565b600080600080600080600060e0888a0312156118c257600080fd5b873567ffffffffffffffff808211156118da57600080fd5b6118e68b838c0161181a565b985060208a01359150808211156118fc57600080fd5b6119088b838c0161181a565b975060408a013591508082111561191e57600080fd5b61192a8b838c0161181a565b965060608a013591508082111561194057600080fd5b61194c8b838c0161181a565b955060808a013591508082111561196257600080fd5b61196e8b838c0161181a565b945060a08a013591508082111561198457600080fd5b6119908b838c0161181a565b935060c08a01359150808211156119a657600080fd5b506119b38a828b0161181a565b91505092959891949750929550565b6020808252825182820181905260009190848201906040850190845b81811015611a035783516001600160a01b0316835292840192918401916001016119de565b50909695505050505050565b60005b83811015611a2a578181015183820152602001611a12565b50506000910152565b60008151808452611a4b816020860160208601611a0f565b601f01601f19169290920160200192915050565b634e487b7160e01b600052602160045260246000fd5b60048110611a9357634e487b7160e01b600052602160045260246000fd5b9052565b6001600160a01b038e1681526101a060208201526000611abb6101a083018f611a33565b8281036040840152611acd818f611a33565b90508281036060840152611ae1818e611a33565b90508281036080840152611af5818d611a33565b905082810360a0840152611b09818c611a33565b905082810360c0840152611b1d818b611a33565b905082810360e0840152611b31818a611a33565b915050611b42610100830188611a75565b941515610120820152610140810193909352610160830191909152610180909101529998505050505050505050565b6000610140808352611b858184018e611a33565b90508281036020840152611b99818d611a33565b90508281036040840152611bad818c611a33565b90508281036060840152611bc1818b611a33565b90508281036080840152611bd5818a611a33565b905082810360a0840152611be98189611a33565b905082810360c0840152611bfd8188611a33565b905082810360e0840152611c118187611a33565b9415156101008401525050610120015298975050505050505050565b602080825260139082015272155cd95c881b9bdd081c9959da5cdd195c9959606a1b604082015260600190565b600060018201611c7a57634e487b7160e01b600052601160045260246000fd5b5060010190565b60008251611c93818460208701611a0f565b9190910192915050565b600181811c90821680611cb157607f821691505b602082108103611cd157634e487b7160e01b600052602260045260246000fd5b50919050565b601f821115611d2157600081815260208120601f850160051c81016020861015611cfe5750805b601f850160051c820191505b81811015611d1d57828155600101611d0a565b5050505b505050565b815167ffffffffffffffff811115611d4057611d40611804565b611d5481611d4e8454611c9d565b84611cd7565b602080601f831160018114611d895760008415611d715750858301515b600019600386901b1c1916600185901b178555611d1d565b600085815260208120601f198616915b82811015611db857888601518255948401946001909101908401611d99565b5085821015611dd65787850151600019600388901b60f8161c191681555b5050505050600190811b01905550565b60208101611df48284611a75565b92915050565b634e487b7160e01b600052603260045260246000fd5b6020808252602f908201527f4f6e6c79204d61696e2041646d696e6973747261746f722063616e207065726660408201526e37b936903a3434b99030b1ba34b7b760891b60608201526080019056fea26469706673582212204bc999846ac693568d4d2c749fb59f4999b7b07feaab661add2e2dd04e52893764736f6c63430008150033eea238307e4577ec1b8645d63505c2d57767cfc074bb5ab579a615525f07a257",
  "immutableReferences": {},
  "source": "// SPDX-License-Identifier: Unlicensed\r\npragma solidity ^0.8.21;\r\n\r\ncontract UserRegistry {\r\n\r\n    enum Role { None, MainAdministrator, RegionalAdmin, User }\r\n\r\n    struct User {\r\n        address userID;\r\n        string firstName;\r\n        string lastName;\r\n        string dateOfBirth;\r\n        string aadharNumber;\r\n        string resAddress;\r\n        string email;\r\n        string aadharFileHash; // IPFS hash of Aadhar PDF\r\n        Role role;\r\n        bool verified; // true only after admin verification\r\n        uint256 accountCreatedDateTime;\r\n        uint totalIndices; //Number of properties owned by the user\r\n        uint requestIndices; //Number of purchase requests made by the user\r\n    }\r\n\r\n    mapping(address => bool) public registeredUsers;\r\n    mapping(address => User) public users;\r\n    mapping(string => bool) private aadharNumbers;\r\n    mapping(address => bool) public regionalAdmins;\r\n\r\n    uint private countRegionalAdmins;\r\n\r\n    address public mainAdministrator;\r\n\r\n    address[] private allUsers;\r\n\r\n    event UserRegistered(address indexed userID, Role role, uint256 indexed accountCreatedDateTime);\r\n    event UserVerified(address indexed userID, Role role); //for User\r\n    event RegionalAdminAdded(address indexed userID);\r\n    event UserApproved(address indexed userID); //for Regional Admin\r\n\r\n    modifier onlyMainAdministrator() {\r\n        require(msg.sender == mainAdministrator, \"Only Main Administrator can perform this action\");\r\n        _;\r\n    }\r\n\r\n    modifier onlyRegionalAdmin() {\r\n        require(users[msg.sender].role == Role.RegionalAdmin && users[msg.sender].verified, \"Only verified Regional Admin\");\r\n        _;\r\n    }\r\n\r\n    // First wallet becomes system deployer\r\n    // constructor(\r\n    //     string memory _firstName,\r\n    //     string memory _lastName,\r\n    //     string memory _dateOfBirth,\r\n    //     string memory _aadharNumber,\r\n    //     string memory _resAddress,\r\n    //     string memory _email,\r\n    //     string memory _aadharFileHash\r\n    // ) {\r\n    //     mainAdministrator = msg.sender;\r\n    //     users[msg.sender] = User({\r\n    //         userID: msg.sender,\r\n    //         firstName: _firstName,\r\n    //         lastName: _lastName,\r\n    //         dateOfBirth: _dateOfBirth,\r\n    //         aadharNumber: _aadharNumber,\r\n    //         resAddress: _resAddress,\r\n    //         email: _email,\r\n    //         aadharFileHash: _aadharFileHash,\r\n    //         role: Role.MainAdministrator,\r\n    //         verified: true,\r\n    //         accountCreatedDateTime: block.timestamp,\r\n    //         totalIndices: 0,  \r\n    //         requestIndices: 0   \r\n    //     });\r\n    //     registeredUsers[msg.sender] = true;\r\n    //     emit UserRegistered(msg.sender, Role.MainAdministrator, block.timestamp);\r\n    // }\r\n\r\n    struct UserProfile {\r\n        string firstName;\r\n        string lastName;\r\n        string dateOfBirth;\r\n        string aadharNumber;\r\n        string resAddress;\r\n        string email;\r\n        string aadharFileHash;\r\n    }\r\n    \r\n    constructor(\r\n        UserProfile memory mainAdminProfile,\r\n        address initialRegionalAdminAddress,\r\n        UserProfile memory initialRegionalAdminProfile\r\n    ) {\r\n        mainAdministrator = msg.sender;\r\n\r\n        users[msg.sender] = User({\r\n            userID: msg.sender,\r\n            firstName: mainAdminProfile.firstName,\r\n            lastName: mainAdminProfile.lastName,\r\n            dateOfBirth: mainAdminProfile.dateOfBirth,\r\n            aadharNumber: mainAdminProfile.aadharNumber,\r\n            resAddress: mainAdminProfile.resAddress,\r\n            email: mainAdminProfile.email,\r\n            aadharFileHash: mainAdminProfile.aadharFileHash,\r\n            role: Role.MainAdministrator,\r\n            verified: true,\r\n            accountCreatedDateTime: block.timestamp,\r\n            totalIndices:0,\r\n            requestIndices:0\r\n        });\r\n\r\n        registeredUsers[msg.sender] = true;\r\n        emit UserRegistered(msg.sender, Role.MainAdministrator, block.timestamp);\r\n\r\n        users[initialRegionalAdminAddress] = User({\r\n            userID: initialRegionalAdminAddress,\r\n            firstName: initialRegionalAdminProfile.firstName,\r\n            lastName: initialRegionalAdminProfile.lastName,\r\n            dateOfBirth: initialRegionalAdminProfile.dateOfBirth,\r\n            aadharNumber: initialRegionalAdminProfile.aadharNumber,\r\n            resAddress: initialRegionalAdminProfile.resAddress,\r\n            email: initialRegionalAdminProfile.email,\r\n            aadharFileHash: initialRegionalAdminProfile.aadharFileHash,\r\n            role: Role.RegionalAdmin,\r\n            verified: true,\r\n            accountCreatedDateTime: block.timestamp,\r\n            totalIndices: 0,\r\n            requestIndices: 0\r\n        });\r\n\r\n        registeredUsers[initialRegionalAdminAddress] = true;\r\n        regionalAdmins[initialRegionalAdminAddress] = true;\r\n        countRegionalAdmins++;\r\n\r\n        emit UserRegistered(initialRegionalAdminAddress, Role.RegionalAdmin, block.timestamp);\r\n        emit RegionalAdminAdded(initialRegionalAdminAddress);\r\n        emit UserVerified(initialRegionalAdminAddress, Role.RegionalAdmin);\r\n    }\r\n\r\n\r\n    function updateMainAdminProfile(\r\n        string memory _firstName,\r\n        string memory _lastName,\r\n        string memory _dateOfBirth,\r\n        string memory _aadharNumber,\r\n        string memory _resAddress,\r\n        string memory _email,\r\n        string memory _aadharFileHash\r\n    ) public onlyMainAdministrator {\r\n        User storage admin = users[mainAdministrator];\r\n        admin.firstName = _firstName;\r\n        admin.lastName = _lastName;\r\n        admin.dateOfBirth = _dateOfBirth;\r\n        admin.aadharNumber = _aadharNumber;\r\n        admin.resAddress = _resAddress;\r\n        admin.email = _email;\r\n        admin.aadharFileHash = _aadharFileHash;\r\n        // Optionally emit an event here\r\n    }\r\n\r\n\r\n    // Register New User\r\n    function registerUser(\r\n        string memory _firstName,\r\n        string memory _lastName,\r\n        string memory _dateOfBirth,\r\n        string memory _aadharNumber,\r\n        string memory _resAddress,\r\n        string memory _email,\r\n        string memory _aadharFileHash\r\n    ) public {\r\n        require(!registeredUsers[msg.sender], \"User already registered\");\r\n        require(!aadharNumbers[_aadharNumber], \"Aadhar number already registered\");\r\n\r\n        User memory newUser = User({\r\n            userID: msg.sender,\r\n            firstName: _firstName,\r\n            lastName: _lastName,\r\n            dateOfBirth: _dateOfBirth,\r\n            aadharNumber: _aadharNumber,\r\n            resAddress: _resAddress,\r\n            email: _email,\r\n            aadharFileHash: _aadharFileHash,\r\n            role: Role.User, // Default role\r\n            verified: false,\r\n            accountCreatedDateTime: block.timestamp,\r\n            totalIndices: 0,  \r\n            requestIndices: 0 \r\n        });\r\n\r\n        users[msg.sender] = newUser;\r\n        registeredUsers[msg.sender] = true;\r\n        aadharNumbers[_aadharNumber] = true;\r\n\r\n        allUsers.push(msg.sender);\r\n\r\n        emit UserRegistered(msg.sender, Role.User, block.timestamp);\r\n    }\r\n\r\n    // Main Admin adds Regional Admin\r\n    function addRegionalAdmin(address _adminAddress) external onlyMainAdministrator {\r\n        require(registeredUsers[_adminAddress], \"User not registered\");\r\n        \r\n        users[_adminAddress].role = Role.RegionalAdmin;\r\n        users[_adminAddress].verified = true;\r\n\r\n        regionalAdmins[_adminAddress] = true;\r\n        countRegionalAdmins++;\r\n\r\n        emit RegionalAdminAdded(_adminAddress);\r\n        emit UserVerified(_adminAddress, Role.RegionalAdmin);\r\n    }\r\n\r\n    // Regional Admin verifies Users\r\n    function verifyUser(address _userAddress) external onlyRegionalAdmin {\r\n        require(registeredUsers[_userAddress], \"User not registered\");\r\n        require(users[_userAddress].role == Role.User, \"Not a general user account\");\r\n        \r\n        users[_userAddress].verified = true;\r\n\r\n        emit UserApproved(_userAddress);\r\n        emit UserVerified(_userAddress, Role.User);\r\n    }\r\n\r\n    // Get User Details\r\n    function getUserDetails(address _userId) public view returns (\r\n        string memory firstName,\r\n        string memory lastName,\r\n        string memory dateOfBirth,\r\n        string memory aadharNumber,\r\n        string memory resAddress,\r\n        string memory email,\r\n        string memory aadharFileHash,\r\n        string memory role,\r\n        bool verified,\r\n        uint256 accountCreated\r\n    ) {\r\n        require(users[_userId].userID != address(0), \"User does not exist\");\r\n\r\n        User storage user = users[_userId];\r\n\r\n        string memory roleString;\r\n        if (user.role == Role.MainAdministrator) roleString = \"Main Administrator\";\r\n        else if (user.role == Role.RegionalAdmin) roleString = \"Regional Admin\";\r\n        else if (user.role == Role.User) roleString = \"User\";\r\n        else roleString = \"None\";\r\n\r\n        return (\r\n            user.firstName,\r\n            user.lastName,\r\n            user.dateOfBirth,\r\n            user.aadharNumber,\r\n            user.resAddress,\r\n            user.email,\r\n            user.aadharFileHash,\r\n            roleString,\r\n            user.verified,\r\n            user.accountCreatedDateTime\r\n        );\r\n    }\r\n\r\n    // THIS Should be in property contratct\r\n    function incrementTotalProperties(address _user) external {\r\n        require(registeredUsers[_user], \"User not registered\");\r\n        users[_user].totalIndices++;\r\n    }\r\n\r\n    function incrementRequests(address _user) external {\r\n        require(registeredUsers[_user], \"User not registered\");\r\n        users[_user].requestIndices++;\r\n    }\r\n\r\n    function isRegionalAdmin(address _user) public view returns (bool) {\r\n        return regionalAdmins[_user];\r\n    }\r\n\r\n    function getAllRegionalAdmins() public view returns (address[] memory) {\r\n        address[] memory admins = new address[](countRegionalAdmins);\r\n        uint count = 0;\r\n        for (uint i = 0; i < allUsers.length; i++) {\r\n            if (users[allUsers[i]].role == Role.RegionalAdmin) {\r\n                admins[count] = allUsers[i];\r\n                count++;\r\n            }\r\n        }\r\n        return admins;\r\n    }\r\n\r\n    function getPendingUserVerifications() public view returns(address[] memory) {\r\n        uint count = 0;\r\n        for (uint i = 0; i < allUsers.length; i++) {\r\n            if (users[allUsers[i]].role == Role.User && !users[allUsers[i]].verified) {\r\n                count++;\r\n            }\r\n        }\r\n        address[] memory pending = new address[](count);\r\n        uint idx = 0;\r\n        for (uint i = 0; i < allUsers.length; i++) {\r\n            if (users[allUsers[i]].role == Role.User && !users[allUsers[i]].verified) {\r\n                pending[idx] = allUsers[i];\r\n                idx++;\r\n            }\r\n        }\r\n        return pending;\r\n    }\r\n}\r\n",
  "sourcePath": "C:\\Users\\Shalini Patel\\Desktop\\College\\Capstone Project\\property-ledger\\contracts\\UserRegistry.sol",
  "compiler": {
    "name": "solc",
    "version": "0.8.21+commit.d9974bed.Emscripten.clang"
  },
  "schemaVersion": "3.4.16",
  "updatedAt": "2025-10-14T21:04:49.889Z",
  "networkType": "ethereum",
  "devdoc": {
    "kind": "dev",
    "methods": {},
    "version": 1
  },
  "userdoc": {
    "kind": "user",
    "methods": {},
    "version": 1
  }
}